:100000000020002059020000610200006902000087
:10001000BD020000C502000019030000000000003E
:100020000000000000000000000000006D03000060
:1000300075030000000000007D030000951E000015
:100040009D0300009D0300009D0300009D03000030
:100050009D0300009D0300009D0300009D03000020
:100060009D0300009D030000000000009D030000B0
:100070009D0300009D0300009D0300009D03000000
:100080009D030000A11E00009D0300009D030000D1
:100090009D0300009D0300009D0300009D030000E0
:1000A0009D0300009D0300009D0300009D030000D0
:1000B0009D0300009D0300009D0300009D030000C0
:1000C0009D0300009D0300009D0300009D030000B0
:1000D0009D0300009D0300009D0300000000000040
:1000E00080B58EB000AF00F043FA494B494A1A6020
:1000F000494B484A1A60494B3B63494BFB62494BA9
:10010000BB62FB6A7B6207E07B6A1A1D7A623A6B0C
:10011000111D396312681A60BA6A7B6A9A42F3D871
:100120003B4B1B68404A934204D13B4B1B683F4A00
:10013000934200D0FEE73E4B364A1A603D4B354AAB
:100140001A603D4B3B623D4BFB613B6ABB6104E087
:10015000BB691A1DBA6100221A60FA69BB699A422A
:10016000F6D8334B1B68002B03D1324B1B68002B96
:1001700000D0FEE700F008FA3A1D3B46104619464B
:1001800000F060F92E4A2F4BD31A9B107B6100239D
:100190003B6107E02B4A3B6952F8233098473B69A3
:1001A00001333B617A693B699A42F3DC264A274B6B
:1001B000D31A9B107B6100233B6107E0234A3B6914
:1001C00052F8233098473B6901333B617A693B69B8
:1001D0009A42F3DC7A683B681046194601F086FEC5
:1001E00078631B4A1B4BD31A9B10FB60FB68BB60F8
:1001F00008E0BB68013B174A52F823309847BB68B8
:10020000013BBB60BB68002BF3DC786B00F0E0F8CF
:1002100000000020BABADECAAC000020587A000004
:1002200000000020B0000020785634123254769836
:10023000B0000020B0050020B0000020B405002070
:10024000CC030000CC030000CC030000CC03000072
:10025000CC030000CC03000080B500AFFFF740FFE7
:1002600080B400AF00BEFEE71EF0040F0CBFEFF33A
:100270000880EFF309807146454A104780B588B081
:1002800002AF786039600B4B5B6B7B61094B9B6BFA
:100290003B61084B9B6AFB60074800F039F93B68FB
:1002A00000937868F9687A693B6900F073F900BED9
:1002B000FEE700BF00ED00E04C75000080B400AF29
:1002C00000BEFEE71EF0040F0CBFEFF30880EFF353
:1002D000098071462F4A104780B588B002AF786018
:1002E00039600B4B5B6B7B61094B9B6B3B61084B34
:1002F0009B6AFB60074800F00BF93B680093786845
:10030000F9687A693B6900F045F900BEFEE700BF75
:1003100000ED00E05C7500001EF0040F0CBFEFF371
:100320000880EFF3098071461B4A104780B588B0FA
:1003300002AF786039600B4B5B6B7B61094B9B6B49
:100340003B61084B9B6AFB60074800F0E1F83B68A3
:1003500000937868F9687A693B6900F01BF900BE80
:10036000FEE700BF00ED00E06875000080B400AF5C
:1003700000BEFEE780B400AF00BEFEE780B400AF71
:1003800000BEFEE780B400AFBD465DF8047B704759
:100390007D020000D90200002D03000080B400AFF0
:0403A000FEE700BFB5
:1003A400587A000000000020B0000020587A0000B5
:1003B4000000001000000010B0000020B405002070
:0803C400000000100000001011
:1003D00080B483B000AF7860FEE700BF80B584B022
:1003E00000AF7860144B1B68002B02D1124B134AEC
:1003F0001A60114B1B68FB607B68033323F0030317
:100400007B600D4B1A687B6813440D4A934207D9F1
:1004100002F094FC02460C2313604FF0FF3306E019
:10042000054B1A687B681344034A1360FB6818463F
:100430001037BD4680BD00BFB4000020B4050020C9
:10044000001C002080B483B000AF786039607B6806
:1004500001221A603B68044A1A6000BF0C37BD468F
:100460005DF8047B704700BF0400002080B582B0B7
:1004700000AF786002F062FC0246582313604FF030
:10048000FF3318460837BD4680BD00BF80B582B037
:1004900000AF7860396002F051FC024658231360C7
:1004A0004FF0FF3318460837BD4680BD80B582B097
:1004B00000AF786002F042FC02465823136000232C
:1004C00018460837BD4680BD80B584B000AFF860DF
:1004D000B9607A6002F032FC0246582313604FF094
:1004E000FF3318461037BD4680BD00BF80B584B0CD
:1004F00000AFF860B9607A6002F020FC0246582331
:1005000013604FF0FF3318461037BD4680BD00BF63
:100510000FB480B582B000AF07F114033B600C4804
:1005200080213A693B6804F061FA78607B68002BAF
:1005300005DD7B680648194600F00CF878607B689A
:1005400018460837BD46BDE8804004B0704700BF7C
:10055000BC00002080B483B000AF786039604FF0F9
:10056000FF3318460C37BD465DF8047B704700BF6B
:1005700080B500AF00F018F9014B024A9A6080BDC7
:1005800000ED00E00000000080B500AF00F098F83A
:1005900080BD00BF80B584B000AFF860B9607A60FC
:1005A0003B603448FFF7B4FFFB681B6832481946CC
:1005B000FFF7AEFFFB685B6830481946FFF7A8FFFE
:1005C000FB689B682E481946FFF7A2FFFB68DB68B3
:1005D0002C481946FFF79CFFFB681B692A481946FF
:1005E000FFF796FFFB685B6928481946FFF790FF05
:1005F000FB689B6926481946FFF78AFFFB68DB69A1
:1006000024481946FFF784FF2348FFF781FF23485A
:10061000B968FFF77DFF224BDB6A22481946FFF7D6
:1006200077FF1F4B1B6B20481946FFF771FF1C4BD0
:10063000DB6B1E481946FFF76BFFBB6803F08003B6
:10064000002B03D01A487968FFF762FFBB6803F4F8
:100650000043002B03D017483968FFF759FF1648AD
:10066000FFF756FF1548B969FFF752FF1037BD462F
:1006700080BD00BF30740000407400005074000062
:1006800060740000707400008074000090740000BA
:10069000A0740000B0740000C0740000CC740000AE
:1006A00000ED00E0DC740000EC740000FC7400005D
:1006B0000C7500001C7500002C75000034750000DE
:1006C00080B483B000AF334B1B889BB203F0180398
:1006D000182B4BD801A252F823F000BF41070000AD
:1006E0006D0700006D0700006D0700006D0700003A
:1006F0006D0700006D0700006D070000590700003E
:100700006D0700006D0700006D0700006D07000019
:100710006D0700006D0700006D070000590700001D
:100720006D0700006D0700006D0700006D070000F9
:100730006D0700006D0700006D07000063070000F3
:10074000144BB3F844349BB203F00103124A22FA6B
:1007500003F3124A13600AE0104B4FF400421A6090
:1007600005E00F4B1B680D4A136000E000BF094B0A
:100770001B889BB203F007037B60084B1A687B68F9
:1007800022FA03F3074A13600C37BD465DF8047B79
:10079000704700BF002000400024F40050010020FA
:1007A000540100204C01002080B500AF094B00220D
:1007B0001A81094B00221A80074B0022A3F8442417
:1007C000054B00229A80044B00229A85FFF778FFA0
:1007D00080BD00BF802500400020004080B483B071
:1007E00000AF786039603B689AB27B681A80012359
:1007F00018460C37BD465DF8047B704780B483B063
:1008000000AF786039603B68DAB27B681A72012306
:1008100018460C37BD465DF8047B704780B487B03E
:1008200000AFF860B9607A60FB681B88FB82BB6828
:100830005B001A46032393409BB2DB439AB2FB8AC8
:1008400013409BB2FB82BB685B001A467B689340F7
:100850009AB2FB8A1344FB82FB68FA8A1A8001234E
:1008600018461C37BD465DF8047B704780B487B0DE
:1008700000AFF860B9607A60FB681B79DBB2FB827D
:10088000BB68012202FA03F39BB2C3F1FF039BB2E0
:100890009AB2FB8A13409BB2FB82BB687A6802FA69
:1008A00003F39AB2FB8A1344FB82FB8ADAB2FB6839
:1008B0001A71012318461C37BD465DF8047B70474A
:1008C00080B487B000AFF860B9607A60FB681B7ACB
:1008D000DBB2FB82BB68012202FA03F39BB2C3F1D5
:1008E000FF039BB29AB2FB8A13409BB2FB82BB68A8
:1008F0007A6802FA03F39AB2FB8A1344FB82FB8AFA
:10090000DAB2FB681A72012318461C37BD465DF83F
:10091000047B704780B483B000AF786039603B6877
:10092000DAB27B681A777B681B7FDBB218460C371C
:10093000BD465DF8047B704780B483B000AF78603B
:1009400039603B68DAB27B6883F820207B6893F8D3
:100950002030DBB218460C37BD465DF8047B70478B
:1009600080B487B000AFF860B9607A603B60BB6864
:100970007B617A697B6813437B617A693B681343C7
:100980007B617B699AB2FB681A82012318461C3787
:10099000BD465DF8047B704780B487B000AFF86057
:1009A000B9607A607B687B617A69BB6813437B615D
:1009B0007B699AB2FB689A81012318461C37BD46B1
:1009C0005DF8047B704700BF80B483B000AF7860EF
:1009D0007B681B79DBB218460C37BD465DF8047B9B
:1009E000704700BF80B483B000AF786039603B6867
:1009F000DAB27B681A72012318460C37BD465DF8DF
:100A0000047B704780B483B000AF78607B681B883C
:100A10009BB218460C37BD465DF8047B704700BF9B
:100A200080B485B000AFF860B9607A60BB68B3F598
:100A3000005F0FD1FB681B8A9BB243F400539AB24C
:100A4000FB681A82FB681B8A9BB223F400539AB29C
:100A5000FB681A827B68B3F5805F0FD1FB681B8A45
:100A60009BB243F480539AB2FB681A82FB681B8ADC
:100A70009BB223F480539AB2FB681A820123184672
:100A80001437BD465DF8047B704700BF80B487B063
:100A900000AFF860B9607A603B60414B9B889BB2C5
:100AA00003F460637B617B695B0A7B617B69072B75
:100AB0002AD801A252F823F0D90A0000DF0A000068
:100AC000E50A0000EB0A0000F10A0000F70A000046
:100AD000FD0A0000030B000001237B6115E00223E7
:100AE0007B6112E004237B610FE008237B610CE053
:100AF00010237B6109E020237B6106E040237B61BA
:100B000003E080237B6100E000BF254BB3F8443451
:100B10009BB203F00103002B02D07B695B007B6179
:100B20007B695B011F4AB2FBF3F2BB68B2FBF3F3D4
:100B30003B613B699AB2FB681A857B695B014FF4A4
:100B40000062B2FBF3F3174A02FB03F23B69B2FB0C
:100B5000F3F2BB68B2FBF3F39BB2A3F500639AB266
:100B6000114B13439AB2FB689A84FB6800221A71F6
:100B70003B68DBB203F03C03DAB27B68DBB203F024
:100B80000303DBB21343DAB2FB681A73FB681B7D05
:100B9000DBB218461C37BD465DF8047B704700BFCA
:100BA000002000400024F4000088FFFF80B483B0E0
:100BB00000AF786039607B681B7DDBB203F02003F7
:100BC000002B05D03B68DAB27B681A70012300E085
:100BD000002318460C37BD465DF8047B704700BF04
:100BE00080B485B000AFF860B9607A607B68002B94
:100BF00003D0BB68DAB2FB681A74FB681B7EDBB2F9
:100C000018461437BD465DF8047B704780B483B046
:100C100000AF786039603B68DAB27B681A710123F3
:100C200018460C37BD465DF8047B704780B483B02E
:100C300000AF78607B681B7ADBB218460C37BD4684
:100C40005DF8047B704700BF80B582B000AF78606C
:100C5000786801F0C9FA02460B46104619460EA301
:100C6000D3E9002301F03EFC02460B46104619462C
:100C70004FF000020A4B01F00BFB02460B461046F8
:100C8000194601F017FD03469BB218460837BD46CA
:100C900080BD00BFAFF30080000000000088D3409B
:100CA0000000904080B582B000AF0B4A3B1D128817
:100CB0001A8000233B7000237B703B1D18460221E5
:100CC000022200F037FF3B4618460221022200F0C4
:100CD00031FF0837BD4680BD7875000080B584B00F
:100CE00000AF03460A46FB711346BB80FB7903F055
:100CF0003C03DBB23B733A7BBB8803F440731B12AB
:100D0000DBB21343DBB23B73BB88DBB27B7307F10F
:100D10000C0318460221022200F00CFF1037BD46DA
:100D200080BD00BF80B582B000AF0123FB710420FD
:100D3000012100F023F8034603F00F03082B01D034
:100D40000023FB71FB7918460837BD4680BD00BF04
:100D500080B582B000AF084A3B1D106818603B1D8B
:100D600018460421002200F0E5FE0A2001F06CF88C
:100D70000837BD4680BD00BF7C7500002DE9F041FD
:100D800086B000AF064608463146F9710146B97192
:100D900069468846BE79314601393961F0B24FF073
:100DA0000001CD0045EA5075C400F0B24FF00001DB
:100DB000CB0043EA5073C20033460733DB08DB0045
:100DC000ADEB030D6B460033FB600023FB82FB7928
:100DD00003F00703DB00DBB243F04003DBB2DAB21F
:100DE000FB681A70FA68BB7910461946002200F0B9
:100DF0000FFFFB681B78FB82BB79012B17D90123FE
:100E00007B7510E0FA8A7B7DDB0002FA03F399B26E
:100E10007B7DFA68D35C9BB20A4613439BB2FB828C
:100E20007B7D01337B757A7DBB799A42EAD3FB8A5D
:100E3000C54618461837BD46BDE8F0812DE9F04398
:100E400087B000AF0346FB710B46BB801346BB71F6
:100E50006B461E46BB79591C4B1E3B610B461A461E
:100E60004FF000034FEAC30949EA52794FEAC2083A
:100E70000B461A464FF00003DD0045EA5275D400D8
:100E80000B460733DB08DB00ADEB030D6B4600338D
:100E9000FB60FB7903F00703DBB2DB00DAB2FB682F
:100EA0001A70BB79012B02D1FF23BB8202E04FF401
:100EB0007F43BB820123FB7517E0FB7DB988BA8AAB
:100EC0000A4092B21046B979FA7D8A1AD20040FAE5
:100ED00002F2D1B2FA68D154BA8AFB7DDB0042FA41
:100EE00003F3BB82FB7D0133FB75FA7DBB799A422C
:100EF000E3D9FA68BB790133DBB210461946002208
:100F000000F018FEB5461C37BD46BDE8F08300BFB3
:100F100080B584B000AF786001200221FFF72EFF7A
:100F20000346FB60FB6823F46043FB607B685B0364
:100F30009BB2FA681343FB60FB689BB20120194621
:100F40000222FFF77BFF1037BD4680BD80B584B01D
:100F500000AF786002200221FFF710FF0346FB601C
:100F6000FB6823F00703FB607B6803F00703FA6864
:100F70001343FB60FB689BB2022019460222FFF775
:100F80005DFF1037BD4680BD80B584B000AF03461D
:100F9000FB8002200221FFF7F1FE0346FB81FB8963
:100FA00023F4E063FB81FB8803F007031B029AB282
:100FB000FB8913439BB2FB81FB8902201946022265
:100FC000FFF73CFF1037BD4680BD00BF80B584B041
:100FD00000AF786001200221FFF7D0FE0346FB60DE
:100FE000FB6823F00F03FB607B6803F00F03FA68D4
:100FF0001343FB60FB689BB2012019460222FFF7F6
:101000001DFF1037BD4680BD80B584B000AF0346DC
:10101000FB710023FB6002200221FFF7AFFE0346B5
:10102000FB60FB6823F02003FB60FB7903F0010306
:101030005B011A46FB681343FB60FB689BB202200E
:1010400019460222FFF7FAFE1037BD4680BD00BFE9
:1010500080B584B000AF0346FB7102200221FFF788
:101060008DFE0346FB81FB79002B04D1FB8923F421
:101070008053FB8106E0FB79012B03D1FB8943F40C
:101080008053FB81FB89022019460222FFF7D6FE1E
:101090001037BD4680BD00BF80B584B000AF0346A9
:1010A0003960FB71FB7963F07F03FB73164B012200
:1010B0001A7016480821FFF73FFC012042F20A018E
:1010C0000222FFF7BBFE00BF00200121FFF756FE02
:1010D00003461A46FB7B1A40FB7B9A42F4D1C82098
:1010E00000F0B2FE03200221FFF748FE03461A4635
:1010F0003B681A8005480821FFF70CFC024B0022D0
:101100001A701037BD4680BDA00500200060004069
:1011100080B582B000AF084A3B1D106818603B1DC7
:1011200018460421012200F005FD012000F08CFE8C
:101130000837BD4680BD00BF807500002DE9F04135
:1011400086B000AF064608463146F9710146B971CE
:1011500069468846BE79314601393961F0B24FF0AF
:101160000001CD0045EA5075C400F0B24FF0000117
:10117000CB0043EA5073C20033460733DB08DB0081
:10118000ADEB030D6B460033FB600023FB82FB7964
:10119000DB00DBB243F04003DBB2DAB2FB681A706B
:1011A000FA68BB7910461946012200F031FDFB6850
:1011B0001B78FB82BB79012B17D901237B7510E0CB
:1011C000FA8A7B7DDB0002FA03F399B27B7DFA6831
:1011D000D35C9BB20A4613439BB2FB827B7D0133F7
:1011E0007B757A7DBB799A42EAD3FB8AC54618465D
:1011F0001837BD46BDE8F0812DE9F04387B000AF58
:101200000346FB710B46BB801346BB716B461E4603
:10121000BB79591C4B1E3B610B461A464FF000032D
:101220004FEAC30949EA52794FEAC2080B461A4607
:101230004FF00003DD0045EA5275D4000B4607333A
:10124000DB08DB00ADEB030D6B460033FB60FB7985
:10125000DB00DAB2FB681A70BB79012B02D1FF23E5
:10126000BB8202E04FF47F43BB820123FB7517E092
:10127000FB7DB988BA8A0A4092B21046B979FA7DE4
:101280008A1AD20040FA02F2D1B2FA68D154BA8A6C
:10129000FB7DDB0042FA03F3BB82FB7D0133FB7570
:1012A000FA7DBB799A42E3D9FA68BB790133DBB2A4
:1012B00010461946012200F03DFCB5461C37BD46DC
:1012C000BDE8F08380B582B000AF02200221FFF7B5
:1012D00035FF03467B807B881BB2002B17DA7B88A7
:1012E000A3F58033184600F06DFF02460B4610460A
:1012F00019464FF00002134B01F0F4F802460B467A
:101300001046194601F0F6F903467B6014E07B882D
:10131000184600F057FF02460B46104619464FF09C
:101320000002084B01F0DEF802460B461046194653
:1013300001F0E0F903467B607B6818460837BD463C
:1013400080BD00BF0000604080B500AF364802F0AD
:10135000E9FB0A2002F074FB344B1B68184600F0CE
:1013600043FF02460B46324802F052FB0A2002F0CD
:1013700067FB304B1B881A462E4B1B882E481146A4
:101380001A4602F045FB2D4B1B68184600F02CFF57
:1013900002460B462A4802F03BFB2A4B1B681846C4
:1013A00000F022FF02460B46274802F031FB254B96
:1013B0005B68184600F018FF02460B46234802F00F
:1013C00027FB0A2002F03CFB214B1B881A46204BCE
:1013D0001B88204811461A4602F01AFB1E4B1B6858
:1013E000184600F001FF02460B461C4802F010FBB5
:1013F0001B4B1B68184600F0F7FE02460B461948C7
:1014000002F006FB164B5B68184600F0EDFE024644
:101410000B46154802F0FCFA0A2002F011FB0A20E4
:1014200002F00EFB80BD00BFF07500006C010020D3
:1014300004760000880100201C7600006001002076
:10144000407600008C010020607600007C76000071
:1014500064010020A876000068010020CC7600001E
:1014600078010020EC7600000C770000B0B582B067
:1014700000AF03463960FB80FB88184600F0A2FEEF
:1014800002460B46104619464FF000021B4B01F076
:1014900029F802460B461046194601F02BF903467F
:1014A000184600F0A1FE02460B46104619464FF0C2
:1014B0000002134B00F038FD02460B4614461D4651
:1014C000104B1B78184600F07DFE02460B464FF08D
:1014D00033300D4901F006F802460B4620462946F6
:1014E00000F0D6FE02460B461046194601F002F9FE
:1014F00002463B681A600837BD46B0BD0000E040B8
:101500000000F03F700100203333F33F80B500AF9F
:101510001C4B00221A701C481C4900F0D7F80246E8
:101520001B4B1A601B481C4900F0D0F802461B4BAD
:101530001A60174B1A68194B1B681046194600F0C1
:10154000E7F8FFF7E5FD012090210122FFF754FEA7
:10155000FFF7FEFBFFF7E6FB0346002B0ED0002053
:10156000FFF776FD0120FFF7D3FC0020FFF70CFD0D
:101570000520FFF72BFD0120FFF746FD0122084B58
:101580001A7080BDA0050020B00FA13300007A447E
:1015900074010020A2E73B350000C8425C01002036
:1015A000700100200000000080B500AFFFF78AFE48
:1015B00002463D4B1A600020FFF7C8FC00203B4963
:1015C000FFF76AFD394B1B8818463949FFF74EFF74
:1015D000374B1A68374B1B681046194601F09CFAC6
:1015E0000346184600F000FE02460B461046194618
:1015F00029A3D3E9002300F075FF02460B461046ED
:10160000194601F077F802462B4B1A600120FFF7CC
:101610009DFC01202949FFF73FFD284B1B881846F8
:101620002749FFF723FF264B1A68264B1B681046F5
:10163000194601F071FA0346184600F0D5FD02463E
:101640000B461046194616A3D3E9002300F04AFFC3
:1016500002460B461046194601F04CF802461A4B5A
:101660001A60154B1A68104B1B6810461946002269
:1016700000F07EF80246104B5A60134B1A680A4B72
:101680001B6810461946012200F072F802460E4B04
:101690005A6080BDAFF3008077830DF4F521743E6E
:1016A00060196547F47CA73E6C010020880100208A
:1016B00060010020740100208C01002064010020E2
:1016C000680100205C0100207801002080B582B014
:1016D00000AF786039607868396801F069F90346CD
:1016E000184600F081FD02460B464FF033300749A3
:1016F00000F0F8FE02460B461046194600F0FAFFCD
:10170000034618460837BD4680BD00BF3333F33F5C
:1017100080B584B000AF786039607868FFF794FADC
:101720000346FB813868FFF78FFA0346BB811C2014
:101730000221FFF7D3FA1C200221FFF7CFFABB8961
:1017400004201946FFF7CAFAFB8904201946FFF75F
:10175000C5FA1C200021FFF7C1FA1C200021FFF769
:10176000BDFAFFF79FFAFFF79DFA1037BD4680BD1F
:1017700090B589B000AFF860B9601346FB71824B39
:10178000BB610123FB75F5E0FA7D804913465B00E0
:1017900013449B000B441B785BB2184601F0B4F86D
:1017A00003461846B96801F0BFFA0346002B00F063
:1017B000DE80FB7D5A1E754913465B0013449B0077
:1017C0000B441B785BB2184601F09EF8034618469E
:1017D000B96801F08BFA0346002B00F0C880FB7952
:1017E000012B5ED1FB7D5A1E684913465B001344F2
:1017F0009B000B441B785BB2184601F085F803464A
:10180000B868194600F0CAFF03461C46FA7D5F49D6
:1018100013465B0013449B000B4408331868FB7DA0
:101820005A1E5A4913465B0013449B000B4408336D
:101830001B68194600F0B2FF03462046194601F026
:10184000B7F803461C46FA7D504913465B00134423
:101850009B000B441B7859B2FB7D5A1E4B48134624
:101860005B0013449B0003441B785BB2CB1A184601
:1018700001F04AF803462046194601F04DF90346A7
:101880001846FB7D5A1E414913465B0013449B00DA
:101890000B4408331B68194600F082FF0346FB61C6
:1018A0005AE0FB7D5A1E394913465B0013449B00E6
:1018B0000B441B785BB2184601F026F80346B86863
:1018C000194600F06BFF03461C46FA7D2F4913466C
:1018D0005B0013449B000B445868FB7D5A1E2B4948
:1018E00013465B0013449B000B445B68194600F0F1
:1018F00055FF03462046194601F05AF803461C4698
:10190000FA7D224913465B0013449B000B441B786D
:1019100059B2FB7D5A1E1D4813465B0013449B00C1
:1019200003441B785BB2CB1A184600F0EDFF034668
:101930002046194601F0F0F803461846FB7D5A1E72
:10194000124913465B0013449B000B445B68194625
:1019500000F026FF0346FB61F868F96901F028F8FA
:10196000034618460A4901F0D7F80346BB61FB7DE0
:101970000133FB75FB7D082B7FF606AFBB6918466C
:101980002437BD4690BD00BF0080BB458475000074
:101990000000C84280B483B000AF0346FB71084921
:1019A00097F907305B09FA7902F01F02012000FA6B
:1019B00002F241F823200C37BD465DF8047B7047E6
:1019C00000E100E080B582B000AF78603960104877
:1019D00006210122FEF722FF0D4807210222FEF711
:1019E0001DFF7A683B680B4811461A460023FFF733
:1019F0004DF8084801210022FFF7F2F805480321BD
:101A0000FFF704F91120FFF7C5FF0837BD4680BD79
:101A1000006000400050004080B582B000AF034637
:101A2000FB71084B00221A7097F9073006481946D7
:101A3000FFF7BCF800BF034B1B78002BFBD0083727
:101A4000BD4680BD3C0100200050004080B586B0FE
:101A500000AFF860B9607A60BB687B6100233B61CE
:101A60000BE07B695A1C7A611B785BB21846FFF762
:101A7000D3FF3B69002B00D004E07B691B785BB28D
:101A80000A2BEED17B691B785BB20A2B05D10D20A6
:101A9000FFF7C2FF0A20FFF7BFFF3B691846183760
:101AA000BD4680BD80B500AF1F48F821FEF7A6FEF9
:101AB0001D481521FEF792FE1B4803210022FEF768
:101AC000FFFE194803210122FEF7D0FE1648082127
:101AD000FEF720FF154802210022FEF7F1FE134811
:101AE00002210122FEF7C2FE10480421FEF712FF78
:101AF0000E4804210022FEF7E3FE0C4804210122D7
:101B0000FEF7B4FE09481021FEF704FF084809213A
:101B10000022FEF741FF06484FF44041022240F602
:101B2000CD33FEF71DFF80BD0060004030600040F7
:101B30000044004080B584B000AF78600B46FB7075
:101B40001346BB700023FB73FB789BB21B02BB8167
:101B50002B4B1B78002B14D1BB78002B02D0012B10
:101B600005D009E027480821FEF7E6FE09E02648EF
:101B70000421FEF7E1FE04E023481021FEF7DCFE1D
:101B800000BF22484FF400514FF48052FEF748FF47
:101B90000023FB730AE0FB7B7A6813441B781B4825
:101BA0001946FEF71FFFFB7B0133FB73FA7BFB78C3
:101BB0009A42F0D300BF1548FEF724FF0246BB89C6
:101BC0001A40BB899A42F6D10D4B1B78002B14D1D9
:101BD000BB78002B02D0012B05D009E00948082171
:101BE000FEF798FE09E008480421FEF793FE04E0A2
:101BF00005481021FEF78EFE00BF1037BD4680BDA0
:101C0000A00500200060004030600040004400401B
:101C1000B0B584B000AF78600B46FB701346BB7064
:101C200000233B7200237B720023BB720023FB72F4
:101C30000023FB73FB789BB201339BB21B02BB8179
:101C40000023FB7317E0FB7B002B0AD1FB7BFA7BA5
:101C500079680A44127807F110010B4403F8082C44
:101C600006E0FB7B07F110021344AA2203F8082CBC
:101C7000FB7B0133FB73FA7BFB789A42E3D9404B41
:101C80001B78002B14D1BB78002B02D0012B05D080
:101C900009E03C480821FEF74FFE09E03A480421DC
:101CA000FEF74AFE04E038481021FEF745FE00BF6B
:101CB00036484FF400514FF48052FEF7B1FE002336
:101CC000FB730CE0FB7B07F11002134413F8083C94
:101CD0002E481946FEF786FEFB7B0133FB73FA7B29
:101CE000FB789A42EED900BF2848FEF78BFE0246E9
:101CF000BB891A40BB899A42F6D12448FEF764FE9C
:101D00000346DBB23B723A7A7B681A700023FB739E
:101D100016E0FB7B7A68D518FC7B1C48FEF754FE66
:101D20000346DAB207F11003234403F8082C07F145
:101D30001003234413F8083C2B70FB7B0133FB7327
:101D4000FA7BFB789A42E4D30D4B1B78002B14D11D
:101D5000BB78002B02D0012B05D009E009480821EF
:101D6000FEF7D8FD09E008480421FEF7D3FD04E0A2
:101D700005481021FEF7CEFD00BF1037BD46B0BDAF
:101D8000A00500200060004030600040004400409A
:101D900080B483B000AF03463960FB7197F9073018
:101DA000002B0BDA0D49FB7903F00F03043B3A6873
:101DB000D2B25201D2B20B441A7609E0084997F91F
:101DC00007303A68D2B25201D2B20B4483F80023F2
:101DD0000C37BD465DF8047B704700BF00ED00E0A6
:101DE00000E100E080B582B000AF78607B68013B25
:101DF000B3F1807F01D301230FE00A4A7B68013BE6
:101E000053604FF0FF300721FFF7C2FF054B002260
:101E10009A60044B07221A60002318460837BD4613
:101E200080BD00BF10E000E080B500AF044B1B6830
:101E3000044AA2FB03239B091846FFF7D3FF80BD8A
:101E40004C010020D34D621080B483B000AF7860A5
:101E5000064A7B68136000BF044B1B68002BFBD154
:101E60000C37BD465DF8047B704700BFAC05002011
:101E700080B400AF064B1B68002B04D0044B1B68DA
:101E8000013B034A1360BD465DF8047B704700BF09
:101E9000AC05002080B500AFFFF7EAFF80BD00BFB2
:101EA00080B582B000AF0023FB710D48FEF7BEFE87
:101EB0000346DBB2FB71FB79DBB203F00203002BBC
:101EC00002D0084B01221A70FB79DBB203F0040345
:101ED000002B02D0044B00221A700837BD4680BD8B
:101EE000005000403C0100203D01002080B582B040
:101EF00000AF78603960FFF7D5FD4FF4E130032182
:101F0000FFF760FDFFF790FFFFF700FB4FF4FA705B
:101F1000FFF79AFFFFF748FBFFF716FAF6E700BF57
:101F200081F0004102E000BF83F0004330B54FEA8A
:101F300041044FEA430594EA050F08BF90EA020FF7
:101F40001FBF54EA000C55EA020C7FEA645C7FEA8A
:101F5000655C00F0E2804FEA5454D4EB5555B8BFAD
:101F60006D420CDD2C4480EA020281EA030382EA1E
:101F7000000083EA010180EA020281EA0303362DB0
:101F800088BF30BD11F0004F4FEA01314FF4801C83
:101F90004CEA113102D0404261EB410113F0004F95
:101FA0004FEA03334CEA133302D0524263EB43034C
:101FB00094EA050F00F0A780A4F10104D5F1200EEA
:101FC0000DDB02FA0EFC22FA05F2801841F1000145
:101FD00003FA0EF2801843FA05F359410EE0A5F119
:101FE00020050EF1200E012A03FA0EFC28BF4CF04A
:101FF000020C43FA05F3C01851EBE37101F0004500
:1020000007D54FF0000EDCF1000C7EEB00006EEB0C
:102010000101B1F5801F1BD3B1F5001F0CD3490896
:102020005FEA30004FEA3C0C04F101044FEA4452ED
:1020300012F5800F80F09A80BCF1004F08BF5FEA74
:10204000500C50F1000041EB045141EA050130BD54
:102050005FEA4C0C404141EB010111F4801FA4F1F7
:102060000104E9D191F0000F04BF01460020B1FA4C
:1020700081F308BF2033A3F10B03B3F120020CDA84
:102080000C3208DD02F1140CC2F10C0201FA0CF062
:1020900021FA02F10CE002F11402D8BFC2F1200CC7
:1020A00001FA02F120FA0CFCDCBF41EA0C0190407D
:1020B000E41AA2BF01EB0451294330BD6FEA0404C6
:1020C0001F3C1CDA0C340EDC04F11404C4F12002B1
:1020D00020FA04F001FA02F340EA030021FA04F3C3
:1020E00045EA030130BDC4F10C04C4F1200220FA1A
:1020F00002F001FA04F340EA0300294630BD21FA58
:1021000004F0294630BD94F0000F83F4801306BF1D
:1021100081F480110134013D4EE77FEA645C18BF11
:102120007FEA655C29D094EA050F08BF90EA020FA8
:1021300005D054EA000C04BF1946104630BD91EAA0
:10214000030F1EBF0021002030BD5FEA545C05D1A3
:102150004000494128BF41F0004130BD14F58004E2
:102160003CBF01F5801130BD01F0004545F0FE4156
:1021700041F470014FF0000030BD7FEA645C1ABF8B
:10218000194610467FEA655C1CBF0B46024650EAC2
:10219000013406BF52EA033591EA030F41F40021EE
:1021A00030BD00BF90F0000F04BF0021704730B574
:1021B0004FF4806404F132044FF000054FF0000149
:1021C00050E700BF90F0000F04BF0021704730B50A
:1021D0004FF4806404F1320410F0004548BF4042DF
:1021E0004FF000013EE700BF42004FEAE2014FEA34
:1021F00031014FEA02701FBF12F07F4393F07F4F0F
:1022000081F06051704792F0000F14BF93F07F4F40
:10221000704730B54FF4607401F0004521F0004183
:1022200020E700BF50EA010208BF704730B54FF009
:1022300000050AE050EA010208BF704730B511F00E
:10224000004502D5404261EB41014FF4806404F146
:1022500032045FEA915C3FF4DCAE4FF003025FEAC8
:10226000DC0C18BF03325FEADC0C18BF033202EB50
:10227000DC02C2F1200300FA03FC20FA02F001FAAA
:1022800003FE40EA0E0021FA02F11444C1E600BF49
:1022900070B54FF0FF0C4CF4E06C1CEA11541DBFFC
:1022A0001CEA135594EA0C0F95EA0C0F00F0DEF8C7
:1022B0002C4481EA030621EA4C5123EA4C5350EAAC
:1022C000013518BF52EA033541F4801143F48013FD
:1022D00038D0A0FB02CE4FF00005E1FB02E506F08E
:1022E0000042E0FB03E54FF00006E1FB03569CF0E3
:1022F000000F18BF4EF0010EA4F1FF04B6F5007FE9
:1023000064F5407404D25FEA4E0E6D4146EB06065A
:1023100042EAC62141EA55514FEAC52040EA5E50E3
:102320004FEACE2EB4F1FD0C88BFBCF5E06F1ED88D
:10233000BEF1004F08BF5FEA500E50F1000041EBC4
:10234000045170BD06F0004646EA010140EA020071
:1023500081EA0301B4EB5C04C2BFD4EB0C0541EA93
:10236000045170BD41F480114FF0000E013C00F3A8
:10237000AB8014F1360FDEBF002001F0004170BDCC
:10238000C4F10004203C35DA0C341BDC04F11404E5
:10239000C4F1200500FA05F320FA04F001FA05F271
:1023A00040EA020001F0004221F0004110EBD3703E
:1023B00021FA04F642EB06015EEA430E08BF20EA6A
:1023C000D37070BDC4F10C04C4F1200500FA04F30D
:1023D00020FA05F001FA04F240EA020001F000419F
:1023E00010EBD37041F100015EEA430E08BF20EA12
:1023F000D37070BDC4F1200500FA05F24EEA020E5A
:1024000020FA04F301FA05F243EA020321FA04F088
:1024100001F0004121FA04F220EA020000EBD3703F
:102420005EEA430E08BF20EAD37070BD94F0000F3F
:102430000FD101F00046400041EB010111F4801F73
:1024400008BF013CF7D041EA060195F0000F18BF24
:10245000704703F00046520043EB030313F4801F60
:1024600008BF013DF7D043EA0603704794EA0C0F1A
:102470000CEA135518BF95EA0C0F0CD050EA410630
:1024800018BF52EA4306D1D181EA030101F00041AD
:102490004FF0000070BD50EA410606BF10461946D5
:1024A00052EA430619D094EA0C0F02D150EA0136E1
:1024B00013D195EA0C0F05D152EA03361CBF104622
:1024C00019460AD181EA030101F0004141F0FE41C1
:1024D00041F470014FF0000070BD41F0FE4141F445
:1024E000780170BD70B54FF0FF0C4CF4E06C1CEA45
:1024F00011541DBF1CEA135594EA0C0F95EA0C0FFA
:1025000000F0A7F8A4EB050481EA030E52EA0335B4
:102510004FEA013100F088804FEA03334FF08055D5
:1025200045EA131343EA12634FEA022245EA111502
:1025300045EA10654FEA00260EF000419D4208BFB3
:10254000964244F1FD0404F5407402D25B084FEA60
:102550003202B61A65EB03055B084FEA32024FF40C
:1025600080104FF4002CB6EB020E75EB030E22BF69
:10257000B61A754640EA0C005B084FEA3202B6EB29
:10258000020E75EB030E22BFB61A754640EA5C00D8
:102590005B084FEA3202B6EB020E75EB030E22BF68
:1025A000B61A754640EA9C005B084FEA3202B6EB69
:1025B000020E75EB030E22BFB61A754640EADC0028
:1025C00055EA060E18D04FEA051545EA16754FEA8A
:1025D00006164FEAC30343EA52734FEAC2025FEAA8
:1025E0001C1CC0D111F4801F0BD141EA00014FF037
:1025F00000004FF0004CB6E711F4801F04BF014308
:102600000020B4F1FD0C88BFBCF5E06F3FF6AFAE23
:10261000B5EB030C04BFB6EB020C5FEA500C50F1B3
:10262000000041EB045170BD0EF0004E4EEA113136
:1026300014EB5C04C2BFD4EB0C0541EA045170BD3D
:1026400041F480114FF0000E013C90E645EA060E81
:102650008DE60CEA135594EA0C0F08BF95EA0C0FAF
:102660003FF43BAF94EA0C0F0AD150EA01347FF4F7
:1026700034AF95EA0C0F7FF425AF104619462CE7CE
:1026800095EA0C0F06D152EA03353FF4FDAE104631
:10269000194622E750EA410618BF52EA43067FF482
:1026A000C5AE50EA41047FF40DAF52EA43057FF412
:1026B000EBAE12E74A0011D212F5001211D20DD57D
:1026C0006FF47873B3EB62520ED44FEAC12343F038
:1026D000004343EA505323FA02F070474FF00000E2
:1026E000704750EA013002D14FF0FF3070474FF091
:1026F000000070474FEA4102B2F1E04324BFB3F556
:10270000001CDCF1FE5C0DD901F0004C4FEAC00268
:102710004CEA5070B2F1004F40EB830008BF20F04C
:102720000100704711F0804F21D113F13872BCBF06
:1027300001F00040704741F480114FEA5252C2F15B
:102740001802C2F1200C10FA0CF320FA02F018BFA4
:1027500040F001004FEAC1234FEAD32303FA0CFCF7
:1027600040EA0C0023FA02F34FEA4303CCE77FEA86
:10277000625307D150EA01331EBF4FF0FE4040F4D0
:102780004000704701F0004040F0FE4040F400007F
:10279000704700BF80F0004002E000BF81F00041C0
:1027A00042001FBF5FEA410392EA030F7FEA226CF7
:1027B0007FEA236C6AD04FEA1262D2EB1363C1BF87
:1027C000D218414048404140B8BF5B42192B88BFF6
:1027D000704710F0004F40F4000020F07F4018BF19
:1027E000404211F0004F41F4000121F07F4118BF39
:1027F000494292EA030F3FD0A2F1010241FA03FCE1
:1028000010EB0C00C3F1200301FA03F100F00043C8
:1028100002D5494260EB4000B0F5000F13D3B0F190
:10282000807F06D340084FEA310102F10102FE2AFF
:1028300051D2B1F1004F40EBC25008BF20F001006F
:1028400040EA03007047490040EB000010F4000F1D
:10285000A2F10102EDD1B0FA80FCACF1080CB2EBB0
:102860000C0200FA0CF0AABF00EBC250524218430F
:10287000BCBFD0401843704792F0000F81F40001B4
:1028800006BF80F400000132013BB5E74FEA410387
:102890007FEA226C18BF7FEA236C21D092EA030FF3
:1028A00004D092F0000F08BF0846704790EA010F6D
:1028B0001CBF0020704712F07F4F04D1400028BF9A
:1028C00040F00040704712F100723CBF00F500007C
:1028D000704700F0004343F0FE4040F400007047B2
:1028E0007FEA226216BF08467FEA2363014642025E
:1028F00006BF5FEA412390EA010F40F48000704771
:102900004FF0000304E000BF10F0004348BF404216
:102910005FEA000C08BF704743F0964301464FF052
:1029200000001CE050EA010208BF70474FF00003AE
:102930000AE000BF50EA010208BF704711F00043EF
:1029400002D5404261EB41015FEA010C02BF8446BF
:102950000146002043F0B64308BFA3F18053A3F51E
:102960000003BCFA8CF2083AA3EBC25310DB01FA65
:1029700002FC634400FA02FCC2F12002BCF1004FE9
:1029800020FA02F243EB020008BF20F0010070477A
:1029900002F1200201FA02FCC2F1200250EA4C00CE
:1029A00021FA02F243EB020008BF20EADC70704714
:1029B0004FF0FF0C1CEAD0521EBF1CEAD15392EA22
:1029C0000C0F93EA0C0F6FD01A4480EA010C4002FE
:1029D00018BF5FEA41211ED04FF0006343EA501058
:1029E00043EA5111A0FB01310CF00040B1F5000F9A
:1029F0003EBF490041EAD3715B0040EA010062F149
:102A00007F02FD2A1DD8B3F1004F40EBC25008BF32
:102A100020F00100704790F0000F0CF0004C08BF50
:102A200049024CEA502040EA51207F3AC2BFD2F11D
:102A3000FF0340EAC250704740F400004FF000032B
:102A4000013A5DDC12F1190FDCBF00F00040704765
:102A5000C2F10002410021FA02F1C2F1200200FAA3
:102A600002FC5FEA310040F1000053EA4C0308BF6A
:102A700020EADC70704792F0000F00F0004C02BFBB
:102A8000400010F4000F013AF9D040EA0C0093F036
:102A9000000F01F0004C02BF490011F4000F013B90
:102AA000F9D041EA0C018FE70CEAD15392EA0C0FFE
:102AB00018BF93EA0C0F0AD030F0004C18BF31F069
:102AC000004CD8D180EA010000F00040704790F03F
:102AD000000F17BF90F0004F084691F0000F91F0E3
:102AE000004F14D092EA0C0F01D142020FD193EAA9
:102AF0000C0F03D14B0218BF084608D180EA010031
:102B000000F0004040F0FE4040F40000704740F00C
:102B1000FE4040F4400070474FF0FF0C1CEAD052DA
:102B20001EBF1CEAD15392EA0C0F93EA0C0F69D036
:102B3000A2EB030280EA010C49024FEA402037D0A1
:102B40004FF0805343EA111143EA10130CF0004098
:102B50008B4238BF5B0042F17D024FF4000C8B4288
:102B600024BF5B1A40EA0C00B3EB510F24BFA3EB68
:102B7000510340EA5C00B3EB910F24BFA3EB910338
:102B800040EA9C00B3EBD10F24BFA3EBD10340EA92
:102B9000DC001B0118BF5FEA1C1CE0D1FD2A3FF6D8
:102BA00050AF8B4240EBC25008BF20F0010070478D
:102BB0000CF0004C4CEA50207F32C2BFD2F1FF0330
:102BC00040EAC250704740F400004FF00003013A61
:102BD00037E792F0000F00F0004C02BF400010F405
:102BE000000F013AF9D040EA0C0093F0000F01F019
:102BF000004C02BF490011F4000F013BF9D041EA3B
:102C00000C0195E70CEAD15392EA0C0F08D142026D
:102C10007FF47DAF93EA0C0F7FF470AF084676E740
:102C200093EA0C0F04D14B023FF44CAF08466EE719
:102C300030F0004C18BF31F0004CCAD130F00042E7
:102C40007FF45CAF31F000437FF43CAF5FE700BF3F
:102C50004FF0FF3C06E000BF4FF0010C02E000BF68
:102C60004FF0010C4DF804CD4FEA40024FEA41030A
:102C70007FEA226C18BF7FEA236C11D001B052EAC0
:102C8000530C18BF90EA010F58BFB2EB030088BF86
:102C9000C81738BF6FEAE17018BF40F001007047F5
:102CA0007FEA226C02D15FEA402C05D17FEA236CD7
:102CB000E4D15FEA412CE1D05DF8040B704700BF1E
:102CC000844608466146FFE70FB5FFF7C9FF0028B5
:102CD00048BF10F1000F0FBD4DF808EDFFF7F4FFEE
:102CE0000CBF012000205DF808FB00BF4DF808ED87
:102CF000FFF7EAFF34BF012000205DF808FB00BFAA
:102D00004DF808EDFFF7E0FF94BF012000205DF8CB
:102D100008FB00BF4DF808EDFFF7D2FF94BF01207C
:102D200000205DF808FB00BF4DF808EDFFF7C8FF75
:102D300034BF012000205DF808FB00BF014B18687C
:102D4000704700BF6C00002010B5431E0A4491423A
:102D500004D011F8014B03F8014FF8E710BD03460A
:102D60000244934202D003F8011BFAE770472DE9B1
:102D7000F0471E4688B0149F002BB8BF06F10043F1
:102D8000129927F02007B6BF1E4600232D23462F99
:102D90001446109DDDF84CA00B7003D0452F03D1D5
:102DA000013501E0032300E002238DE8280406AB8F
:102DB000039307AB04932246334601F071FF472F7C
:102DC000804602D1119BDB0726D5462F08EB05096B
:102DD00011D198F80030302B0AD12046314600221C
:102DE000002304F0CBFA18B9C5F10105CAF8005068
:102DF000DAF800309944204631460022002304F0DE
:102E0000BDFA08B1CDF81C90079B4B4504D25A1C63
:102E1000079230221A70F7E74046079B159AC8EBD5
:102E20000303136008B0BDE8F087034673B50029BB
:102E3000B8BF494203F8022BB4BF2D222B22092927
:102E400042701ADD0DF1070426460A2291FBF2F5C5
:102E500002FB1511092D01F1300104F8011D29466D
:102E6000F3DC3031651E04F8011CB5421A460AD263
:102E700015F8012B03F8012BF7E71A4630242144FB
:102E800002F8024B5970101A02B070BD2DE9F04FD4
:102E900091B08B4615461E461A9F044603F03CF936
:102EA000D0F800A0504600F095FE00230E933B683A
:102EB0000990073323F0070303F108029BF81880F9
:102EC0003A60D3E90023CBE91223DBE9120100F0D9
:102ED00031FE0128DBE9120119D10022002304F0A0
:102EE00057FA10B12D238BF84330A04BA04FB8F107
:102EF000470F88BF1F460323CBF81030DBF80030A4
:102F000023F00403CBF800304FF00009A1E000F0FB
:102F100011FEDBF8003048B9964A974FB8F1470FD9
:102F200088BF17460322CBF81020E9E7DBF804201E
:102F3000DBE91201571CCDE90A0101D1062209E0A3
:102F4000B8F1670F02D0B8F1470F05D1002A40F061
:102F5000C7810122CBF80420DBF8042043F480630E
:102F60008DE80C00CBF800300DF1330302930DAB6C
:102F700003930EAB059300230693CDF81080DDE993
:102F80000A232046FFF7F3FE08F0DF03472B07462E
:102F90000AD10D9BD81C03DBDBF80420934237DDFC
:102FA000A8F102085FFA88F8B8F1650F0D9915D8F5
:102FB000013942460BF150000D91FFF736FF0E9A92
:102FC00081468318012ACBF8103003DCDBF800209F
:102FD000D10738D50133CBF8103034E0B8F1660FA3
:102FE00018D10029DBF8043009DDCBF810101BB92B
:102FF000DBF80020D20721D501330B441CE01BB9BC
:10300000DBF80020D00701D5023315E0012313E0DF
:103010004FF067080D9B0E9A934207DBDBF8002008
:10302000CBF81030D10709D5013305E0002BD4BF10
:10303000C3F1020301231344CBF810300D9B4FF072
:103040000009CBF858309DF8333013B12D238BF89D
:1030500043300096204659460FAA2B4600F05CF9F3
:10306000013002D14FF0FF3052E1DBF800305A0559
:1030700005D4204629463A46DBF8103008E1B8F17D
:10308000650F40F2D080DBE912010022002304F03A
:1030900075F950B320462946384A0123B04701301C
:1030A000E0D00E9B0D9A9A4209DBDBF80030D8077E
:1030B00005D4DBF800309F0700F1108107E12046BE
:1030C00029465246099BB0470130CBD000270E9BC2
:1030D000013B9F42EDDA204629460BF11A020123FB
:1030E000B0470130BED00137F1E70D9B002B29DC42
:1030F00020462946214A0123B0470130B2D00D9B1A
:103100002BB90E9B1BB9DBF80030D907D1D520466F
:1031100029465246099BB0470130A3D04FF0000822
:103120000D9B20465B429845294608DA0BF11A02AE
:103130000123B047013095D008F10108F0E73A4685
:103140000E9BA5E0DBF858200E9B9A42A8BF1A46BA
:10315000002A914602DC4FF000081CE02046294678
:103160003A464B46B0470130F5D17BE74477000043
:10317000407700004C77000048770000507700004F
:10318000204629460BF11A020123B04701303FF4D3
:1031900069AF08F10108DBF85830B9F1000FB4BF8E
:1031A0001A46C9EB03029045EADB07EB03080D9AC8
:1031B0000E9B9A4210DBDBF80030DA070CD40E9A33
:1031C0001744C8EB07030D9FD21B9342A8BF1346B9
:1031D000002B1F4608DC0EE0204629465246099B7C
:1031E000B0470130EBD13DE7204629464246B04783
:1031F00001303FF437AF4FF000080AE0204629467F
:103200000BF11A020123B04701303FF42BAF08F154
:1032100001080D9A0E9B002FA3EB0203A8BFDB1B36
:103220009845EBDB45E70E9A012A01DCDB0736D532
:10323000204629463A460123B04701303FF412AFF9
:10324000204629465246099BB04701303FF40AAF59
:10325000DBE912010022002304F090F8E8B90E9B8C
:10326000204629467A1C013B1DE0204629460BF1E9
:103270001A020123B04701303FF4F4AE01370E9B30
:10328000013B9F42F1DB204629464B460BF15002A1
:10329000B04701307FF40DAFE4E60027EFE72046AA
:1032A00029463A460123B0470130ECD1DAE6204600
:1032B00029460BF119020123B04701303FF4D2AE89
:1032C0000137DBF80C300F9A9B1A9F42EFDBDBF8DB
:1032D0000C000F9B9842B8BF184619E00027F0E792
:1032E00043F480638DE80C00CBF800300DF133031C
:1032F00002930DAB03930EAB059300230693CDF819
:1033000010802046DDE90A23FFF731FD074640E63D
:1033100011B0BDE8F08F00BF2DE9F84391461F467C
:103320008A680B6906469342B8BF1346C9F8003055
:1033300091F843200C46DDF8208012B10133C9F822
:1033400000302368990642BFD9F800300233C9F82B
:103350000030256815F006051CD094F8433022682B
:10336000003318BF012392061FD5E118302081F8E1
:1033700043005A1C94F845102244023382F843104B
:1033800013E03046394604F119020123C0470130E9
:1033900007D00135E368D9F800209B1A9D42F0DB85
:1033A000DBE74FF0FF30BDE8F8833046394604F1E3
:1033B0004302C0470130F4D02268D9F80050E368D6
:1033C00002F00602042A08BF5D1B2269A3680CBF35
:1033D00025EAE57500259342C4BF9B1AED184FF00E
:1033E0000009A9450ADA3046394604F11A020123D8
:1033F000C0470130D5D009F10109F2E70020BDE84E
:10340000F88300002DE9FF410C461746227E9846BE
:103410006E2A06460A9B01F1430100F0B08012D8E3
:10342000632A23D00AD8002A00F0BD80582A40F031
:10343000CC8084F84520DFF804E257E0642A1ED0EF
:10344000692A1CD0C1E0732A00F0B18009D86F2A24
:103450002ED0702A40F0B980226842F0200222600B
:103460003FE0752A24D0782A3BD0AEE01A6804F1F8
:103470004205111D1960136884F84230A9E02068E4
:103480001A6810F0800F02D0101D186008E010F0CC
:10349000400F02F10400186002D0B2F9003000E0E1
:1034A0001368002B3EDA2D225B4284F8432039E07A
:1034B00020681A6810F0800F02D0101D186007E015
:1034C00010F0400F02F10400186001D0138800E0F2
:1034D0001368227EDFF864E16F2A0CBF08220A22FB
:1034E0001CE07822DFF858E184F84520226818684B
:1034F00012F0800F00F104051D6003D1550601D5BF
:10350000038800E00368D00744BF42F02002226035
:103510001BB9226822F0200222601022002084F8C9
:10352000430002E0DFF814E10A226568002DA8BF1D
:103530002068A560A4BF20F00400206003B965B135
:103540000D46B3FBF2F002FB10331EF8033005F812
:10355000013D03460028F4D100E00D46082A0BD1B6
:103560002368DA0708D5236962689A42DEBF3023F0
:1035700005F8013C05F1FF35491B21612EE0256866
:103580001A6815F0800F606903D0151D1D6013685F
:1035900008E015F0400F02F104051D60136801D02A
:1035A000188000E01860002323610D4616E01A68B9
:1035B000111D1960156800212846626802F004FE9A
:1035C00008B1401B6060636804E004F1420584F8C0
:1035D000422001232361002384F84330CDF800808A
:1035E0003046214603AA3B46FFF796FE013002D142
:1035F0004FF0FF301FE0304639462A462369C04766
:103600000130F5D023689B0705D4E068039B9842FE
:10361000B8BF18460FE00025E368039A9B1A9D4245
:10362000F3DA3046394604F119020123C04701306C
:10363000DED00135F0E704B0BDE8F081527700003C
:10364000637700002DE9F04F99468B6815465A1EA6
:10365000B2F5AE7F82BF6FF4AE7203EB020C40F2A4
:103660005D130F4688BF8B600B684FF0000B43F46F
:10367000F06347F81C3B06460C46B8465A46DA4605
:1036800087B098BF4FF0000CCDF80CB0CDF808B063
:10369000CDF804B0A168002900F0EC802B681B78FD
:1036A000492B70D016D8392B0DD8312B40D22D2B69
:1036B00046D002D82B2B43D0DCE02E2B00F092809A
:1036C000302B23D0D6E0452B00F09580462B77D0C9
:1036D000412B0CE0652B00F08E800AD8542B75D05E
:1036E00002D84E2B34D0C5E0592B75D0612B46D073
:1036F000C0E06E2B2CD004D8662B61D0692B42D051
:10370000B8E0742B62D0792B66D0B3E0206810F457
:10371000807F0DD020F0800020600AF1010ABCF10A
:10372000000F00F08A8001310CF1FF3CA16084E0C1
:1037300012EB0B0F40F09E80216821F4C07105E070
:103740002168080640F1968021F08001216070E038
:103750006AB9BAF1000F0CD1216801F4E060B0F54C
:10376000E06F06D121F4F0612160012261E0022ABC
:103770005ED0BBF1010F1ED0BBF1040F1AE0012A8D
:1037800078D1022255E0BBF1000F0ED1BAF1000F43
:1037900073D1216801F4E060B0F5E06F71D121F4DC
:1037A000F06121604FF0010B43E0BBF1030F02D049
:1037B000BBF1050F5ED10BF1010B5FFA8BFB38E01B
:1037C000BBF1020F56D14FF0030B32E0BBF1060FF5
:1037D00050D14FF0070B2CE0BBF1070F4AD14FF04F
:1037E000080B26E02168880544D521F4207121606A
:1037F000CDF804A01DE0216801F4A060B0F5806F51
:1038000004D0480536D5BAF1000F3AD0880558BF24
:10381000019821F4F06158BFC0EB0A0041F4C07177
:103820005CBF0290CDF80C8021604FF0000A00E0F0
:10383000032288F8003008F10108A368013BA36067
:103840002369013323616B68013B002B6B6003DD4F
:103850002B6801332B601DE7D4F8803130462946B0
:103860000592CDF810C09847DDF810C0059A0028E1
:103870003FF410AFBAF1000F03D0236823F4807334
:103880002360013A012A0ED8B8450AD9D4F87C3110
:10389000304618F8011D2A4698472369013B2361E9
:1038A000F2E70125AEE00BF1FF33062B22D8BBF186
:1038B000020F12D9ABF1030B5FFA8BFBCBEB080BBA
:1038C000D84517D0D4F87C31304618F8011D2A4667
:1038D00098472369013B2361F2E7B845E1D9D4F861
:1038E0007C31304618F8011D2A4698472369013B70
:1038F0002361F2E72368DA052CD55B050CD5B845C2
:10390000CFD9D4F87C31304618F8011D2A469847A3
:103910002369013B2361F2E718F8011C236965293B
:1039200003F1FF3308F1FF3B23610DD045290BD094
:10393000D4F87C3130462A469847236918F8021C8F
:10394000013BA8F1020B2361D4F87C3130462A46B2
:103950009847D846256815F0100552D188F80050D0
:10396000236803F4C063B3F5806F05D1019BC3EBFB
:103970000A035A426BB916E0029BA3B1039B2A4685
:10398000591C30460A2300F081FF029BDDF80C80B1
:10399000C21A04F26F13984528BF04F5B778404661
:1039A0001A4900F0F3F830463946002200F050F989
:1039B0002268064612F0020F0F46D9F8003003D0F5
:1039C0001A1DC9F8002006E012F0040F03F10402EA
:1039D000C9F8002003D01B68C3E900670DE0D3F8E5
:1039E000008000F0A7F810B900F0CCF803E03046F2
:1039F0003946FEF77FFEC8F80000E3680133E36054
:103A000000E00025284607B0BDE8F08F747700007D
:103A10000FB40A4B13B51C6824B1A36913B920462F
:103A200001F0E6FF05AB2046A168049A019303F07C
:103A3000EBF902B0BDE8104004B070476C00002004
:103A400038B5084B05461C6824B1A36913B9204654
:103A500001F0CEFF20462946A268BDE8384003F0B9
:103A6000DBBA00BF6C00002070B50E46054618B1E9
:103A700083690BB901F0BCFFAC68A389190701D5B4
:103A8000236983B92846214601F014F858B14FF054
:103A9000FF3070BD002B0EDB236816F8012C1A7066
:103AA000236801332360A36816F8012B013BA36050
:103AB000002AEFD116E0A269934209DB236816F8C9
:103AC000012C1A70236819780A29EAD1284602E0E5
:103AD000284616F8011C224600F098FF421C50426E
:103AE0005041D3E7002B15DAA269934208DB236823
:103AF0000A221A702368197891420FD1284601E0F2
:103B000028460A21224600F081FF431C58425841B2
:103B100030B1BCE723680A221A702368013323609E
:103B20000A2070BD024B01461868FFF79DBF00BF19
:103B30006C00002031F0004310B51BD00F4AA1F5F6
:103B40008014944210D901F1FF410C4A01F5E001C3
:103B5000914209D9B3F5801F08D3094A934207D18E
:103B6000B0FA80F0400910BD042010BD032010BD44
:103B7000002010BD0028E6D1022010BDFFFFDF7F2E
:103B80000000F07F004870470000C07F0EB400B511
:103B90004FF402719CB0ADF814106FF00041049125
:103BA00007914FF6FF711DABADF81610084953F899
:103BB000042B02900690086802A9019303F00AF80A
:103BC000029B00221A701CB05DF804EB03B0704732
:103BD0006C000020034613F8012B002AFBD1181AB1
:103BE0000138704730B5036811F8014B01334CB10F
:103BF0001A78A2F14105192D98BF2032A242F3D0C4
:103C0000002030BD0360012030BD2DE9F0410F469A
:103C1000904602F0B3FD04460D46B8F1000F11D0F6
:103C2000C7F30A53C3F16B03002B0BDD1B0503F134
:103C30007F55002405F5401522462B46FEF728FB4C
:103C4000BDE8F08120462946BDE8F0810000000073
:103C50002DE9F04F00239FB01A9382460B46039143
:103C600015924FF000084FF000091993199B1A782C
:103C70000D2A05D8092A13D2002A00F0B78111E0D5
:103C80002B2A06D02D2A02D0202A0BD108E00122AF
:103C900000E0002209925A1C19925B7823B9A5E131
:103CA0000133E2E700230993199C2378302B5CD180
:103CB0006378582B01D0782B4CD11AAB0093099B19
:103CC0005046019319A9AE4A1BAB01F064FF10F0F6
:103CD0000706054600F0A585062E05D10134002310
:103CE0001994099300F09DBD1A9A3AB11CA8352188
:103CF00002F031FE50461A9902F0A9FA1B9A062EDC
:103D000021D8DFE806F0040D08171C0D04004FF061
:103D10000009C84617E0DDF87080DDF8749012E005
:103D20001D9B02F2334223F48013DDF8708043EAD6
:103D3000025908E0DFF84C924FF0000803E06FF002
:103D400000494FF0FF38290740F16B8549F00049E1
:103D500000F067BD199B5A1C19925B78302BF9D083
:103D6000002B00F05E85012300E000230026B3460F
:103D700035460493199B0793199C2778A7F13003C4
:103D8000DAB2092A0CD8082D4FF00A0204F1010416
:103D9000D4BF02FB0B3B02FB063601351994EBE75F
:103DA000504602F0B9F901685046059102F0B4F9A5
:103DB0000068FFF70FFF05990246204603F0BBF9A4
:103DC00028B100203B462C460246074657E00590A6
:103DD000504602F0A1F90068FFF7FCFE199B059917
:103DE0001A1819921B5C002D41D12846302B05D1A1
:103DF000199B01305A1C19925B78F7E7A3F1310245
:103E0000082A42D8199A0792024600200446303BFD
:103E100000F1010125D00A4421460719B94211D009
:103E2000013101F1FF3EBEF1080F04DC4FF00A0E34
:103E30000EFB0BFBF2E71029DCBF4FF00A0E0EFB66
:103E400006F6EBE72044082800F1010403DC0A2110
:103E500001FB0B3B04E0102CDCBF0A2101FB063602
:103E60000021199B581C19905B78084602E02C46EB
:103E700008460A46A3F130010929C8D90127652B54
:103E800001D0452B64D16CB904E0652B40F0D78498
:103E90000022012728B9049B002B00F0A7800446CC
:103EA00000E00024199B039301331993039B5B7873
:103EB0002B2B07D02D2B02D04FF0000C09E04FF038
:103EC000010C01E04FF0000C039B02331993039B9C
:103ED0009B78A3F13001092938D81946302904D13B
:103EE000199B591C19915978F8E7A1F1310EBEF1CF
:103EF000080F0B462CD8A1F130030593199B0693AC
:103F0000199B03F1010ECDF864E05B78A3F1300159
:103F1000092908D805994FF00A0E0EFB0131A1F1CD
:103F200030030593ECE70699C1EB0E0EBEF1080FC6
:103F300044F61F6E04DC05997145A8BF714600E088
:103F40007146BCF1000F04D0494202E00399199177
:103F50000021002C54D1002840F06384049A002AE8
:103F600040F05F84002F41D14E2B20D002DC492B42
:103F70000AD03BE0692B07D06E2B18D036E000BF8B
:103F8000B87700000000F07F19A8AA49FFF72AFEC1
:103F900060B3199B19A8013BA7491993FFF722FEAB
:103FA00010B9199B01331993DFF8A4921AE019A8EC
:103FB000A249FFF717FEC8B1199B1B78282B0FD118
:103FC00019A89F491CAA02F01DF8052808D11D9BBD
:103FD000DDF8708043F0FF4949F4E00900F021BCAE
:103FE000DFF870924FF0000800F01BBC039B1993A0
:103FF000159B002B00F020840023099300F013BCD4
:104000008B1A06932B46002D08BF23465846102CCA
:1040100025460393A8BF1025FEF7C4F8092D804656
:10402000894613DD874B03EBC50353E91223FEF7E3
:104030002FF9804630468946FEF7B4F802460B4613
:1040400040464946FDF772FF804689460F2C36DC14
:10405000069B002B00F0E58324DD162B07DC794A54
:1040600002EBC302D2E900014B46424615E0069A34
:10407000C4F125039A4222DC724DC4F10F0405EB12
:10408000C403D3E9000142464B46FEF701F9069B03
:104090001C1B05EBC405D5E90023FEF7F9F88046A3
:1040A0008946BEE3069B13F1160F08DB654A4046BE
:1040B000A2EBC30249460CCAFEF714FAEFE7069BCF
:1040C000651B1D44002D58DD15F00F020AD05D4B15
:1040D00003EBC203D3E9000142464B46FEF7D8F892
:1040E0008046894635F00F0500F0BA80B5F59A7F15
:1040F0000FDD4FF0000BCDF80CB0CDF81CB0CDF8B3
:1041000014B02223CAF80030DFF844914FF00008C1
:1041100083E14946DFF8409140464E462D11002785
:10412000012D0ADDEA0703D5D9E90023FEF7B0F82F
:1041300001376D1009F10809F2E78046A1F15479C1
:1041400006EBC7064246D6E900014B46FEF7A0F84B
:1041500021F0004389460A461B0D3B491B058B4253
:104160008046C6D8A1F580118B4286BFDFF8EC905F
:104170004FF0FF3802F1547972E071D06D4215F0C2
:104180000F020AD02F4B404603EBC2034946D3E946
:104190000023FEF7A7F9804689462D1160D01F2D18
:1041A00008DD4FF0000BCDF80CB0CDF81CB0CDF809
:1041B00014B02BE14046494615F0100F0CBF002308
:1041C0006A23224E0493002D08DDEB0703D5D6E9C0
:1041D0000023FEF75DF86D100836F4E7049B804677
:1041E0008946EBB1C1F30A53C3F16B03002B0A46B6
:1041F00016DD1F2B0EDD342BDEBF203B4FF0FF31D1
:1042000001FA03F34FF00008CCBF4FF05C7903EAEA
:10421000020905E04FF0FF3202FA03F303EA000857
:10422000404649460022002303F0A8F80028B8D1F0
:1042300018E000BF45770000D07800004D770000FF
:104240007C770000487900000000A07C9077000097
:104250000000F07F0000F8FF107A0000FFFFEF7F02
:1042600000230493CDF800B050460799039A2346E3
:1042700002F042F8079000283FF43BAF069A069BF5
:10428000002AC3F100034FF0000BA8BF00230E93D8
:10429000CDF80CB0079B5046596801F0A3FF05907C
:1042A00000283FF42EAF079B0C301A69079B02329F
:1042B00003F10C019200FEF747FD1BAB00931CAB12
:1042C0000193504642464B46CDE90A8902F0C9FAAD
:1042D0001A9000283FF415AF5046012102F099F8DA
:1042E000039000283FF40DAF069B049923EAE3777F
:1042F0001B9B1C9C002BAABF0E9AFA1AD618A3EB84
:10430000010323446FF47F71ACBF3A460E9E8B428B
:10431000C4F1360480F28680C91A1F29A4EB010477
:10432000C8BFB3494FF00100D5BF00FA01F3C91A65
:10433000149300FA01F3D9BF00230F930F93149045
:104340003519049BB54214441C442B46A8BF334680
:10435000A342A8BF2346002BC2BFED1AE41AF61AE7
:104360000E9B002B63D1002D7BDC002F40F083805F
:10437000002C00F38A80002E00F3918050461A9999
:10438000059A02F09CF9834600283FF4BAAEC36850
:104390000024C4600399089302F075F9A04280F2EA
:1043A0008D80089B002B40F01582B8F1000F40F083
:1043B0001182C9F31303002B40F00C8229F0004353
:1043C0001B0D1B05B3F1D66F40F20482DBF81430ED
:1043D000002B6ED059460122504602F001F9039994
:1043E000834602F050F9002840F3F48129F000439D
:1043F000049A1B0D1B05002A00F08F80B3F1D66FC5
:1044000000F38B80B3F15C7F00F3E68122234FF051
:1044100000084FF00009CAF80030079B002B40F05D
:10442000EC81FEE100230F930123149388E71A46E1
:104430005046039902F086F80390034600283FF4A3
:1044400060AE504619461A9A01F0ECFF0890002819
:104450003FF457AE50461A9901F0F9FE089B1A93A3
:1044600081E750461A992A4602F0BAF81A900028B5
:104470007FF47BAF45E6504605993A4602F062F874
:10448000059000287FF474AF3BE65046059922461C
:1044900002F0A6F8059000287FF46DAF31E6504693
:1044A0000399324602F09CF8039000287FF466AF2F
:1044B00027E6DBF81030012B8CDC8BE162D1089A07
:1044C000C9F3130322B34B494A468B422ED1049BB6
:1044D000414663B1484B1340B3F1D46F07D81B0D6D
:1044E000C3F16B034FF0FF3000FA03F301E04FF02C
:1044F000FF3399421AD1414B9A4202D101313FF424
:1045000000AE3D4B4FF00008134003F5801961E108
:1045100063B9B8F1000F09D168E7A3F580136FEA1A
:1045200013594FF0FF386FEA095953E10F9B13B14C
:1045300013EA090F02E0149B13EA080F00F04A8106
:10454000089B40464946049A53B1FFF75EFB02467A
:104550000B46DDE90A01FDF7E9FC8046894639E1B1
:10456000FFF753FB02460B46DDE90A01FDF7DCFCD1
:10457000002200238046894602F000FF00287FF4D5
:1045800045AF27E15846039902F0BDF900224FF0EC
:10459000804306460F4602F005FF00283FD0089BE7
:1045A00013B10026164F10E0B8F1000F03D1C9F384
:1045B00013033BB90BE0B8F1010F03D1B9F1000FC0
:1045C0003FF424AF0F4F002600240D4D3CE0304651
:1045D000394600220A4B02F0DBFEB8B930463946B4
:1045E0000022094BFDF754FE04460D4610E000BFC3
:1045F000E3FBFFFFFFFF0F000000F07FFFFFEF7FF7
:104600000000F03F0000F0BF0000E03F089C9A4D22
:1046100005F1004316941793DDE9166714E0964BF5
:10462000304639460022FDF733FE089B04460D460E
:1046300023B901F100431090119303E002460B46A9
:10464000CDE91023DDE9106729F0004C4FEA1C5C2E
:104650008A4B4FEA0C5C9C4531D1DDE90A23A9F174
:10466000547940464946CDF83CC0CDE90C2302F0D0
:1046700085F802460B4630463946FDF709FE0246EC
:104680000B4640464946FDF751FC21F000431B0D07
:104690007B4A1B0593428046DDF83CC00CD9794B20
:1046A0000D9A9A4203D10C9B01333FF42AADDFF8F7
:1046B000D4914FF0FF387CE001F1547944E0049B41
:1046C00063B3BCF1D46F29D863A3D3E90023204698
:1046D0002946CDF83CC002F065FEDDF83CC0C8B10B
:1046E00029462046FDF7E6FF002808BF0120FDF718
:1046F00059FD089B04460D46DDF83CC023B901F185
:1047000000431290139303E002460B46CDE91223B7
:10471000DDE9126707F1D663CCEB0307DDE90A0197
:10472000CDF83CC002F02AF802460B463046394626
:10473000FDF7AEFD02460B46DDE90A01FDF7F6FB8B
:1047400080468946DDF83CC0049B4E468BBB29F071
:1047500000431B0D1B059C452BD12946204602F02A
:104760003FFEFDF72FFD0B46024629462046FDF78A
:10477000DBFB089B04460D462BB9B8F1000F02D1B4
:10478000C9F313067EB136A3D3E900232046294698
:1047900002F0FEFD88BB34A3D3E90023204629465E
:1047A00002F014FE04E032A3D3E9002302F0F0FD8E
:1047B00018BB50461A9901F04AFD5046059901F080
:1047C00046FD5046039901F042FD5046594601F01E
:1047D0003EFD5FE5049B83B12B4B40460D930023C8
:1047E0000C934946DDE90C23FDF752FD80468946CE
:1047F00019B910B92223CAF8003050461A9901F0AD
:1048000026FD5046059901F022FD5046039901F01E
:104810001EFD5046079901F01AFD5046594601F019
:1048200016FD159B13B1199B159A1360099B1BB1BB
:10483000424609F1004307E042464B4604E00024AB
:1048400022460127FFF71DBB104619461FB0BDE8E1
:10485000F08F00BFAFF300800000C0FFFFFFDF411B
:104860009535A094FFFFDF3F35E5AF350000E03F11
:104870009535A094FFFFCF3F0000E03F0000E07FB0
:10488000FFFF9F7CFFFFEF7F000050392DE9F047CD
:104890000F46404CD4F800903D4615F801EB09EB6B
:1048A0000E04667806F0080404F0FF060CB12F46EB
:1048B000F2E774462D2C03D1BD1C7C78012603E061
:1048C0002B2C04BF7C78BD1C13B1102B0AD15AE0ED
:1048D000302C56D12C7804F0DF04582C4CD16C7855
:1048E00010230235002E14BF4FF000486FF000482F
:1048F000B8FBF3FA0027BE4603FB1A8809EB040C49
:104900009CF801C01CF0040F01D0303C0BE01CF0FF
:10491000030C1BD0BCF1010F0CBF4FF0370C4FF054
:10492000570CCCEB04049C4210DAB7F1FF3F0AD0DD
:10493000D64506D801D1444503DC03FB0E4E0127C2
:1049400001E04FF0FF3715F8014BD7E77C1C7346A9
:104950000AD1002E4FF0220114BF4FF000436FF038
:10496000004301602AB911E00EB1CEF100036AB133
:1049700007B1691E116009E03024002BB2D1082371
:10498000B0E70A23AEE7302CACD1A3E71846BDE868
:10499000F08700BF7000002030B5141E9BB00546A4
:1049A00004DA8B2303604FF0FF301CE04FF40272F7
:1049B000ADF80C200CBF224604F1FF3202920592A2
:1049C0004FF6FF7200910491ADF80E2069461A4629
:1049D0001E9B02F0FFF8431CBCBF8B232B6014B15D
:1049E000009B00221A701BB030BD000073B5064654
:1049F0000D4614460093044B314618682A46234658
:104A0000FFF7CAFF02B070BD6C00002070B50D4604
:104A10001446064618B183690BB900F0E9FF224B32
:104A20009C4201D1746808E0204B9C4201D1B468DB
:104A300003E01F4B9C4208BFF468A369A360A389ED
:104A40001A0709D523693BB123682069EDB2181A0A
:104A5000636998420FDB08E03046214600F02AF8EF
:104A60000028F1D04FF0FF3070BD3046214600F0F5
:104A700055FF0028F6D1A3680130013BA3602368ED
:104A80005A1C22601D706369984204D0A389DB0719
:104A900007D50A2D05D13046214600F03FFF0028FA
:104AA000E0D1284670BD00BFDC780000FC78000033
:104AB0001C790000314B70B51D6806460C4625B1C7
:104AC000AB6913B9284600F093FF2D4B9C4201D1EE
:104AD0006C6808E02B4B9C4201D1AC6803E02A4B88
:104AE0009C4208BFEC68A3899AB211071DD4D50671
:104AF00002D40922326038E0500712D5616B41B10F
:104B000004F14403994202D0304601F06FFF0023C4
:104B10006363A38923F02403A381002363602369D3
:104B20002360A38943F00803A38123694BB9A389B8
:104B300003F42073B3F5007F03D03046214601F023
:104B4000EFFAA38913F0010205D00022A260626986
:104B50005242A26103E0990758BF6269A2602269CC
:104B60004AB903F0800080B230B143F04003A38122
:104B70004FF0FF3070BD002070BD00BF6C00002002
:104B8000DC780000FC7800001C7900002DE9F74F6C
:104B900003690C698046A3427EDB013C01F11407E6
:104BA0004FEA840E00F1140606EB0E0357F824506A
:104BB000019356F824300135B3FBF5F507EB0E09E8
:104BC000BDB34FF0000A3846B446D34650F8043B14
:104BD0009AB21B0C02FB05A26B4303EB124392B289
:104BE000C2EB0B0BBCF800204FEA134A5A441FFAE1
:104BF00083FBDCF800304845CBEB134303EB224347
:104C000092B242EA03424FEA234B4CF8042BDDD91F
:104C100056F80E306BB9019B043BB3421A4602D8DA
:104C2000C8F8104005E01268043B002AF8D1013CA6
:104C3000F3E7404601F027FD00282BDB3046013525
:104C40004FF0000E57F8042B036891B2C1EB0E0E23
:104C5000120C99B27144C2EB134303EB214389B2A6
:104C60004FEA234E4F4541EA034340F8043BE9D95C
:104C700056F8242006EB840362B9043BB3421A467B
:104C800002D8C8F8104005E01268043B002AF8D1A9
:104C9000013CF3E7284600E0002003B0BDE8F08FB8
:104CA0002DE9F04F456A95B08246219CCDE902235B
:104CB00045B9102001F080FACAF8240045608560EB
:104CC0000560C560DAF82430196859B15A680123C3
:104CD00093404A608B60504601F0B9FADAF824300C
:104CE00000221A60039BA24A002BBDBF0123236050
:104CF000039B0023BCBF23F000430393039FA8BF83
:104D0000236027F000431B0D1B0593421DD142F287
:104D10000F73209A1360029B43B9964A964BC7F3D0
:104D20001300002814BF1846104600E09248229B4A
:104D3000002B00F06985C37813B100F1080300E08F
:104D4000C31C229A136000F05FBDDDE9024500221A
:104D500020462946002302F011FB804658B1209AD4
:104D600001231360229B002B00F03C8583481860D0
:104D7000013800F049BD13AB009312AB01935046CC
:104D800022462B4601F06DFDC7F30A5607905EB12F
:104D9000C5F3130343F07F51204641F44011A6F2BE
:104DA000FF36CDF844801DE0139B129E1E446FF425
:104DB00082639E42A1BF029A06F2124322FA03F0D6
:104DC0006F4BB7BF6F4B9B1B029A9B1BAABF9F40A9
:104DD00002FA03F03843FDF7E5F90123A1F1F87178
:104DE000013E11930022684BFDF79EF85AA3D3E9C8
:104DF0000023FDF74DFA5AA3D3E90023FDF796F8F7
:104E0000044630460D46FDF7DDF957A3D3E90023EC
:104E1000FDF73EFA02460B4620462946FDF786F886
:104E200004460D4602F0DCFA29468346002220465D
:104E3000002302F0ADFA58B15846FDF7C3F9024617
:104E40000B462046294602F099FA08B90BF1FF3BC0
:104E5000BBF1160F0DD84D4B03EBCB03D3E900018B
:104E6000DDE9022302F0B2FA30B10BF1FF3B00237F
:104E700000E00123109300E01090129B9E1B731E14
:104E80000A9345BF5B420993002300234CBF0A935A
:104E90000993BBF1000F07DB0A9BCDF834B05B44EC
:104EA0000A9300230B9308E0099BCBEB03030993C0
:104EB000CBF100030B9300230D931E9B092B29D8E4
:104EC000052BC4BF043B1E931E9BC8BF0025A3F146
:104ED0000203D8BF0125032B21D8DFE803F0020E1F
:104EE0000410002300E001230C931F9B002B20DC07
:104EF0000123069305931A4619E0002300E00123DD
:104F00000C931F9B5B4406930133012B0593B8BFA1
:104F1000012311E0012500231E930C9501E00123DC
:104F20000C934FF0FF3306930593002212231F9238
:104F300002E01F9B06930593DAF82440002262608A
:104F4000042101F114029A4222D862684900013218
:104F50006260F6E7AFF3008061436F63A787D23FDB
:104F6000B3C8608B288AC63FFB799F501344D33F58
:104F70000000F07FCD780000D67800005177000067
:104F80000EFCFFFFEEFBFFFF0000F83F487900003A
:104F90005046616801F026F9DAF8243020601B6879
:104FA0000893059B0E2B00F24781002D00F04481F1
:104FB000DDE90223BBF1000FCDE90E2331DDB14A5B
:104FC0000BF00F034FEA2B1602EBC303F006D3E9F5
:104FD00000450CD5DDE90E01AB4B06F00F06D3E919
:104FE0000823FDF77FFA0327CDE9020100E002273D
:104FF000DFF8948276B1F10708D5D8E9002320467E
:105000002946FDF745F904460D460137761008F1AB
:105010000808EFE7DDE9020122462B46FDF762FAB8
:105020001BE0CBF10004DCB1DDE90E01954B04F08F
:105030000F0203EBC203D3E90023FDF729F9924DD8
:10504000241102274CB1E20704D5D5E9002301372A
:10505000FDF71EF964100835F4E7CDE9020100E020
:105060000227109BDBB1DDE90245002220462946DC
:10507000864B02F08DF990B1059B83B1069B002B06
:1050800040F3D680294620460022814BFDF700F9E7
:105090000BF1FF36CDE902010137069D01E05E46C6
:1050A000059D3846DDE90289FDF78CF842464B46FE
:1050B000FDF7EEF8774B0022FCF738FFCDE902014F
:1050C000039BA3F150740394CDB940464946002296
:1050D000714BFCF729FF029A23468046894602F06D
:1050E00075F9002840F0408240464946029A04F192
:1050F000004302F04DF9002840F0308298E0614B07
:105100000C996A1E03EBC203002947D0D3E90023A0
:1051100000206249FDF7E6F9DDE90223FCF704FF10
:10512000CDE90201089C4946404602F059F907467C
:10513000FDF748F802460B4640464946FCF7F4FEA8
:10514000DDE90223303704F8017B8046894602F00E
:105150001FF9002840F0378342464B4600204B4958
:10516000FCF7E2FEDDE9022302F012F9002840F02C
:10517000D080089BE31AAB425ADADDE90201002233
:10518000434BFDF785F80022CDE90201404B404634
:105190004946FDF77DF880468946C4E7D3E900011A
:1051A000DDE90223FDF774F8089BCDE902015C19E3
:1051B0001D464946404602F013F90746FDF702F83E
:1051C00002460B4640464946FCF7AEFE303705F82E
:1051D000017BA5428046894623D100222F4BDDE981
:1051E0000201FCF7A3FE02460B464046494602F088
:1051F000EDF8002840F08D80DDE9022300202749EA
:10520000FCF792FE02460B464046494602F0C0F8C3
:1052100070B114F8013C621E302B40F0D482144669
:10522000F7E700221A4BFDF733F880468946C0E7BE
:10523000DDE90E23CDE90223139B002BC0F28A8007
:10524000BBF10E0F00F386800E4B03EBCB03D3E9CB
:1052500000671F9B002B23DA059B002B20DC40F00E
:105260007C81304600220C4B3946FDF711F8DDE910
:10527000022302F0A1F8059D2E46002840F06F8120
:1052800074E100BF48790000107A00000000F03F90
:105290000000244000001C40000014400000E03FDB
:1052A000089CDDE9028932463B4640464946FDF707
:1052B00019F902F095F80546FCF784FF32463B46A3
:1052C000FCF7E6FF0B46024649464046FCF72CFE3B
:1052D00005F1300E089B04F801EBC3EB040E059BAF
:1052E0009E452AD102460B46FCF720FE32463B463D
:1052F0008046894602F06AF870B94046494632460F
:105300003B4602F03BF8002800F05E82EB0703D436
:105310005AE2B34600E01C4614F8012C631E392AF9
:1053200007D1089A9342F6D13023137013460BF13C
:10533000010B1A7801321A7046E20022A34BFCF7E7
:10534000A7FF002200238046894602F017F80028B4
:10535000A9D039E20C9A002A32D01E9A012A0ADC1E
:10536000119A12B103F2334302E0129BC3F13603E8
:105370000B9D099C18E0059B5D1E0B9BAB42B7BFC4
:105380000B9B5D1BEA1A0D9BBEBF0B959B180D93E3
:10539000059BB8BF0025002BB9BF099B059A099C46
:1053A000059BBCBF9C1A0023099A50461A440992D7
:1053B0000A9A01211A440A9201F02BF8064602E0EB
:1053C0000B9D099C0C9E64B10A9B002B09DDA34236
:1053D000A8BF2346099AE41AD21A09920A9AD31A44
:1053E0000A930B9B002B20DD0C9BC3B1002D10DD1D
:1053F00031462A46504601F0A5F80646079A31463E
:10540000504601F00FF807460799504600F01FFF7D
:1054100007970B9B5A1B08D05046079902E050464D
:1054200007990B9A01F08EF807905046012100F081
:10543000F0FF0D9B0546002B0ADD29461A46504613
:1054400001F080F81E9B0546012B04DD00271BE0C0
:105450001E9B012B13DC029B8BB9039BC3F313032D
:105460007BB9039B23F000473F0D3F0557B1099BD4
:105470000127013309930A9B01330A9302E00027B5
:1054800000E0029F0D9B43B12B6905EB8303186974
:1054900000F072FFC0F1200000E001200A9B1844D8
:1054A00010F01F0008D0C0F12003042B02DDC0F172
:1054B0001C0002E008D018461C30099B0444034439
:1054C00009930A9B03440A93099B002B05DD504670
:1054D00007991A4601F084F807900A9B002B05DD16
:1054E000294650461A4601F07BF80546109BEBB161
:1054F0000798294601F0C7F8002817DA002350461C
:1055000007990A2200F0BAFE0C9B0BF1FF3B0790B3
:10551000002B00F06B813146002350460A2200F038
:10552000ADFE069B0646002B33DC68E1059B002B95
:1055300026DC1E9B022B23DD059B0693069B73B97D
:1055400029460522504600F099FE0546079829464F
:1055500001F099F8002809DC01E000252E461F9B88
:10556000089C6FEA030B08E0B3462E46089B089A96
:105570005C1C312313700BF1010BB14600260FE1C7
:105580000C9B23B9059B0693089F079CC9E0059BCC
:105590000693002C05DD31465046224601F020F8E6
:1055A0000646AFB17168504600F01CFE04463269F1
:1055B00006F10C01023292000C30FDF7C5FB50469B
:1055C0002146012201F00CF8814602E0000024404F
:1055D000B146089F079C29462046FFF7D7FA314677
:1055E000099000F13008204601F04DF84A46059038
:1055F0002946504601F063F8C26803463AB9194695
:105600002046079301F03FF8079B024600E0012285
:1056100050461946079200F01AFE079A92B91E9B4F
:1056200083B9029B03F0010363B9B8F1390F3B461C
:1056300007943ED0059B7C1C002BC4BF099B03F143
:1056400031083DE0059B002B04DA002AC44607948C
:1056500008DC21E024D11E9B13BB029B03F0010355
:10566000F3B9F2E72146012250460597CDF80880AC
:1056700000F0B6FF2946079001F005F80028DDF894
:1056800008C0059B03DC07D118F0010F04D0B8F166
:10569000390F0ED008F1010C7C1C87F800C07FE0A8
:1056A000002A07F101020EDDB8F1390F3B460794DD
:1056B00003D1392201371A7057E0144608F1010866
:1056C00087F800806CE0089B1746D31A02F8018C1B
:1056D000069A93423AD021460A220023504600F00F
:1056E000CDFD4E450446314650464FF00A024FF07C
:1056F000000304D100F0C2FD064681466BE700F0CE
:10570000BDFD494606460A225046002300F0B6FD7C
:10571000814660E7214650460A22002300F0AEFD94
:10572000044620462946FFF731FA089B00F130086D
:1057300007F8018B069AFB1A9342EBDB089BB146F4
:10574000012AACBF9B1801331F46002621460122C7
:10575000504600F045FF2946079000F094FF0028CE
:1057600003DC15D118F0010F12D03C4614F8013CAF
:10577000621E392B09D1089B9A4204D10BF1010B0F
:105780003123089A02E01446F0E70133137007E072
:105790003C4614F8013C621E302B01D11446F8E758
:1057A0005046294600F053FDB9F1000F0CD02EB140
:1057B0004E4503D05046314600F049FD504649461B
:1057C00000F045FD00E0B3465046079900F03FFD6C
:1057D0000023209A23700BF101031360229B1BB15D
:1057E0001C6001E00A480FE008980DE0069B002BC2
:1057F0003FF7CAAE1E9B022B3FF7A0AEC4E61E9B2E
:10580000022B3FF79BAEC4E615B0BDE8F08F00BF9A
:10581000507700008A892DE9F041054610070C46B3
:1058200057D44B68002B02DC0B6C002B18DDE66AAA
:10583000B6B102F48052002392B22F682B600AB1F5
:10584000626D10E0216A28460123B047411C0246E0
:1058500009D12B683BB11D2B01D0162B46D12F60EF
:105860000020BDE8F081A3895B0705D56368D21AE3
:10587000636B0BB1236CD21AE66A00232846216AB7
:10588000B047461CA38905D12A681AB11D2A01D048
:10589000162A19D1002262602269D904226004D537
:1058A000421C01D12B6803B96065616B2F60002930
:1058B000D6D004F14403994202D0284601F096F86C
:1058C00000206063BDE8F08143F04003A381BDE8A0
:1058D000F0810F69002FC3D093070E680CBF4B698E
:1058E0000023C7EB06080F608B6012E0A3894FF01E
:1058F000FF3043F04003A381BDE8F0812846216AD0
:105900003A464346A66AB0470028EFDD0744C0EB9D
:105910000808B8F1000FF1DCA2E7000038B50B6908
:1059200005460C46DBB118B183690BB900F060F88D
:105930000C4B9C4201D16C6808E00B4B9C4201D19E
:10594000AC6803E0094B9C4208BFEC68B4F90C302A
:105950002BB128462146BDE83840FFF75BBF002049
:1059600038BD00BFDC780000FC7800001C79000026
:10597000014900F0A7B800BF1D59000010B504464A
:10598000002303604360836081814366C2810361B9
:105990004361836119465C300822FDF7E0F9054B4D
:1059A00024626362044BA362044BE362044B2363EF
:1059B00010BD00BFB1700000D37000000B7100007B
:1059C0002F71000070B568234D1E5D430E4605F132
:1059D000740101F04FF8044640B1002180E8420014
:1059E0000C30A06005F16802FDF7B9F9204670BDE2
:1059F000836910B5044633BB8364C3640365124BEB
:105A0000124A1B688262984204BF0123836100F03E
:105A10001FF86060204600F01BF8A060204600F0F0
:105A200017F80421E06000226068FFF7A7FFA06874
:105A300009210122FFF7A2FFE06812210222FFF7ED
:105A40009DFF0123A36110BD3C7700007159000048
:105A5000F8B51B4B07461E68B36913B93046FFF70C
:105A6000C7FF4836B4687368013B04D4B4F90C50DE
:105A700075B16834F8E733682BB938460421FFF76D
:105A8000A1FF306008B13668ECE70C233B60F8BD3D
:105A90004FF6FF73E3810123A38165662560A5604E
:105AA000656025616561A56104F15C0029460822F5
:105AB000FDF755F96563A563A564E5642046F8BD67
:105AC0003C7700002DE9F8438046894600F1480400
:105AD000002694B1A5686768013F0CD4AB89012BFF
