:1000000000200020F5010000FD01000001020000B9
:10001000490200004D0200009502000000000000AF
:10002000000000000000000000000000DD020000F1
:10003000E102000000000000E5020000A12700002E
:10004000F9020000F9020000F9020000F9020000C4
:10005000F9020000F9020000F9020000F9020000B4
:10006000F9020000F902000000000000F90200009F
:10007000F9020000F9020000F9020000F902000094
:10008000F90200009D2800004D2900001D290000F4
:10009000F902000069290000F9020000F9020000DD
:1000A000F9020000F9020000F9020000F902000064
:1000B000F9020000F9020000F9020000F902000054
:1000C000F9020000F9020000F9020000F902000044
:1000D000F9020000F9020000F9020000000000002F
:1000E00000B583B000F08AF9304B314A1360314AD1
:1000F0001360314B314A03E0116819600433043254
:100100002F498B42F8D32A4B1A682E4B9A4204D1BE
:10011000284B1A682C4B9A4200D0FEE7234B2B4AFF
:1001200013602B4A13602B4B02E000221A60043349
:10013000294A9342F9D3254B1B6813B9244B1B68FA
:1001400003B1FEE700F066F901A8694600F010F976
:10015000224C234B1C1BA410002504E01F4B53F81A
:10016000253098470135AC42F8DC1E4C1E4B1C1B59
:10017000A410002504E01B4B53F8253098470135A7
:10018000AC42F8DC0198009902F00EFB0546174CD2
:10019000174B1C1BA41004E0013C144B53F82430F3
:1001A0009847002CF8DC284600F0BEF8BABADECA40
:1001B00000000020BC0400200000002068A3000014
:1001C000C00400207856341232547698C0040020BF
:1001D00044070020C004002048070020240300003A
:1001E0002403000024030000240300002403000073
:1001F0002403000008B5FFF773FF00BF00BEFEE751
:100200001EF0040F0CBFEFF30880EFF30980714676
:10021000364A10472DE9F04182B007468846084B20
:100220005D6B9C6B9E6A074800F0CAF8CDF80080B1
:10023000384631462A46234600F0F0F800BEFEE775
:1002400000ED00E0D48C000000BEFEE71EF0040FBD
:100250000CBFEFF30880EFF309807146244A104782
:100260002DE9F04182B007468846084B5D6B9C6BD8
:100270009E6A074800F0A4F8CDF800803846314661
:100280002A46234600F0CAF800BEFEE700ED00E073
:10029000E48C00001EF0040F0CBFEFF30880EFF3B6
:1002A00009807146134A10472DE9F04182B0074694
:1002B0008846084B5D6B9C6B9E6A074800F080F88F
:1002C000CDF80080384631462A46234600F0A6F88D
:1002D00000BEFEE700ED00E0F08C000000BEFEE78F
:1002E00000BEFEE700BEFEE77047000015020000FA
:0C02F00061020000A9020000FEE700BF50
:1002FC0068A3000000000020C004002068A30000D8
:10030C000000001000000010C0040020480700206E
:08031C000000001000000010B9
:10032800FEE700BF08B50D4B1B6813B90C4A0B4B11
:100338001A600A4B1A68C31C23F0030313440949C3
:100348008B4206D903F054FC0C2303604FF0FF30B6
:1003580008BD02490B60104608BD00BFC404002058
:1003680048070020001C002001230360014B0B609C
:10037800704700BF0400002008B503F039FC58237B
:1003880003604FF0FF3008BD08B503F031FC582377
:1003980003604FF0FF3008BD08B503F029FC58236F
:1003A8000360002008BD00BF08B503F021FC5823F6
:1003B80003604FF0FF3008BD0FB400B583B004AB45
:1003C80053F8042B01930848802105F03BFB011EDC
:1003D80003DD054800F00AF80146084603B05DF859
:1003E80004EB04B0704700BFCC0400204FF0FF308E
:1003F800704700BF08B500F0C1F8024B024A9A6086
:1004080008BD00BF00ED00E00000000008B500F0E6
:1004180079F808BDF8B504460D4617461E46264825
:10042800FFF7CAFF25482168FFF7C6FF244861681F
:10043800FFF7C2FF2348A168FFF7BEFF2248E16823
:10044800FFF7BAFF21482169FFF7B6FF2048616925
:10045800FFF7B2FF1F48A169FFF7AEFF1E48E16929
:10046800FFF7AAFF1D48FFF7A7FF1D482946FFF71A
:10047800A3FF1C4CE16A1C48FFF79EFF216B1B4839
:10048800FFF79AFFE16B1A48FFF796FF15F0800F08
:1004980003D018483946FFF78FFF15F4004F03D0F3
:1004A80015483146FFF788FF1448FFF785FF1448C1
:1004B8000699FFF781FFF8BDB88B0000C88B0000D4
:1004C800D88B0000E88B0000F88B0000088C000037
:1004D800188C0000288C0000388C0000488C000024
:1004E800548C000000ED00E0648C0000748C000067
:1004F800848C0000948C0000A48C0000B48C000054
:10050800BC8C0000184B1B8803F01803182B21D84B
:10051800DFE803F00D2020202020202017202020B5
:100528002020202017202020202020201C000E4BD7
:10053800B3F8442402F001020C4BD3400C4A136078
:1005480008E04FF400420A4B1A6003E0094B1A68AE
:10055800074B1A60044B1A8802F00702044B1B6809
:10056800D340054A13607047002000400024F4007F
:10057800C4050020C8050020C005002008B50023D8
:10058800054A1381A2F5B0621380A2F8443493801F
:100598009385FFF7B7FF08BD8025004010B4038896
:1005A8009BB2490003248C4023EA04038A401A447E
:1005B80092B2028001205DF8044B704730B40446C3
:1005C8000579012000FA01F3C3F1FF032B408A40AB
:1005D8001A44D2B2227130BC704700BF30B404460E
:1005E800057A012000FA01F3C3F1FF032B408A408A
:1005F8001A44D2B2227230BC704700BFC9B2017728
:10060800007F7047C9B280F8201090F8200070472A
:10061800012803D1034B188E80B27047014B187A1A
:10062800C0B2704700300040012803D1034B988DB9
:1006380080B27047014B988880B270470030004004
:100648000A4313439BB20382012070470A4392B2C4
:1006580082810120704700BF00797047C9B20172DA
:1006680001207047008880B2704700BFB1F5005F75
:100678000AD1038A9BB243F400530382038A23F40A
:1006880000531B041B0C0382B2F5805F0AD1038A56
:100698009BB243F480530382038A23F480531B04E0
:1006A8001B0C038201207047F0B4224CA488C4F3C9
:1006B8004224072C14D8DFE804F0120406080A0CB8
:1006C8000E1002240CE004240AE0082408E0102498
:1006D80006E0202404E0402402E0802400E0012415
:1006E800144DB5F8445415F0010F00D064006501AD
:1006F800114CB4FBF5F6B6FBF1F6B7B207854FF42B
:100708000067B7FBF5F504FB05F4B4FBF6F4B4FB9E
:10071800F1F1A1F5006141F4084189B28184002119
:10072800017103F03C0302F003021A430273007DD7
:10073800F0BC7047002000400024F400037D13F053
:10074800200F03D0C9B20170012070470020704704
:10075800007870470AB1C9B20174007E704700BFC3
:10076800C9B2017101207047007A7047074A084BE7
:100778001A600023074A1360074A137046F2A8124A
:10078800064B1A600122064B1A7070470C000020B5
:10079800DC050020D0050020CC050020D80500206D
:1007A800D405002000B583B0084A6B46106851682C
:1007B80003C301206946082201F000FFC82001F0A8
:1007C800D7FF082003B05DF804FB00BF008D0000D0
:1007D80030B583B000238DF800308DF801308DF8E6
:1007E80002308DF803308DF804308DF805308DF81F
:1007F80006308DF8073030B30446154B1D682B6A58
:1008080003F03F0343F0400302A901F8083DAA6A38
:1008180001320120D2B201F02DFF012001F0A8FF22
:1008280000232360012309E0216802AA1A4412F870
:10083800082C02EB012222600133DBB2A86A0130E6
:100848008342F1DB01E04FF0FF3003B030BD00BF61
:10085800DC05002010B4002316E00478144214BF0D
:1008680001240024B4EBD31F04D05B00DBB283F077
:10087800070301E05B00DBB2520800E08022002A97
:10088800EBD101300139C9B20029F7D118465DF81A
:10089800044B704770B584B00446394B1E7816B1C6
:1008A8008568023501E08568013500238DF8093037
:1008B8008DF80A308DF80B308DF80C308DF80D302E
:1008C8008DF80E308DF80F308DF800308DF801302E
:1008D8008DF802308DF803308DF804308DF805302E
:1008E8008DF806308DF80730236803F03F0343F096
:1008F80040038DF808301EB1A2680232D2B202E07D
:10090800A2680132D2B2012002A901F0B3FE01208F
:1009180001F02EFF012E19D1236803F03F0343F0A5
:1009280040038DF80030012307E004AA1A4412F8A6
:10093800081C02F8101C0133DBB2A1688A1C934220
:10094800F3DB6846D1B2FFF785FF06469EB9002360
:100958006360012309E0616804AA1A4412F8082CAC
:1009680002EB012262600133DBB2A26801329342DA
:10097800F1DB284601E06FF0010004B070BD00BF54
:10098800CC05002010B504460368062B08D0064B9A
:100998001B682BB1054B186800F018F8002802DB1B
:1009A8002046FFF777FF10BDD0050020D8050020AE
:1009B80038B50401044D28682044FFF7E3FF2B688D
:1009C8001C44606838BD00BFDC05002010B5044633
:1009D80000230EE00B4B18686030FFF7D3FF0028A8
:1009E8000FDB084B1B685B6E13F0400F0CBF012335
:1009F80000230BB9013CEDD10CB1002010BD6FF004
:100A0800020010BDDC05002038B5044600250CE0C6
:100A18000A4B1868FFF7B6FF00280EDB074B1B6868
:100A28005B6813F0900F00D101250DB9013CEFD19F
:100A38000CB1002038BD6FF0020038BDDC05002085
:100A480070B586B08DE80F00214B1E7816B115469B
:100A5800023501E0029D013500238DF811308DF833
:100A680012308DF813308DF814308DF815308DF85C
:100A780016308DF81730009A02F03F028DF81020DA
:100A8800019A07E0E41A06A90C4404F8082C12128B
:100A98000133DBB2029CA342F4DB46B1611C04A81B
:100AA800C9B2FFF7D7FE06AB234403F8070C16B10B
:100AB8000234E2B201E00134E2B2012004A901F0FB
:100AC8007DFD012001F054FE284606B070BD00BF30
:100AD800CC05002000B585B00DF1100E0EE90F0011
:100AE800084B1B682BB1084B1868FFF76FFF0028ED
:100AF80004DB04AB13E90F00FFF7A2FF05B05DF8B4
:100B080004FB00BFD0050020D805002008B5044B21
:100B18001B6803EB001041600FC8FFF7DBFF08BD3F
:100B2800DC050020044B1B685B6F13F0400F02D1FB
:100B38000022024B1A607047DC050020D005002017
:100B480038B5FFF713FE46F2A812114B1A60FFF7EB
:100B580029FE051E1ADB01220E4B1A60002411E043
:100B68000D4B1B6803EB0413DA68012A04D10FCB81
:100B7800FFF7B0FF051E09DB072C01D1FFF7D2FFF5
:100B88000134E4B2282C01D8002DE9DA284638BD12
:100B9800D8050020D0050020DC05002000B583B072
:100BA800064B1868019001A8042101F06DFC0A2089
:100BB80001F0DEFD03B05DF804FB00BF088D000006
:100BC80070B504460D46084603F018F8064604F0CA
:100BD8000704E40044F040040470294601F08AFC4C
:100BE8003478012D08D80AE0DA009440F25C144306
:100BF800A4B20133DBB200E00123AB42F4D33046A8
:100C080003F004F8204670BD08B504200121FFF761
:100C1800D7FF00F00F00082801D1012008BD0020EF
:100C280008BD00BF2DE9F04180460F461446164620
:100C3800501C02F0E3FF054608F007084FEAC80811
:100C480080F80080012C01D1FF2201E04FF47F429F
:100C580001230AE007EA0201F01AC0000141E95441
:100C6800D9000A4192B20133DBB2A342F2D9611C26
:100C78002846C9B201F008FC284602F0C7FFBDE8C3
:100C8800F08100BF10B5044601200221FFF798FF4C
:100C98006403A4B2C0F30C01012021430222FFF730
:100CA800C1FF10BD10B5044602200146FFF788FFBA
:100CB80020F0070004F007010143022089B2024630
:100CC800FFF7B0FF10BD00BF10B504460220014673
:100CD800FFF776FF20F4E06083B204F007010220FA
:100CE80043EA01210246FFF79DFF10BD10B50446F7
:100CF80001200221FFF764FF20F00F0004F00F012C
:100D08000143012089B20222FFF78CFF10BD00BF0A
:100D180010B5044602200146FFF752FF20F02000DC
:100D280004F0010140EA4111022089B20246FFF7AE
:100D380079FF10BD10B5044602200146FFF740FFB9
:100D480001461CB920F4805189B204E0012C02D17B
:100D580040F4805189B202200246FFF763FF10BDBC
:100D6800014B1860704700BF54050020014B5860C4
:100D7800704700BF54050020014B9860704700BFC2
:100D88005405002008B510B1012807D00AE0012257
:100D9800064B1A70064803F0BFFE08BD0222034B3B
:100DA8001A7008BD0022014B1A7008BD64050020A6
:100DB8000C8D000008B5074B1B7833B9064B18603B
:100DC80080B2002101F016FB08BD044803F0A4FE20
:100DD80008BD00BF6405002050050020248D0000D8
:100DE80008B5074B1B7833B9064B186080B2012150
:100DF80001F000FB08BD044803F08EFE08BD00BFEB
:100E0800640500204C050020248D000008B5074B20
:100E18001B7833B9064B186080B2022101F0EAFA58
:100E280008BD044803F078FE08BD00BF6405002033
:100E380060050020248D000008B50020014601F05F
:100E4800D9FA0020022101F0D5FA0020012101F091
:100E5800D1FA08BD08B5FFF7A1FEFFF7D5FE70B1BE
:100E68000120FFF767FF0120FFF70CFF0020FFF7C5
:100E78002BFF0520FFF73AFF0120FFF749FF01226A
:100E8800014B1A7008BD00BFF005002070B50E4672
:100E980040F080040125114B1D7011480821FFF70F
:100EA800B1FB284642F20A010222FFF7BBFE0020EE
:100EB8000121FFF785FE20408442F8D1C82001F0C7
:100EC80057FC03200221FFF77BFE308004480821ED
:100ED800FFF794FB0022014B1A7070BDB00500208B
:100EE8000060004010B50446FFF7DCFE0120022137
:100EF800FFF766FEC0F30C01012041F440410222D5
:100F0800FFF790FE00200121FFF75AFE204084429F
:100F1800F8D1064803F000FE01200221FFF750FE39
:100F280000F46040B0F5804FF6D110BD5C8D000034
:100F380038B5194803F0F0FD0A2003F07BFD0024C2
:100F48001DE00022154B1A702546154B53F8242036
:100F58001448114603F056FD104B1B78002BFBD0AC
:100F6800114803F0D9FD114B585DFFF7BBFF10483E
:100F780003F0D2FD0A2003F05DFD0134E4B2022C37
:100F8800DFD90022054B1A700A4803F0C5FD0A2074
:100F980003F050FD38BD00BF688D00003A06002000
:100FA800988E00007C8D0000CC8D0000588D0000CC
:100FB800DC8D0000F48D000038B50C4601F0ACFF64
:100FC8000DA3D3E9002302F00DF802F0C5FA054697
:100FD8000D4B187801F0A0FF09A3D3E9002302F014
:100FE80001F802F0B9FA0146284602F0C7FC206071
:100FF80038BD00BFAFF3008000000000009CA8408F
:1010080000000000E0FFEF40F005002038B514466E
:10101800054B53F82050084602F0A8FB294602F079
:10102800F9FB206038BD00BFA88E000038B5054622
:1010380014460846044902F0EDFB044B53F825100A
:1010480002F09CFC206038BD0000C8428C8E000075
:101058002DE9F0410746884600230B60002102F085
:1010680095FD18B10126C8F8006000E000260024AC
:101078000A4D0EE03846294602F07EFD10B1731C79
:10108800C8F800302846054902F0BCFA0546013682
:101098000134132CEEDDBDE8F08100BF0000A04054
:1010A8002DE9F041002529E0164B5C5D2846FFF745
:1010B800F9FD154F284607EB4401FFF7E7FEA600A8
:1010C80037F8140011493144FFF776FFDFF84880FC
:1010D800204637F8141008EB0602FFF797FF0C4F6D
:1010E800204658F82410BA19FFF7A0FF57F8240033
:1010F80008493144FFF7ACFF0135EDB2022DD3D9D1
:10110800BDE8F081588D0000F40500208805002016
:1011180070050020E40500207C05002070B582B031
:1011280000262BE035463448344B53F8261003F09C
:1011380069FC002407E03248324B595DDB2203F09A
:1011480061FC0134E4B2304B53F825309C42F2DBA9
:10115800002404E0202003F06DFC0134E4B22A4BA3
:1011680053F82530C3F115039C42F3DB5D2003F0EF
:1011780061FC092003F05EFC0136F6B2022ED1D9DB
:101188000A2003F057FC092003F054FC00240BE06C
:101198001E4B53F8240001F0D1FE02460B461C48B2
:1011A80003F030FC0134E4B2022CF1D90A2003F038
:1011B80041FC092003F03EFC00240DE0154B53F8D8
:1011C800240001F0BBFE02460B462521009112487F
:1011D80003F018FC0134E4B2022CEFD90A2003F022
:1011E80029FC002404E00A2003F024FC0134E4B2C2
:1011F800022CF8D902B070BD188E0000988E00003D
:10120800288E0000A48E0000E40500207C05002044
:10121800388E000070050020588E000008B50022A6
:10122800094B1A60094B4FF081421A60084A5A600C
:10123800084A9A60084ADA600023084A1370084A84
:101248001370FFF77DFC08BD0C0600202006002067
:10125800529A2D3E00002041AF5A09BE10060020C8
:101268000806002010B5FFF7D9FF2B4C20460221B5
:101278000022FFF7B3F9204602210122FFF79EF969
:1012880020460421FFF7BEF9192040F6EC11FFF7BC
:101298003DFC052001F06CFA1A204FF41E61FFF79F
:1012A80035FC052001F064FA09204FF49571FFF729
:1012B8002DFC052001F05CFA0A2041F2C701FFF776
:1012C80025FC052001F054FA0B2041F21311FFF719
:1012D8001DFC052001F04CFA03201049FFF716FC0D
:1012E800052001F045FA04208021FFF70FFC0520B6
:1012F80001F03EFA0120FFF75BFB4FF6C371014096
:10130800012041F4806141F00401FFF7FFFB052053
:1013180001F02EFA10BD00BF30600040CB2406005B
:1013280008B5012040F28451FFF7F0FB012001F0DD
:101338001FFA08BD38B5054600F1090404F0FF049A
:101348002046FFF735FB012D04D00146022D04D0BD
:1013580045B905E041F2C70104E041F2131101E08B
:101368004FF495712046FFF7D1FB052001F000FAF4
:1013780038BD00BF38B5054600F1090404F0FF0484
:101388002046FFF715FB012D04D00146022D04D09D
:1013980045B905E049F2C70104E049F2131101E03B
:1013A80048F22A112046FFF7B1FB052001F0E0F9C9
:1013B80038BD00BF30B583B00546FFF7DBFF012419
:1013C800134B1C7013481021FFF71CF9204601F03D
:1013D800CFF9FFF7A5FF42F21070FFF715FB10F1E8
:1013E800030F02D10C4803F097FB01A8FFF7F0F9AF
:1013F8000022074B1A7007481021FFF7FFF8012059
:1014080001F0B6F92846FFF795FF019803B030BD03
:10141800B005002000600040249700000000000094
:1014280038B50020FFF7C6FF374B1860A0F500005D
:1014380002F09CF901F082FD27A3D3E9002301F013
:10144800D1FD00224FF0795301F0CCFD02F084F871
:1014580004462E4902F07CFB90B1204601F06EFD57
:1014680000222B4B01F0E8FE00222A4B01F006FC7B
:101478001BA3D3E9002301F0DFFE02F06DF838BDAD
:10148800204601F05BFD0022214B01F0D5FE02460B
:101498000B4600201F4901F0F1FB13A3D3E90023F9
:1014A80001F0A0FD04460D462046294610A3D3E9C5
:1014B800002301F0E5FB01F093FA0FA3D3E9002321
:1014C80001F0DCFB0EA3D3E9002301F0B5FE02F026
:1014D80043F838BDAFF30080000000000088B34037
:1014E800D200DE02098A6F3F88CE19EEAF60C33E94
:1014F800D828C9DF4C04F03E1C64ED4A2602703F30
:1015080088CE19EEAF60B3BE140600200000C842B2
:10151800000059400000F03F38B504460D4603204E
:10152800FFF746FA25B14FF48011A140014304E0CA
:101538004FF48011A14020EA01010320FFF7E6FAE9
:10154800012001F015F938BD70B50E46154620F09A
:101558007F4002F007F90A4902F010FA4FF07E5175
:1015680002F04EF80446304602F000F901462846DB
:1015780002F004FA0146204602F04CF970BD00BFA3
:10158800FEFFFF4A000000002DE9F041044601205B
:101598000146FFF7C1FF0120FFF70CFF384B5860E9
:1015A8000121384AFFF7D0FF0546374B1860374B03
:1015B8001B7853B301F0C2FC29A3D3E9002301F03F
:1015C8005DFB06460F46204601F0B8FC26A3D3E98A
:1015D800002301F055FB26A3D3E9002301F002FD07
:1015E80025A3D3E9002301F027FE02460B46304627
:1015F800394601F021FE02460B460020244901F03D
:101608003DFB01F0A9FF044620E0224CA6683046C5
:10161800216801F0F5FF8046E7683846616801F007
:10162800EFFF0146404602F0A9F90446284639462C
:1016380001F0E6FF184B196801F0E4FF214602F0BB
:10164800E9F80146304601F0DDFF0446012000219B
:10165800FFF762FF2046BDE8F08100BFAFF30080CE
:10166800FA7E6ABC7493683F9A9999999911714066
:1016780037DE1D19AB25334000000000508EF740BF
:101688001406002033335340980500209C030020A3
:1016980000001C40200600200C060020000000006E
:1016A80070B5594D28460421FEF7A8FF02200121F4
:1016B800FFF732FF4FF4C87001F05AF80220FFF725
:1016C80079FE0446514B986028460421FEF79AFF9C
:1016D800204601214E4AFFF737FF06464D4B58601A
:1016E80001F02CFC04460D4639A3D3E9002301F090
:1016F800F5FE48B13046484902F08CF84FF07E516B
:1017080001F07EFF044651E02046294630A3D3E984
:10171800002301F0F7FE80B1204629462EA3D3E925
:10172800002301F0DBFE40B130463C4902F072F87C
:101738003B4901F065FF044638E02046294626A3C8
:10174800D3E9002301F0DEFEB8B12046294624A3E0
:10175800D3E9002301F0C2FE78B12046294622A32E
:10176800D3E9002301F03EFC21A3D3E9002301F0D3
:1017780085FA01F0F1FE044618E02046294618A330
:10178800D3E9002301F0BEFE78B1204629461AA30A
:10179800D3E9002301F026FC19A3D3E9002301F0C3
:1017A8006DFA01F0D9FE044600E0002420461D49E8
:1017B80002F0ECF900B11B4C2046002102F0C8F9F8
:1017C80000B1002402200021FFF7A6FE204670BDCC
:1017D8009A9999999999F13FCDCCCCCCCCCCF43F3E
:1017E8001F85EB51B81EFD3F0AD7A3703D0A48403C
:1017F8000000000000C0474052B81E85EB513A4037
:101808008FC2F5285C8F1F4030600040140600200E
:101818003333534098050020000020410000C841A0
:1018280000008C410000C84208B501200146FFF7BE
:1018380073FE0120FFF7BEFD01210A4AFFF784FE6F
:10184800094B186001F07AFB02460B46074803F083
:10185800D9F80A2003F0EEF801200021FFF75CFE1A
:1018680008BD00BF333353400C0600202C970000FE
:1018780010B50A4803F050F9002409E004EB84038A
:101888009B0007482146074A1A4403F0BBF8013475
:101898000E2CF3DD0A2003F0CDF810BD44970000AC
:1018A80080970000F8950000F0B583B00546012048
:1018B8000146FFF731FE0120FFF77CFD0121284A90
:1018C800FFF742FE07462846002102F041F948B3D7
:1018D800244B1B78C3EB43139B00234AD258234B5A
:1018E8001A6022E02646631E214AD05C01F03EFFC2
:1018F800294602F02DF990B11D4B185D01F036FF15
:10190800294602F039F950B1164B1B78C3EB431343
:101918001E44154B53F82620144B1A6005E0013479
:10192800E4B200E001241E2CDCD9104C67600120D1
:101938000021FFF7F1FD206801F000FB04460D4689
:10194800384601F0FBFACDE900010A4822462B4649
:1019580003F058F80A2003F06DF803B0F0BD00BF9B
:101968003333534010060020B48E000020060020B8
:101978000C9B000088970000F0B583B00546012055
:101988000146FFF7C9FD0120FFF714FD0121284A90
:10199800FFF7DAFD07462846002102F0D9F848B3D8
:1019A800244B1B78C3EB43139B00234AD258234B89
:1019B8009A6022E02646631E214AD05C01F0D6FEDA
:1019C800294602F0C5F890B11D4B185D01F0CEFE16
:1019D800294602F0D1F850B1164B1B78C3EB4313DC
:1019E8001E44154B53F82620144B9A6005E0013429
:1019F800E4B200E001241E2CDCD9104CE760012081
:101A08000021FFF789FDA06801F098FA04460D4609
:101A1800384601F093FACDE900010A4822462B46E0
:101A280002F0F0FF0A2003F005F803B0F0BD00BF94
:101A38003333534008060020B48E000020060020EF
:101A48000C9B0000C497000030B583B07A4803F0BF
:101A580063F8FFF7E5FCFFF7E3FC784803F05CF870
:101A680077480DF1070103F06FF80022754B1A70E3
:101A78000A2002F0DFFF9DF807305AB2792A01D018
:101A8800592A17D1052000F073FE00226D4B1A70F9
:101A9800052000F06DFE6C4803F03EF8694B1B789A
:101AA800002BFBD00022674B1A70012000F060FE6B
:101AB800FFF7BAFEFFF7DCFE002428E0634803F0D6
:101AC8002BF85F480DF1070103F03EF800225D4B4B
:101AD8001A709DF80720A2F13003DBB2092B03D856
:101AE8005B4A1370012412E0A2F14103DBB2042B1C
:101AF80004D8373A564B1A70012408E0A2F1610362
:101B0800DBB2042B03D8573A514B1A700124002C2E
:101B1800D4D04F4B1B7803EB830292004D4C1444F6
:101B2800C3EB43139B004C4A1344D86A01F006FAEE
:101B380002460B464948214602F064FF0A2002F09B
:101B480079FFFFF76DFC0546052000F011FE002225
:101B58003C4B1A70052000F00BFE414802F0DCFFF8
:101B6800384B1B78002BFBD00024364B1C702846C2
:101B7800FFF79AFE28E03B4802F0CEFF30480DF10F
:101B8800070102F0E1FF00222E4B1A709DF8072092
:101B9800A2F13003DBB2092B03D8334A13700124B6
:101BA80012E0A2F14103DBB2042B04D8373A2E4BE2
:101BB8001A70012408E0A2F16103DBB2042B03D8F8
:101BC800573A294B1A700124002CD4D0264B1B7885
:101BD80003EB830292001F4C1444C3EB43139B0096
:101BE8001D4A1344D86A01F0A9F902460B461B485E
:101BF800214602F007FF0A2002F01CFF052000F032
:101C0800B7FD00220F4B1A70052000F0B1FD1748F0
:101C180002F082FF0B4B1B78002BFBD00022094BF4
:101C28001A702846FFF7A8FE0A2002F003FF0A20D0
:101C380002F000FF03B030BD0098000010980000CB
:101C4800409800003A060020449800008C98000054
:101C580010060020F8950000B48E0000C898000017
:101C6800FC9800006899000008060020A49900006C
:101C780030B583B01D4D00242C701D4B1C701D48C1
:101C880002F04AFF1C4802F047FF1C480DF107010B
:101C980002F05AFF2C700A2002F0CCFE9DF80730A3
:101CA8005AB2792A01D0592A02D1FFF7CDFE17E09E
:101CB8000122134B1A70134802F02EFF0F480DF142
:101CC800070102F041FF0022084B1A709DF8073007
:101CD8005AB2792A01D0592A02D10022084B1A7027
:101CE800094802F019FF03B030BD00BF3A060020D2
:101CF8003C070020109A0000249A00004098000039
:101D08009C030020549A0000B09A000008B5FFF721
:101D180087FB054B1860FFF737FC044B1860FFF78B
:101D2800BFFC034B186008BD94050020A0050020E7
:101D3800A405002000B583B0124B186801F0FEF826
:101D480002460B46104802F05DFE104B186801F081
:101D5800F5F802460B460E4802F054FE0D4B186883
:101D680001F0ECF802460B46252100910A4802F0E2
:101D780049FE0A2002F05EFE0A2002F05BFE03B074
:101D88005DF804FB94050020D49A0000A00500200B
:101D9800EC9A0000A4050020F89A00000122014BEB
:101DA8001A707047A90500200122014B1A7070476C
:101DB800A80500200022014B1A7070476405002016
:101DC8000022014B1A707047A805002008B50A20A8
:101DD80002F030FE184802F09FFE0A2002F02AFEA8
:101DE800164802F099FE164802F096FE154802F0D1
:101DF80093FE154802F090FE144802F08DFE144838
:101E080002F08AFE134802F087FE134802F084FEAF
:101E1800124802F081FE124802F07EFE114802F0DC
:101E28007BFE114802F078FE104802F075FE0A2089
:101E380002F000FE08BD00BF2C9B0000409B000084
:101E4800989B0000D89B00000C9C0000649C00003C
:101E5800B09C0000FC9C00004C9D00009C9D000074
:101E6800F09D0000449E0000989E0000E09E000047
:101E780008B5FFF75DF808BD08B5FFF7F9FE08BD1E
:101E8800002205E0202B01D00AB170470122013061
:101E98000378002BF6D1704704E0202B05D00131E0
:101EA800037001300B78002BF7D1002303707047C3
:101EB80010B582B0044603E068462146FFF7ECFF00
:101EC8002046FFF7DDFF04460378002BF4D168466F
:101ED80001F089FEFEF76EFF02B010BD10B582B0AA
:101EE800044603E068462146FFF7D6FF2046FFF781
:101EF800C7FF04460378002BF4D1684601F073FE4F
:101F0800FEF76EFF02B010BD10B582B0044603E0C4
:101F180068462146FFF7C0FF2046FFF7B1FF044699
:101F28000378002BF4D1684601F05DFEFEF76EFFE2
:101F380002B010BD10B582B0044603E068462146E1
:101F4800FFF7AAFF2046FFF79BFF04460378002B04
:101F5800F4D1684601F044FE01F0FEFAFEF700FFF6
:101F680002B010BD10B582B0044603E068462146B1
:101F7800FFF792FF2046FFF783FF04460378002B04
:101F8800F4D1684601F02CFE01F0E6FAFEF7EEFE09
:101F980002B010BD10B582B0044603E06846214681
:101FA800FFF77AFF2046FFF76BFF04460378002B04
:101FB800F4D1684601F014FE01F0CEFAFEF7DCFE1B
:101FC80002B010BD10B582B0044603E06846214651
:101FD800FFF762FF2046FFF753FF04460378002B04
:101FE800F4D1684601F0FFFD01F0C0FB01F0D8FD17
:101FF800C0B2FEF7C7FE02B010BD00BF1C4B1B7875
:10200800012B2ED070471B4B5C5D1B4B53F82400F3
:102018001A4B53F8241001F0B1FC01F0C1FD80B255
:10202800174B33F81430C01A00F076FF0022154B16
:1020380000F0D8FF06460F46DFF84C8038F8140049
:1020480000F06AFF32463B4600F01AFE01F064FADF
:1020580080B228F81400214600F0CCF90135EDB221
:1020680002E02DE9F0410025022DCCD9BDE8F08130
:1020780064050020588D000054050020A88E00003B
:10208800F40500200000E03F6805002008B50023A3
:10209800054A1370054A13700A2000F069F83E20BB
:1020A80000F066F808BD00BF3A0600203906002097
:1020B80070B50646002408E03046074B53F8241054
:1020C800062202F089FD28B10134044B53F824504C
:1020D800002DF1D1284670BDDC030020A0030020AC
:1020E80010B50E48FFF7E4FF30B104460A2002F0AD
:1020F800A1FC0B48A04710BD084B1B784BB10A2028
:1021080002F098FC074802F07DFC0A2002F092FCDD
:1021180010BD0022044B1A7010BD00BF3C06002001
:102128003E060020289F0000A905002070B506463D
:102138000D460E4C204606210122FEF72FFA2046B6
:1021480007210222FEF72AFAA4F5805420463146D8
:102158002A460023FEF7A8FA204601210022FEF7AE
:10216800F9FA20460321FEF7FBFA70BD0060004033
:1021780008B501460022054B1A700548FEF7DEFA3D
:10218800024B1B78002BFBD008BD00BFAE0500201A
:102198000050004008B50248FEF7DAFA40B208BD20
:1021A8000050004010B50C4603E0013440B2FFF780
:1021B800DFFF207843B20A2BF7D105D10D20FFF7B6
:1021C800D7FF0A20FFF7D4FF002010BD08B5094B40
:1021D8001B78002BFBD0084B1878087040B2FFF72B
:1021E800C7FF0A2002F026FC0022024B1A700120C9
:1021F80008BD00BF3C0700203806002070B55E4CC3
:10220800204603210022FEF7C9F9204603210022B7
:10221800FEF7E4F9204603210122FEF7CFF9204614
:102228000821FEF7EBF9204604210022FEF7B6F953
:10223800204604210022FEF7D1F92046042101227C
:10224800FEF7BCF920461021FEF7D8F94B4D284679
:1022580000210A46FEF7A2F9284601210022FEF7CE
:102268009DF9474E304602210022FEF797F928468D
:1022780000210122FEF7B2F9284601210A46FEF79D
:10228800ADF9304602210122FEF7A8F928460021BF
:102298000122FEF793F9284601210A46FEF78EF936
:1022A800304602210122FEF789F928460121FEF76E
:1022B800A5F928460221FEF7A1F930460421FEF7C8
:1022C8009DF9284604210022FEF788F928460421B2
:1022D8000222FEF763F9204600210A46FEF77EF93E
:1022E800204600210122FEF759F92846052100223F
:1022F800FEF774F9284605210222FEF74FF9204619
:1023080001210022FEF76AF9204601210A46FEF75C
:1023180045F9284606210022FEF760F928460621DD
:102328000222FEF73BF9204602210022FEF756F969
:10233800204602210122FEF731F94FF04020012109
:102348000022FEF783F9A4F5E0542046012100227B
:10235800FEF77CF920464FF44041022240F6CD3387
:10236800FEF76EF94FF040204FF48041022240F60C
:10237800CD33FEF765F970BD006000403060004065
:102388006060004008B54FF4E1300321FFF7CEFE4E
:10239800FFF734FF4FF40032014B1A6008BD00BF4D
:1023A80000E100E008B504484FF44041022240F63D
:1023B800CC33FEF745F908BD0044004010B50C4C7D
:1023C80020464FF44041022240F6CD33FEF738F95B
:1023D8004FF040204FF400514FF48052FEF746F979
:1023E80020464FF400514FF48052FEF73FF910BDDC
:1023F8000044004038B505460C4601290DD011B1FE
:10240800022905D00DE01E480121FEF7FBF808E07F
:102418001B480221FEF7F6F803E01A480421FEF7EC
:10242800F1F84FF040204FF400514FF48052FEF77E
:102438001DF94FF04020290AFEF710F94FF040200F
:10244800E9B2FEF70BF94FF04020FEF70BF910F454
:10245800007FF8D0012C0DD014B1022C05D038BD66
:1024680007480121FEF7CAF838BD05480221FEF7E2
:10247800C5F838BD03480421FEF7C0F838BD00BFD1
:102488003060004060600040F8B507460E460D0217
:10249800154B1B781BB915480821FEF7B3F8052022
:1024A80000F066F912484FF400514FF48052FEF7DD
:1024B800DDF8002405E00E48395DFEF7CFF8013459
:1024C800E4B2B442F7D30A48FEF7CCF82840854274
:1024D800F9D1054B1B781BB904480821FEF78EF883
:1024E800052000F045F9F8BDB00500200060004067
:1024F80000440040F0B583B006460D4600238DF831
:1025080004308DF805308DF806308DF807300F024D
:102518000DE02BB9F15C02AA1A4402F8041C04E08D
:10252800AA2102AA1A4402F8041C0133DBB2AB4206
:10253800EFD91F4B1B7833B91E480821FEF762F804
:10254800052000F015F91C484FF400514FF4805253
:10255800FEF78CF8002408E002AB2344164813F871
:10256800041CFEF77BF80134E4B2AC42F4D91248FB
:10257800FEF778F838408742F9D10F48FEF76CF833
:102588003070002405E00C48FEF766F83055013439
:10259800E4B2AC42F7D3064B1B7833B9054808219F
:1025A800FEF72CF8052000F0E3F803B0F0BD00BFFB
:1025B800B005002000600040004400402DE9F041D3
:1025C8000F461646082A02D04FF0000802E04FF0E6
:1025D800010804263502244B1B7833B923481021FF
:1025E800FEF710F8012000F0C3F821484FF400511D
:1025F8004FF48052FEF73AF8002405E01C48395D94
:10260800FEF72CF80134E4B2B442F7D31848FEF7C9
:1026180029F82C4628408542F8D1B8F1000F16D089
:1026280013484FF400514FF48052FEF71FF800256D
:1026380005E00F48795DFEF711F80135EDB2B542B6
:10264800F7D30B48FEF70EF820408442F9D1064B29
:102658001B7833B905481021FDF7D0FF012000F0A1
:1026680087F8BDE8F08100BFB00500200060004099
:1026780000440040F0B583B00E46154600238DF89F
:1026880004308DF805308DF806308DF807301702C4
:102698000DE02BB9F15C02AA1A4402F8041C04E00C
:1026A800AA2102AA1A4402F8041C0133DBB2AB4285
:1026B800EFD31D4B1B7833B91C481021FDF7A2FF3F
:1026C800012000F055F81A484FF400514FF4805299
:1026D800FDF7CCFF002408E002AB2344144813F8AC
:1026E800041CFDF7BBFF0134E4B2AC42F4D310483C
:1026F800FDF7B8FF38408742F9D1002405E00C48BF
:10270800FDF7AAFF30550134E4B2AC42F7D3064BCB
:102718001B7833B905481021FDF770FF012000F040
:1027280027F803B0F0BD00BFB005002000600040EE
:10273800004400400A4B1B680A4AA2FB03239B097A
:10274800013BB3F1807F09D2074A5360E021074B70
:1027580083F823100023936007231360704700BF9A
:10276800C0050020D34D621010E000E000ED00E04D
:10277800034B1860024B1B68002BFBD1704700BF4E
:1027880040070020034B1B681BB1024A1368013B3A
:10279800136070474007002008B5FFF7F3FF08BD36
:1027A80008B50023334A1370334A1370334A137041
:1027B800334A1370334A1370FFF7BCFFFFF7E2FD8B
:1027C8004FF4FA70FFF7D4FF2E4B1B78002BFBD089
:1027D80000222C4B1A70FEF73DFB4FF4FA70FFF7FE
:1027E800C7FFFEF73FFD4FF4FA70FFF7C1FFFEF792
:1027F80023FB4FF4FA70FFF7BBFF234802F08CF974
:10280800224802F089F9224802F086F9FFF73EFCD7
:10281800C820FFF7ADFF1B4B1B78012B06D1FFF734
:102828005FFCFFF733FC0022164B1A70114B1B7824
:10283800012B11D1FFF7B6FD0120FFF799FFFFF734
:10284800BDFDFEF72DFCFFF7ADFD0120FFF790FF62
:10285800FFF7B4FDFFF75AFA084B1B780BB1FFF7E7
:10286800CDFB074B1B78012BD2D1FEF757FCFFF7A6
:1028780061FACDE7A8050020B00500206405002016
:10288800A90500203A060020C09F0000D09F000044
:10289800F89F000008B51848FDF766FF80B210F0F1
:1028A800010F27D100F00600022820D0042821D1EA
:1028B800FFF770FC0A2805D00D2807D101220F4B1D
:1028C8001A700EE001220D4B1A700AE00C4A1378B8
:1028D800591C11700B4AD0540B4B187001220B4B2A
:1028E8001A70074B1B780021064AD15408BD0122F3
:1028F800074B1A7008BD00BF005000403A06002080
:10290800390600203C060020380600203C0700203D
:10291800AE05002008B54FF04020FDF7A3FEC0B279
:1029280010F0200F02D00122044B1A7010F0400F53
:1029380002D00122024B1A7008BD00BFB205002068
:10294800AB05002008B54FF04020FDF78BFE10F0D6
:10295800200F02D00122014B1A7008BDAC050020DF
:10296800F8B54FF40012184BC3F880200020FDF78B
:102978005BFE044610F0080F15D0144B1F68144D69
:102988002E78731C2B700020FDF742FEB8552A786C
:10299800104B1B78013B9A4205DD00222A700E4A33
:1029A80013780133137014F4807F07D00B4A13781F
:1029B80001331370084A1378013313704FF400126F
:1029C800014B1A60F8BD00BF00E100E034060020AA
:1029D800AA050020AD050020B1050020AF050020A4
:1029E8002DE9F0478AB006460F4600F04FF8DFF8A9
:1029F80098A004469AF900300D4601330FD03046AE
:102A0800394600F009F950B14FF000084FF00009BD
:102A18003046394642464B4600F056FD20B920461E
:102A280029460AB0BDE8F08716499AF80040012205
:102A38000023CDE90467CDE902670191009208936C
:102A480064B9CDE90689684600F012F980B1089B9F
:102A58009BB9DDE906010AB0BDE8F0874046494662
:102A680042464B4600F0E8FB022CCDE90601EAD1CC
:102A780001F0BEF821230360E9E701F0B9F8089BEB
:102A88000360E6E71CA00000180400202DE9F041CF
:102A9800604E0C46B6460E40764505460B4600F09D
:102AA80098800029024676DD5FEA215E00F0818089
:102AB800AEF2FF3EC3F313031EF0010F43F480137D
:102AC8005ED100273C46D10F01EB43034FEA6E0E5F
:102AD800520016204FF4001165189D424FEAD27635
:102AE8004FEA420202DC5B1B6C180F44013806EB0C
:102AF80043034FEA5101EFD1844620264FF00041AD
:102B08000AE0A34220D0D50F013E4FEA510105EB60
:102B180043034FEA420220D09C420CEB0105F0DA55
:102B2800002D05EB010C09DBA0461B1B954288BF55
:102B380003F1FF334446521B0844E4E7BCF1000F9D
:102B4800F2DB04F10108F0E7954217D8002D05EBF8
:102B5800010C48DB98460023ECE7134315D14008E5
:102B68007B1003F17F5303F50013FA0703EB0E57AD
:102B7800394648BF40F00040BDE8F0811C46C2E736
:102B8800D10F01EB430352009BE7411C31D000F009
:102B980001031844E3E721F000460643ECD079BB73
:102BA8008E46D30AAEF1150E5205002BF9D0DC0281
:102BB80022D400215B00D80201F10101FAD5C1F14C
:102BC8000100C1F1200422FA04F4234386448A4018
:102BD8006EE702460B4600F005FA2A46234600F047
:102BE8004FF8BDE8F081BCF1000FAADAA046002337
:102BF800A0E701373046B3E7202401200021E2E7AF
:102C080002460B4600F03AF802460B4600F014FB69
:102C1800B2E700BF0000F07F10B431F0004408D0E4
:102C2800114BA1F580129A4208D804205DF8044B94
:102C3800704718B902205DF8044B704701F1FF4155
:102C4800094B01F5E0019942EFD9B4F5801F01D293
:102C58000320EBE7054B9C4201D00020E6E7B0FAE1
:102C680080F04009E2E700BFFFFFDF7F0000F07F50
:102C78000020704781F0004102E000BF83F000436C
:102C880030B54FEA41044FEA430594EA050F08BFFF
:102C980090EA020F1FBF54EA000C55EA020C7FEAC3
:102CA800645C7FEA655C00F0E2804FEA5454D4EB40
:102CB8005555B8BF6D420CDD2C4480EA020281EA0A
:102CC800030382EA000083EA010180EA020281EA42
:102CD8000303362D88BF30BD11F0004F4FEA013194
:102CE8004FF4801C4CEA113102D0404261EB4101A3
:102CF80013F0004F4FEA03334CEA133302D0524229
:102D080063EB430394EA050F00F0A780A4F10104E4
:102D1800D5F1200E0DDB02FA0EFC22FA05F280181E
:102D280041F1000103FA0EF2801843FA05F3594104
:102D38000EE0A5F120050EF1200E012A03FA0EFC83
:102D480028BF4CF0020C43FA05F3C01851EBE371AD
:102D580001F0004507D54FF0000EDCF1000C7EEBCA
:102D680000006EEB0101B1F5801F1BD3B1F5001F08
:102D78000CD349085FEA30004FEA3C0C04F1010427
:102D88004FEA445212F5800F80F09A80BCF1004F50
:102D980008BF5FEA500C50F1000041EB045141EAD2
:102DA800050130BD5FEA4C0C404141EB010111F4D3
:102DB800801FA4F10104E9D191F0000F04BF01467E
:102DC8000020B1FA81F308BF2033A3F10B03B3F15C
:102DD80020020CDA0C3208DD02F1140CC2F10C02EC
:102DE80001FA0CF021FA02F10CE002F11402D8BF4A
:102DF800C2F1200C01FA02F120FA0CFCDCBF41EA16
:102E08000C019040E41AA2BF01EB0451294330BDE4
:102E18006FEA04041F3C1CDA0C340EDC04F11404C1
:102E2800C4F1200220FA04F001FA02F340EA030098
:102E380021FA04F345EA030130BDC4F10C04C4F1DE
:102E4800200220FA02F001FA04F340EA03002946BE
:102E580030BD21FA04F0294630BD94F0000F83F408
:102E6800801306BF81F480110134013D4EE77FEAEB
:102E7800645C18BF7FEA655C29D094EA050F08BF37
:102E880090EA020F05D054EA000C04BF1946104618
:102E980030BD91EA030F1EBF0021002030BD5FEA5C
:102EA800545C05D14000494128BF41F0004130BD84
:102EB80014F580043CBF01F5801130BD01F00045D8
:102EC80045F0FE4141F470014FF0000030BD7FEA4B
:102ED800645C1ABF194610467FEA655C1CBF0B4646
:102EE800024650EA013406BF52EA033591EA030F5D
:102EF80041F4002130BD00BF90F0000F04BF002155
:102F0800704730B54FF4806404F132044FF0000587
:102F18004FF0000150E700BF90F0000F04BF002100
:102F2800704730B54FF4806404F1320410F0004566
:102F380048BF40424FF000013EE700BF42004FEA61
:102F4800E2014FEA31014FEA02701FBF12F07F43DE
:102F580093F07F4F81F06051704792F0000F14BFDB
:102F680093F07F4F704730B54FF4607401F000451F
:102F780021F0004120E700BF50EA010208BF704776
:102F880030B54FF000050AE050EA010208BF70476B
:102F980030B511F0004502D5404261EB41014FF4D4
:102FA800806404F132045FEA915C3FF4DCAE4FF0D8
:102FB80003025FEADC0C18BF03325FEADC0C18BFBF
:102FC800033202EBDC02C2F1200300FA03FC20FA10
:102FD80002F001FA03FE40EA0E0021FA02F114445D
:102FE800C1E600BF70B54FF0FF0C4CF4E06C1CEA72
:102FF80011541DBF1CEA135594EA0C0F95EA0C0FE7
:1030080000F0DEF82C4481EA030621EA4C5123EA59
:103018004C5350EA013518BF52EA033541F4801188
:1030280043F4801338D0A0FB02CE4FF00005E1FB3B
:1030380002E506F00042E0FB03E54FF00006E1FB85
:1030480003569CF0000F18BF4EF0010EA4F1FF04C8
:10305800B6F5007F64F5407404D25FEA4E0E6D4108
:1030680046EB060642EAC62141EA55514FEAC52019
:1030780040EA5E504FEACE2EB4F1FD0C88BFBCF595
:10308800E06F1ED8BEF1004F08BF5FEA500E50F146
:10309800000041EB045170BD06F0004646EA01010C
:1030A80040EA020081EA0301B4EB5C04C2BFD4EB3E
:1030B8000C0541EA045170BD41F480114FF0000E37
:1030C800013C00F3AB8014F1360FDEBF002001F0A5
:1030D800004170BDC4F10004203C35DA0C341BDC1F
:1030E80004F11404C4F1200500FA05F320FA04F0F1
:1030F80001FA05F240EA020001F0004221F0004125
:1031080010EBD37021FA04F642EB06015EEA430E97
:1031180008BF20EAD37070BDC4F10C04C4F12005C7
:1031280000FA04F320FA05F001FA04F240EA02007A
:1031380001F0004110EBD37041F100015EEA430E4B
:1031480008BF20EAD37070BDC4F1200500FA05F26B
:103158004EEA020E20FA04F301FA05F243EA0203EA
:1031680021FA04F001F0004121FA04F220EA0200F9
:1031780000EBD3705EEA430E08BF20EAD37070BD3F
:1031880094F0000F0FD101F00046400041EB01011F
:1031980011F4801F08BF013CF7D041EA060195F001
:1031A800000F18BF704703F00046520043EB0303BB
:1031B80013F4801F08BF013DF7D043EA06037047A8
:1031C80094EA0C0F0CEA135518BF95EA0C0F0CD0B3
:1031D80050EA410618BF52EA4306D1D181EA0301F9
:1031E80001F000414FF0000070BD50EA410606BFF3
:1031F8001046194652EA430619D094EA0C0F02D138
:1032080050EA013613D195EA0C0F05D152EA03367C
:103218001CBF104619460AD181EA030101F000419A
:1032280041F0FE4141F470014FF0000070BD41F0E3
:10323800FE4141F4780170BD70B54FF0FF0C4CF4BD
:10324800E06C1CEA11541DBF1CEA135594EA0C0FDC
:1032580095EA0C0F00F0A7F8A4EB050481EA030E29
:1032680052EA03354FEA013100F088804FEA033310
:103278004FF0805545EA131343EA12634FEA0222DE
:1032880045EA111545EA10654FEA00260EF000419F
:103298009D4208BF964244F1FD0404F5407402D2F1
:1032A8005B084FEA3202B61A65EB03055B084FEA82
:1032B80032024FF480104FF4002CB6EB020E75EB7F
:1032C800030E22BFB61A754640EA0C005B084FEAA7
:1032D8003202B6EB020E75EB030E22BFB61A754624
:1032E80040EA5C005B084FEA3202B6EB020E75EB6F
:1032F800030E22BFB61A754640EA9C005B084FEAE7
:103308003202B6EB020E75EB030E22BFB61A7546F3
:1033180040EADC0055EA060E18D04FEA051545EAE2
:1033280016754FEA06164FEAC30343EA52734FEA8B
:10333800C2025FEA1C1CC0D111F4801F0BD141EA04
:1033480000014FF000004FF0004CB6E711F4801F69
:1033580004BF01430020B4F1FD0C88BFBCF5E06F49
:103368003FF6AFAEB5EB030C04BFB6EB020C5FEA59
:10337800500C50F1000041EB045170BD0EF0004EAE
:103388004EEA113114EB5C04C2BFD4EB0C0541EAE0
:10339800045170BD41F480114FF0000E013C90E6DD
:1033A80045EA060E8DE60CEA135594EA0C0F08BFA1
:1033B80095EA0C0F3FF43BAF94EA0C0F0AD150EAA0
:1033C80001347FF434AF95EA0C0F7FF425AF104633
:1033D80019462CE795EA0C0F06D152EA03353FF45B
:1033E800FDAE1046194622E750EA410618BF52EAD8
:1033F80043067FF4C5AE50EA41047FF40DAF52EAAC
:1034080043057FF4EBAE12E74FF0FF3C06E000BF48
:103418004FF0010C02E000BF4FF0010C4DF804CD55
:103428004FEA410C7FEA6C5C4FEA430C18BF7FEA15
:103438006C5C1BD001B050EA410C0CBF52EA430C43
:1034480091EA030F02BF90EA020F0020704710F1C3
:10345800000F91EA030F58BF994208BF90422CBF52
:10346800D8176FEAE37040F0010070474FEA410C4B
:103478007FEA6C5C02D150EA013C07D14FEA430C69
:103488007FEA6C5CD6D152EA033CD3D05DF8040BDA
:10349800704700BF8446104662468C46194663460C
:1034A80000E000BF01B5FFF7B7FF002848BF10F1E3
:1034B800000F01BD4DF808EDFFF7F4FF0CBF012028
:1034C80000205DF808FB00BF4DF808EDFFF7EAFFA4
:1034D80034BF012000205DF808FB00BF4DF808ED5F
:1034E800FFF7E0FF94BF012000205DF808FB00BF54
:1034F8004DF808EDFFF7CEFF94BF012000205DF8DE
:1035080008FB00BF4DF808EDFFF7C4FF34BF0120EA
:1035180000205DF808FB00BF4A0011D212F5001226
:1035280011D20DD56FF47873B3EB62520ED44FEA13
:10353800C12343F0004343EA505323FA02F0704793
:103548004FF00000704750EA013002D14FF0FF30D1
:1035580070474FF0000070474FEA4102B2F1E04374
:1035680024BFB3F5001CDCF1FE5C0DD901F0004C62
:103578004FEAC0024CEA5070B2F1004F40EB8300B2
:1035880008BF20F00100704711F0804F21D113F1DE
:103598003872BCBF01F00040704741F480114FEA17
:1035A8005252C2F11802C2F1200C10FA0CF320FAA0
:1035B80002F018BF40F001004FEAC1234FEAD323BD
:1035C80003FA0CFC40EA0C0023FA02F34FEA430327
:1035D800CCE77FEA625307D150EA01331EBF4FF0B0
:1035E800FE4040F44000704701F0004040F0FE40CB
:1035F80040F40000704700BF80F0004002E000BFC8
:1036080081F0004142001FBF5FEA410392EA030FC5
:103618007FEA226C7FEA236C6AD04FEA1262D2EB0F
:103628001363C1BFD218414048404140B8BF5B4214
:10363800192B88BF704710F0004F40F4000020F0AD
:103648007F4018BF404211F0004F41F4000121F0C3
:103658007F4118BF494292EA030F3FD0A2F101020D
:1036680041FA03FC10EB0C00C3F1200301FA03F14B
:1036780000F0004302D5494260EB4000B0F5000F6E
:1036880013D3B0F1807F06D340084FEA310102F12D
:103698000102FE2A51D2B1F1004F40EBC25008BFDF
:1036A80020F0010040EA03007047490040EB0000A9
:1036B80010F4000FA2F10102EDD1B0FA80FCACF1D8
:1036C800080CB2EB0C0200FA0CF0AABF00EBC250D7
:1036D80052421843BCBFD0401843704792F0000FC5
:1036E80081F4000106BF80F400000132013BB5E718
:1036F8004FEA41037FEA226C18BF7FEA236C21D08E
:1037080092EA030F04D092F0000F08BF08467047F2
:1037180090EA010F1CBF0020704712F07F4F04D1C0
:10372800400028BF40F00040704712F100723CBFD3
:1037380000F50000704700F0004343F0FE4040F4FD
:10374800000070477FEA226216BF08467FEA2363BB
:103758000146420206BF5FEA412390EA010F40F4A6
:10376800800070474FF0000304E000BF10F00043F2
:1037780048BF40425FEA000C08BF704743F09643D9
:1037880001464FF000001CE050EA010208BF7047F4
:103798004FF000030AE000BF50EA010208BF70477B
:1037A80011F0004302D5404261EB41015FEA010C90
:1037B80002BF84460146002043F0B64308BFA3F188
:1037C8008053A3F50003BCFA8CF2083AA3EBC2536A
:1037D80010DB01FA02FC634400FA02FCC2F1200289
:1037E800BCF1004F20FA02F243EB020008BF20F0C0
:1037F8000100704702F1200201FA02FCC2F1200226
:1038080050EA4C0021FA02F243EB020008BF20EA1A
:10381800DC7070474FF0FF0C1CEAD0521EBF1CEA48
:10382800D15392EA0C0F93EA0C0F6FD01A4480EA36
:10383800010C400218BF5FEA41211ED04FF000631F
:1038480043EA501043EA5111A0FB01310CF000404B
:10385800B1F5000F3EBF490041EAD3715B0040EA71
:10386800010062F17F02FD2A1DD8B3F1004F40EB41
:10387800C25008BF20F00100704790F0000F0CF014
:10388800004C08BF49024CEA502040EA51207F3AD8
:10389800C2BFD2F1FF0340EAC250704740F40000B3
:1038A8004FF00003013A5DDC12F1190FDCBF00F0A4
:1038B80000407047C2F10002410021FA02F1C2F152
:1038C800200200FA02FC5FEA310040F1000053EAEE
:1038D8004C0308BF20EADC70704792F0000F00F03C
:1038E800004C02BF400010F4000F013AF9D040EA42
:1038F8000C0093F0000F01F0004C02BF490011F4D6
:10390800000F013BF9D041EA0C018FE70CEAD153D3
:1039180092EA0C0F18BF93EA0C0F0AD030F0004C53
:1039280018BF31F0004CD8D180EA010000F0004007
:10393800704790F0000F17BF90F0004F084691F0C5
:10394800000F91F0004F14D092EA0C0F01D14202FF
:103958000FD193EA0C0F03D14B0218BF084608D1C8
:1039680080EA010000F0004040F0FE4040F4000012
:10397800704740F0FE4040F4400070474FF0FF0CA5
:103988001CEAD0521EBF1CEAD15392EA0C0F93EAEC
:103998000C0F69D0A2EB030280EA010C49024FEA3E
:1039A800402037D04FF0805343EA111143EA1013F7
:1039B8000CF000408B4238BF5B0042F17D024FF4AF
:1039C800000C8B4224BF5B1A40EA0C00B3EB510F8A
:1039D80024BFA3EB510340EA5C00B3EB910F24BF73
:1039E800A3EB910340EA9C00B3EBD10F24BFA3EBF8
:1039F800D10340EADC001B0118BF5FEA1C1CE0D1C0
:103A0800FD2A3FF650AF8B4240EBC25008BF20F072
:103A1800010070470CF0004C4CEA50207F32C2BFC6
:103A2800D2F1FF0340EAC250704740F400004FF063
:103A38000003013A37E792F0000F00F0004C02BF94
:103A4800400010F4000F013AF9D040EA0C0093F05E
:103A5800000F01F0004C02BF490011F4000F013BB8
:103A6800F9D041EA0C0195E70CEAD15392EA0C0F20
:103A780008D142027FF47DAF93EA0C0F7FF470AF58
:103A8800084676E793EA0C0F04D14B023FF44CAF9B
:103A980008466EE730F0004C18BF31F0004CCAD130
:103AA80030F000427FF45CAF31F000437FF43CAF6C
:103AB8005FE700BF4FF0FF3C06E000BF4FF0010C8E
:103AC80002E000BF4FF0010C4DF804CD4FEA400270
:103AD8004FEA41037FEA226C18BF7FEA236C11D0BA
:103AE80001B052EA530C18BF90EA010F58BFB2EB6D
:103AF800030088BFC81738BF6FEAE17018BF40F0ED
:103B0800010070477FEA226C02D15FEA402C05D1A0
:103B18007FEA236CE4D15FEA412CE1D05DF8040B25
:103B2800704700BF844608466146FFE70FB5FFF7B8
:103B3800C9FF002848BF10F1000F0FBD4DF808ED70
:103B4800FFF7F4FF0CBF012000205DF808FB00BF61
:103B58004DF808EDFFF7EAFF34BF012000205DF8BB
:103B680008FB00BF4DF808EDFFF7E0FF94BF012008
:103B780000205DF808FB00BF4DF808EDFFF7D2FF05
:103B880094BF012000205DF808FB00BF4DF808ED48
:103B9800FFF7C8FF34BF012000205DF808FB00BF15
:103BA80042000ED2B2F1FE4F0BD34FF09E03B3EB9F
:103BB800126209D44FEA002343F0004323FA02F0CB
:103BC80070474FF00000704712F1610F01D14202B7
:103BD80002D14FF0FF3070474FF00000704700BF30
:103BE800002101F067BE00210A2201F0F3BE0000A7
:103BF800014B1868704700BF7C040020024B014647
:103C0800186800F057B800BF7C040020024B01463A
:103C1800186800F00BB800BF7C040020034602447B
:103C2800934202D003F8011BFAE7704730B5002928
:103C38003CD051F8042C0B1F1D49002AB8BF9B1813
:103C48000A680C4612B95A600B6030BD93420DD217
:103C580019685818904201BF5A5852181A60426899
:103C680023605A6030BD994203D80A46516800293A
:103C7800F9D1146815199D420AD11B682344D0183C
:103C88008842136012D10868034413604B680CE043
:103C980002D90C23036030BD1C681819884201BF83
:103CA80008684968001918605960536030BD00BF42
:103CB800B805002070B5CC1C24F0030408340C2C83
:103CC80038BF0C24002C064603DA0C23336000208E
:103CD80070BD8C42F9D3204A136810461946A1B129
:103CE8000A68121B0ED40B2A03D90A608B188C5051
:103CF8001FE08B420BBF5A684A6802605A6018BFBF
:103D08000B4616E00B464968E9E7144D2B681BB9CA
:103D1800304600F009FF28603046214600F004FFD5
:103D2800421C0346D1D0C51C25F0030585420AD1A3
:103D38001C6003F10B001A1D20F00700821A0AD03C
:103D48005142995070BD3046E91A00F0EDFE01303D
:103D5800BBD02B46ECE770BDB8050020B4050020A9
:103D68002DE9F0471E4688B0149F002BB8BF06F116
:103D78000043129927F02007B6BF1E4600232D23C3
:103D8800462F1446109DDDF84CA00B7003D0452F2C
:103D980003D1013501E0032300E002238DE8280464
:103DA80006AB039307AB04932246334601F0A4FF06
:103DB800472F804602D1119BDB0726D5462F08EBFB
:103DC800050911D198F80030302B0AD12046314628
:103DD80000220023FFF76EFB18B9C5F10105CAF8E8
:103DE8000050DAF80030994420463146002200237A
:103DF800FFF760FB08B1CDF81C90079B4B4504D238
:103E08005A1C079230221A70F7E74046079B159A0A
:103E1800C8EB0303136008B0BDE8F087034673B529
:103E28000029B8BF494203F8022BB4BF2D222B2228
:103E3800092942701ADD0DF1070426460A2291FB72
:103E4800F2F502FB1511092D01F1300104F8011DED
:103E58002946F3DC3031651E04F8011CB5421A46C8
:103E68000AD215F8012B03F8012BF7E71A4630247C
:103E7800214402F8024B5970101A02B070BD0000BC
:103E88002DE9F04F91B08B4615461E461A9F044601
:103E980003F09CF9D0F800A0504600F095FE0023EE
:103EA8000E933B680990073323F0070303F10802D8
:103EB8009BF818803A60D3E90023CBE91223DBE9A9
:103EC8001201FEF7A9FE0128DBE9120119D100222F
:103ED8000023FFF7F9FA10B12D238BF84330A04BDC
:103EE800A04FB8F1470F88BF1F460323CBF8103007
:103EF800DBF8003023F00403CBF800304FF0000962
:103F0800A1E0FEF789FEDBF8003048B9964A974FE2
:103F1800B8F1470F88BF17460322CBF81020E9E70E
:103F2800DBF80420DBE91201571CCDE90A0101D1B5
:103F3800062209E0B8F1670F02D0B8F1470F05D1A2
:103F4800002A40F0C7810122CBF80420DBF80420C6
:103F580043F480638DE80C00CBF800300DF1330397
:103F680002930DAB03930EAB059300230693CDF894
:103F78001080DDE90A232046FFF7F2FE08F0DF0390
:103F8800472B07460AD10D9BD81C03DBDBF804201E
:103F9800934237DDA8F102085FFA88F8B8F1650F97
:103FA8000D9915D8013942460BF150000D91FFF7D4
:103FB80035FF0E9A81468318012ACBF8103003DCAE
:103FC800DBF80020D10738D50133CBF8103034E0C6
:103FD800B8F1660F18D10029DBF8043009DDCBF8F9
:103FE80010101BB9DBF80020D20721D501330B4490
:103FF8001CE01BB9DBF80020D00701D5023315E01F
:10400800012313E04FF067080D9B0E9A934207DBDC
:10401800DBF80020CBF81030D10709D5013305E0D3
:10402800002BD4BFC3F1020301231344CBF8103093
:104038000D9B4FF00009CBF858309DF8333013B181
:104048002D238BF843300096204659460FAA2B465D
:1040580000F05CF9013002D14FF0FF3052E1DBF89B
:1040680000305A0505D4204629463A46DBF8103078
:1040780008E1B8F1650F40F2D080DBE912010022B7
:104088000023FFF717FA50B320462946384A012380
:10409800B0470130E0D00E9B0D9A9A4209DBDBF85D
:1040A8000030D80705D4DBF800309F0700F11081F5
:1040B80007E1204629465246099BB0470130CBD03C
:1040C80000270E9B013B9F42EDDA204629460BF163
:1040D8001A020123B0470130BED00137F1E70D9B2A
:1040E800002B29DC20462946214A0123B04701300C
:1040F800B2D00D9B2BB90E9B1BB9DBF80030D9074A
:10410800D1D5204629465246099BB0470130A3D055
:104118004FF000080D9B20465B429845294608DA77
:104128000BF11A020123B047013095D008F10108BC
:10413800F0E73A460E9BA5E0DBF858200E9B9A4222
:10414800A8BF1A46002A914602DC4FF000081CE07E
:10415800204629463A464B46B0470130F5D17BE721
:1041680030A000002CA0000038A0000034A00000FF
:1041780062A30000204629460BF11A020123B0472A
:1041880001303FF469AF08F10108DBF85830B9F1A4
:10419800000FB4BF1A46C9EB03029045EADB07EBF0
:1041A80003080D9A0E9B9A4210DBDBF80030DA0701
:1041B8000CD40E9A1744C8EB07030D9FD21B9342E9
:1041C800A8BF1346002B1F4608DC0EE020462946F0
:1041D8005246099BB0470130EBD13DE720462946BE
:1041E8004246B04701303FF437AF4FF000080AE0CD
:1041F800204629460BF11A020123B04701303FF44B
:104208002BAF08F101080D9A0E9B002FA3EB0203B8
:10421800A8BFDB1B9845EBDB45E70E9A012A01DCBA
:10422800DB0736D5204629463A460123B0470130F8
:104238003FF412AF204629465246099BB047013049
:104248003FF40AAFDBE9120100220023FFF732F93D
:10425800E8B90E9B204629467A1C013B1DE0204602
:1042680029460BF11A020123B04701303FF4F4AE9E
:1042780001370E9B013B9F42F1DB204629464B4606
:104288000BF15002B04701307FF40DAFE4E6002790
:10429800EFE7204629463A460123B0470130ECD1E2
:1042A800DAE6204629460BF119020123B04701300E
:1042B8003FF4D2AE0137DBF80C300F9A9B1A9F42BD
:1042C800EFDBDBF80C000F9B9842B8BF184619E0EB
:1042D8000027F0E743F480638DE80C00CBF800304A
:1042E8000DF1330302930DAB03930EAB059300233B
:1042F8000693CDF810802046DDE90A23FFF730FD4C
:10430800074640E611B0BDE8F08F00BF2DE9F8433D
:1043180091461F468A680B6906469342B8BF134602
:10432800C9F8003091F843200C46DDF8208012B11E
:104338000133C9F800302368990642BFD9F8003024
:104348000233C9F80030256815F006051CD094F82A
:1043580043302268003318BF012392061FD5E118A5
:10436800302081F843005A1C94F845102244023347
:1043780082F8431013E03046394604F1190201234C
:10438800C047013007D00135E368D9F800209B1AEF
:104398009D42F0DBDBE74FF0FF30BDE8F8833046A5
:1043A800394604F14302C0470130F4D02268D9F8F5
:1043B8000050E36802F00602042A08BF5D1B226968
:1043C800A3680CBF25EAE57500259342C4BF9B1A74
:1043D800ED184FF00009A9450ADA3046394604F1CC
:1043E8001A020123C0470130D5D009F10109F2E7CB
:1043F8000020BDE8F88300002DE9FF410C46174670
:10440800227E98466E2A06460A9B01F1430100F077
:10441800B08012D8632A23D00AD8002A00F0BD80C1
:10442800582A40F0CC8084F84520DFF804E257E0B1
:10443800642A1ED0692A1CD0C1E0732A00F0B1801A
:1044480009D86F2A2ED0702A40F0B980226842F02D
:10445800200222603FE0752A24D0782A3BD0AEE0C3
:104468001A6804F14205111D1960136884F8423076
:10447800A9E020681A6810F0800F02D0101D18609B
:1044880008E010F0400F02F10400186002D0B2F901
:10449800003000E01368002B3EDA2D225B4284F8DE
:1044A800432039E020681A6810F0800F02D0101DF0
:1044B800186007E010F0400F02F10400186001D006
:1044C800138800E01368227EDFF864E16F2A0CBFCE
:1044D80008220A221CE07822DFF858E184F84520F7
:1044E8002268186812F0800F00F104051D6003D1DE
:1044F800550601D5038800E00368D00744BF42F0A1
:10450800200222601BB9226822F0200222601022B9
:10451800002084F8430002E0DFF814E10A2265680D
:10452800002DA8BF2068A560A4BF20F0040020606B
:1045380003B965B10D46B3FBF2F002FB10331EF868
:10454800033005F8013D03460028F4D100E00D468C
:10455800082A0BD12368DA0708D5236962689A42CA
:10456800DEBF302305F8013C05F1FF35491B216109
:104578002EE025681A6815F0800F606903D0151DB4
:104588001D60136808E015F0400F02F104051D6076
:10459800136801D0188000E01860002323610D46DD
:1045A80016E01A68111D196015680021284662680E
:1045B80002F05CFE08B1401B6060636804E004F12F
:1045C800420584F8422001232361002384F8433004
:1045D800CDF800803046214603AA3B46FFF796FEF9
:1045E800013002D14FF0FF301FE0304639462A46ED
:1045F8002369C0470130F5D023689B0705D4E068DC
:10460800039B9842B8BF18460FE00025E368039A59
:104618009B1A9D42F3DA3046394604F11902012308
:10462800C0470130DED00135F0E704B0BDE8F081C5
:104638003CA000004DA000002DE9F04F99468B6882
:1046480015465A1EB2F5AE7F82BF6FF4AE7203EB09
:10465800020C40F25D130F4688BF8B600B684FF069
:10466800000B43F4F06347F81C3B06460C46B8467B
:104678005A46DA4687B098BF4FF0000CCDF80CB018
:10468800CDF808B0CDF804B0A168002900F0EC809E
:104698002B681B78492B70D016D8392B0DD8312BA5
:1046A80040D22D2B46D002D82B2B43D0DCE02E2B2A
:1046B80000F09280302B23D0D6E0452B00F0958077
:1046C800462B77D0412B0CE0652B00F08E800AD862
:1046D800542B75D002D84E2B34D0C5E0592B75D049
:1046E800612B46D0C0E06E2B2CD004D8662B61D04D
:1046F800692B42D0B8E0742B62D0792B66D0B3E036
:10470800206810F4807F0DD020F0800020600AF12E
:10471800010ABCF1000F00F08A8001310CF1FF3C66
:10472800A16084E012EB0B0F40F09E80216821F419
:10473800C07105E02168080640F1968021F08001EB
:10474800216070E06AB9BAF1000F0CD1216801F458
:10475800E060B0F5E06F06D121F4F061216001223C
:1047680061E0022A5ED0BBF1010F1ED0BBF1040F3D
:104778001AE0012A78D1022255E0BBF1000F0ED1D0
:10478800BAF1000F73D1216801F4E060B0F5E06F71
:1047980071D121F4F06121604FF0010B43E0BBF1CE
:1047A800030F02D0BBF1050F5ED10BF1010B5FFACD
:1047B8008BFB38E0BBF1020F56D14FF0030B32E010
:1047C800BBF1060F50D14FF0070B2CE0BBF1070FE0
:1047D8004AD14FF0080B26E02168880544D521F41A
:1047E80020712160CDF804A01DE0216801F4A060CB
:1047F800B0F5806F04D0480536D5BAF1000F3AD02D
:10480800880558BF019821F4F06158BFC0EB0A0031
:1048180041F4C0715CBF0290CDF80C8021604FF06C
:10482800000A00E0032288F8003008F10108A368B4
:10483800013BA3602369013323616B68013B002BB3
:104848006B6003DD2B6801332B601DE7D4F88031E2
:10485800304629460592CDF810C09847DDF810C0BB
:10486800059A00283FF410AFBAF1000F03D023686F
:1048780023F480732360013A012A0ED8B8450AD977
:10488800D4F87C31304618F8011D2A469847236928
:10489800013B2361F2E70125AEE00BF1FF33062B64
:1048A80022D8BBF1020F12D9ABF1030B5FFA8BFBD5
:1048B800CBEB080BD84517D0D4F87C31304618F824
:1048C800011D2A4698472369013B2361F2E7B84551
:1048D800E1D9D4F87C31304618F8011D2A469847AA
:1048E8002369013B2361F2E72368DA052CD55B05D0
:1048F8000CD5B845CFD9D4F87C31304618F8011D0D
:104908002A4698472369013B2361F2E718F8011CFE
:104918002369652903F1FF3308F1FF3B23610DD0BB
:1049280045290BD0D4F87C3130462A46984723696C
:1049380018F8021C013BA8F1020B2361D4F87C3162
:1049480030462A469847D846256815F0100552D1B2
:1049580088F80050236803F4C063B3F5806F05D16D
:10496800019BC3EB0A035A426BB916E0029BA3B141
:10497800039B2A46591C30460A2300F0A5FF029BD8
:10498800DDF80C80C21A04F26F13984528BF04F5AD
:10499800B77840461A4900F0F3F830463946002205
:1049A80000F06AF92268064612F0020F0F46D9F89D
:1049B800003003D01A1DC9F8002006E012F0040FD9
:1049C80003F10402C9F8002003D01B68C3E900679B
:1049D8000DE0D3F80080FEF71FF910B900F0CCF80D
:1049E80003E030463946FEF7B7FDC8F80000E36833
:1049F8000133E36000E00025284607B0BDE8F08FEA
:104A08005EA000000FB40A4B13B51C6824B1A3695B
:104A180013B9204602F02AF805AB2046A168049A8B
:104A2800019303F0B3F902B0BDE8104004B0704739
:104A38007C04002038B5084B05461C6824B1A369DE
:104A480013B9204602F012F820462946A268BDE8AC
:104A5800384003F069BD00BF7C04002070B50E46E5
:104A6800054618B183690BB902F000F8AC68A38950
:104A7800190701D5236983B92846214601F046F86C
:104A880058B14FF0FF3070BD002B0EDB236816F8CD
:104A9800012C1A70236801332360A36816F8012BD0
:104AA800013BA360002AEFD116E0A269934209DB1B
:104AB800236816F8012C1A70236819780A29EAD194
:104AC800284602E0284616F8011C224600F0CAFFD4
:104AD800421C50425041D3E7002B15DAA269934299
:104AE80008DB23680A221A702368197891420FD1CB
:104AF800284601E028460A21224600F0B3FF431C5D
:104B08005842584130B1BCE723680A221A7023681A
:104B1800013323600A2070BD024B01461868FFF775
:104B28009DBF00BF7C04002038B5064C0023054615
:104B380008462360FBF7F6FB431C02D1236803B148
:104B48002B6038BDBC0500200FB40A4B13B51C6898
:104B580024B1A36913B9204601F088FF05AB2046AC
:104B68006168049A019303F067FB02B0BDE8104046
:104B780004B070477C040020004870470000C07FE4
:104B88000EB400B54FF402719CB0ADF814106FF07C
:104B98000041049107914FF6FF711DABADF8161057
:104BA800084953F8042B02900690086802A901935B
:104BB80002F0D2FF029B00221A701CB05DF804EBD1
:104BC80003B070477C040020034613F8012B002A29
:104BD800FBD1181A0138704770B5A2B1451E0139CA
:104BE8006B7811F8014F6E1CA34206D16FF00104D7
:104BF800641B1444E04202D11C46181B70BD3546A4
:104C0800002BEDD1F8E7104670BD30B5036811F8F8
:104C1800014B01334CB11A78A2F14105192D98BF07
:104C28002032A242F3D0002030BD0360012030BD05
:104C38002DE9F0410F46904602F0FEFD04460D4670
:104C4800B8F1000F11D0C7F30A53C3F16B03002B5F
:104C58000BDD1B0503F17F55002405F540152246A1
:104C68002B46FEF7BFF9BDE8F08120462946BDE88E
:104C7800F0810000000000002DE9F04F00239FB0F4
:104C88001A9382460B46039115924FF000084FF095
:104C980000091993199B1A780D2A05D8092A13D2E5
:104CA800002A00F0B78111E02B2A06D02D2A02D065
:104CB800202A0BD108E0012200E0002209925A1CA8
:104CC80019925B7823B9A5E10133E2E70023099340
:104CD800199C2378302B5CD16378582B01D0782B22
:104CE8004CD11AAB0093099B5046019319A9AE4ABF
:104CF8001BAB01F0AAFF10F00706054600F0A585DA
:104D0800062E05D1013400231994099300F09DBDA6
:104D18001A9A3AB11CA8352102F07BFE50461A991E
:104D280002F0F2FA1B9A062E21D8DFE806F0040DED
:104D380008171C0D04004FF00009C84617E0DDF8FD
:104D48007080DDF8749012E01D9B02F2334223F468
:104D58008013DDF8708043EA025908E0DFF84C92CE
:104D68004FF0000803E06FF000494FF0FF382907C3
:104D780040F16B8549F0004900F067BD199B5A1C4A
:104D880019925B78302BF9D0002B00F05E85012357
:104D980000E000230026B34635460493199B079389
:104DA800199C2778A7F13003DAB2092A0CD8082D04
:104DB8004FF00A0204F10104D4BF02FB0B3B02FBD3
:104DC800063601351994EBE7504602F0FFF9016801
:104DD8005046059102F0FAF90068FFF7F5FE0599CB
:104DE80002462046FFF7F8FE28B100203B462C4635
:104DF8000246074657E00590504602F0E7F900687A
:104E0800FFF7E2FE199B05991A1819921B5C002DF1
:104E180041D12846302B05D1199B01305A1C1992D3
:104E28005B78F7E7A3F13102082A42D8199A07926A
:104E3800024600200446303B00F1010125D00A4417
:104E480021460719B94211D0013101F1FF3EBEF1E7
:104E5800080F04DC4FF00A0E0EFB0BFBF2E71029DB
:104E6800DCBF4FF00A0E0EFB06F6EBE720440828DD
:104E780000F1010403DC0A2101FB0B3B04E0102CC8
:104E8800DCBF0A2101FB06360021199B581C19902A
:104E98005B78084602E02C4608460A46A3F1300132
:104EA8000929C8D90127652B01D0452B64D16CB9D4
:104EB80004E0652B40F0D7840022012728B9049B21
:104EC800002B00F0A780044600E00024199B039300
:104ED80001331993039B5B782B2B07D02D2B02D022
:104EE8004FF0000C09E04FF0010C01E04FF0000C0E
:104EF800039B02331993039B9B78A3F13001092983
:104F080038D81946302904D1199B591C1991597858
:104F1800F8E7A1F1310EBEF1080F0B462CD8A1F12C
:104F280030030593199B0693199B03F1010ECDF8E5
:104F380064E05B78A3F13001092908D805994FF09E
:104F48000A0E0EFB0131A1F130030593ECE7069937
:104F5800C1EB0E0EBEF1080F44F61F6E04DC059976
:104F68007145A8BF714600E07146BCF1000F04D03E
:104F7800494202E0039919910021002C54D10028DC
:104F880040F06384049A002A40F05F84002F41D1E6
:104F98004E2B20D002DC492B0AD03BE0692B07D0EE
:104FA8006E2B18D036E000BFA0A000000000F07FF4
:104FB80019A8AA49FFF729FE60B3199B19A8013B54
:104FC800A7491993FFF721FE10B9199B01331993CB
:104FD800DFF8A4921AE019A8A249FFF716FEC8B193
:104FE800199B1B78282B0FD119A89F491CAA02F0DE
:104FF80063F8052808D11D9BDDF8708043F0FF4950
:1050080049F4E00900F021BCDFF870924FF0000885
:1050180000F01BBC039B1993159B002B00F0208408
:105028000023099300F013BC8B1A06932B46002D1E
:1050380008BF23465846102C25460393A8BF1025C1
:10504800FDF75AFF092D8046894613DD874B03EB90
:10505800C50353E91223FDF7C5FF8046304689464C
:10506800FDF74AFF02460B4640464946FDF708FE53
:10507800804689460F2C36DC069B002B00F0E58322
:1050880024DD162B07DC794A02EBC302D2E90001C2
:105098004B46424615E0069AC4F125039A4222DCA3
:1050A800724DC4F10F0405EBC403D3E90001424675
:1050B8004B46FDF797FF069B1C1B05EBC405D5E97E
:1050C8000023FDF78FFF80468946BEE3069B13F158
:1050D800160F08DB654A4046A2EBC30249460CCAD4
:1050E800FEF7AAF8EFE7069B651B1D44002D58DD67
:1050F80015F00F020AD05D4B03EBC203D3E90001A0
:1051080042464B46FDF76EFF8046894635F00F054F
:1051180000F0BA80B5F59A7F0FDD4FF0000BCDF89F
:105128000CB0CDF81CB0CDF814B02223CAF800306A
:10513800DFF844914FF0000883E14946DFF84091D9
:1051480040464E462D110027012D0ADDEA0703D5FA
:10515800D9E90023FDF746FF01376D1009F1080969
:10516800F2E78046A1F1547906EBC7064246D6E934
:1051780000014B46FDF736FF21F0004389460A46F9
:105188001B0D3B491B058B428046C6D8A1F58011F3
:105198008B4286BFDFF8EC904FF0FF3802F154796C
:1051A80072E071D06D4215F00F020AD02F4B4046C5
:1051B80003EBC2034946D3E90023FEF73DF88046D6
:1051C80089462D1160D01F2D08DD4FF0000BCDF85A
:1051D8000CB0CDF81CB0CDF814B02BE140464946D0
:1051E80015F0100F0CBF00236A23224E0493002DE4
:1051F80008DDEB0703D5D6E90023FDF7F3FE6D10B4
:105208000836F4E7049B80468946EBB1C1F30A539C
:10521800C3F16B03002B0A4616DD1F2B0EDD342B62
:10522800DEBF203B4FF0FF3101FA03F34FF00008D7
:10523800CCBF4FF05C7903EA020905E04FF0FF327A
:1052480002FA03F303EA0008404649460022002315
:10525800FEF730F90028B8D118E000BF31A00000EF
:10526800B8A1000039A0000064A0000030A200002E
:105278000000A07C78A000000000F07F0000F8FF8C
:10528800F8A20000FFFFEF7F00230493CDF800B0E1
:1052980050460799039A234602F08BF80790002896
:1052A8003FF43BAF069A069B002AC3F100034FF078
:1052B800000BA8BF00230E93CDF80CB0079B5046F7
:1052C800596801F0ECFF059000283FF42EAF079BCA
:1052D8000C301A69079B023203F10C01920001F0AD
:1052E800D3FF1BAB00931CAB0193504642464B4681
:1052F800CDE90A8902F013FB1A9000283FF415AF94
:105308005046012102F0E2F8039000283FF40DAF67
:10531800069B049923EAE3771B9B1C9C002BAABFDE
:105328000E9AFA1AD618A3EB010323446FF47F717F
:10533800ACBF3A460E9E8B42C4F1360480F286809A
:10534800C91A1F29A4EB0104C8BFB3494FF00100D3
:10535800D5BF00FA01F3C91A149300FA01F3D9BFB3
:1053680000230F930F9314903519049BB5421444EE
:105378001C442B46A8BF3346A342A8BF2346002B94
:10538800C2BFED1AE41AF61A0E9B002B63D1002D4A
:105398007BDC002F40F08380002C00F38A80002EF5
:1053A80000F3918050461A99059A02F0E6F983466F
:1053B80000283FF4BAAEC3680024C4600399089378
:1053C80002F0BFF9A04280F28D80089B002B40F0CC
:1053D8001582B8F1000F40F01182C9F31303002BB6
:1053E80040F00C8229F000431B0D1B05B3F1D66F6A
:1053F80040F20482DBF81430002B6ED059460122AB
:10540800504602F04BF90399834602F09AF90028B6
:1054180040F3F48129F00043049A1B0D1B05002A70
:1054280000F08F80B3F1D66F00F38B80B3F15C7F0F
:1054380000F3E68122234FF000084FF00009CAF874
:105448000030079B002B40F0EC81FEE100230F9316
:105458000123149388E71A465046039902F0D0F8BE
:105468000390034600283FF460AE504619461A9A46
:1054780002F035F8089000283FF457AE50461A99C4
:1054880001F042FF089B1A9381E750461A992A4671
:1054980002F004F91A9000287FF47BAF45E65046E5
:1054A80005993A4602F0ACF8059000287FF474AFED
:1054B8003BE650460599224602F0F0F80590002890
:1054C8007FF46DAF31E650460399324602F0E6F8B4
:1054D800039000287FF466AF27E6DBF81030012B35
:1054E8008CDC8BE162D1089AC9F3130322B34B49D0
:1054F8004A468B422ED1049B414663B1484B134028
:10550800B3F1D46F07D81B0DC3F16B034FF0FF3015
:1055180000FA03F301E04FF0FF3399421AD1414BEF
:105528009A4202D101313FF400AE3D4B4FF00008E2
:10553800134003F5801961E163B9B8F1000F09D18F
:1055480068E7A3F580136FEA13594FF0FF386FEA45
:10555800095953E10F9B13B113EA090F02E0149B99
:1055680013EA080F00F04A81089B40464946049A0E
:1055780053B1FFF75DFB02460B46DDE90A01FDF773
:105588007FFB8046894639E1FFF752FB02460B460E
:10559800DDE90A01FDF772FB0022002380468946F7
:1055A800FDF788FF00287FF445AF27E158460399A7
:1055B80002F007FA00224FF0804306460F46FDF737
:1055C8008DFF00283FD0089B13B10026164F10E02E
:1055D800B8F1000F03D1C9F313033BB90BE0B8F1DD
:1055E800010F03D1B9F1000F3FF424AF0F4F00268C
:1055F80000240D4D3CE03046394600220A4BFDF7A9
:1056080063FFB8B9304639460022094BFDF7EAFC7A
:1056180004460D4610E000BFE3FBFFFFFFFF0F004D
:105628000000F07FFFFFEF7F0000F03F0000F0BFB9
:105638000000E03F089C9A4D05F10043169417932B
:10564800DDE9166714E0964B304639460022FDF72F
:10565800C9FC089B04460D4623B901F1004310908C
:10566800119303E002460B46CDE91023DDE91067EC
:1056780029F0004C4FEA1C5C8A4B4FEA0C5C9C45B5
:1056880031D1DDE90A23A9F1547940464946CDF8DC
:105698003CC0CDE90C2302F0CFF802460B46304659
:1056A8003946FDF79FFC02460B4640464946FDF742
:1056B800E7FA21F000431B0D7B4A1B059342804605
:1056C800DDF83CC00CD9794B0D9A9A4203D10C9B5A
:1056D80001333FF42AADDFF8D4914FF0FF387CE076
:1056E80001F1547944E0049B63B3BCF1D46F29D829
:1056F80063A3D3E9002320462946CDF83CC0FDF733
:10570800EDFEDDF83CC0C8B129462046FDF704FF90
:10571800002808BF0120FDF7EFFB089B04460D4653
:10572800DDF83CC023B901F100431290139303E064
:1057380002460B46CDE91223DDE9126707F1D6636D
:10574800CCEB0307DDE90A01CDF83CC002F074F8A0
:1057580002460B4630463946FDF744FC02460B46E6
:10576800DDE90A01FDF78CFA80468946DDF83CC080
:10577800049B4E468BBB29F000431B0D1B059C4523
:105788002BD12946204603F0EBF9FDF7C5FB0B4664
:10579800024629462046FDF771FA089B04460D4645
:1057A8002BB9B8F1000F02D1C9F313067EB136A3A5
:1057B800D3E9002320462946FDF786FE88BB34A39B
:1057C800D3E9002320462946FDF79CFE04E032A3D6
:1057D800D3E90023FDF778FE18BB50461A9901F06B
:1057E80093FD5046059901F08FFD5046039901F04D
:1057F8008BFD5046594601F087FD5FE5049B83B158
:105808002B4B40460D9300230C934946DDE90C23AE
:10581800FDF7E8FB8046894619B910B92223CAF872
:10582800003050461A9901F06FFD5046059901F075
:105838006BFD5046039901F067FD5046079901F04A
:1058480063FD5046594601F05FFD159B13B1199B46
:10585800159A1360099B1BB1424609F1004307E002
:1058680042464B4604E0002422460127FFF71DBBB1
:10587800104619461FB0BDE8F08F00BFAFF3008097
:105888000000C0FFFFFFDF419535A094FFFFDF3F19
:1058980035E5AF350000E03F9535A094FFFFCF3FD9
:1058A8000000E03F0000E07FFFFF9F7CFFFFEF7FED
:1058B8000000503903460A46024908681946FFF7AE
:1058C800DBB900BF7C0400202DE9F0470F46404CAF
:1058D800D4F800903D4615F801EB09EB0E04667804
:1058E80006F0080404F0FF060CB12F46F2E77446F0
:1058F8002D2C03D1BD1C7C78012603E02B2C04BF82
:105908007C78BD1C13B1102B0AD15AE0302C56D12B
:105918002C7804F0DF04582C4CD16C781023023515
:10592800002E14BF4FF000486FF00048B8FBF3FAA0
:105938000027BE4603FB1A8809EB040C9CF801C03B
:105948001CF0040F01D0303C0BE01CF0030C1BD002
:10595800BCF1010F0CBF4FF0370C4FF0570CCCEBDC
:1059680004049C4210DAB7F1FF3F0AD0D64506D8A6
:1059780001D1444503DC03FB0E4E012701E04FF043
:10598800FF3715F8014BD7E77C1C73460AD1002E68
:105998004FF0220114BF4FF000436FF00043016045
:1059A8002AB911E00EB1CEF100036AB107B1691E40
:1059B800116009E03024002BB2D10823B0E70A2394
:1059C800AEE7302CACD1A3E71846BDE8F08700BF9E
:1059D8008004002030B505460C461346034A294684
:1059E80010682246BDE83040FFF76EBF7C040020F7
:1059F80030B5141E9BB0054604DA8B2303604FF0C4
:105A0800FF301CE04FF40272ADF80C200CBF2246A8
:105A180004F1FF32029205924FF6FF720091049151
:105A2800ADF80E2069461A461E9B02F095F8431CF5
:105A3800BCBF8B232B6014B1009B00221A701BB0D3
:105A480030BD000073B506460D4614460093044B5E
:105A5800314618682A462346FFF7CAFF02B070BDD0
:105A68007C04002070B50D461446064618B18369BB
:105A78000BB900F0FBFF224B9C4201D1746808E08F
:105A8800204B9C4201D1B46803E01F4B9C4208BFE5
:105A9800F468A369A360A3891A0709D523693BB1F0
:105AA80023682069EDB2181A636998420FDB08E091
:105AB8003046214600F02AF80028F1D04FF0FF3098
:105AC80070BD3046214600F055FF0028F6D1A36886
:105AD8000130013BA36023685A1C22601D70636972
