:1000000000200020F5010000FD01000001020000B9
:10001000490200004D0200009502000000000000AF
:10002000000000000000000000000000DD020000F1
:10003000E102000000000000E502000009260000C7
:10004000F9020000F9020000F9020000F9020000C4
:10005000F9020000F9020000F9020000F9020000B4
:10006000F9020000F902000000000000F90200009F
:10007000F9020000F9020000F9020000F902000094
:10008000F9020000B126000025270000F902000057
:10009000F902000041270000F9020000F902000007
:1000A000F9020000F9020000F9020000F902000064
:1000B000F9020000F9020000F9020000F902000054
:1000C000F9020000F9020000F9020000F902000044
:1000D000F9020000F9020000F9020000000000002F
:1000E00000B583B000F08AF9304B314A1360314AD1
:1000F0001360314B314A03E0116819600433043254
:100100002F498B42F8D32A4B1A682E4B9A4204D1BE
:10011000284B1A682C4B9A4200D0FEE7234B2B4AFF
:1001200013602B4A13602B4B02E000221A60043349
:10013000294A9342F9D3254B1B6813B9244B1B68FA
:1001400003B1FEE700F066F901A8694600F010F976
:10015000224C234B1C1BA410002504E01F4B53F81A
:10016000253098470135AC42F8DC1E4C1E4B1C1B59
:10017000A410002504E01B4B53F8253098470135A7
:10018000AC42F8DC0198009902F042FA0546174C9F
:10019000174B1C1BA41004E0013C144B53F82430F3
:1001A0009847002CF8DC284600F0BEF8BABADECA40
:1001B00000000020B804002000000020B09E0000D5
:1001C000BC0400207856341232547698BC040020C7
:1001D00038070020BC0400203C0700202403000056
:1001E0002403000024030000240300002403000073
:1001F0002403000008B5FFF773FF00BF00BEFEE751
:100200001EF0040F0CBFEFF30880EFF30980714676
:10021000364A10472DE9F04182B007468846084B20
:100220005D6B9C6B9E6A074800F0CAF8CDF80080B1
:10023000384631462A46234600F0F0F800BEFEE775
:1002400000ED00E06488000000BEFEE71EF0040F31
:100250000CBFEFF30880EFF309807146244A104782
:100260002DE9F04182B007468846084B5D6B9C6BD8
:100270009E6A074800F0A4F8CDF800803846314661
:100280002A46234600F0CAF800BEFEE700ED00E073
:10029000748800001EF0040F0CBFEFF30880EFF32A
:1002A00009807146134A10472DE9F04182B0074694
:1002B0008846084B5D6B9C6B9E6A074800F080F88F
:1002C000CDF80080384631462A46234600F0A6F88D
:1002D00000BEFEE700ED00E08088000000BEFEE703
:1002E00000BEFEE700BEFEE77047000015020000FA
:0C02F00061020000A9020000FEE700BF50
:1002FC00B09E000000000020BC040020B09E000056
:10030C000000001000000010BC0400203C0700207E
:08031C000000001000000010B9
:10032800FEE700BF08B50D4B1B6813B90C4A0B4B11
:100338001A600A4B1A68C31C23F0030313440949C3
:100348008B4206D903F0F6F90C2303604FF0FF3017
:1003580008BD02490B60104608BD00BFC00400205C
:100368003C070020001C002001230360014B0B60A8
:10037800704700BF0400002008B503F0DBF95823DC
:1003880003604FF0FF3008BD08B503F0D3F95823D8
:1003980003604FF0FF3008BD08B503F0CBF95823D0
:1003A8000360002008BD00BF08B503F0C3F9582357
:1003B80003604FF0FF3008BD0FB400B583B004AB45
:1003C80053F8042B01930848802105F003F9011E16
:1003D80003DD054800F00AF80146084603B05DF859
:1003E80004EB04B0704700BFC80400204FF0FF3092
:1003F800704700BF08B500F0C1F8024B024A9A6086
:1004080008BD00BF00ED00E00000000008B500F0E6
:1004180079F808BDF8B504460D4617461E46264825
:10042800FFF7CAFF25482168FFF7C6FF244861681F
:10043800FFF7C2FF2348A168FFF7BEFF2248E16823
:10044800FFF7BAFF21482169FFF7B6FF2048616925
:10045800FFF7B2FF1F48A169FFF7AEFF1E48E16929
:10046800FFF7AAFF1D48FFF7A7FF1D482946FFF71A
:10047800A3FF1C4CE16A1C48FFF79EFF216B1B4839
:10048800FFF79AFFE16B1A48FFF796FF15F0800F08
:1004980003D018483946FFF78FFF15F4004F03D0F3
:1004A80015483146FFF788FF1448FFF785FF1448C1
:1004B8000699FFF781FFF8BD4887000058870000BC
:1004C8006887000078870000888700009887000008
:1004D800A8870000B8870000C8870000D8870000F8
:1004E800E487000000ED00E0F487000004880000C5
:1004F8001488000024880000348800004488000024
:100508004C880000184B1B8803F01803182B21D8BF
:10051800DFE803F00D2020202020202017202020B5
:100528002020202017202020202020201C000E4BD7
:10053800B3F8442402F001020C4BD3400C4A136078
:1005480008E04FF400420A4B1A6003E0094B1A68AE
:10055800074B1A60044B1A8802F00702044B1B6809
:10056800D340054A13607047002000400024F4007F
:1005780094050020980500209005002008B5002368
:10058800054A1381A2F5B0621380A2F8443493801F
:100598009385FFF7B7FF08BD8025004010B4038896
:1005A8009BB2490003248C4023EA04038A401A447E
:1005B80092B2028001205DF8044B704730B40446C3
:1005C8000579012000FA01F3C3F1FF032B408A40AB
:1005D8001A44D2B2227130BC704700BF30B404460E
:1005E800057A012000FA01F3C3F1FF032B408A408A
:1005F8001A44D2B2227230BC704700BFC9B2017728
:10060800007F7047C9B280F8201090F8200070472A
:10061800012803D1034B188E80B27047014B187A1A
:10062800C0B2704700300040012803D1034B988DB9
:1006380080B27047014B988880B270470030004004
:100648000A4313439BB20382012070470A4392B2C4
:1006580082810120704700BF00797047C9B20172DA
:1006680001207047008880B2704700BFB1F5005F75
:100678000AD1038A9BB243F400530382038A23F40A
:1006880000531B041B0C0382B2F5805F0AD1038A56
:100698009BB243F480530382038A23F480531B04E0
:1006A8001B0C038201207047F0B4224CA488C4F3C9
:1006B8004224072C14D8DFE804F0120406080A0CB8
:1006C8000E1002240CE004240AE0082408E0102498
:1006D80006E0202404E0402402E0802400E0012415
:1006E800144DB5F8445415F0010F00D064006501AD
:1006F800114CB4FBF5F6B6FBF1F6B7B207854FF42B
:100708000067B7FBF5F504FB05F4B4FBF6F4B4FB9E
:10071800F1F1A1F5006141F4084189B28184002119
:10072800017103F03C0302F003021A430273007DD7
:10073800F0BC7047002000400024F400037D13F053
:10074800200F03D0C9B20170012070470020704704
:10075800007870470AB1C9B20174007E704700BFC3
:10076800C9B2017101207047007A7047074A084BE7
:100778001A600023074A1360074A137046F2A8124A
:10078800064B1A600122064B1A7070470C000020B5
:10079800AC050020A00500209C050020A80500202D
:1007A800A405002000B583B0084A6B46106851685C
:1007B80003C301206946082201F00EFEC82001F09B
:1007C8000BFF002003B05DF804FB00BF9088000019
:1007D80030B583B000238DF800308DF801308DF8E6
:1007E80002308DF803308DF804308DF805308DF81F
:1007F80006308DF8073020B30446144B1D682B6A69
:1008080003F03F0343F0400302A901F8083DAA6A38
:1008180001320120D2B201F04FFE002323600123F0
:1008280009E0216802AA1A4412F8082C02EB0122F6
:1008380022600133DBB2AA6A01329342F1DB002065
:1008480001E04FF0FF3003B030BD00BFAC05002021
:1008580010B4002316E00478144214BF01240024C5
:10086800B4EBD31F04D05B00DBB283F0070301E0D5
:100878005B00DBB2520800E08022002AEBD1013095
:100888000139C9B20029F7D118465DF8044B704701
:1008980030B585B0044600238DF809308DF80A304C
:1008A8008DF80B308DF80C308DF80D308DF80E303A
:1008B8008DF80F308DF800308DF801308DF802304A
:1008C8008DF803308DF804308DF805308DF806303A
:1008D8008DF80730244B1D78036803F03F0343F07D
:1008E80040038DF808301DB182680232D2B202E0AE
:1008F80082680132D2B2012002A901F0DDFD012D8A
:1009080019D1236803F03F0343F040038DF800300A
:10091800012307E004AA1A4412F8081C02F8101C64
:100928000133DBB2A1688A1C9342F3DB6846D1B27B
:10093800FFF78EFF05469DB900236360012309E098
:10094800616804AA1A4412F8082C02EB01226260BA
:100958000133DBB2A26801329342F1DB002001E0EF
:100968006FF0010005B030BD9C05002010B50446AD
:100978000368062B08D0064B1B682BB1054B18687B
:1009880000F018F8002802DB2046FFF781FF10BDB1
:10099800A0050020A805002038B50401044D2868EA
:1009A8002044FFF7E3FF2B681C44606838BD00BF94
:1009B800AC05002010B5044600230EE00B4B186868
:1009C8006030FFF7D3FF00280FDB084B1B685B6E16
:1009D80013F0400F0CBF012300230BB9013CEDD1EC
:1009E8000CB1002010BD6FF0020010BDAC05002056
:1009F80010B5044600230DE00B4B1868FFF7B6FF4F
:100A080000280FDB084B1B685B6813F0800F0CBFD6
:100A1800012300230BB9013CEED10CB1002010BD1D
:100A28006FF0020010BD00BFAC05002030B587B0E4
:100A38008DE80F0000238DF811308DF812308DF8F5
:100A480013308DF814308DF815308DF816308DF878
:100A5800173000F03F028DF810200A4607E0E41A2C
:100A680006A90C4404F8082C12120133DBB2029CCC
:100A7800A342F4DB0B4B1D7845B1611C04A8C9B235
:100A8800FFF7E6FE06AB234403F8070C15B1023462
:100A9800E2B201E00134E2B2012004A901F09CFCB9
:100AA80007B030BD9C05002000B585B00DF1100ED3
:100AB8000EE90F00084B1B682BB1084B1868FFF7AD
:100AC80079FF002805DB04AB13E90F00FFF7AEFF41
:100AD800002005B05DF804FBA0050020A805002053
:100AE80008B5044B1B6803EB001041600FC8FFF703
:100AF800DBFF08BDAC050020044B1B685B6F13F0DF
:100B0800400F02D10022024B1A607047AC0500204A
:100B1800A005002038B546F2A812124B1A60FFF75C
:100B280025FEFFF73FFE051E19DB00240E4B1C6057
:100B380011E00E4B1B6803EB0413DA68012A04D199
:100B48000FCBFFF7B1FF051E09DB072C01D1FFF71B
:100B5800D3FF0134E4B2282C01D8002DE9DA284665
:100B680038BD00BFA8050020A0050020AC05002066
:100B780000B583B0064B1868019001A8042101F064
:100B88009DFB0A2001F028FD03B05DF804FB00BFBF
:100B98009888000070B504460D46084602F0D0FD5E
:100BA800064604F00704E40044F0400404702946B3
:100BB80001F0B4FB3478012D08D80AE0DA0094403B
:100BC800F25C1443A4B20133DBB200E00123AB4270
:100BD800F4D3304602F0BCFD204670BD08B50420B1
:100BE8000121FFF7D7FF00F00F00082801D10120ED
:100BF80008BD002008BD00BF2DE9F04180460F4622
:100C080014461646501C02F09BFD054608F00708DE
:100C18004FEAC80880F80080012C01D1FF2201E0CA
:100C28004FF47F4201230AE007EA0201F01AC000EC
:100C38000141E954D9000A4192B20133DBB2A3421F
:100C4800F2D9611C2846C9B201F038FB284602F0E7
:100C58007FFDBDE8F08100BF10B5044601200221E8
:100C6800FFF798FF6403A4B2C0F30C0101202143ED
:100C78000222FFF7C1FF10BD10B50446022001464D
:100C8800FFF788FF20F0070004F007010143022066
:100C980089B20246FFF7B0FF10BD00BF10B5044689
:100CA80002200146FFF776FF20F4E06083B204F0EB
:100CB8000701022043EA01210246FFF79DFF10BD0C
:100CC80010B5044601200221FFF764FF20F00F0051
:100CD80083B204F00F01012019430222FFF78CFFB1
:100CE80010BD00BF10B5044602200146FFF752FFB1
:100CF80020F0200004F0010140EA4111022089B2ED
:100D08000246FFF779FF10BD10B5044602200146E0
:100D1800FFF740FF01461CB920F4805189B204E076
:100D2800012C02D140F4805189B202200246FFF71B
:100D380063FF10BD014B1860704700BF50050020CD
:100D4800014B5860704700BF50050020014B986068
:100D5800704700BF5005002008B510B1012807D022
:100D68000AE00122064B1A70064803F077FC08BD1A
:100D78000222034B1A7008BD0022014B1A7008BDED
:100D8800600500209C88000008B5074B1B7833B924
:100D9800064B186080B2002101F044FA08BD0448EF
:100DA80003F05CFC08BD00BF600500204C05002076
:100DB800B088000008B5074B1B7833B9064B18609C
:100DC80080B2012101F02EFA08BD044803F046FC68
:100DD80008BD00BF6005002048050020B08800005D
:100DE80008B5074B1B7833B9064B186080B202214F
:100DF80001F018FA08BD044803F030FC08BD00BF34
:100E0800600500205C050020B088000008B50020BF
:100E1800014601F007FA0020022101F003FA002040
:100E2800012101F0FFF908BD08B5FFF7A1FEFFF7A2
:100E3800D5FE70B10120FFF767FF0120FFF70CFF17
:100E48000020FFF72BFF0520FFF73AFF0120FFF7EF
:100E580049FF0122014B1A7008BD00BFCC050020D4
:100E680070B50E4640F080040125114B1D701148E5
:100E78000821FFF7C7FB284642F20A010222FFF7C2
:100E8800BBFE00200121FFF785FE20408442F8D1F7
:100E9800C82001F0A1FB03200221FFF77BFE308070
:100EA80004480821FFF7AAFB0022014B1A7070BD05
:100EB8007B0500200060004010B50446FFF7DCFE0B
:100EC80001200221FFF766FEC0F30C01012041F466
:100ED80040410222FFF790FE00200121FFF75AFE51
:100EE80020408442F8D1064803F0B8FB01200221D3
:100EF800FFF750FE00F46040B0F5804FF6D110BD0A
:100F0800E888000038B5194803F0A8FB0A2003F068
:100F180033FB00241DE00022154B1A702546154BA3
:100F280053F824201448114603F00EFB104B1B788D
:100F3800002BFBD0114803F091FB114B585DFFF7D4
:100F4800BBFF104803F08AFB0A2003F015FB0134AD
:100F5800E4B2022CDFD90022054B1A700A4803F0CC
:100F68007DFB0A2003F008FB38BD00BFF4880000B1
:100F78002E060020208A00000889000058890000F9
:100F8800E4880000648900007C89000000000000FB
:100F980038B50C4601F062FD0DA3D3E9002301F03A
:100FA800C3FD02F07BF805460D4B187801F056FD9D
:100FB80009A3D3E9002301F0B7FD02F06FF8014659
:100FC800284602F07DFA206038BD00BFAFF30080EC
:100FD80000000000009CA84000000000E0FFEF4077
:100FE800CC05002038B51446054B53F82050084668
:100FF80002F05EF9294602F0AFF9206038BD00BF63
:10100800308A000038B5054614460846044902F0FF
:10101800A3F9044B53F8251002F052FA206038BDAA
:101028000000C842148A00002DE9F04107468846AE
:1010380000230B60002102F04BFB18B10126C8F811
:10104800006000E0002600240A4D0EE038462946DC
:1010580002F034FB10B1731CC8F80030284605496B
:1010680002F072F8054601360134132CEEDDBDE8B6
:10107800F08100BF0000A0402DE9F041002529E0E3
:10108800164B5C5D2846FFF7F7FD154F284607EB22
:101098004401FFF7E5FEA60037F814001149314472
:1010A800FFF776FFDFF84880204637F8141008EB82
:1010B8000602FFF797FF0C4F204658F82410BA197C
:1010C800FFF7A0FF57F8240008493144FFF7ACFFA9
:1010D8000135EDB2022DD3D9BDE8F081E4880000D6
:1010E80008060020DC050020D0050020B4050020FB
:1010F800C005002070B582B000262BE03546344884
:10110800344B53F8261003F01FFA002407E0324846
:10111800324B595DDB2203F017FA0134E4B2304B4D
:1011280053F825309C42F2DB002404E0202003F031
:1011380023FA0134E4B22A4B53F82530C3F11503DE
:101148009C42F3DB5D2003F017FA092003F014FA40
:101158000136F6B2022ED1D90A2003F00DFA092081
:1011680003F00AFA00240BE01E4B53F8240001F0A8
:1011780087FC02460B461C4803F0E6F90134E4B24A
:10118800022CF1D90A2003F0F7F9092003F0F4F949
:1011980000240DE0154B53F8240001F071FC0246C1
:1011A8000B4625210091124803F0CEF90134E4B230
:1011B800022CEFD90A2003F0DFF9002404E00A200A
:1011C80003F0DAF90134E4B2022CF8D902B070BDA8
:1011D800A0890000208A0000B08900002C8A000045
:1011E800B4050020C0050020C0890000D0050020FB
:1011F800E089000008B50022094B1A60094B4FF03E
:1012080081421A60084A5A60084A9A60084ADA60B5
:101218000023084A1370084A1370FFF77BFC08BDC7
:101228000006002014060020529A2D3E000020419E
:10123800AF5A09BE04060020F405002010B5FFF7D8
:10124800D9FF1F4C204602210022FFF7C7F920468C
:1012580002210122FFF7B2F920460421FFF7D2F953
:10126800192040F6EC11FFF73BFC1A204FF41E61E1
:10127800FFF736FC09204FF49571FFF731FC0A207F
:1012880041F2C701FFF72CFC0B2041F21311FFF7C5
:1012980027FC03200B49FFF723FC04208021FFF7DC
:1012A8001FFC0120FFF778FB4FF6C37101400120B6
:1012B80041F48161FFF714FC012001F08DF910BDA4
:1012C80030600040CB24060008B5012040F284516C
:1012D800FFF706FC08BD00BF10B5093000F0FF0499
:1012E8002046FFF759FBC0F30E012046FFF7F8FB35
:1012F800012001F071F910BD10B5093000F0FF04AC
:101308002046FFF749FB81B2204641F40041FFF730
:10131800E7FB012001F060F910BD00BF10B582B0F5
:101328000446FFF7E9FF0122124B1A7012481021F8
:10133800FFF768F9FFF7C8FF42F21070FFF758FB94
:1013480010F1030F05D10D4803F088F94FF0FF3075
:101358000DE001A8FFF73CFA0022064B1A70064878
:101368001021FFF74BF92046FFF7B6FF019802B0AE
:1013780010BD00BF7B05002000600040AC9200005B
:1013880008B50020FFF7CAFF154B186001F090FF61
:101398004FF0964101F0D6FE01F072FB0CA3D3E9A1
:1013A800002301F0C1FB00224FF0795301F0BCFB90
:1013B80001F074FE01F064FB00220A4B01F000FA10
:1013C80005A3D3E9002301F0D9FC01F067FE08BDAD
:1013D800000000000088B340A4703D0AD7A3D83F9E
:1013E800080600200000594038B504460D46032081
:1013F800FFF7D2FA25B14FF48011A140014304E070
:101408004FF48011A14020EA01010320FFF768FB97
:10141800012001F0E1F838BD70B50E46154620F000
:101428007F4001F041FF0A4902F04AF84FF07E512F
:1014380001F088FE0446304601F03AFF014628468E
:1014480002F03EF80146204601F086FF70BD00BF5D
:10145800FEFFFF4A000000002DE9F041064601208A
:101468000146FFF7C1FF0120FFF758FF044601209E
:10147800FFF754FF384B586020460121374AFFF7E1
:10148800CBFF0546364B1860364B1B7853B301F03B
:10149800F7FA29A3D3E9002301F092F904460D468F
:1014A800304601F0EDFA26A3D3E9002301F08AF9CA
:1014B80025A3D3E9002301F037FB25A3D3E90023B3
:1014C80001F05CFC02460B462046294601F056FC1A
:1014D80002460B460020244901F072F901F0DEFDB6
:1014E800044620E0214CA6683046216801F02AFE17
:1014F8008046E7683846616801F024FE01464046A8
:1015080001F0DEFF04462846394601F01BFE184B61
:10151800196801F019FE214601F01EFF0146304608
:1015280001F012FE044601200021FFF75DFF20466E
:10153800BDE8F081AFF30080FA7E6ABC7493683F1F
:101548009A9999999911714037DE1D19AB25334045
:1015580000000000508EF740080600203333534047
:10156800F80500209C03002000001C401406002001
:10157800000600200000000070B5594D28460221E1
:10158800FFF73CF802200121FFF72EFF4FF4C87047
:1015980001F022F80220FFF7C1FE0446514B986083
:1015A80028460221FFF72EF8204601214E4AFFF770
:1015B80033FF06464D4B586001F062FA04460D466B
:1015C80039A3D3E9002301F02BFD48B1304648493F
:1015D80001F0C2FE4FF07E5101F0B4FD044651E027
:1015E8002046294630A3D3E9002301F02DFD80B120
:1015F800204629462EA3D3E9002301F011FD40B16E
:1016080030463C4901F0A8FE3B4901F09BFD0446E9
:1016180038E02046294626A3D3E9002301F014FD2B
:10162800B8B12046294624A3D3E9002301F0F8FCE9
:1016380078B12046294622A3D3E9002301F074FAA1
:1016480021A3D3E9002301F0BBF801F027FD0446EC
:1016580018E02046294618A3D3E9002301F0F4FC3A
:1016680078B1204629461AA3D3E9002301F05CFA91
:1016780019A3D3E9002301F0A3F801F00FFD0446F4
:1016880000E0002420461D4902F022F800B11B4C5E
:101698002046002101F0FEFF00B1002402200021B5
:1016A800FFF7A2FE204670BD9A9999999999F13F42
:1016B800CDCCCCCCCCCCF43F1F85EB51B81EFD3F34
:1016C8000AD7A3703D0A48400000000000C0474008
:1016D80052B81E85EB513A408FC2F5285C8F1F40E7
:1016E800306000400806002033335340F8050020DE
:1016F800000020410000C84100008C410000C842A1
:1017080008B501200146FFF76FFE0120FFF706FE2E
:1017180001210A4AFFF780FE094B186001F0B0F971
:1017280002460B46074802F00FFF0A2002F024FF8A
:1017380001200021FFF758FE08BD00BF3333534096
:1017480000060020B492000010B50A4802F086FF97
:10175800002409E004EB84039B0007482146074A5C
:101768001A4402F0F1FE01340E2CF3DD0A2002F0D7
:1017780003FF10BDCC920000089300008091000088
:10178800F0B583B0054601200146FFF72DFE012084
:10179800FFF7C4FD0121284AFFF73EFE0746284609
:1017A800002101F077FF48B3244B1B78C3EB4313A8
:1017B8009B00234AD258234B1A6022E02646631E18
:1017C800214AD05C01F074FD294601F063FF90B115
:1017D8001D4B185D01F06CFD294601F06FFF50B1FB
:1017E800164B1B78C3EB43131E44154B53F82620A6
:1017F800144B1A6005E00134E4B200E001241E2C09
:10180800DCD9104C676001200021FFF7EDFD20684E
:1018180001F036F904460D46384601F031F9CDE9B4
:1018280000010A4822462B4602F08EFE0A2002F0EA
:10183800A3FE03B0F0BD00BF3333534004060020BD
:101848003C8A0000140600209896000010930000BF
:10185800F0B583B0054601200146FFF7C5FD01201C
:10186800FFF75CFD0121284AFFF7D6FD0746284609
:10187800002101F00FFF48B3244B1B78C3EB43133F
:101888009B00234AD258234B9A6022E02646631EC7
:10189800214AD05C01F00CFD294601F0FBFE90B115
:1018A8001D4B185D01F004FD294601F007FF50B1FA
:1018B800164B1B78C3EB43131E44154B53F82620D5
:1018C800144B9A6005E00134E4B200E001241E2CB8
:1018D800DCD9104CE76001200021FFF785FDA068E6
:1018E80001F0CEF804460D46384601F0C9F8CDE9B6
:1018F80000010A4822462B4602F026FE0A2002F082
:101908003BFE03B0F0BD00BF33335340F405002065
:101918003C8A000014060020989600004C930000B2
:1019280030B583B06B4802F099FE6B4802F096FE22
:101938006A480DF1070102F0D1FE0022684B1A70C7
:101948000A2002F019FE9DF807305AB2792A01D010
:10195800592A0CD1634802F081FE60480DF1070155
:1019680002F0BCFE00225E4B1A70FFF7C9FEFFF7BB
:10197800EBFE002428E05C4802F070FE57480DF1A9
:10198800070102F0ABFE0022554B1A709DF80720A4
:10199800A2F13003DBB2092B03D8544A1370012497
:1019A80012E0A2F14103DBB2042B04D8373A4F4BC3
:1019B8001A70012408E0A2F16103DBB2042B03D8FA
:1019C800573A4A4B1A700124002CD4D0474B1B7845
:1019D80003EB83029200464C1444C3EB43139B0071
:1019E800444A1344D86A01F04BF802460B46424871
:1019F800214602F0A9FD0A2002F0BEFDFFF7C0FC57
:101A080005463E4802F02AFE34480DF1070102F06F
:101A180065FE0024324B1C702846FFF7B1FE28E013
:101A2800374802F01BFE2D480DF1070102F056FE63
:101A380000222B4B1A709DF80720A2F13003DBB26D
:101A4800092B03D82F4A1370012412E0A2F1410395
:101A5800DBB2042B04D8373A2A4B1A70012408E069
:101A6800A2F16103DBB2042B03D8573A254B1A7055
:101A78000124002CD4D0234B1B7803EB8302920063
:101A88001B4C1444C3EB43139B001A4A1344D86AF3
:101A980000F0F6FF02460B461748214602F054FDB7
:101AA8000A2002F069FD184802F0D8FD0B480DF134
:101AB800070102F013FE0022094B1A702846FFF7AF
:101AC800C7FE0A2002F058FD0A2002F055FD03B0B7
:101AD80030BD00BF8C9300009C930000CC930000A5
:101AE8002E060020D0930000189400000406002061
:101AF800809100003C8A0000549400008894000003
:101B0800F4940000F40500203095000030B583B04F
:101B18001D4D00242C701D4B1C701D4802F09EFDAD
:101B28001C4802F09BFD1C480DF1070102F0D6FD90
:101B38002C700A2002F020FD9DF807305AB2792A4D
:101B480001D0592A02D1FFF7EBFE17E00122134B0F
:101B58001A70134802F082FD0F480DF1070102F0D8
:101B6800BDFD0022084B1A709DF807305AB2792A39
:101B780001D0592A02D10022084B1A70094802F0F4
:101B88006DFD03B030BD00BF2E06002030070020D9
:101B98009C950000B0950000CC9300009C030020A9
:101BA800E09500003C96000008B5FFF7E9FB054BFF
:101BB8001860FFF751FC044B1860FFF7DDFC034B7E
:101BC800186008BD6C050020700500207405002011
:101BD80000B583B0124B186800F052FF02460B465E
:101BE800104802F0B1FC104B186800F049FF02469B
:101BF8000B460E4802F0A8FC0D4B186800F040FF99
:101C080002460B46252100910A4802F09DFC0A2055
:101C180002F0B2FC0A2002F0AFFC03B05DF804FB4E
:101C28006C05002060960000700500207896000082
:101C380074050020849600000122014B1A70704739
:101C4800790500200122014B1A70704778050020A1
:101C58000022014B1A707047600500200022014BDA
:101C68001A7070477805002008B50A2002F084FC35
:101C7800194802F0F3FC0A2002F07EFC174802F033
:101C8800EDFC174802F0EAFC164802F0E7FC16489B
:101C980002F0E4FC154802F0E1FC154802F0DEFC15
:101CA800144802F0DBFC144802F0D8FC134802F098
:101CB800D5FC134802F0D2FC124802F0CFFC1248BF
:101CC80002F0CCFC114802F0C9FC114802F0C6FC35
:101CD8000A2002F051FC08BDB8960000CC9600001E
:101CE800209700005C970000B4970000009800005F
:101CF8004C9800009C980000EC9800004099000067
:101D080094990000E8990000189A0000589A000079
:101D1800949A000008B5FFF787F8FFF7F3F808BDB5
:101D280008B5FFF7F3FE08BD002205E0202B01D01F
:101D38000AB17047012201300378002BF6D17047B1
:101D480004E0202B05D00131037001300B78002B03
:101D5800F7D100230370704710B582B0044603E042
:101D680068462146FFF7ECFF2046FFF7DDFF0446F3
:101D78000378002BF4D1684601F0D7FCFFF704F88C
:101D880002B010BD10B582B0044603E06846214693
:101D9800FFF7D6FF2046FFF7C7FF04460378002B5E
:101DA800F4D1684601F0C1FCFFF704F802B010BD99
:101DB80010B582B0044603E068462146FFF7C0FF2D
:101DC8002046FFF7B1FF04460378002BF4D168469C
:101DD80001F0ABFCFFF704F802B010BD10B582B0FB
:101DE800044603E068462146FFF7AAFF2046FFF7AE
:101DF8009BFF04460378002BF4D1684601F092FC5F
:101E080001F04CF9FEF796FF02B010BD10B582B094
:101E1800044603E068462146FFF792FF2046FFF795
:101E280083FF04460378002BF4D1684601F07AFC5E
:101E380001F034F9FEF784FF02B010BD10B582B08E
:101E4800044603E068462146FFF77AFF2046FFF77D
:101E58006BFF04460378002BF4D1684601F062FC5E
:101E680001F01CF9FEF772FF02B010BD10B582B088
:101E7800044603E068462146FFF762FF2046FFF765
:101E880053FF04460378002BF4D1684601F04DFC5B
:101E980001F00EFA01F026FCC0B2FEF75DFF02B0B9
:101EA80010BD00BF1C4B1B78012B2ED070471B4B5D
:101EB8005C5D1B4B53F824001A4B53F8241001F0B7
:101EC800FFFA01F00FFC80B2174B33F81430C01A38
:101ED80000F0C4FD0022154B00F026FE06460F4612
:101EE800DFF84C8038F8140000F0B8FD32463B4665
:101EF80000F068FC01F0B2F880B228F8140021461E
:101F080000F090F90135EDB202E02DE9F04100252D
:101F1800022DCCD9BDE8F08160050020E4880000DE
:101F280050050020308A0000080600200000E03F2D
:101F38006405002008B50023054A1370054A13708C
:101F48000A2000F069F83E2000F066F808BD00BFDE
:101F58002E0600202D06002070B50646002408E055
:101F68003046074B53F82410062202F0FFFB28B135
:101F78000134044B53F82450002DF1D1284670BD8C
:101F8800DC030020A003002010B50E48FFF7E4FF93
:101F980030B104460A2002F0EFFA0B48A04710BD02
:101FA800084B1B784BB10A2002F0E6FA074802F00A
:101FB800CBFA0A2002F0E0FA10BD0022044B1A7096
:101FC80010BD00BF3006002032060020C49A000071
:101FD8007905002070B506460D460E4C20460621B0
:101FE8000122FEF7DBFA204607210222FEF7D6FA85
:101FF800A4F58054204631462A460023FEF754FBB8
:10200800204601210022FEF7A5FB20460321FEF70A
:10201800A7FB70BD0060004008B501460022054BD3
:102028001A700548FEF78AFB024B1B78002BFBD081
:1020380008BD00BF7D0500200050004008B50248DB
:10204800FEF786FB40B208BD0050004010B50C46B4
:1020580003E0013440B2FFF7DFFF207843B20A2BD8
:10206800F7D105D10D20FFF7D7FF0A20FFF7D4FFDE
:10207800002010BD08B5094B1B78002BFBD0084B7E
:102088001878087040B2FFF7C7FF0A2002F074FA08
:102098000022024B1A70012008BD00BF3007002043
:1020A8002C06002038B5544D284604210022FEF79E
:1020B80095FA284604210222FEF770FA4F4C204672
:1020C80000210A46FEF78AFA204600210122FEF77F
:1020D80065FA284605210022FEF780FA28460521E0
:1020E8000222FEF75BFA204601210022FEF776FA6B
:1020F800204601210A46FEF751FA28460621002209
:10210800FEF76CFA284606210222FEF747FA204617
:1021180002210022FEF762FA204602210122FEF780
:102128003DFA204603210022FEF738FA2046032113
:102138000022FEF753FA204603210122FEF73EFA59
:1021480020460821FEF75AFA204604210022FEF70D
:1021580045FA204604210122FEF730FA20461021D4
:10216800FEF74CFA284600210122FEF727FA2846F6
:1021780001210A46FEF722FA603420460221012294
:10218800FEF71CFA284600210A46FEF707FA2846F9
:1021980001210022FEF702FA204602210022FEF762
:1021A800FDF928460121FEF729FA28460221FEF703
:1021B80025FA20460421FEF721FA4FF0402001219C
:1021C8000022FEF743FAA4F5E35420460121002239
:1021D800FEF73CFA20464FF44041022240F6CD3348
:1021E800FEF72EFA4FF040204FF48041022240F6CD
:1021F800CD33FEF725FA38BD30600040006000405E
:1022080008B54FF4E1300321FFF7E4FEFFF74AFF7A
:10221800034B4FF480221A604FF400321A6008BD55
:1022280000E100E038B505460C4601290DD011B192
:10223800022905D00DE01E480121FEF7E3F908E068
:102248001B480221FEF7DEF903E01A480421FEF7D5
:10225800D9F94FF040204FF400514FF48052FEF767
:1022680005FA4FF04020290AFEF7F8F94FF0402010
:10227800E9B2FEF7F3F9104B1B78002BFBD00022D4
:102288000D4B1A70012C0DD014B1022C05D038BD9D
:1022980007480121FEF7B2F938BD05480221FEF7CB
:1022A800ADF938BD03480421FEF7A8F938BD00BFD1
:1022B80030600040606000407F050020F8B50746A8
:1022C8000E460D02124B1B781BB912480821FEF767
:1022D80099F911484FF400514FF48052FEF7C6F9AE
:1022E800002405E00C48395DFEF7B8F90134E4B282
:1022F800B442F7D30848FEF7B5F928408542F9D12A
:10230800034B1B781BB903480821FEF777F9F8BD82
:102318007B0500200060004000440040F0B583B019
:1023280006460D4600238DF804308DF805308DF8EB
:1023380006308DF807300F020DE02BB9F15C02AAC8
:102348001A4402F8041C04E0AA2102AA1A4402F85A
:10235800041C0133DBB2AB42EFD91C4B1B781BB911
:102368001B480821FEF74EF91A484FF400514FF464
:102378008052FEF77BF9002408E002AB234415489D
:1023880013F8041CFEF76AF90134E4B2AC42F4D93C
:102398001048FEF767F938408742F9D10D48FEF733
:1023A8005BF93070002405E00A48FEF755F930550E
:1023B8000134E4B2AC42F7D3044B1B781BB9044890
:1023C8000821FEF71BF903B0F0BD00BF7B05002014
:1023D80000600040004400402DE9F84380460F4665
:1023E8001646082A02D04FF0000902E04FF0010912
:1023F800042635022D4B1B787BB9B8F1000F03D0AA
:10240800B8F1010F05D008E029480821FEF7FAF8CD
:1024180003E027481021FEF7F5F826484FF400514D
:102428004FF48052FEF722F9002405E02148395D77
:10243800FEF714F90134E4B2B442F7D31D48FEF7AD
:1024480011F92C4628408542F8D1B9F1000F16D071
:1024580018484FF400514FF48052FEF707F9002551
:1024680005E01448795DFEF7F9F80135EDB2B5429B
:10247800F7D31048FEF7F6F820408442F9D10B4B09
:102488001B788BB9B8F1000F04D0B8F1010F07D051
:10249800BDE8F88306480821FEF7B0F8BDE8F883E0
:1024A80003481021FEF7AAF8BDE8F8837B05002051
:1024B80000600040004400402DE9F04182B007462A
:1024C8000E46154600238DF804308DF805308DF83A
:1024D80006308DF8073014020DE02BB9F15C02AA22
:1024E8001A4402F8041C04E0AA2102AA1A4402F8B9
:1024F800041C0133DBB2AB42EFD3254B1B7863B925
:1025080017B1012F05D008E022480821FEF77AF814
:1025180003E020481021FEF775F81F484FF40051DA
:102528004FF48052FEF7A2F84FF000080AE002AB21
:102538004344194813F8041CFEF790F808F1010801
:102548005FFA88F8A845F2D31348FEF78BF82040C5
:102558008442F9D1002405E00F48FEF77DF8305594
:102568000134E4B2AC42F7D3094B1B7863B917B115
:10257800012F05D008E007480821FEF73FF803E0DF
:1025880004481021FEF73AF802B0BDE8F08100BF18
:102598007B05002000600040004400400A4B1B6897
:1025A8000A4AA2FB03239B09013BB3F1807F09D2AE
:1025B800074A5360E021074B83F8231000239360F8
:1025C80007231360704700BF90050020D34D6210A9
:1025D80010E000E000ED00E0034B1860024B1B68C0
:1025E800002BFBD1704700BF34070020034B1B684A
:1025F8001BB1024A1368013B13607047340700207F
:1026080008B5FFF7F3FF08BD08B50023204A13708B
:10261800204A1370204A1370204A1370204A1370FE
:10262800FFF7BCFFFFF7ECFD1E4802F017F8FEF7B6
:1026380005FEFEF7F9FBFEF7E9FB4FF47A70FFF7AA
:10264800CBFFFFF777FC4FF4FA70FFF7C5FF144B89
:102658001B78012B06D1FFF797FCFFF76BFC0022D4
:102668000F4B1A700A4B1B78012B03D1FFF79CFA0A
:10267800FEF702FD084B1B780BB1FFF713FC074B65
:102688001B78012BDFD1FEF735FDFFF7A1FADAE75A
:10269800780500207B0500206005002079050020D2
:1026A8002E0600205C9B000008B51548FEF75CF874
:1026B80080B210F0010F21D100F0060002281AD0D4
:1026C80004281BD1FFF7BAFC0D2803D101220D4BBA
:1026D8001A700AE00C4A1378591C11700B4AD0542E
:1026E8000B4B187001220B4B1A70074B1B780021FB
:1026F800064AD15408BD0122074B1A7008BD00BF15
:10270800005000402E0600202D0600203006002034
:102718002C060020300700207D05002008B54FF06A
:102728004020FDF79FFF10F0200F02D00122014B3F
:102738001A7008BD7F050020F8B54FF40012184B39
:10274800C3F880200020FDF76FFF044610F0080F43
:1027580015D0144B1F68144D2E78731C2B70002055
:10276800FDF756FFB8552A78104B1B78013B9A4263
:1027780005DD00222A700E4A13780133137014F411
:10278800807F07D00B4A137801331370084A1378F7
:10279800013313704FF40012014B1A60F8BD00BFEB
:1027A80000E100E0280600207A0500207C050020D2
:1027B800800500207E05002081F0004102E000BF76
:1027C80083F0004330B54FEA41044FEA430594EAE9
:1027D800050F08BF90EA020F1FBF54EA000C55EA24
:1027E800020C7FEA645C7FEA655C00F0E2804FEAF5
:1027F8005454D4EB5555B8BF6D420CDD2C4480EAD7
:10280800020281EA030382EA000083EA010180EA06
:10281800020281EA0303362D88BF30BD11F0004F54
:102828004FEA01314FF4801C4CEA113102D040428A
:1028380061EB410113F0004F4FEA03334CEA1333C5
:1028480002D0524263EB430394EA050F00F0A780DD
:10285800A4F10104D5F1200E0DDB02FA0EFC22FAD8
:1028680005F2801841F1000103FA0EF2801843FACC
:1028780005F359410EE0A5F120050EF1200E012ABD
:1028880003FA0EFC28BF4CF0020C43FA05F3C018FB
:1028980051EBE37101F0004507D54FF0000EDCF174
:1028A800000C7EEB00006EEB0101B1F5801F1BD31D
:1028B800B1F5001F0CD349085FEA30004FEA3C0C21
:1028C80004F101044FEA445212F5800F80F09A8017
:1028D800BCF1004F08BF5FEA500C50F1000041EB1B
:1028E800045141EA050130BD5FEA4C0C404141EB1F
:1028F800010111F4801FA4F10104E9D191F0000F46
:1029080004BF01460020B1FA81F308BF2033A3F1C8
:102918000B03B3F120020CDA0C3208DD02F1140CBF
:10292800C2F10C0201FA0CF021FA02F10CE002F1FA
:102938001402D8BFC2F1200C01FA02F120FA0CFCF3
:10294800DCBF41EA0C019040E41AA2BF01EB04513C
:10295800294330BD6FEA04041F3C1CDA0C340EDC3A
:1029680004F11404C4F1200220FA04F001FA02F37D
:1029780040EA030021FA04F345EA030130BDC4F13B
:102988000C04C4F1200220FA02F001FA04F340EA30
:102998000300294630BD21FA04F0294630BD94F0E1
:1029A800000F83F4801306BF81F480110134013DC8
:1029B8004EE77FEA645C18BF7FEA655C29D094EA39
:1029C800050F08BF90EA020F05D054EA000C04BFB7
:1029D8001946104630BD91EA030F1EBF00210020A2
:1029E80030BD5FEA545C05D14000494128BF41F041
:1029F800004130BD14F580043CBF01F5801130BDA5
:102A080001F0004545F0FE4141F470014FF000002F
:102A180030BD7FEA645C1ABF194610467FEA655CE0
:102A28001CBF0B46024650EA013406BF52EA033582
:102A380091EA030F41F4002130BD00BF90F0000F70
:102A480004BF0021704730B54FF4806404F13204AC
:102A58004FF000054FF0000150E700BF90F0000F65
:102A680004BF0021704730B54FF4806404F132048C
:102A780010F0004548BF40424FF000013EE700BF5C
:102A880042004FEAE2014FEA31014FEA02701FBFEC
:102A980012F07F4393F07F4F81F06051704792F0BE
:102AA800000F14BF93F07F4F704730B54FF4607438
:102AB80001F0004521F0004120E700BF50EA010283
:102AC80008BF704730B54FF000050AE050EA010230
:102AD80008BF704730B511F0004502D5404261EBA0
:102AE80041014FF4806404F132045FEA915C3FF4E1
:102AF800DCAE4FF003025FEADC0C18BF03325FEA7A
:102B0800DC0C18BF033202EBDC02C2F1200300FA2E
:102B180003FC20FA02F001FA03FE40EA0E0021FA53
:102B280002F11444C1E600BF70B54FF0FF0C4CF43D
:102B3800E06C1CEA11541DBF1CEA135594EA0C0FF3
:102B480095EA0C0F00F0DEF82C4481EA030621EA2E
:102B58004C5123EA4C5350EA013518BF52EA033569
:102B680041F4801143F4801338D0A0FB02CE4FF01B
:102B78000005E1FB02E506F00042E0FB03E54FF04B
:102B88000006E1FB03569CF0000F18BF4EF0010E43
:102B9800A4F1FF04B6F5007F64F5407404D25FEA3F
:102BA8004E0E6D4146EB060642EAC62141EA5551F2
:102BB8004FEAC52040EA5E504FEACE2EB4F1FD0C34
:102BC80088BFBCF5E06F1ED8BEF1004F08BF5FEAB2
:102BD800500E50F1000041EB045170BD06F0004664
:102BE80046EA010140EA020081EA0301B4EB5C0411
:102BF800C2BFD4EB0C0541EA045170BD41F4801109
:102C08004FF0000E013C00F3AB8014F1360FDEBF2D
:102C1800002001F0004170BDC4F10004203C35DA09
:102C28000C341BDC04F11404C4F1200500FA05F38C
:102C380020FA04F001FA05F240EA020001F000422D
:102C480021F0004110EBD37021FA04F642EB0601A3
:102C58005EEA430E08BF20EAD37070BDC4F10C04CD
:102C6800C4F1200500FA04F320FA05F001FA04F291
:102C780040EA020001F0004110EBD37041F100017D
:102C88005EEA430E08BF20EAD37070BDC4F1200588
:102C980000FA05F24EEA020E20FA04F301FA05F2F0
:102CA80043EA020321FA04F001F0004121FA04F298
:102CB80020EA020000EBD3705EEA430E08BF20EA68
:102CC800D37070BD94F0000F0FD101F000464000A2
:102CD80041EB010111F4801F08BF013CF7D041EA24
:102CE800060195F0000F18BF704703F00046520028
:102CF80043EB030313F4801F08BF013DF7D043EAF9
:102D08000603704794EA0C0F0CEA135518BF95EAAE
:102D18000C0F0CD050EA410618BF52EA4306D1D135
:102D280081EA030101F000414FF0000070BD50EA54
:102D3800410606BF1046194652EA430619D094EADE
:102D48000C0F02D150EA013613D195EA0C0F05D1C8
:102D580052EA03361CBF104619460AD181EA03011C
:102D680001F0004141F0FE4141F470014FF00000D4
:102D780070BD41F0FE4141F4780170BD70B54FF06F
:102D8800FF0C4CF4E06C1CEA11541DBF1CEA1355EF
:102D980094EA0C0F95EA0C0F00F0A7F8A4EB0504D1
:102DA80081EA030E52EA03354FEA013100F08880C8
:102DB8004FEA03334FF0805545EA131343EA126391
:102DC8004FEA022245EA111545EA10654FEA002646
:102DD8000EF000419D4208BF964244F1FD0404F5FF
:102DE800407402D25B084FEA3202B61A65EB03055B
:102DF8005B084FEA32024FF480104FF4002CB6EB18
:102E0800020E75EB030E22BFB61A754640EA0C0097
:102E18005B084FEA3202B6EB020E75EB030E22BFD7
:102E2800B61A754640EA5C005B084FEA3202B6EB18
:102E3800020E75EB030E22BFB61A754640EA9C00D7
:102E48005B084FEA3202B6EB020E75EB030E22BFA7
:102E5800B61A754640EADC0055EA060E18D04FEA65
:102E6800051545EA16754FEA06164FEAC30343EA05
:102E780052734FEAC2025FEA1C1CC0D111F4801FD2
:102E88000BD141EA00014FF000004FF0004CB6E7CB
:102E980011F4801F04BF01430020B4F1FD0C88BF6A
:102EA800BCF5E06F3FF6AFAEB5EB030C04BFB6EB75
:102EB800020C5FEA500C50F1000041EB045170BD68
:102EC8000EF0004E4EEA113114EB5C04C2BFD4EB95
:102ED8000C0541EA045170BD41F480114FF0000E19
:102EE800013C90E645EA060E8DE60CEA135594EA95
:102EF8000C0F08BF95EA0C0F3FF43BAF94EA0C0F98
:102F08000AD150EA01347FF434AF95EA0C0F7FF40C
:102F180025AF104619462CE795EA0C0F06D152EA60
:102F280003353FF4FDAE1046194622E750EA410644
:102F380018BF52EA43067FF4C5AE50EA41047FF455
:102F48000DAF52EA43057FF4EBAE12E74FF0FF3CBA
:102F580006E000BF4FF0010C02E000BF4FF0010C8B
:102F68004DF804CD4FEA410C7FEA6C5C4FEA430C04
:102F780018BF7FEA6C5C1BD001B050EA410C0CBF53
:102F880052EA430C91EA030F02BF90EA020F0020B5
:102F9800704710F1000F91EA030F58BF994208BF1C
:102FA80090422CBFD8176FEAE37040F001007047D9
:102FB8004FEA410C7FEA6C5C02D150EA013C07D130
:102FC8004FEA430C7FEA6C5CD6D152EA033CD3D07B
:102FD8005DF8040B704700BF8446104662468C4675
:102FE8001946634600E000BF01B5FFF7B7FF0028A8
:102FF80048BF10F1000F01BD4DF808EDFFF7F4FFD1
:103008000CBF012000205DF808FB00BF4DF808ED5B
:10301800FFF7EAFF34BF012000205DF808FB00BF7E
:103028004DF808EDFFF7E0FF94BF012000205DF8A0
:1030380008FB00BF4DF808EDFFF7CEFF94BF012055
:1030480000205DF808FB00BF4DF808EDFFF7C4FF4E
:1030580034BF012000205DF808FB00BF4A0011D2F0
:1030680012F5001211D20DD56FF47873B3EB6252DA
:103078000ED44FEAC12343F0004343EA505323FAE6
:1030880002F070474FF00000704750EA013002D15B
:103098004FF0FF3070474FF0000070474FEA410291
:1030A800B2F1E04324BFB3F5001CDCF1FE5C0DD99E
:1030B80001F0004C4FEAC0024CEA5070B2F1004FE8
:1030C80040EB830008BF20F00100704711F0804FEB
:1030D80021D113F13872BCBF01F00040704741F4B0
:1030E80080114FEA5252C2F11802C2F1200C10FAB4
:1030F8000CF320FA02F018BF40F001004FEAC12398
:103108004FEAD32303FA0CFC40EA0C0023FA02F33B
:103118004FEA4303CCE77FEA625307D150EA013311
:103128001EBF4FF0FE4040F44000704701F00040E1
:1031380040F0FE4040F40000704700BF80F00040BF
:1031480002E000BF81F0004142001FBF5FEA410377
:1031580092EA030F7FEA226C7FEA236C6AD04FEA77
:103168001262D2EB1363C1BFD218414048404140BC
:10317800B8BF5B42192B88BF704710F0004F40F46E
:10318800000020F07F4018BF404211F0004F41F48A
:10319800000121F07F4118BF494292EA030F3FD056
:1031A800A2F1010241FA03FC10EB0C00C3F1200369
:1031B80001FA03F100F0004302D5494260EB4000F8
:1031C800B0F5000F13D3B0F1807F06D340084FEA63
:1031D800310102F10102FE2A51D2B1F1004F40EB58
:1031E800C25008BF20F0010040EA030070474900C0
:1031F80040EB000010F4000FA2F10102EDD1B0FA8B
:1032080080FCACF1080CB2EB0C0200FA0CF0AABF7F
:1032180000EBC25052421843BCBFD040184370471D
:1032280092F0000F81F4000106BF80F40000013223
:10323800013BB5E74FEA41037FEA226C18BF7FEAFA
:10324800236C21D092EA030F04D092F0000F08BF3C
:103258000846704790EA010F1CBF0020704712F023
:103268007F4F04D1400028BF40F00040704712F162
:1032780000723CBF00F50000704700F0004343F0C7
:10328800FE4040F4000070477FEA226216BF0846FD
:103298007FEA23630146420206BF5FEA412390EAC0
:1032A800010F40F4800070474FF0000304E000BFB6
:1032B80010F0004348BF40425FEA000C08BF704767
:1032C80043F0964301464FF000001CE050EA01022B
:1032D80008BF70474FF000030AE000BF50EA010240
:1032E80008BF704711F0004302D5404261EB41012D
:1032F8005FEA010C02BF84460146002043F0B64352
:1033080008BFA3F18053A3F50003BCFA8CF2083A76
:10331800A3EBC25310DB01FA02FC634400FA02FC7F
:10332800C2F12002BCF1004F20FA02F243EB020086
:1033380008BF20F00100704702F1200201FA02FCE8
:10334800C2F1200250EA4C0021FA02F243EB0200DB
:1033580008BF20EADC7070474FF0FF0C1CEAD0521F
:103368001EBF1CEAD15392EA0C0F93EA0C0F6FD0E0
:103378001A4480EA010C400218BF5FEA41211ED0BE
:103388004FF0006343EA501043EA5111A0FB0131AA
:103398000CF00040B1F5000F3EBF490041EAD3717F
:1033A8005B0040EA010062F17F02FD2A1DD8B3F1FB
:1033B800004F40EBC25008BF20F00100704790F06A
:1033C800000F0CF0004C08BF49024CEA502040EABC
:1033D80051207F3AC2BFD2F1FF0340EAC250704782
:1033E80040F400004FF00003013A5DDC12F1190FC0
:1033F800DCBF00F000407047C2F10002410021FA32
:1034080002F1C2F1200200FA02FC5FEA310040F149
:10341800000053EA4C0308BF20EADC70704792F0C2
:10342800000F00F0004C02BF400010F4000F013AFA
:10343800F9D040EA0C0093F0000F01F0004C02BFF5
:10344800490011F4000F013BF9D041EA0C018FE764
:103458000CEAD15392EA0C0F18BF93EA0C0F0AD06A
:1034680030F0004C18BF31F0004CD8D180EA010090
:1034780000F00040704790F0000F17BF90F0004F29
:10348800084691F0000F91F0004F14D092EA0C0F0B
:1034980001D142020FD193EA0C0F03D14B0218BF9E
:1034A800084608D180EA010000F0004040F0FE40E4
:1034B80040F40000704740F0FE4040F44000704780
:1034C8004FF0FF0C1CEAD0521EBF1CEAD15392EAFF
:1034D8000C0F93EA0C0F69D0A2EB030280EA010CEF
:1034E80049024FEA402037D04FF0805343EA111188
:1034F80043EA10130CF000408B4238BF5B0042F1E6
:103508007D024FF4000C8B4224BF5B1A40EA0C008A
:10351800B3EB510F24BFA3EB510340EA5C00B3EBBC
:10352800910F24BFA3EB910340EA9C00B3EBD10FAA
:1035380024BFA3EBD10340EADC001B0118BF5FEAFC
:103548001C1CE0D1FD2A3FF650AF8B4240EBC25025
:1035580008BF20F0010070470CF0004C4CEA5020E6
:103568007F32C2BFD2F1FF0340EAC250704740F435
:1035780000004FF00003013A37E792F0000F00F027
:10358800004C02BF400010F4000F013AF9D040EAA5
:103598000C0093F0000F01F0004C02BF490011F439
:1035A800000F013BF9D041EA0C0195E70CEAD15331
:1035B80092EA0C0F08D142027FF47DAF93EA0C0F18
:1035C8007FF470AF084676E793EA0C0F04D14B02FC
:1035D8003FF44CAF08466EE730F0004C18BF31F0AE
:1035E800004CCAD130F000427FF45CAF31F00043A8
:1035F8007FF43CAF5FE700BF4FF0FF3C06E000BF41
:103608004FF0010C02E000BF4FF0010C4DF804CD63
:103618004FEA40024FEA41037FEA226C18BF7FEA73
:10362800236C11D001B052EA530C18BF90EA010F75
:1036380058BFB2EB030088BFC81738BF6FEAE17004
:1036480018BF40F0010070477FEA226C02D15FEAA0
:10365800402C05D17FEA236CE4D15FEA412CE1D00C
:103668005DF8040B704700BF844608466146FFE7D3
:103678000FB5FFF7C9FF002848BF10F1000F0FBDB5
:103688004DF808EDFFF7F4FF0CBF012000205DF8AE
:1036980008FB00BF4DF808EDFFF7EAFF34BF012033
:1036A80000205DF808FB00BF4DF808EDFFF7E0FFCC
:1036B80094BF012000205DF808FB00BF4DF808ED1D
:1036C800FFF7D2FF94BF012000205DF808FB00BF80
:1036D8004DF808EDFFF7C8FF34BF012000205DF862
:1036E80008FB00BF42000ED2B2F1FE4F0BD34FF0E1
:1036F8009E03B3EB126209D44FEA002343F0004360
:1037080023FA02F070474FF00000704712F1610F82
:1037180001D1420202D14FF0FF3070474FF0000054
:10372800704700BF002101F08DBE00210A2201F080
:1037380019BF0000014B1868704700BF78040020CB
:10374800024B0146186800F057B800BF7804002003
:10375800024B0146186800F00BB800BF780400203F
:1037680003460244934202D003F8011BFAE770476C
:1037780030B500293CD051F8042C0B1F1D49002AF4
:10378800B8BF9B180A680C4612B95A600B6030BD66
:1037980093420DD219685818904201BF5A585218CE
:1037A8001A60426823605A6030BD994203D80A46BD
:1037B80051680029F9D1146815199D420AD11B686E
:1037C8002344D0188842136012D108680344136058
:1037D8004B680CE002D90C23036030BD1C68181933
:1037E800884201BF08684968001918605960536029
:1037F80030BD00BF8805002070B5CC1C24F0030440
:1038080008340C2C38BF0C24002C064603DA0C2391
:103818003360002070BD8C42F9D3204A13681046EB
:103828001946A1B10A68121B0ED40B2A03D90A60E3
:103838008B188C501FE08B420BBF5A684A68026095
:103848005A6018BF0B4616E00B464968E9E7144D65
:103858002B681BB9304600F031FF286030462146FE
:1038680000F02CFF421C0346D1D0C51C25F00305EF
:1038780085420AD11C6003F10B001A1D20F00700D5
:10388800821A0AD05142995070BD3046E91A00F0A8
:1038980015FF0130BBD02B46ECE770BD8805002032
:1038A800840500202DE9F0471E4688B0149F002BA0
:1038B800B8BF06F10043129927F02007B6BF1E468D
:1038C80000232D23462F1446109DDDF84CA00B70C5
:1038D80003D0452F03D1013501E0032300E0022383
:1038E8008DE8280406AB039307AB049322463346BE
:1038F80001F0CAFF472F804602D1119BDB0726D56E
:10390800462F08EB050911D198F80030302B0AD161
:103918002046314600220023FFF76EFB18B9C5F197
:103928000105CAF80050DAF80030994420463146BB
:1039380000220023FFF760FB08B1CDF81C90079B1D
:103948004B4504D25A1C079230221A70F7E74046BA
:10395800079B159AC8EB0303136008B0BDE8F0870E
:10396800034673B50029B8BF494203F8022BB4BF18
:103978002D222B22092942701ADD0DF10704264653
:103988000A2291FBF2F502FB1511092D01F1300114
:1039980004F8011D2946F3DC3031651E04F8011CCA
:1039A800B5421A460AD215F8012B03F8012BF7E79E
:1039B8001A463024214402F8024B5970101A02B0FA
:1039C80070BD00002DE9F04F91B08B4615461E469C
:1039D8001A9F044603F0C2F9D0F800A0504600F040
:1039E800BDFE00230E933B680990073323F00703BD
:1039F80003F108029BF818803A60D3E90023CBE969
:103A08001223DBE9120100F031FE0128DBE9120183
:103A180019D100220023FFF7F9FA10B12D238BF8F2
:103A28004330A04BA04FB8F1470F88BF1F46032370
:103A3800CBF81030DBF8003023F00403CBF800306B
:103A48004FF00009A1E000F011FEDBF8003048B9A2
:103A5800964A974FB8F1470F88BF17460322CBF80D
:103A68001020E9E7DBF80420DBE91201571CCDE957
:103A78000A0101D1062209E0B8F1670F02D0B8F1B6
:103A8800470F05D1002A40F0C7810122CBF8042056
:103A9800DBF8042043F480638DE80C00CBF8003099
:103AA8000DF1330302930DAB03930EAB0593002383
:103AB8000693CDF81080DDE90A232046FFF7F2FED1
:103AC80008F0DF03472B07460AD10D9BD81C03DB00
:103AD800DBF80420934237DDA8F102085FFA88F882
:103AE800B8F1650F0D9915D8013942460BF1500010
:103AF8000D91FFF735FF0E9A81468318012ACBF8FE
:103B0800103003DCDBF80020D10738D50133CBF8BF
:103B1800103034E0B8F1660F18D10029DBF8043012
:103B280009DDCBF810101BB9DBF80020D20721D52E
:103B380001330B441CE01BB9DBF80020D00701D58A
:103B4800023315E0012313E04FF067080D9B0E9A2E
:103B5800934207DBDBF80020CBF81030D10709D5FA
:103B6800013305E0002BD4BFC3F102030123134442
:103B7800CBF810300D9B4FF00009CBF858309DF86A
:103B8800333013B12D238BF8433000962046594625
:103B98000FAA2B4600F05CF9013002D14FF0FF303C
:103BA80052E1DBF800305A0505D4204629463A464A
:103BB800DBF8103008E1B8F1650F40F2D080DBE99E
:103BC800120100220023FFF717FA50B320462946B6
:103BD800384A0123B0470130E0D00E9B0D9A9A4233
:103BE80009DBDBF80030D80705D4DBF800309F0785
:103BF80000F1108107E1204629465246099BB0474B
:103C08000130CBD000270E9B013B9F42EDDA2046C6
:103C180029460BF11A020123B0470130BED0013703
:103C2800F1E70D9B002B29DC20462946214A012378
:103C3800B0470130B2D00D9B2BB90E9B1BB9DBF8F6
:103C48000030D907D1D5204629465246099BB047AE
:103C58000130A3D04FF000080D9B20465B429845E9
:103C6800294608DA0BF11A020123B047013095D032
:103C780008F10108F0E73A460E9BA5E0DBF858206A
:103C88000E9B9A42A8BF1A46002A914602DC4FF0C2
:103C980000081CE0204629463A464B46B04701300A
:103CA800F5D17BE7789B0000749B0000809B0000A7
:103CB8007C9B0000AA9E0000204629460BF11A02B0
:103CC8000123B04701303FF469AF08F10108DBF880
:103CD8005830B9F1000FB4BF1A46C9EB030290453A
:103CE800EADB07EB03080D9A0E9B9A4210DBDBF820
:103CF8000030DA070CD40E9A1744C8EB07030D9F5F
:103D0800D21B9342A8BF1346002B1F4608DC0EE0C7
:103D1800204629465246099BB0470130EBD13DE782
:103D2800204629464246B04701303FF437AF4FF0AE
:103D380000080AE0204629460BF11A020123B04781
:103D480001303FF42BAF08F101080D9A0E9B002FAC
:103D5800A3EB0203A8BFDB1B9845EBDB45E70E9AF4
:103D6800012A01DCDB0736D5204629463A460123DD
:103D7800B04701303FF412AF204629465246099B0E
:103D8800B04701303FF40AAFDBE9120100220023FB
:103D9800FFF732F9E8B90E9B204629467A1C013B09
:103DA8001DE0204629460BF11A020123B0470130D5
:103DB8003FF4F4AE01370E9B013B9F42F1DB2046F6
:103DC80029464B460BF15002B04701307FF40DAF46
:103DD800E4E60027EFE7204629463A460123B047A4
:103DE8000130ECD1DAE6204629460BF1190201230D
:103DF800B04701303FF4D2AE0137DBF80C300F9AF0
:103E08009B1A9F42EFDBDBF80C000F9B9842B8BF70
:103E1800184619E00027F0E743F480638DE80C00AA
:103E2800CBF800300DF1330302930DAB03930EABC7
:103E3800059300230693CDF810802046DDE90A2378
:103E4800FFF730FD074640E611B0BDE8F08F00BF30
:103E58002DE9F84391461F468A680B690646934246
:103E6800B8BF1346C9F8003091F843200C46DDF876
:103E7800208012B10133C9F800302368990642BF87
:103E8800D9F800300233C9F80030256815F0060566
:103E98001CD094F843302268003318BF01239206DF
:103EA8001FD5E118302081F843005A1C94F84510BA
:103EB8002244023382F8431013E03046394604F1B5
:103EC80019020123C047013007D00135E368D9F84A
:103ED80000209B1A9D42F0DBDBE74FF0FF30BDE886
:103EE800F8833046394604F14302C0470130F4D024
:103EF8002268D9F80050E36802F00602042A08BFD5
:103F08005D1B2269A3680CBF25EAE575002593426D
:103F1800C4BF9B1AED184FF00009A9450ADA3046CC
:103F2800394604F11A020123C0470130D5D009F1FE
:103F38000109F2E70020BDE8F88300002DE9FF4100
:103F48000C461746227E98466E2A06460A9B01F1C1
:103F5800430100F0B08012D8632A23D00AD8002A7F
:103F680000F0BD80582A40F0CC8084F84520DFF866
:103F780004E257E0642A1ED0692A1CD0C1E0732AE3
:103F880000F0B18009D86F2A2ED0702A40F0B9808D
:103F9800226842F0200222603FE0752A24D0782A65
:103FA8003BD0AEE01A6804F14205111D1960136890
:103FB80084F84230A9E020681A6810F0800F02D017
:103FC800101D186008E010F0400F02F1040018609E
:103FD80002D0B2F9003000E01368002B3EDA2D223F
:103FE8005B4284F8432039E020681A6810F0800F9B
:103FF80002D0101D186007E010F0400F02F1040015
:10400800186001D0138800E01368227EDFF864E1AD
:104018006F2A0CBF08220A221CE07822DFF858E138
:1040280084F845202268186812F0800F00F1040512
:104038001D6003D1550601D5038800E00368D00749
:1040480044BF42F0200222601BB9226822F02002FD
:1040580022601022002084F8430002E0DFF814E117
:104068000A226568002DA8BF2068A560A4BF20F0BB
:104078000400206003B965B10D46B3FBF2F002FB02
:1040880010331EF8033005F8013D03460028F4D12B
:1040980000E00D46082A0BD12368DA0708D5236902
:1040A80062689A42DEBF302305F8013C05F1FF350E
:1040B800491B21612EE025681A6815F0800F606998
:1040C80003D0151D1D60136808E015F0400F02F1BC
:1040D80004051D60136801D0188000E018600023F3
:1040E80023610D4616E01A68111D19601568002134
:1040F8002846626802F082FE08B1401B606063686F
:1041080004E004F1420584F84220012323610023DE
:1041180084F84330CDF800803046214603AA3B4658
:10412800FFF796FE013002D14FF0FF301FE0304616
:1041380039462A462369C0470130F5D023689B07D2
:1041480005D4E068039B9842B8BF18460FE00025E5
:10415800E368039A9B1A9D42F3DA3046394604F124
:1041680019020123C0470130DED00135F0E704B061
:10417800BDE8F081849B0000959B00002DE9F04F7D
:1041880099468B6815465A1EB2F5AE7F82BF6FF40A
:10419800AE7203EB020C40F25D130F4688BF8B60D2
:1041A8000B684FF0000B43F4F06347F81C3B0646DE
:1041B8000C46B8465A46DA4687B098BF4FF0000C0E
:1041C800CDF80CB0CDF808B0CDF804B0A16800293E
:1041D80000F0EC802B681B78492B70D016D8392B4F
:1041E8000DD8312B40D22D2B46D002D82B2B43D0C3
:1041F800DCE02E2B00F09280302B23D0D6E0452B2C
:1042080000F09580462B77D0412B0CE0652B00F011
:104218008E800AD8542B75D002D84E2B34D0C5E0E6
:10422800592B75D0612B46D0C0E06E2B2CD004D80A
:10423800662B61D0692B42D0B8E0742B62D0792B01
:1042480066D0B3E0206810F4807F0DD020F08000A5
:1042580020600AF1010ABCF1000F00F08A800131E8
:104268000CF1FF3CA16084E012EB0B0F40F09E8044
:10427800216821F4C07105E02168080640F19680A4
:1042880021F08001216070E06AB9BAF1000F0CD109
:10429800216801F4E060B0F5E06F06D121F4F06127
:1042A8002160012261E0022A5ED0BBF1010F1ED01D
:1042B800BBF1040F1AE0012A78D1022255E0BBF1C4
:1042C800000F0ED1BAF1000F73D1216801F4E0603C
:1042D800B0F5E06F71D121F4F06121604FF0010B6E
:1042E80043E0BBF1030F02D0BBF1050F5ED10BF128
:1042F800010B5FFA8BFB38E0BBF1020F56D14FF090
:10430800030B32E0BBF1060F50D14FF0070B2CE046
:10431800BBF1070F4AD14FF0080B26E0216888054A
:1043280044D521F420712160CDF804A01DE0216856
:1043380001F4A060B0F5806F04D0480536D5BAF115
:10434800000F3AD0880558BF019821F4F06158BF92
:10435800C0EB0A0041F4C0715CBF0290CDF80C803C
:1043680021604FF0000A00E0032288F8003008F1CD
:104378000108A368013BA3602369013323616B68CB
:10438800013B002B6B6003DD2B6801332B601DE7BD
:10439800D4F88031304629460592CDF810C09847A8
:1043A800DDF810C0059A00283FF410AFBAF1000FED
:1043B80003D0236823F480732360013A012A0ED8BE
:1043C800B8450AD9D4F87C31304618F8011D2A4678
:1043D80098472369013B2361F2E70125AEE00BF121
:1043E800FF33062B22D8BBF1020F12D9ABF1030B16
:1043F8005FFA8BFBCBEB080BD84517D0D4F87C3190
:10440800304618F8011D2A4698472369013B236165
:10441800F2E7B845E1D9D4F87C31304618F8011DE7
:104428002A4698472369013B2361F2E72368DA05A6
:104438002CD55B050CD5B845CFD9D4F87C3130469E
:1044480018F8011D2A4698472369013B2361F2E7C2
:1044580018F8011C2369652903F1FF3308F1FF3BB4
:1044680023610DD045290BD0D4F87C3130462A463B
:104478009847236918F8021C013BA8F1020B236135
:10448800D4F87C3130462A469847D846256815F036
:10449800100552D188F80050236803F4C063B3F5BF
:1044A800806F05D1019BC3EB0A035A426BB916E032
:1044B800029BA3B1039B2A46591C30460A2300F0ED
:1044C800CBFF029BDDF80C80C21A04F26F139845EB
:1044D80028BF04F5B77840461A4900F01BF9304662
:1044E8003946002200F090F92268064612F0020FC1
:1044F8000F46D9F8003003D01A1DC9F8002006E08D
:1045080012F0040F03F10402C9F8002003D01B685D
:10451800C3E900670DE0D3F8008000F0A7F810B9F0
:1045280000F0F4F803E030463946FEF7B7FDC8F866
:104538000000E3680133E36000E00025284607B087
:10454800BDE8F08FA69B00000FB40A4B13B51C689A
:1045580024B1A36913B9204602F050F805AB2046F0
:10456800A168049A019303F0D9F902B0BDE810409C
:1045780004B070477804002038B5084B05461C681D
:1045880024B1A36913B9204602F038F82046294619
:10459800A268BDE8384003F08FBD00BF7804002052
:1045A80070B50E46054618B183690BB902F026F8B6
:1045B800AC68A389190701D5236983B92846214620
:1045C80001F06CF858B14FF0FF3070BD002B0EDBD6
:1045D800236816F8012C1A70236801332360A36836
:1045E80016F8012B013BA360002AEFD116E0A2695F
:1045F800934209DB236816F8012C1A70236819788E
:104608000A29EAD1284602E0284616F8011C224663
:1046180000F0F0FF421C50425041D3E7002B15DA5E
:10462800A269934208DB23680A221A702368197862
:1046380091420FD1284601E028460A21224600F07F
:10464800D9FF431C5842584130B1BCE723680A22BD
:104658001A702368013323600A2070BD024B01469B
:104668001868FFF79DBF00BF7804002031F00043B1
:1046780010B51BD00F4AA1F58014944210D901F14E
:10468800FF410C4A01F5E001914209D9B3F5801FB9
:1046980008D3094A934207D1B0FA80F0400910BD07
:1046A800042010BD032010BD002010BD0028E6D155
:1046B800022010BDFFFFDF7F0000F07F38B5064CF9
:1046C8000023054608462360FBF72CFE431C02D155
:1046D800236803B12B6038BD8C0500200FB40A4B4A
:1046E80013B51C6824B1A36913B9204601F086FFED
:1046F80005AB20466168049A019303F065FB02B09C
:10470800BDE8104004B070477804002000487047A6
:104718000000C07F0EB400B54FF402719CB0ADF834
:1047280014106FF00041049107914FF6FF711DAB13
:10473800ADF81610084953F8042B02900690086843
:1047480002A9019302F0D0FF029B00221A701CB04C
:104758005DF804EB03B0704778040020034613F8B3
:10476800012B002AFBD1181A0138704770B5A2B185
:10477800451E01396B7811F8014F6E1CA34206D112
:104788006FF00104641B1444E04202D11C46181B5C
:1047980070BD3546002BEDD1F8E7104670BD30B539
:1047A800036811F8014B01334CB11A78A2F14105A5
:1047B800192D98BF2032A242F3D0002030BD0360EB
:1047C800012030BD2DE9F0410F46904602F0FCFD76
:1047D80004460D46B8F1000F11D0C7F30A53C3F1D0
:1047E8006B03002B0BDD1B0503F17F55002405F53A
:1047F800401522462B46FEF797F9BDE8F081204682
:104808002946BDE8F08100002DE9F04F00239FB054
:104818001A9382460B46039115924FF000084FF009
:1048280000091993199B1A780D2A05D8092A13D259
:10483800002A00F0B78111E02B2A06D02D2A02D0D9
:10484800202A0BD108E0012200E0002209925A1C1C
:1048580019925B7823B9A5E10133E2E700230993B4
:10486800199C2378302B5CD16378582B01D0782B96
:104878004CD11AAB0093099B5046019319A9AE4A33
:104888001BAB01F0AAFF10F00706054600F0A5854E
:10489800062E05D1013400231994099300F09DBD1B
:1048A8001A9A3AB11CA8352102F07BFE50461A9993
:1048B80002F0F2FA1B9A062E21D8DFE806F0040D62
:1048C80008171C0D04004FF00009C84617E0DDF872
:1048D8007080DDF8749012E01D9B02F2334223F4DD
:1048E8008013DDF8708043EA025908E0DFF84C9243
:1048F8004FF0000803E06FF000494FF0FF38290738
:1049080040F16B8549F0004900F067BD199B5A1CBE
:1049180019925B78302BF9D0002B00F05E850123CB
:1049280000E000230026B34635460493199B0793FD
:10493800199C2778A7F13003DAB2092A0CD8082D78
:104948004FF00A0204F10104D4BF02FB0B3B02FB47
:10495800063601351994EBE7504602F0FFF9016875
:104968005046059102F0FAF90068FFF7F7FE05993D
:1049780002462046FFF7FAFE28B100203B462C46A7
:104988000246074657E00590504602F0E7F90068EE
:10499800FFF7E4FE199B05991A1819921B5C002D64
:1049A80041D12846302B05D1199B01305A1C199248
:1049B8005B78F7E7A3F13102082A42D8199A0792DF
:1049C800024600200446303B00F1010125D00A448C
:1049D80021460719B94211D0013101F1FF3EBEF15C
:1049E800080F04DC4FF00A0E0EFB0BFBF2E7102950
:1049F800DCBF4FF00A0E0EFB06F6EBE72044082852
:104A080000F1010403DC0A2101FB0B3B04E0102C3C
:104A1800DCBF0A2101FB06360021199B581C19909E
:104A28005B78084602E02C4608460A46A3F13001A6
:104A38000929C8D90127652B01D0452B64D16CB948
:104A480004E0652B40F0D7840022012728B9049B95
:104A5800002B00F0A780044600E00024199B039374
:104A680001331993039B5B782B2B07D02D2B02D096
:104A78004FF0000C09E04FF0010C01E04FF0000C82
:104A8800039B02331993039B9B78A3F130010929F7
:104A980038D81946302904D1199B591C19915978CD
:104AA800F8E7A1F1310EBEF1080F0B462CD8A1F1A1
:104AB80030030593199B0693199B03F1010ECDF85A
:104AC80064E05B78A3F13001092908D805994FF013
:104AD8000A0E0EFB0131A1F130030593ECE70699AC
:104AE800C1EB0E0EBEF1080F44F61F6E04DC0599EB
:104AF8007145A8BF714600E07146BCF1000F04D0B3
:104B0800494202E0039919910021002C54D1002850
:104B180040F06384049A002A40F05F84002F41D15A
:104B28004E2B20D002DC492B0AD03BE0692B07D062
:104B38006E2B18D036E000BFE89B00000000F07F25
:104B480019A8AA49FFF72BFE60B3199B19A8013BC6
:104B5800A7491993FFF723FE10B9199B013319933D
:104B6800DFF8A4921AE019A8A249FFF718FEC8B105
:104B7800199B1B78282B0FD119A89F491CAA02F052
:104B880063F8052808D11D9BDDF8708043F0FF49C4
:104B980049F4E00900F021BCDFF870924FF00008FA
:104BA80000F01BBC039B1993159B002B00F020847D
:104BB8000023099300F013BC8B1A06932B46002D93
:104BC80008BF23465846102C25460393A8BF102536
:104BD800FDF734FF092D8046894613DD874B03EB2B
:104BE800C50353E91223FDF79FFF804630468946E7
:104BF800FDF724FF02460B4640464946FDF7E2FD15
:104C0800804689460F2C36DC069B002B00F0E58396
:104C180024DD162B07DC794A02EBC302D2E9000136
:104C28004B46424615E0069AC4F125039A4222DC17
:104C3800724DC4F10F0405EBC403D3E900014246E9
:104C48004B46FDF771FF069B1C1B05EBC405D5E918
:104C58000023FDF769FF80468946BEE3069B13F1F2
:104C6800160F08DB654A4046A2EBC30249460CCA48
:104C7800FEF784F8EFE7069B651B1D44002D58DD01
:104C880015F00F020AD05D4B03EBC203D3E9000114
:104C980042464B46FDF748FF8046894635F00F05EA
:104CA80000F0BA80B5F59A7F0FDD4FF0000BCDF814
:104CB8000CB0CDF81CB0CDF814B02223CAF80030DF
:104CC800DFF844914FF0000883E14946DFF840914E
:104CD80040464E462D110027012D0ADDEA0703D56F
:104CE800D9E90023FDF720FF01376D1009F1080904
:104CF800F2E78046A1F1547906EBC7064246D6E9A9
:104D080000014B46FDF710FF21F0004389460A4693
:104D18001B0D3B491B058B428046C6D8A1F5801167
:104D28008B4286BFDFF8EC904FF0FF3802F15479E0
:104D380072E071D06D4215F00F020AD02F4B404639
:104D480003EBC2034946D3E90023FEF717F8804670
:104D580089462D1160D01F2D08DD4FF0000BCDF8CE
:104D68000CB0CDF81CB0CDF814B02BE14046494644
:104D780015F0100F0CBF00236A23224E0493002D58
:104D880008DDEB0703D5D6E90023FDF7CDFE6D104E
:104D98000836F4E7049B80468946EBB1C1F30A5311
:104DA800C3F16B03002B0A4616DD1F2B0EDD342BD7
:104DB800DEBF203B4FF0FF3101FA03F34FF000084C
:104DC800CCBF4FF05C7903EA020905E04FF0FF32EF
:104DD80002FA03F303EA000840464946002200238A
:104DE800FEF70AF90028B8D118E000BF799B000047
:104DF800009D0000819B0000AC9B0000789D000096
:104E08000000A07CC09B00000000F07F0000F8FFBD
:104E1800409E0000FFFFEF7F00230493CDF800B011
:104E280050460799039A234602F08BF8079000280A
:104E38003FF43BAF069A069B002AC3F100034FF0EC
:104E4800000BA8BF00230E93CDF80CB0079B50466B
:104E5800596801F0ECFF059000283FF42EAF079B3E
:104E68000C301A69079B023203F10C01920001F021
:104E7800D3FF1BAB00931CAB0193504642464B46F5
:104E8800CDE90A8902F013FB1A9000283FF415AF08
:104E98005046012102F0E2F8039000283FF40DAFDC
:104EA800069B049923EAE3771B9B1C9C002BAABF53
:104EB8000E9AFA1AD618A3EB010323446FF47F71F4
:104EC800ACBF3A460E9E8B42C4F1360480F286800F
:104ED800C91A1F29A4EB0104C8BFB3494FF0010048
:104EE800D5BF00FA01F3C91A149300FA01F3D9BF28
:104EF80000230F930F9314903519049BB542144463
:104F08001C442B46A8BF3346A342A8BF2346002B08
:104F1800C2BFED1AE41AF61A0E9B002B63D1002DBE
:104F28007BDC002F40F08380002C00F38A80002E69
:104F380000F3918050461A99059A02F0E6F98346E3
:104F480000283FF4BAAEC3680024C46003990893EC
:104F580002F0BFF9A04280F28D80089B002B40F040
:104F68001582B8F1000F40F01182C9F31303002B2A
:104F780040F00C8229F000431B0D1B05B3F1D66FDE
:104F880040F20482DBF81430002B6ED0594601221F
:104F9800504602F04BF90399834602F09AF900282B
:104FA80040F3F48129F00043049A1B0D1B05002AE5
:104FB80000F08F80B3F1D66F00F38B80B3F15C7F84
:104FC80000F3E68122234FF000084FF00009CAF8E9
:104FD8000030079B002B40F0EC81FEE100230F938B
:104FE8000123149388E71A465046039902F0D0F833
:104FF8000390034600283FF460AE504619461A9ABB
:1050080002F035F8089000283FF457AE50461A9938
:1050180001F042FF089B1A9381E750461A992A46E5
:1050280002F004F91A9000287FF47BAF45E6504659
:1050380005993A4602F0ACF8059000287FF474AF61
:105048003BE650460599224602F0F0F80590002804
:105058007FF46DAF31E650460399324602F0E6F828
:10506800039000287FF466AF27E6DBF81030012BA9
:105078008CDC8BE162D1089AC9F3130322B34B4944
:105088004A468B422ED1049B414663B1484B13409C
:10509800B3F1D46F07D81B0DC3F16B034FF0FF308A
:1050A80000FA03F301E04FF0FF3399421AD1414B64
:1050B8009A4202D101313FF400AE3D4B4FF0000857
:1050C800134003F5801961E163B9B8F1000F09D104
:1050D80068E7A3F580136FEA13594FF0FF386FEABA
:1050E800095953E10F9B13B113EA090F02E0149B0E
:1050F80013EA080F00F04A81089B40464946049A83
:1051080053B1FFF75FFB02460B46DDE90A01FDF7E5
:1051180059FB8046894639E1FFF754FB02460B46A6
:10512800DDE90A01FDF74CFB002200238046894691
:10513800FDF762FF00287FF445AF27E15846039941
:1051480002F007FA00224FF0804306460F46FDF7AB
:1051580067FF00283FD0089B13B10026164F10E0C8
:10516800B8F1000F03D1C9F313033BB90BE0B8F151
:10517800010F03D1B9F1000F3FF424AF0F4F002600
:1051880000240D4D3CE03046394600220A4BFDF71D
:105198003DFFB8B9304639460022094BFDF7C4FC3B
:1051A80004460D4610E000BFE3FBFFFFFFFF0F00C2
:1051B8000000F07FFFFFEF7F0000F03F0000F0BF2E
:1051C8000000E03F089C9A4D05F1004316941793A0
:1051D800DDE9166714E0964B304639460022FDF7A4
:1051E800A3FC089B04460D4623B901F10043109027
:1051F800119303E002460B46CDE91023DDE9106761
:1052080029F0004C4FEA1C5C8A4B4FEA0C5C9C4529
:1052180031D1DDE90A23A9F1547940464946CDF850
:105228003CC0CDE90C2302F0CFF802460B463046CD
:105238003946FDF779FC02460B4640464946FDF7DC
:10524800C1FA21F000431B0D7B4A1B05934280469F
:10525800DDF83CC00CD9794B0D9A9A4203D10C9BCE
:1052680001333FF42AADDFF8D4914FF0FF387CE0EA
:1052780001F1547944E0049B63B3BCF1D46F29D89D
:1052880063A3D3E9002320462946CDF83CC0FDF7A7
:10529800C7FEDDF83CC0C8B129462046FDF7DEFE52
:1052A800002808BF0120FDF7C9FB089B04460D46EE
:1052B800DDF83CC023B901F100431290139303E0D9
:1052C80002460B46CDE91223DDE9126707F1D663E2
:1052D800CCEB0307DDE90A01CDF83CC002F074F815
:1052E80002460B4630463946FDF71EFC02460B4681
:1052F800DDE90A01FDF766FA80468946DDF83CC01B
:10530800049B4E468BBB29F000431B0D1B059C4597
:105318002BD12946204603F0EBF9FDF79FFB0B46FE
:10532800024629462046FDF74BFA089B04460D46DF
:105338002BB9B8F1000F02D1C9F313067EB136A319
:10534800D3E9002320462946FDF760FE88BB34A335
:10535800D3E9002320462946FDF776FE04E032A370
:10536800D3E90023FDF752FE18BB50461A9901F005
:1053780093FD5046059901F08FFD5046039901F0C1
:105388008BFD5046594601F087FD5FE5049B83B1CC
:105398002B4B40460D9300230C934946DDE90C2323
:1053A800FDF7C2FB8046894619B910B92223CAF80D
:1053B800003050461A9901F06FFD5046059901F0EA
:1053C8006BFD5046039901F067FD5046079901F0BF
:1053D80063FD5046594601F05FFD159B13B1199BBB
:1053E800159A1360099B1BB1424609F1004307E077
:1053F80042464B4604E0002422460127FFF71DBB26
:10540800104619461FB0BDE8F08F00BFAFF300800B
:105418000000C0FFFFFFDF419535A094FFFFDF3F8D
:1054280035E5AF350000E03F9535A094FFFFCF3F4D
:105438000000E03F0000E07FFFFF9F7CFFFFEF7F61
:105448000000503903460A46024908681946FFF722
:10545800DBB900BF780400202DE9F0470F46404C27
:10546800D4F800903D4615F801EB09EB0E04667878
:1054780006F0080404F0FF060CB12F46F2E7744664
:105488002D2C03D1BD1C7C78012603E02B2C04BFF6
:105498007C78BD1C13B1102B0AD15AE0302C56D1A0
:1054A8002C7804F0DF04582C4CD16C78102302358A
:1054B800002E14BF4FF000486FF00048B8FBF3FA15
:1054C8000027BE4603FB1A8809EB040C9CF801C0B0
:1054D8001CF0040F01D0303C0BE01CF0030C1BD077
:1054E800BCF1010F0CBF4FF0370C4FF0570CCCEB51
:1054F80004049C4210DAB7F1FF3F0AD0D64506D81B
:1055080001D1444503DC03FB0E4E012701E04FF0B7
:10551800FF3715F8014BD7E77C1C73460AD1002EDC
:105528004FF0220114BF4FF000436FF000430160B9
:105538002AB911E00EB1CEF100036AB107B1691EB4
:10554800116009E03024002BB2D10823B0E70A2308
:10555800AEE7302CACD1A3E71846BDE8F08700BF12
:105568007C04002030B505460C461346034A2946FC
:1055780010682246BDE83040FFF76EBF780400206F
:1055880030B5141E9BB0054604DA8B2303604FF038
:10559800FF301CE04FF40272ADF80C200CBF22461D
:1055A80004F1FF32029205924FF6FF7200910491C6
:1055B800ADF80E2069461A461E9B02F095F8431C6A
:1055C800BCBF8B232B6014B1009B00221A701BB048
:1055D80030BD000073B506460D4614460093044BD3
:1055E800314618682A462346FFF7CAFF02B070BD45
:1055F8007804002070B50D461446064618B1836934
:105608000BB900F0FBFF224B9C4201D1746808E003
:10561800204B9C4201D1B46803E01F4B9C4208BF59
:10562800F468A369A360A3891A0709D523693BB164
:1056380023682069EDB2181A636998420FDB08E005
:105648003046214600F02AF80028F1D04FF0FF300C
:1056580070BD3046214600F055FF0028F6D1A368FA
:105668000130013BA36023685A1C22601D706369E6
:10567800984204D0A389DB0707D50A2D05D1304607
:10568800214600F03FFF0028E0D1284670BD00BF4A
:105698000C9D00002C9D00004C9D0000314B70B506
:1056A8001D6806460C4625B1AB6913B9284600F0BB
:1056B800A5FF2D4B9C4201D16C6808E02B4B9C4206
:1056C80001D1AC6803E02A4B9C4208BFEC68A3896F
:1056D8009AB211071DD4D50602D40922326038E0E7
:1056E800500712D5616B41B104F14403994202D0CD
:1056F8003046FEF73DF800236363A38923F02403B3
:10570800A3810023636023692360A38943F008030E
:10571800A38123694BB9A38903F42073B3F5007FF0
:1057280003D03046214601F01DFBA38913F0010286
:1057380005D00022A26062695242A26103E0990783
:1057480058BF6269A26022694AB903F0800080B23A
:1057580030B143F04003A3814FF0FF3070BD00200B
:1057680070BD00BF780400200C9D00002C9D000037
:105778004C9D00002DE9F74F03690C698046A34250
:105788007EDB013C01F114074FEA840E00F1140698
:1057980006EB0E0357F82450019356F824300135D0
:1057A800B3FBF5F507EB0E09BDB34FF0000A384619
:1057B800B446D34650F8043B9AB21B0C02FB05A230
:1057C8006B4303EB124392B2C2EB0B0BBCF8002005
:1057D8004FEA134A5A441FFA83FBDCF80030484565
:1057E800CBEB134303EB224392B242EA03424FEA64
:1057F800234B4CF8042BDDD956F80E306BB9019BBE
:10580800043BB3421A4602D8C8F8104005E01268B3
:10581800043B002AF8D1013CF3E7404601F059FD6A
:1058280000282BDB304601354FF0000E57F8042BCB
:10583800036891B2C1EB0E0E120C99B27144C2EB1F
:10584800134303EB214389B24FEA234E4F4541EA04
:10585800034340F8043BE9D956F8242006EB8403B7
:1058680062B9043BB3421A4602D8C8F8104005E0B2
:105878001268043B002AF8D1013CF3E7284600E00F
:10588800002003B0BDE8F08F2DE9F04F456A95B0D0
:105898008246219CCDE9022345B91020FDF750FF2F
:1058A800CAF82400456085600560C560DAF82430D0
:1058B800196859B15A68012393404A608B60504671
:1058C80001F0EAFADAF8243000221A60039BA24AAF
:1058D800002BBDBF01232360039B0023BCBF23F023
:1058E80000430393039FA8BF236027F000431B0DC9
:1058F8001B0593421DD142F20F73209A1360029B3D
:1059080043B9964A964BC7F31300002814BF1846AC
:10591800104600E09248229B002B00F06985C3786E
:1059280013B100F1080300E0C31C229A136000F0D1
:105938005FBDDDE902450022204629460023FDF728
:105948005BFB804658B1209A01231360229B002BF1
:1059580000F03C8583481860013800F049BD13AB5E
:10596800009312AB0193504622462B4601F09FFD4F
:10597800C7F30A5607905EB1C5F3130343F07F518E
:10598800204641F44011A6F2FF36CDF844801DE0D0
:10599800139B129E1E446FF482639E42A1BF029A1B
:1059A80006F2124322FA03F06F4BB7BF6F4B9B1BF3
:1059B800029A9B1BAABF9F4002FA03F03843FDF7E7
:1059C8003DF80123A1F1F871013E11930022684BC3
:1059D800FCF7F6FE5AA3D3E90023FDF7A5F85AA36E
:1059E800D3E90023FCF7EEFE044630460D46FDF7EA
:1059F80035F857A3D3E90023FDF796F802460B467E
:105A080020462946FCF7DEFE04460D4602F070FEED
:105A180029468346002220460023FDF7F7FA58B1AD
:105A28005846FDF71BF802460B4620462946FDF767
:105A3800E3FA08B90BF1FF3BBBF1160F0DD84D4B3C
:105A480003EBCB03D3E90001DDE90223FDF7FCFA00
:105A580030B10BF1FF3B002300E00123109300E07D
:105A68001090129B9E1B731E0A9345BF5B420993BD
:105A7800002300234CBF0A930993BBF1000F07DBF7
:105A88000A9BCDF834B05B440A9300230B9308E0DB
:105A9800099BCBEB03030993CBF100030B93002382
:105AA8000D931E9B092B29D8052BC4BF043B1E93BD
:105AB8001E9BC8BF0025A3F10203D8BF0125032BF5
:105AC80021D8DFE803F0020E0410002300E00123D0
:105AD8000C931F9B002B20DC0123069305931A4689
