:1000000000200020F5010000FD01000001020000B9
:10001000490200004D0200009502000000000000AF
:10002000000000000000000000000000DD020000F1
:10003000E102000000000000E502000035160000AB
:10004000F9020000F9020000F9020000F9020000C4
:10005000F9020000F9020000F9020000F9020000B4
:10006000F9020000F902000000000000F90200009F
:10007000F9020000F9020000F9020000F902000094
:10008000F902000071160000F9020000F9020000F8
:10009000F9020000F9020000F9020000F902000074
:1000A000F9020000F9020000F9020000F902000064
:1000B000F9020000F9020000F9020000F902000054
:1000C000F9020000F9020000F9020000F902000044
:1000D000F9020000F9020000F9020000000000002F
:1000E00000B583B000F092F9304B314A1360314AC9
:1000F0001360314B314A03E0116819600433043254
:100100002F498B42F8D32A4B1A682E4B9A4204D1BE
:10011000284B1A682C4B9A4200D0FEE7234B2B4AFF
:1001200013602B4A13602B4B02E000221A60043349
:10013000294A9342F9D3254B1B6813B9244B1B68FA
:1001400003B1FEE700F06EF901A8694600F010F96E
:10015000224C234B1C1BA410002504E01F4B53F81A
:10016000253098470135AC42F8DC1E4C1E4B1C1B59
:10017000A410002504E01B4B53F8253098470135A7
:10018000AC42F8DC0198009901F096FA0546174C4C
:10019000174B1C1BA41004E0013C144B53F82430F3
:1001A0009847002CF8DC284600F0BEF8BABADECA40
:1001B00000000020B0000020000000205886000051
:1001C000B40000207856341232547698B4000020DF
:1001D000FC080020B40000200009002024030000D7
:1001E000240300002403000028030000280300006B
:1001F0002803000008B5FFF773FF00BF00BEFEE74D
:100200001EF0040F0CBFEFF30880EFF30980714676
:10021000364A10472DE9F04182B007468846084B20
:100220005D6B9C6B9E6A074800F0D2F8CDF80080A9
:10023000384631462A46234600F0F8F800BEFEE76D
:1002400000ED00E0C472000000BEFEE71EF0040FE7
:100250000CBFEFF30880EFF309807146244A104782
:100260002DE9F04182B007468846084B5D6B9C6BD8
:100270009E6A074800F0ACF8CDF800803846314659
:100280002A46234600F0D2F800BEFEE700ED00E06B
:10029000D47200001EF0040F0CBFEFF30880EFF3E0
:1002A00009807146134A10472DE9F04182B0074694
:1002B0008846084B5D6B9C6B9E6A074800F088F887
:1002C000CDF80080384631462A46234600F0AEF885
:1002D00000BEFEE700ED00E0E072000000BEFEE7B9
:1002E00000BEFEE700BEFEE77047000015020000FA
:0C02F00061020000A9020000FEE700BF50
:1002FC005886000000000020B40000205886000042
:10030C000000001000000010B400002000090020C4
:0C031C000000001000000010211700007D
:10032800FEE700BF08B50D4B1B6813B90C4A0B4B11
:100338001A600A4B1A68C31C23F0030313440949C3
:100348008B4206D902F0D2FC0C2303604FF0FF3039
:1003580008BD02490B60104608BD00BFB800002068
:1003680000090020001C002001230360014B0B60E2
:10037800704700BF0400002008B502F0B7FC5823FE
:1003880003604FF0FF3008BD08B502F0AFFC5823FA
:1003980003604FF0FF3008BD08B502F0A7FC5823F2
:1003A8000360002008BD00BF08B502F09FFC582379
:1003B80003604FF0FF3008BD08B502F097FC5823E2
:1003C80003604FF0FF3008BD0FB400B583B004AB35
:1003D80053F8042B01930848802104F04FFA011EBA
:1003E80003DD054800F00AF80146084603B05DF849
:1003F80004EB04B0704700BFC00000204FF0FF308E
:10040800704700BF08B500F0C1F8024B024A9A6075
:1004180008BD00BF00ED00E00000000008B500F0D6
:1004280079F808BDF8B504460D4617461E46264815
:10043800FFF7CAFF25482168FFF7C6FF244861680F
:10044800FFF7C2FF2348A168FFF7BEFF2248E16813
:10045800FFF7BAFF21482169FFF7B6FF2048616915
:10046800FFF7B2FF1F48A169FFF7AEFF1E48E16919
:10047800FFF7AAFF1D48FFF7A7FF1D482946FFF70A
:10048800A3FF1C4CE16A1C48FFF79EFF216B1B4829
:10049800FFF79AFFE16B1A48FFF796FF15F0800FF8
:1004A80003D018483946FFF78FFF15F4004F03D0E3
:1004B80015483146FFF788FF1448FFF785FF1448B1
:1004C8000699FFF781FFF8BDA8710000B871000018
:1004D800C8710000D8710000E8710000F8710000D0
:1004E80008720000187200002872000038720000BC
:1004F8004472000000ED00E05472000064720000D5
:10050800747200008472000094720000A4720000EB
:10051800AC720000184B1B8803F01803182B21D865
:10052800DFE803F00D2020202020202017202020A5
:100538002020202017202020202020201C000E4BC7
:10054800B3F8442402F001020C4BD3400C4A136068
:1005580008E04FF400420A4B1A6003E0094B1A689E
:10056800074B1A60044B1A8802F00702044B1B68F9
:10057800D340054A13607047002000400024F4006F
:10058800F4080020F8080020F008002008B500232F
:10059800054A1381A2F5B0621380A2F8443493800F
:1005A8009385FFF7B7FF08BD8025004010B4038886
:1005B8009BB2490003248C4023EA04038A401A446E
:1005C80092B2028001205DF8044B704730B40446B3
:1005D8000579012000FA01F3C3F1FF032B408A409B
:1005E8001A44D2B2227130BC704700BF30B40446FE
:1005F800057A012000FA01F3C3F1FF032B408A407A
:100608001A44D2B2227230BC704700BFC9B2017717
:10061800007F7047C9B280F8201090F8200070471A
:100628000A4313439BB20382012070470A4392B2E4
:1006380082810120704700BF00797047C9B20172FA
:1006480001207047008880B2704700BFB1F5005F95
:100658000AD1038A9BB243F400530382038A23F42A
:1006680000531B041B0C0382B2F5805F0AD1038A76
:100678009BB243F480530382038A23F480531B0400
:100688001B0C038201207047F0B4224CA488C4F3E9
:100698004224072C14D8DFE804F0120406080A0CD8
:1006A8000E1002240CE004240AE0082408E01024B8
:1006B80006E0202404E0402402E0802400E0012435
:1006C800144DB5F8445415F0010F00D064006501CD
:1006D800114CB4FBF5F6B6FBF1F6B7B207854FF44B
:1006E8000067B7FBF5F504FB05F4B4FBF6F4B4FBBF
:1006F800F1F1A1F5006141F4084189B2818400213A
:10070800017103F03C0302F003021A430273007DF7
:10071800F0BC7047002000400024F400037D13F073
:10072800200F03D0C9B20170012070470020704724
:100738000AB1C9B20174007E704700BFC9B2017125
:1007480001207047007A704738B50446051D2846D1
:1007580009494FF4647202F0CFFAC4F894530023A5
:10076800C4F89C3384F8983346F2A813C4F8A0332D
:1007780001232370204638BDF072000030B583B0E5
:1007880000238DF800308DF801308DF802308DF897
:1007980003308DF804308DF805308DF806308DF86B
:1007A800073021B30C46D0F894532B6A03F03F036B
:1007B80043F0400302A901F8083DAA6A013201206A
:1007C800D2B200F077FE00232360012309E02168FC
:1007D80002AA1A4412F8082C02EB01222260013303
:1007E800DBB2AA6A01329342F1DB002001E04FF04C
:1007F800FF3003B030BD00BF10B4002016E00C7805
:10080800234214BF01240024B4EBD01F04D04000BD
:10081800C0B280F0070001E04000C0B25B0800E011
:100828008023002BEBD10131013AD2B2002AF7D153
:100838005DF8044B704700BFD0F894335B6F13F03A
:10084800400F02D10023C0F89C33704710B51446FE
:10085800054B1B781BB9002000F02CFE02E001209C
:1008680000F028FE204610BD95010020F0B585B0A7
:1008780006460C4600238DF801308DF802308DF8BD
:1008880003308DF804308DF805308DF806308DF87A
:1008980007308DF808308DF809308DF80A308DF85A
:1008A8000B308DF80C308DF80D308DF80E308DF83A
:1008B8000F3090F898730B6803F03F0343F0400340
:1008C8008DF800301FB18A680232D2B202E08A681D
:1008D8000132D2B230466946FFF7B8FF0546012F0C
:1008E8001BD1236803F03F0343F040038DF8083021
:1008F800012307E004AA1A4412F8101C02F8081C85
:100908000133DBB2A268911C8B42F3DB0A46304606
:1009180002A9D2B2FFF770FF07469FB900236360B0
:10092800012309E0616804AA1A4412F8102C02EBAA
:10093800012262600133DBB2A26801329342F1DB2B
:10094800284601E06FF0010005B0F0BD38B5044657
:100958000D460B68062B08D0D0F89C332BB1D4F881
:10096800A01300F015F8002803DB20462946FFF7FE
:100978007DFF38BD38B505460C01D0F894132144E5
:10098800FFF7E4FFD5F894331C44606838BD00BF16
:1009980070B506460D46D0F8944300230CE0304667
:1009A80004F16001FFF7D2FF002814DB636E13F037
:1009B800400F0CBF012300231BB9013D03D00123C5
:1009C80002E0002300E00023002BE8D10DB1002055
:1009D80070BD6FF0020070BD70B506460D46D0F8C8
:1009E800944300230BE030462146FFF7AFFF002871
:1009F80014DB636813F0800F0CBF012300231BB9BD
:100A0800013D03D0012302E0002300E00023002B76
:100A1800E9D10DB1002070BD6FF0020070BD00BFBC
:100A280010B51446054B1B781BB9002000F0EEFCEE
:100A380002E0012000F0EAFC204610BD95010020EC
:100A480084B070B582B0054607A880E80E00002380
:100A58008DF801308DF802308DF803308DF80430B0
:100A68008DF805308DF806308DF8073001F03F021B
:100A78008DF80020089A07E0E41A02A90C4404F84B
:100A8800082C12120133DBB2099CA342F4DB95F85F
:100A980098634EB1621C28466946D2B2FFF7ACFE95
:100AA80002AB234403F8070C16B10234E2B201E0AA
:100AB8000134E2B228466946FFF7B2FF02B0BDE84A
:100AC800704004B0704700BF84B010B582B00446CF
:100AD80005A880E80E00D4F89C3333B12046D4F83A
:100AE800A013FFF755FF002806DB089B009305AB12
:100AF8000ECB2046FFF7A4FF02B0BDE8104004B0BB
:100B0800704700BF10B582B00901D0F894330B4488
:100B18005A60D0F894331944CB6800930EC9FFF794
:100B2800D3FF02B010BD00BF10B582B004466B46BB
:100B3800074A1068516803C3204669460822FFF730
:100B48006FFF0446C82000F067FD204602B010BDC4
:100B58008076000070B582B0054646F2A813C0F84A
:100B6800A03300F013FC2846FFF7DEFF061E1CDB4F
:100B78000024C5F89C4314E0D5F8943303EB041320
:100B8800DA68012A06D100920ECB2846FFF79CFFAF
:100B9800061E0ADB072C02D12846FFF74DFE01345A
:100BA800E4B2282C01D8002EE6DA304602B070BD37
:100BB80010B50446FFF7C8FD204610BD08B5084625
:100BC80001F048FA0022074B01F0F6F80022064B24
:100BD80001F0A6FA00224FF07A5301F0A1FA01F0D1
:100BE80061FD08BD000060410000994038B5054628
:100BF8000931CCB22146FFF7BDFE82B22846214614
:100C080042F40042FFF77EFF012000F005FD38BDE9
:100C180038B505460931CCB22146FFF7ABFEC0F323
:100C28000E0228462146FFF76DFF012000F0F4FC74
:100C380038BD00BF38B505460C460321FFF79AFEBC
:100C48006400013404F00F0420F07F4222F00F0208
:100C5800284603212243FFF755FF012000F0DCFC62
:100C680038BD00BF08B5012140F28452FFF74AFFA2
:100C780008BD00BF30B583B004460D46FFF7B6FF88
:100C88000122154B1A7015480821FFF7C3FC2046AE
:100C9800FFF7E8FF204642F21071FFF79DFE10F1C2
:100CA800030F04D10E4802F08BFE002012E06420EE
:100CB80000F0B2FC204601A9FFF760FD0022064BB8
:100CC8001A7006480821FFF7A1FC20462946FFF7BD
:100CD8009FFF019803B030BD9501002000600040DF
:100CE800A476000008B5FFF735FF08BDF8B505463E
:100CF800FFF7F8FF012000F08FFC2C462846192149
:100D0800FFF738FE40F41E6242F008022846192117
:100D180092B2FFF7F7FE28462121FFF72BFE20F0BD
:100D28007F422846212142F00102FFF7EBFE002610
:100D380026E006F10907FFB220463946FFF71AFEFA
:100D480020F400407300591C01F01F0140EA4110D3
:100D5800032E06D103F1FF3E0EF01F0141EA000207
:100D680004E0033303F01F0343EA00022046394638
:100D7800C2F30E02FFF7C6FE012000F04DFC01365B
:100D8800032ED6DD28460321FFF7F4FD20F07F422D
:100D98002846032142F4A062FFF7B4FE28461A2130
:100DA800FFF7E8FD40F4006082B228461A2142F4B9
:100DB800FA7242F00102FFF7A5FE28462221FFF74A
:100DC800D9FD20F07F422846222142F00102FFF798
:100DD80099FE002619E006F10D07FFB220463946B4
:100DE800FFF7C8FD20F4004040F48050B20102F43F
:100DF8007072024392B22046394642F01302FFF75E
:100E080081FE012000F008FC0136032EE3DD2846B0
:100E18000121FFF7AFFD4FF6C372024028460121BA
:100E280042F4B06242F00402FFF76CFE012000F0C9
:100E3800F3FB054B02221A7000225A7003229A70A3
:100E48000122DA70F8BD00BF7001002038B5002417
:100E580028E0651C184B1B5D18482946184AD25CC7
:100E680002F0AEFD174B53F8240001F005F90246D5
:100E78000B461548294602F0A3FD144B53F82400ED
:100E880001F0FAF802460B46114802F099FD114BA1
:100E980053F8240001F0F0F802460B460E4802F021
:100EA8008FFDECB2032CD4D90A2002F0A1FD0A2050
:100EB80002F09EFD38BD00BF70010020BC76000026
:100EC800B077000060010020D47600007401002093
:100ED800F0760000840100200C770000000000007C
:100EE8002DE9F0411746384B53F8210001F0B2F8CC
:100EF8000022364B00F060FF0022354B01F010F95C
:100F080000224FF07A5301F00BF901F0CBFB804639
:100F1800304901F0E1FE38B3404601F0ADF8024631
:100F28000B4600202C4900F047FF1FA3D3E90023FC
:100F380001F0F6F804460D46204629461CA3D3E9DD
:100F4800002300F03BFF00F06BFC1BA3D3E9002358
:100F580000F032FF1AA3D3E9002301F00BFA01F0E5
:100F6800A1FB3860BDE8F08100233B601B4C4FF0CB
:100F78007E560EE03046294601F0F2FC01463868FC
:100F880001F0E6FB38603046414601F0E9FC0646D0
:100F98000434256828464FF07E5101F075FE00287C
:100FA800E8D0BDE8F08100BF93180456BED7233EB1
:100FB800000000C04C04F03E000000402602703FD4
:100FC800000000E0AF60B3BE4001002000006041B7
:100FD8000000994000007A4400408F408876000065
:100FE8002DE9F04F83B08B4691461D46B24B13F85E
:100FF80001A0B24B53F8210001F02CF80022B04BAD
:1010080000F0DAFEA8A3D3E9002301F089F8002252
:10101800AC4B01F085F801F045FB0190AA4B03EBBE
:101028000A135868494601F057FE00B34FF4AA76F0
:10103800A64B06FB0A364FF07E5800240EE04046C9
:10104800394601F08DFC0146204601F081FB04463B
:101058004046494601F084FC8046043637683846E5
:101068004FF07E5101F010FE0028E8D075E0964B55
:1010780003EB0A139868494601F024FE00284BD078
:101088004FF4AA73914E03FB0A6640364FF07E5820
:1010980000240EE04046394601F062FC0146204635
:1010A80001F056FB04464046494601F059FC80468B
:1010B8000436376838464FF07E5101F0E5FD0028C8
:1010C800E8D0BAF1020F48D14846814901F03EFB09
:1010D8000646804901F044FC0146304601F040FCD8
:1010E80000F0CAFF00F020FB06460F46204600F03D
:1010F800C3FF80468946304639466DA3D3E90023AD
:1011080001F00EF802460B464046494600F056FEEE
:1011180001F0C8FA044620E04FF4AA736B4E03FBB3
:101128000A6670364FF07E5800240EE04046394675
:1011380001F016FC0146204601F00AFB0446404631
:10114800494601F00DFC80460436376838464FF0B2
:101158007E5101F099FD0028E8D00198214601F060
:10116800F7FA0646544B13F80B4004EB84039B0034
:10117800594A13445868314601F0AEFD28B34FF47C
:10118800AA73524A03FB0A2A0AF1A00A00232B6019
:101198004FF07E570FE03846214601F0E1FB01464B
:1011A800286801F0D5FA28603846314601F0D8FBA6
:1011B80007460AF1040ADAF8004020464FF07E514B
:1011C80001F062FD0028E6D0A1E004EB84039B0057
:1011D800414A13449868314601F074FD28B34FF42E
:1011E800AA733A4A03FB0A2A0AF1D00A00232B60A1
:1011F8004FF07E570FE03846214601F0B1FB01461B
:10120800286801F0A5FA28603846314601F0A8FBA5
:1012180007460AF1040ADAF8004020464FF07E51EA
:1012280001F032FD0028E6D071E004EB8404A4004C
:10123800294B1C44E068314601F044FD28B34FF4C3
:10124800AA73224A03FB0A2A0AF1FC0A00232B602C
:101258004FF07E570FE03846214601F081FB0146EA
:10126800286801F075FA28603846314601F078FBA5
:1012780007460AF1040ADAF8004020464FF07E518A
:1012880001F002FD0028E6D041E04FF4AA720F4BAE
:1012980002FB0A3A0AF5947A00232B604FF07E5736
:1012A8002CE000BFAFF30080000000000088A340DE
:1012B800B253628D695CBE3F70010020500100206E
:1012C800000060410000303E307700005878000090
:1012D800ECEFFD42062FF8B8B877000038462146F3
:1012E80001F03EFB0146286801F032FA28603846D2
:1012F800314601F035FB07460AF1040ADAF80040E6
:1013080020464FF07E5101F0BFFC0028E6D003B024
:10131800BDE8F08FF8B5054600242AE028462146A6
:10132800FFF788FC28462146FFF7A4FC124E46F832
:1013380024002846211DFFF79DFC104B43F824008C
:10134800284656F82410FFF739FC0D4B43F82400C3
:101358000C4FA60028462146BA19FFF7C1FD2846BA
:10136800214657F82420084B3344FFF739FE01344F
:10137800E4B2032CD2D9F8BD40010020500100206E
:1013880060010020740100208401002010B51E4C6B
:10139800204600210A46FFF729F9204600210122AC
:1013A800FFF704F9204601210022FFF71FF9204624
:1013B80001210A46FFF7FAF8204602210022FFF72A
:1013C80015F9204602210122FFF7F0F820460321F3
:1013D8000022FFF70BF9204603210122FFF7F6F858
:1013E80020460821FFF712F9A4F5E0542046092108
:1013F8000022FFF71BF920464FF44041022240F635
:10140800CD33FFF70DF910BD006000402DE9F8431A
:1014180080460F461646082A02D04FF0000902E01F
:101428004FF0010904263502B8F1000F03D11F4817
:101438000821FFF7EFF81E484FF400514FF480528F
:10144800FFF704F9002405E01948395DFFF7F6F8BD
:101458000134E4B2B442F7D31548FFF7F3F82C4649
:1014680028408542F8D1B9F1000F16D010484FF442
:1014780000514FF48052FFF7E9F8002505E00C48C9
:10148800795DFFF7DBF80135EDB2B542F7D30848CF
:10149800FFF7D8F820408442F9D1B8F1000F03D102
:1014A80002480821FFF7B2F8BDE8F8830060004061
:1014B800004400402DE9F04182B007460E4615462B
:1014C80000238DF804308DF805308DF806308DF83E
:1014D800073014020DE02BB9F15C02AA1A4402F895
:1014E800041C04E0AA2102AA1A4402F8041C0133CD
:1014F800DBB2AB42EFD31FB919480821FFF78AF8CE
:1015080018484FF400514FF48052FFF79FF84FF0FE
:1015180000080AE002AB4344124813F8041CFFF722
:101528008DF808F101085FFA88F8A845F2D30D484C
:10153800FFF788F820408442F9D1002405E00948E3
:10154800FFF77AF830550134E4B2AC42F7D31FB94B
:1015580003480821FFF75AF802B0BDE8F08100BF40
:10156800006000400044004010B5114C20460621A0
:101578000122FFF71BF8204607210222FFF716F881
:10158800A4F5805420464FF4964103220023FFF728
:101598007BF8204601210022FFF7CAF820460321E4
:1015A800FFF7CCF84FF40032024B1A6010BD00BFB1
:1015B8000060004000E100E008B501460022054B4C
:1015C8001A700548FFF7AAF8024B1B78002BFBD0CE
:1015D80008BD00BF960100200050004038B50C46F9
:1015E80008E0651C40B2FFF7E7FF94F90130092BCA
:1015F80005D02C46207843B20A2BF2D100E02C46C5
:1016080094F900300A2B05D10D20FFF7D5FF0A20E9
:10161800FFF7D2FF002038BD034B1860024B1B6850
:10162800002BFBD1704700BF98010020034B1B68BB
:101638001BB1024A1368013B1360704798010020F0
:1016480001280BD108B54FF6FF73994205D104481C
:10165800FFF77AF80348FFF7ABFA08BD704700BFF9
:101668009C0100204005002000B583B000238DF8C0
:1016780007300C48FFF766F8C0B28DF807009DF8F0
:10168800073013F0020F02D00122074B1A709DF8A1
:10169800073013F0040F02D00022044B1A7003B075
:1016A8005DF804FB005000409601002094010020E2
:1016B80008B5144B1B68144AA2FB03239B09013B82
:1016C800B3F1807F09D2114A5360E021104B83F8AF
:1016D80023100023936007231360FFF745FF0D4C89
:1016E8002046FFF7FFFA2046FFF700FB094C20468B
:1016F800FFF710FE2046FFF7A9FB4FF47A70FFF7BB
:101708008BFFF3E7F0080020D34D621010E000E0F3
:1017180000ED00E04005002008B501204FF6FF71FC
:10172800FFF78EFF08BD00BF2DE9F0438BB00646DA
:101738000F4600F0CDF8DFF8E480044698F9003051
:101748000D46013337D03046394600F0FDFA0028FF
:1017580031D02BA3D3E900233046394600F070FF7F
:10176800814668BB28A3D3E900233046394600F0F8
:1017780049FF00B398F90030254C002000210422CD
:10178800022BCDF82090CDE90467CDE90267CDE9B9
:1017980006018DE814002CD0684600F007FB40B322
:1017A800089B1BB101F0A2FA089B0360DDE9060162
:1017B8000BB0BDE8F083204629460BB0BDE8F083A6
:1017C800134898F8003003210022CDE90467CDE9D9
:1017D80002670190009108922BB90E4B4FF06042BE
:1017E800CDE90623D8E70C490020022BCDE90601F4
:1017F800D2D101F07BFA22230360D1E7AFF3008056
:10180800EF39FAFE422E864051302DD5104987C057
:10181800F8820000FFFFEF470000F07F0C00002077
:101828002DE9F0478AB006460F4600F0C7F9DFF801
:1018380098A004469AF900300D4601330FD030467F
:10184800394600F087FA50B14FF000084FF0000910
:101858003046394642464B4600F0D4FE20B9204671
:1018680029460AB0BDE8F08716499AF800400122D7
:101878000023CDE90467CDE902670191009208933E
:1018880064B9CDE90689684600F090FA80B1089BF2
:101898009BB9DDE906010AB0BDE8F0874046494634
:1018A80042464B4600F066FD022CCDE90601EAD11E
:1018B80001F01CFA21230360E9E701F017FA089BFD
:1018C8000360E6E7FC8200000C0000200000000036
:1018D8002DE9F04FB04D21F00042AA4283B00C46EA
:1018E8004FEAD17682460DD9AC4DAA4225D9C1F32B
:1018F8001303034340F0F580002E40F0158103B038
:10190800BDE8F08FA64B9A4200F2CC80A54B9A42D4
:1019180000F2DD808AA3D3E9002300F04FFA002209
:10192800A14B00F08DFE002800F0088150462146AA
:1019380000229D4B00F042FAE1E783A3D3E900239C
:1019480000F07EFE002840F0C48081A3D3E9002384
:101958005046214600F056FE002840F0E5807EA360
:10196800D3E90023914D504605EBC605214600F00A
:10197800D7FBD5E9002300F021FA00F06BFE0546FD
:1019880000F068FB76A3D3E9002306460F4600F073
:10199800C7FB02460B465046214600F00DFA72A3DB
:1019A800D3E90023CDE900013046394600F0B8FB01
:1019B80080468946DDE9000142464B4600F0FCF9C5
:1019C80082460C46524623465046214600F0A8FB64
:1019D80067A3D3E9002306460F4600F0A1FB66A3E0
:1019E800D3E9002300F0E8F932463B4600F098FBC3
:1019F80063A3D3E9002300F0E1F932463B4600F047
:101A08008FFB61A3D3E9002300F0D6F932463B46A9
:101A180000F086FB5EA3D3E9002300F0CFF932463D
:101A28003B4600F07DFB02460B465046214600F03F
:101A3800C3F906460F465046214632463B46002D1E
:101A480054D000F06DFB324682468B463B46002060
:101A58004FF0804100F0B0F902460B465046594617
:101A680000F088FC02460B464046494600F0A4F9BF
:101A7800DDE9002300F0A0F90B4602464A490020A0
:101A880000F09AF96FF47F739D4252DA05F57A7582
:101A980001EB055100224FF0B87300F041FB03B091
:101AA800BDE8F08F424B9A423FF659AF414BF400E4
:101AB8002344D3E9002300F07FF93F4BC6F1010529
:101AC8001C44CDE90001D4E90089AD1B72E700256B
:101AD80078E71BA1D1E9000102460B4600F020FB84
:101AE8000DE702460B4600F069F908E700F018FB1D
:101AF800002280468946304639464FF0804300F040
:101B08005BF902460B464046494600F033FC524614
:101B1800234600F051F902460B460020224900F006
:101B28004BF903B0BDE8F08F0020014603B0BDE8D3
:101B3800F08F01EB055103B0BDE8F08F054641E792
:101B48009C7500883CE4377EEF39FAFE422E8640C9
:101B580051302DD5104987C0FE822B654715F73FB8
:101B68000000E0FE422EE63F763C7935EF39EA3D4B
:101B7800D0A4BE726937663EF16BD2C541BDBB3E8B
:101B88002CDE25AF6A56113F93BDBE166CC1663F69
:101B98003E5555555555C53F412E8640FFFFEF7FB1
:101BA800422ED63FFFFF2F3E0000F03F0883000083
:101BB800B1A2F03F28830000188300002DE9F0410E
:101BC800604E0C46B6460E40764505460B4600F07C
:101BD80098800029024676DD5FEA215E00F0818068
:101BE800AEF2FF3EC3F313031EF0010F43F480135C
:101BF8005ED100273C46D10F01EB43034FEA6E0E3E
:101C0800520016204FF4001165189D424FEAD27613
:101C18004FEA420202DC5B1B6C180F44013806EBEA
:101C280043034FEA5101EFD1844620264FF000418B
:101C38000AE0A34220D0D50F013E4FEA510105EB3F
:101C480043034FEA420220D09C420CEB0105F0DA34
:101C5800002D05EB010C09DBA0461B1B954288BF34
:101C680003F1FF334446521B0844E4E7BCF1000F7C
:101C7800F2DB04F10108F0E7954217D8002D05EBD7
:101C8800010C48DB98460023ECE7134315D14008C4
:101C98007B1003F17F5303F50013FA0703EB0E578C
:101CA800394648BF40F00040BDE8F0811C46C2E715
:101CB800D10F01EB430352009BE7411C31D000F0E8
:101CC80001031844E3E721F000460643ECD079BB52
:101CD8008E46D30AAEF1150E5205002BF9D0DC0260
:101CE80022D400215B00D80201F10101FAD5C1F12B
:101CF8000100C1F1200422FA04F4234386448A40F7
:101D08006EE702460B4600F00BFA2A46234600F01F
:101D180055F8BDE8F081BCF1000FAADAA04600230F
:101D2800A0E701373046B3E7202401200021E2E78D
:101D380002460B4600F040F802460B4600F01AFB3C
:101D4800B2E700BF0000F07F41F0004101F58010CC
:101D5800C00F704710B431F0004408D0114BA1F502
:101D680080129A4208D804205DF8044B704718B9CD
:101D780002205DF8044B704701F1FF41094B01F562
:101D8800E0019942EFD9B4F5801F01D20320EBE7B7
:101D9800054B9C4201D00020E6E7B0FA80F04009EC
:101DA800E2E700BFFFFFDF7F0000F07F0020704701
:101DB80081F0004102E000BF83F0004330B54FEAF4
:101DC80041044FEA430594EA050F08BF90EA020F61
:101DD8001FBF54EA000C55EA020C7FEA645C7FEAF4
:101DE800655C00F0E2804FEA5454D4EB5555B8BF17
:101DF8006D420CDD2C4480EA020281EA030382EA88
:101E0800000083EA010180EA020281EA0303362D19
:101E180088BF30BD11F0004F4FEA01314FF4801CEC
:101E28004CEA113102D0404261EB410113F0004FFE
:101E38004FEA03334CEA133302D0524263EB4303B5
:101E480094EA050F00F0A780A4F10104D5F1200E53
:101E58000DDB02FA0EFC22FA05F2801841F10001AE
:101E680003FA0EF2801843FA05F359410EE0A5F182
:101E780020050EF1200E012A03FA0EFC28BF4CF0B3
:101E8800020C43FA05F3C01851EBE37101F0004569
:101E980007D54FF0000EDCF1000C7EEB00006EEB76
:101EA8000101B1F5801F1BD3B1F5001F0CD3490800
:101EB8005FEA30004FEA3C0C04F101044FEA445257
:101EC80012F5800F80F09A80BCF1004F08BF5FEADE
:101ED800500C50F1000041EB045141EA050130BDBE
:101EE8005FEA4C0C404141EB010111F4801FA4F161
:101EF8000104E9D191F0000F04BF01460020B1FAB6
:101F080081F308BF2033A3F10B03B3F120020CDAED
:101F18000C3208DD02F1140CC2F10C0201FA0CF0CB
:101F280021FA02F10CE002F11402D8BFC2F1200C30
:101F380001FA02F120FA0CFCDCBF41EA0C019040E6
:101F4800E41AA2BF01EB0451294330BD6FEA04042F
:101F58001F3C1CDA0C340EDC04F11404C4F120021A
:101F680020FA04F001FA02F340EA030021FA04F32C
:101F780045EA030130BDC4F10C04C4F1200220FA83
:101F880002F001FA04F340EA0300294630BD21FAC1
:101F980004F0294630BD94F0000F83F4801306BF87
:101FA80081F480110134013D4EE77FEA645C18BF7B
:101FB8007FEA655C29D094EA050F08BF90EA020F12
:101FC80005D054EA000C04BF1946104630BD91EA0A
:101FD800030F1EBF0021002030BD5FEA545C05D10D
:101FE8004000494128BF41F0004130BD14F580044C
:101FF8003CBF01F5801130BD01F0004545F0FE41C0
:1020080041F470014FF0000030BD7FEA645C1ABFF4
:10201800194610467FEA655C1CBF0B46024650EA2B
:10202800013406BF52EA033591EA030F41F4002157
:1020380030BD00BF90F0000F04BF0021704730B5DD
:102048004FF4806404F132044FF000054FF00001B2
:1020580050E700BF90F0000F04BF0021704730B573
:102068004FF4806404F1320410F0004548BF404248
:102078004FF000013EE700BF42004FEAE2014FEA9D
:1020880031014FEA02701FBF12F07F4393F07F4F78
:1020980081F06051704792F0000F14BF93F07F4FAA
:1020A800704730B54FF4607401F0004521F00041ED
:1020B80020E700BF50EA010208BF704730B54FF073
:1020C80000050AE050EA010208BF704730B511F078
:1020D800004502D5404261EB41014FF4806404F1B0
:1020E80032045FEA915C3FF4DCAE4FF003025FEA32
:1020F800DC0C18BF03325FEADC0C18BF033202EBBA
:10210800DC02C2F1200300FA03FC20FA02F001FA13
:1021180003FE40EA0E0021FA02F11444C1E600BFB2
:1021280070B54FF0FF0C4CF4E06C1CEA11541DBF65
:102138001CEA135594EA0C0F95EA0C0F00F0DEF830
:102148002C4481EA030621EA4C5123EA4C5350EA15
:10215800013518BF52EA033541F4801143F4801366
:1021680038D0A0FB02CE4FF00005E1FB02E506F0F7
:102178000042E0FB03E54FF00006E1FB03569CF04C
:10218800000F18BF4EF0010EA4F1FF04B6F5007F52
:1021980064F5407404D25FEA4E0E6D4146EB0606C4
:1021A80042EAC62141EA55514FEAC52040EA5E504D
:1021B8004FEACE2EB4F1FD0C88BFBCF5E06F1ED8F7
:1021C800BEF1004F08BF5FEA500E50F1000041EB2E
:1021D800045170BD06F0004646EA010140EA0200DB
:1021E80081EA0301B4EB5C04C2BFD4EB0C0541EAFD
:1021F800045170BD41F480114FF0000E013C00F312
:10220800AB8014F1360FDEBF002001F0004170BD35
:10221800C4F10004203C35DA0C341BDC04F114044E
:10222800C4F1200500FA05F320FA04F001FA05F2DA
:1022380040EA020001F0004221F0004110EBD370A7
:1022480021FA04F642EB06015EEA430E08BF20EAD3
:10225800D37070BDC4F10C04C4F1200500FA04F376
:1022680020FA05F001FA04F240EA020001F0004108
:1022780010EBD37041F100015EEA430E08BF20EA7B
:10228800D37070BDC4F1200500FA05F24EEA020EC3
:1022980020FA04F301FA05F243EA020321FA04F0F2
:1022A80001F0004121FA04F220EA020000EBD370A9
:1022B8005EEA430E08BF20EAD37070BD94F0000FA9
:1022C8000FD101F00046400041EB010111F4801FDD
:1022D80008BF013CF7D041EA060195F0000F18BF8E
:1022E800704703F00046520043EB030313F4801FCA
:1022F80008BF013DF7D043EA0603704794EA0C0F84
:102308000CEA135518BF95EA0C0F0CD050EA410699
:1023180018BF52EA4306D1D181EA030101F0004116
:102328004FF0000070BD50EA410606BF104619463E
:1023380052EA430619D094EA0C0F02D150EA01364A
:1023480013D195EA0C0F05D152EA03361CBF10468B
:1023580019460AD181EA030101F0004141F0FE412A
:1023680041F470014FF0000070BD41F0FE4141F4AE
:10237800780170BD70B54FF0FF0C4CF4E06C1CEAAE
:1023880011541DBF1CEA135594EA0C0F95EA0C0F63
:1023980000F0A7F8A4EB050481EA030E52EA03351E
:1023A8004FEA013100F088804FEA03334FF080553F
:1023B80045EA131343EA12634FEA022245EA11156C
:1023C80045EA10654FEA00260EF000419D4208BF1D
:1023D800964244F1FD0404F5407402D25B084FEACA
:1023E8003202B61A65EB03055B084FEA32024FF476
:1023F80080104FF4002CB6EB020E75EB030E22BFD3
:10240800B61A754640EA0C005B084FEA3202B6EB92
:10241800020E75EB030E22BFB61A754640EA5C0041
:102428005B084FEA3202B6EB020E75EB030E22BFD1
:10243800B61A754640EA9C005B084FEA3202B6EBD2
:10244800020E75EB030E22BFB61A754640EADC0091
:1024580055EA060E18D04FEA051545EA16754FEAF3
:1024680006164FEAC30343EA52734FEAC2025FEA11
:102478001C1CC0D111F4801F0BD141EA00014FF0A0
:1024880000004FF0004CB6E711F4801F04BF014371
:102498000020B4F1FD0C88BFBCF5E06F3FF6AFAE8D
:1024A800B5EB030C04BFB6EB020C5FEA500C50F11D
:1024B800000041EB045170BD0EF0004E4EEA1131A0
:1024C80014EB5C04C2BFD4EB0C0541EA045170BDA7
:1024D80041F480114FF0000E013C90E645EA060EEB
:1024E8008DE60CEA135594EA0C0F08BF95EA0C0F19
:1024F8003FF43BAF94EA0C0F0AD150EA01347FF461
:1025080034AF95EA0C0F7FF425AF104619462CE737
:1025180095EA0C0F06D152EA03353FF4FDAE10469A
:10252800194622E750EA410618BF52EA43067FF4EB
:10253800C5AE50EA41047FF40DAF52EA43057FF47B
:10254800EBAE12E74FF0FF3C06E000BF4FF0010C86
:1025580002E000BF4FF0010C4DF804CD4FEA410CEA
:102568007FEA6C5C4FEA430C18BF7FEA6C5C1BD0B7
:1025780001B050EA410C0CBF52EA430C91EA030F38
:1025880002BF90EA020F0020704710F1000F91EA95
:10259800030F58BF994208BF90422CBFD8176FEA63
:1025A800E37040F0010070474FEA410C7FEA6C5C31
:1025B80002D150EA013C07D14FEA430C7FEA6C5C38
:1025C800D6D152EA033CD3D05DF8040B704700BF64
:1025D8008446104662468C461946634600E000BFB2
:1025E80001B5FFF7B7FF002848BF10F1000F01BD84
:1025F8004DF808EDFFF7F4FF0CBF012000205DF84F
:1026080008FB00BF4DF808EDFFF7EAFF34BF0120D3
:1026180000205DF808FB00BF4DF808EDFFF7E0FF6C
:1026280094BF012000205DF808FB00BF4DF808EDBD
:10263800FFF7CEFF94BF012000205DF808FB00BF24
:102648004DF808EDFFF7C4FF34BF012000205DF806
:1026580008FB00BF4FEA410212F5001215D211D54E
:102668006FF47873B3EB625212D94FEAC12343F087
:10267800004343EA505311F0004F23FA02F018BF09
:10268800404270474FF00000704750EA013005D1D2
:1026980011F0004008BF6FF0004070474FF0000095
:1026A800704700BF4FEA4102B2F1E04324BFB3F5DF
:1026B800001CDCF1FE5C0DD901F0004C4FEAC002B1
:1026C8004CEA5070B2F1004F40EB830008BF20F095
:1026D8000100704711F0804F21D113F13872BCBF4F
:1026E80001F00040704741F480114FEA5252C2F1A4
:1026F8001802C2F1200C10FA0CF320FA02F018BFED
:1027080040F001004FEAC1234FEAD32303FA0CFC3F
:1027180040EA0C0023FA02F34FEA4303CCE77FEACE
:10272800625307D150EA01331EBF4FF0FE4040F418
:102738004000704701F0004040F0FE4040F40000C7
:10274800704700BF80F0004002E000BF81F0004108
:1027580042001FBF5FEA410392EA030F7FEA226C3F
:102768007FEA236C6AD04FEA1262D2EB1363C1BFCF
:10277800D218414048404140B8BF5B42192B88BF3E
:10278800704710F0004F40F4000020F07F4018BF61
:10279800404211F0004F41F4000121F07F4118BF81
:1027A800494292EA030F3FD0A2F1010241FA03FC29
:1027B80010EB0C00C3F1200301FA03F100F0004311
:1027C80002D5494260EB4000B0F5000F13D3B0F1D9
:1027D800807F06D340084FEA310102F10102FE2A48
:1027E80051D2B1F1004F40EBC25008BF20F00100B8
:1027F80040EA03007047490040EB000010F4000F66
:10280800A2F10102EDD1B0FA80FCACF1080CB2EBF8
:102818000C0200FA0CF0AABF00EBC2505242184357
:10282800BCBFD0401843704792F0000F81F40001FC
:1028380006BF80F400000132013BB5E74FEA4103CF
:102848007FEA226C18BF7FEA236C21D092EA030F3B
:1028580004D092F0000F08BF0846704790EA010FB5
:102868001CBF0020704712F07F4F04D1400028BFE2
:1028780040F00040704712F100723CBF00F50000C4
:10288800704700F0004343F0FE4040F400007047FA
:102898007FEA226216BF08467FEA236301464202A6
:1028A80006BF5FEA412390EA010F40F480007047B9
:1028B8004FF0000304E000BF10F0004348BF40425F
:1028C8005FEA000C08BF704743F0964301464FF09B
:1028D80000001CE050EA010208BF70474FF00003F7
:1028E8000AE000BF50EA010208BF704711F0004338
:1028F80002D5404261EB41015FEA010C02BF844608
:102908000146002043F0B64308BFA3F18053A3F566
:102918000003BCFA8CF2083AA3EBC25310DB01FAAD
:1029280002FC634400FA02FCC2F12002BCF1004F31
:1029380020FA02F243EB020008BF20F001007047C2
:1029480002F1200201FA02FCC2F1200250EA4C0016
:1029580021FA02F243EB020008BF20EADC7070475C
:102968004FF0FF0C1CEAD0521EBF1CEAD15392EA6A
:102978000C0F93EA0C0F6FD01A4480EA010C400246
:1029880018BF5FEA41211ED04FF0006343EA5010A0
:1029980043EA5111A0FB01310CF00040B1F5000FE2
:1029A8003EBF490041EAD3715B0040EA010062F191
:1029B8007F02FD2A1DD8B3F1004F40EBC25008BF7B
:1029C80020F00100704790F0000F0CF0004C08BF99
:1029D80049024CEA502040EA51207F3AC2BFD2F166
:1029E800FF0340EAC250704740F400004FF0000374
:1029F800013A5DDC12F1190FDCBF00F000407047AE
:102A0800C2F10002410021FA02F1C2F1200200FAEB
:102A180002FC5FEA310040F1000053EA4C0308BFB2
:102A280020EADC70704792F0000F00F0004C02BF03
:102A3800400010F4000F013AF9D040EA0C0093F07E
:102A4800000F01F0004C02BF490011F4000F013BD8
:102A5800F9D041EA0C018FE70CEAD15392EA0C0F46
:102A680018BF93EA0C0F0AD030F0004C18BF31F0B1
:102A7800004CD8D180EA010000F00040704790F087
:102A8800000F17BF90F0004F084691F0000F91F02B
:102A9800004F14D092EA0C0F01D142020FD193EAF1
:102AA8000C0F03D14B0218BF084608D180EA010079
:102AB80000F0004040F0FE4040F40000704740F055
:102AC800FE4040F4400070474FF0FF0C1CEAD05223
:102AD8001EBF1CEAD15392EA0C0F93EA0C0F69D07F
:102AE800A2EB030280EA010C49024FEA402037D0EA
:102AF8004FF0805343EA111143EA10130CF00040E1
:102B08008B4238BF5B0042F17D024FF4000C8B42D0
:102B180024BF5B1A40EA0C00B3EB510F24BFA3EBB0
:102B2800510340EA5C00B3EB910F24BFA3EB910380
:102B380040EA9C00B3EBD10F24BFA3EBD10340EADA
:102B4800DC001B0118BF5FEA1C1CE0D1FD2A3FF620
:102B580050AF8B4240EBC25008BF20F001007047D5
:102B68000CF0004C4CEA50207F32C2BFD2F1FF0378
:102B780040EAC250704740F400004FF00003013AA9
:102B880037E792F0000F00F0004C02BF400010F44D
:102B9800000F013AF9D040EA0C0093F0000F01F061
:102BA800004C02BF490011F4000F013BF9D041EA83
:102BB8000C0195E70CEAD15392EA0C0F08D14202B6
:102BC8007FF47DAF93EA0C0F7FF470AF084676E789
:102BD80093EA0C0F04D14B023FF44CAF08466EE762
:102BE80030F0004C18BF31F0004CCAD130F0004230
:102BF8007FF45CAF31F000437FF43CAF5FE700BF88
:102C08004FF0FF3C06E000BF4FF0010C02E000BFB0
:102C18004FF0010C4DF804CD4FEA40024FEA410352
:102C28007FEA226C18BF7FEA236C11D001B052EA08
:102C3800530C18BF90EA010F58BFB2EB030088BFCE
:102C4800C81738BF6FEAE17018BF40F0010070473D
:102C58007FEA226C02D15FEA402C05D17FEA236C1F
:102C6800E4D15FEA412CE1D05DF8040B704700BF66
:102C7800844608466146FFE70FB5FFF7C9FF0028FD
:102C880048BF10F1000F0FBD4DF808EDFFF7F4FF36
:102C98000CBF012000205DF808FB00BF4DF808EDCF
:102CA800FFF7EAFF34BF012000205DF808FB00BFF2
:102CB8004DF808EDFFF7E0FF94BF012000205DF814
:102CC80008FB00BF4DF808EDFFF7D2FF94BF0120C5
:102CD80000205DF808FB00BF4DF808EDFFF7C8FFBE
:102CE80034BF012000205DF808FB00BF014B1868C5
:102CF800704700BF7000002010B5431E0A4491427F
:102D080004D011F8014B03F8014FF8E710BD034652
:102D18000244934202D003F8011BFAE770472DE9F9
:102D2800F0471E4688B0149F002BB8BF06F1004339
:102D3800129927F02007B6BF1E4600232D23462FE1
:102D48001446109DDDF84CA00B7003D0452F03D11D
:102D5800013501E0032300E002238DE8280406ABD7
:102D6800039307AB04932246334601F0E1FE472F55
:102D7800804602D1119BDB0726D5462F08EB0509B3
:102D880011D198F80030302B0AD120463146002264
:102D98000023FFF72DFC18B9C5F10105CAF800504A
:102DA800DAF8003099442046314600220023FFF724
:102DB8001FFC08B1CDF81C90079B4B4504D25A1C48
:102DC800079230221A70F7E74046079B159AC8EB1E
:102DD8000303136008B0BDE8F087034673B5002904
:102DE800B8BF494203F8022BB4BF2D222B22092970
:102DF80042701ADD0DF1070426460A2291FBF2F50E
:102E080002FB1511092D01F1300104F8011D2946B5
:102E1800F3DC3031651E04F8011CB5421A460AD2AB
:102E280015F8012B03F8012BF7E71A463024214443
:102E380002F8024B5970101A02B070BD2DE9F04F1C
:102E480091B08B4615461E461A9F044603F0ACF80F
:102E5800D0F800A0504600F007FE00230E933B6810
:102E68000990073323F0070303F108029BF8188041
:102E78003A60D3E90023CBE91223DBE91201FEF71C
:102E880069FF0128DBE9120119D100220023FFF7AD
:102E9800B9FB10B12D238BF84330A04BA04FB8F1EC
:102EA800470F88BF1F460323CBF81030DBF80030EC
:102EB80023F00403CBF800304FF00009A1E0FEF73F
:102EC80049FFDBF8003048B9964A974FB8F1470FE9
:102ED80088BF17460322CBF81020E9E7DBF8042067
:102EE800DBE91201571CCDE90A0101D1062209E0EC
:102EF800B8F1670F02D0B8F1470F05D1002A40F0AA
:102F0800C7810122CBF80420DBF8042043F4806356
:102F18008DE80C00CBF800300DF1330302930DABB4
:102F280003930EAB059300230693CDF81080DDE9DB
:102F38000A232046FFF7F3FE08F0DF03472B074676
:102F48000AD10D9BD81C03DBDBF80420934237DD44
:102F5800A8F102085FFA88F8B8F1650F0D9915D83D
:102F6800013942460BF150000D91FFF736FF0E9ADA
:102F780081468318012ACBF8103003DCDBF80020E7
:102F8800D10738D50133CBF8103034E0B8F1660FEB
:102F980018D10029DBF8043009DDCBF810101BB973
:102FA800DBF80020D20721D501330B441CE01BB904
:102FB800DBF80020D00701D5023315E0012313E028
:102FC8004FF067080D9B0E9A934207DBDBF8002051
:102FD800CBF81030D10709D5013305E0002BD4BF59
:102FE800C3F1020301231344CBF810300D9B4FF0BB
:102FF8000009CBF858309DF8333013B12D238BF8E6
:1030080043300096204659460FAA2B4600F05CF93B
:10301800013002D14FF0FF3052E1DBF800305A05A1
:1030280005D4204629463A46DBF8103008E1B8F1C5
:10303800650F40F2D080DBE9120100220023FFF780
:10304800D7FA50B320462946384A0123B047013001
:10305800E0D00E9B0D9A9A4209DBDBF80030D807C6
:1030680005D4DBF800309F0700F1108107E1204606
:1030780029465246099BB0470130CBD000270E9B0A
:10308800013B9F42EDDA204629460BF11A02012343
:10309800B0470130BED00137F1E70D9B002B29DC8A
:1030A80020462946214A0123B0470130B2D00D9B62
:1030B8002BB90E9B1BB9DBF80030D907D1D52046B8
:1030C80029465246099BB0470130A3D04FF000086B
:1030D8000D9B20465B429845294608DA0BF11A02F7
:1030E8000123B047013095D008F10108F0E73A46CE
:1030F8000E9BA5E0DBF858200E9B9A42A8BF1A4603
:10310800002A914602DC4FF000081CE020462946C0
:103118003A464B46B0470130F5D17BE7448300007F
:10312800408300004C830000488300005083000067
:10313800204629460BF11A020123B04701303FF41B
:1031480069AF08F10108DBF85830B9F1000FB4BFD6
:103158001A46C9EB03029045EADB07EB03080D9A10
:103168000E9B9A4210DBDBF80030DA070CD40E9A7B
:103178001744C8EB07030D9FD21B9342A8BF134601
:10318800002B1F4608DC0EE0204629465246099BC4
:10319800B0470130EBD13DE7204629464246B047CB
:1031A80001303FF437AF4FF000080AE020462946C7
:1031B8000BF11A020123B04701303FF42BAF08F19D
:1031C80001080D9A0E9B002FA3EB0203A8BFDB1B7F
:1031D8009845EBDB45E70E9A012A01DCDB0736D57B
:1031E800204629463A460123B04701303FF412AF42
:1031F800204629465246099BB04701303FF40AAFA2
:10320800DBE9120100220023FFF7F2F9E8B90E9B6F
:10321800204629467A1C013B1DE0204629460BF131
:103228001A020123B04701303FF4F4AE01370E9B78
:10323800013B9F42F1DB204629464B460BF15002E9
:10324800B04701307FF40DAFE4E60027EFE72046F2
:1032580029463A460123B0470130ECD1DAE6204648
:1032680029460BF119020123B04701303FF4D2AED1
:103278000137DBF80C300F9A9B1A9F42EFDBDBF823
:103288000C000F9B9842B8BF184619E00027F0E7DA
:1032980043F480638DE80C00CBF800300DF1330364
:1032A80002930DAB03930EAB059300230693CDF861
:1032B80010802046DDE90A23FFF731FD074640E686
:1032C80011B0BDE8F08F00BF2DE9F84391461F46C5
:1032D8008A680B6906469342B8BF1346C9F800309E
:1032E80091F843200C46DDF8208012B10133C9F86B
:1032F80000302368990642BFD9F800300233C9F874
:103308000030256815F006051CD094F84330226873
:10331800003318BF012392061FD5E118302081F829
:1033280043005A1C94F845102244023382F8431093
:1033380013E03046394604F119020123C047013031
:1033480007D00135E368D9F800209B1A9D42F0DBCD
:10335800DBE74FF0FF30BDE8F8833046394604F12B
:103368004302C0470130F4D02268D9F80050E3681E
:1033780002F00602042A08BF5D1B2269A3680CBF7D
:1033880025EAE57500259342C4BF9B1AED184FF056
:103398000009A9450ADA3046394604F11A02012320
:1033A800C0470130D5D009F10109F2E70020BDE896
:1033B800F88300002DE9FF410C461746227E984607
:1033C8006E2A06460A9B01F1430100F0B08012D82C
:1033D800632A23D00AD8002A00F0BD80582A40F07A
:1033E800CC8084F84520DFF804E257E0642A1ED038
:1033F800692A1CD0C1E0732A00F0B18009D86F2A6D
:103408002ED0702A40F0B980226842F02002226053
:103418003FE0752A24D0782A3BD0AEE01A6804F140
:103428004205111D1960136884F84230A9E020682C
:103438001A6810F0800F02D0101D186008E010F014
:10344800400F02F10400186002D0B2F9003000E029
:103458001368002B3EDA2D225B4284F8432039E0C2
:1034680020681A6810F0800F02D0101D186007E05D
:1034780010F0400F02F10400186001D0138800E03A
:103488001368227EDFF864E16F2A0CBF08220A2243
:103498001CE07822DFF858E184F845202268186893
:1034A80012F0800F00F104051D6003D1550601D507
:1034B800038800E00368D00744BF42F0200222607E
:1034C8001BB9226822F0200222601022002084F812
:1034D800430002E0DFF814E10A226568002DA8BF66
:1034E8002068A560A4BF20F00400206003B965B17E
:1034F8000D46B3FBF2F002FB10331EF8033005F85B
:10350800013D03460028F4D100E00D46082A0BD1FE
:103518002368DA0708D5236962689A42DEBF302338
:1035280005F8013C05F1FF35491B21612EE02568AE
:103538001A6815F0800F606903D0151D1D601368A7
:1035480008E015F0400F02F104051D60136801D072
:10355800188000E01860002323610D4616E01A6801
:10356800111D1960156800212846626802F074FD73
:1035780008B1401B6060636804E004F1420584F808
:10358800422001232361002384F84330CDF80080D2
:103598003046214603AA3B46FFF796FE013002D18A
:1035A8004FF0FF301FE0304639462A462369C047AE
:1035B8000130F5D023689B0705D4E068039B984247
:1035C800B8BF18460FE00025E368039A9B1A9D428E
:1035D800F3DA3046394604F119020123C0470130B5
:1035E800DED00135F0E704B0BDE8F0815283000079
:1035F800638300002DE9F04F99468B6815465A1EE3
:10360800B2F5AE7F82BF6FF4AE7203EB020C40F2EC
:103618005D130F4688BF8B600B684FF0000B43F4B7
:10362800F06347F81C3B06460C46B8465A46DA464D
:1036380087B098BF4FF0000CCDF80CB0CDF808B0AB
:10364800CDF804B0A168002900F0EC802B681B7845
:10365800492B70D016D8392B0DD8312B40D22D2BB1
:1036680046D002D82B2B43D0DCE02E2B00F09280E2
:10367800302B23D0D6E0452B00F09580462B77D011
:10368800412B0CE0652B00F08E800AD8542B75D0A6
:1036980002D84E2B34D0C5E0592B75D0612B46D0BB
:1036A800C0E06E2B2CD004D8662B61D0692B42D099
:1036B800B8E0742B62D0792B66D0B3E0206810F4A0
:1036C800807F0DD020F0800020600AF1010ABCF153
:1036D800000F00F08A8001310CF1FF3CA16084E00A
:1036E80012EB0B0F40F09E80216821F4C07105E0B9
:1036F8002168080640F1968021F08001216070E081
:103708006AB9BAF1000F0CD1216801F4E060B0F594
:10371800E06F06D121F4F0612160012261E0022A04
:103728005ED0BBF1010F1ED0BBF1040F1AE0012AD5
:1037380078D1022255E0BBF1000F0ED1BAF1000F8B
:1037480073D1216801F4E060B0F5E06F71D121F424
:10375800F06121604FF0010B43E0BBF1030F02D091
:10376800BBF1050F5ED10BF1010B5FFA8BFB38E063
:10377800BBF1020F56D14FF0030B32E0BBF1060F3D
:1037880050D14FF0070B2CE0BBF1070F4AD14FF097
:10379800080B26E02168880544D521F420712160B2
:1037A800CDF804A01DE0216801F4A060B0F5806F99
:1037B80004D0480536D5BAF1000F3AD0880558BF6D
:1037C800019821F4F06158BFC0EB0A0041F4C071C0
:1037D8005CBF0290CDF80C8021604FF0000A00E039
:1037E800032288F8003008F10108A368013BA360B0
:1037F8002369013323616B68013B002B6B6003DD98
:103808002B6801332B601DE7D4F8803130462946F8
:103818000592CDF810C09847DDF810C0059A002829
:103828003FF410AFBAF1000F03D0236823F480737C
:103838002360013A012A0ED8B8450AD9D4F87C3158
:10384800304618F8011D2A4698472369013B236131
:10385800F2E70125AEE00BF1FF33062B22D8BBF1CE
:10386800020F12D9ABF1030B5FFA8BFBCBEB080B02
:10387800D84517D0D4F87C31304618F8011D2A46AF
:1038880098472369013B2361F2E7B845E1D9D4F8A9
:103898007C31304618F8011D2A4698472369013BB8
:1038A8002361F2E72368DA052CD55B050CD5B8450A
:1038B800CFD9D4F87C31304618F8011D2A469847EC
:1038C8002369013B2361F2E718F8011C2369652984
:1038D80003F1FF3308F1FF3B23610DD045290BD0DD
:1038E800D4F87C3130462A469847236918F8021CD8
:1038F800013BA8F1020B2361D4F87C3130462A46FB
:103908009847D846256815F0100552D188F8005018
:10391800236803F4C063B3F5806F05D1019BC3EB43
:103928000A035A426BB916E0029BA3B1039B2A46CD
:10393800591C30460A2300F0F1FE029BDDF80C808A
:10394800C21A04F26F13984528BF04F5B7784046A9
:103958001A4900F065F830463946002200F0C0F8F0
:103968002268064612F0020F0F46D9F8003003D03D
:103978001A1DC9F8002006E012F0040F03F1040232
:10398800C9F8002003D01B68C3E900670DE0D3F82D
:103998000080FEF7DFF910B900F03EF803E030468A
:1039A8003946FEF77FFEC8F80000E3680133E3609C
:1039B80000E00025284607B0BDE8F08F74830000BA
:1039C8000FB40A4B13B51C6824B1A36913B9204678
:1039D80001F056FF05AB2046A168049A019303F055
:1039E8005BF902B0BDE8104004B0704770000020D9
:1039F80038B5084B05461C6824B1A36913B920469D
:103A080001F03EFF20462946A268BDE8384003F091
:103A18004BBA00BF70000020004870470000C07F0C
:103A28000EB400B54FF402719CB0ADF814106FF0ED
:103A38000041049107914FF6FF711DABADF81610C8
:103A4800084953F8042B02900690086802A90193CC
:103A580003F008F8029B00221A701CB05DF804EB12
:103A680003B0704770000020034613F8012B002AAA
:103A7800FBD1181A0138704730B5036811F8014BAB
:103A880001334CB11A78A2F14105192D98BF2032A3
:103A9800A242F3D0002030BD0360012030BD2DE9E3
:103AA800F0410F46904602F0B1FD04460D46B8F1CC
:103AB800000F11D0C7F30A53C3F16B03002B0BDDC2
:103AC8001B0503F17F55002405F5401522462B46BA
:103AD800FEF726FBBDE8F08120462946BDE8F081C7
:103AE8002DE9F04F00239FB01A9382460B460391AD
:103AF80015924FF000084FF000091993199B1A7896
:103B08000D2A05D8092A13D2002A00F0B78111E03E
:103B18002B2A06D02D2A02D0202A0BD108E0012218
:103B280000E0002209925A1C19925B7823B9A5E19A
:103B38000133E2E700230993199C2378302B5CD1E9
:103B48006378582B01D0782B4CD11AAB0093099B82
:103B58005046019319A9AE4A1BAB01F064FF10F05F
:103B68000706054600F0A585062E05D10134002379
:103B78001994099300F09DBD1A9A3AB11CA83521F1
:103B880002F031FE50461A9902F0A9FA1B9A062E45
:103B980021D8DFE806F0040D08171C0D04004FF0CB
:103BA8000009C84617E0DDF87080DDF8749012E06F
:103BB8001D9B02F2334223F48013DDF8708043EA40
:103BC800025908E0DFF84C924FF0000803E06FF06C
:103BD80000494FF0FF38290740F16B8549F000494B
:103BE80000F067BD199B5A1C19925B78302BF9D0ED
:103BF800002B00F05E85012300E000230026B34679
:103C080035460493199B0793199C2778A7F130032D
:103C1800DAB2092A0CD8082D4FF00A0204F101047F
:103C2800D4BF02FB0B3B02FB063601351994EBE7C8
:103C3800504602F0B9F901685046059102F0B4F90E
:103C48000068FFF711FF05990246204603F0BBF90B
:103C580028B100203B462C460246074657E005900F
:103C6800504602F0A1F90068FFF7FEFE199B05997E
:103C78001A1819921B5C002D41D12846302B05D10A
:103C8800199B01305A1C19925B78F7E7A3F13102AE
:103C9800082A42D8199A0792024600200446303B67
:103CA80000F1010125D00A4421460719B94211D073
:103CB800013101F1FF3EBEF1080F04DC4FF00A0E9E
:103CC8000EFB0BFBF2E71029DCBF4FF00A0E0EFBD0
:103CD80006F6EBE72044082800F1010403DC0A217A
:103CE80001FB0B3B04E0102CDCBF0A2101FB06366C
:103CF8000021199B581C19905B78084602E02C4655
:103D080008460A46A3F130010929C8D90127652BBD
:103D180001D0452B64D16CB904E0652B40F0D78401
:103D28000022012728B9049B002B00F0A780044635
:103D380000E00024199B039301331993039B5B78DC
:103D48002B2B07D02D2B02D04FF0000C09E04FF0A1
:103D5800010C01E04FF0000C039B02331993039B05
:103D68009B78A3F13001092938D81946302904D1A4
:103D7800199B591C19915978F8E7A1F1310EBEF138
:103D8800080F0B462CD8A1F130030593199B069315
:103D9800199B03F1010ECDF864E05B78A3F13001C3
:103DA800092908D805994FF00A0E0EFB0131A1F137
:103DB80030030593ECE70699C1EB0E0EBEF1080F30
:103DC80044F61F6E04DC05997145A8BF714600E0F2
:103DD8007146BCF1000F04D0494202E003991991E1
:103DE8000021002C54D1002840F06384049A002A52
:103DF80040F05F84002F41D14E2B20D002DC492BAC
:103E08000AD03BE0692B07D06E2B18D036E000BFF4
:103E1800B88300000000F07F19A8AA49FFF72CFE1C
:103E280060B3199B19A8013BA7491993FFF724FE12
:103E380010B9199B01331993DFF8A4921AE019A855
:103E4800A249FFF719FEC8B1199B1B78282B0FD17F
:103E580019A89F491CAA02F01DF8052808D11D9B26
:103E6800DDF8708043F0FF4949F4E00900F021BC17
:103E7800DFF870924FF0000800F01BBC039B199309
:103E8800159B002B00F020840023099300F013BC3D
:103E98008B1A06932B46002D08BF23465846102C34
:103EA80025460393A8BF1025FEF7C4F8092D8046C0
:103EB800894613DD874B03EBC50353E91223FEF74D
:103EC8002FF9804630468946FEF7B4F802460B467D
:103ED80040464946FDF772FF804689460F2C36DC7E
:103EE800069B002B00F0E58324DD162B07DC794ABE
:103EF80002EBC302D2E900014B46424615E0069A9E
:103F0800C4F125039A4222DC724DC4F10F0405EB7B
:103F1800C403D3E9000142464B46FEF701F9069B6C
:103F28001C1B05EBC405D5E90023FEF7F9F880460C
:103F38008946BEE3069B13F1160F08DB654A404627
:103F4800A2EBC30249460CCAFEF714FAEFE7069B38
:103F5800651B1D44002D58DD15F00F020AD05D4B7E
:103F680003EBC203D3E9000142464B46FEF7D8F8FB
:103F78008046894635F00F0500F0BA80B5F59A7F7E
:103F88000FDD4FF0000BCDF80CB0CDF81CB0CDF81C
:103F980014B02223CAF80030DFF844914FF000082B
:103FA80083E14946DFF8409140464E462D110027EF
:103FB800012D0ADDEA0703D5D9E90023FEF7B0F899
:103FC80001376D1009F10809F2E78046A1F154792B
:103FD80006EBC7064246D6E900014B46FEF7A0F8B5
:103FE80021F0004389460A461B0D3B491B058B42BD
:103FF8008046C6D8A1F580118B4286BFDFF8EC90C9
:104008004FF0FF3802F1547972E071D06D4215F02B
:104018000F020AD02F4B404603EBC2034946D3E9AF
:104028000023FEF7A7F9804689462D1160D01F2D81
:1040380008DD4FF0000BCDF80CB0CDF81CB0CDF872
:1040480014B02BE14046494615F0100F0CBF002371
:104058006A23224E0493002D08DDEB0703D5D6E929
:104068000023FEF75DF86D100836F4E7049B8046E0
:104078008946EBB1C1F30A53C3F16B03002B0A461F
:1040880016DD1F2B0EDD342BDEBF203B4FF0FF313A
:1040980001FA03F34FF00008CCBF4FF05C7903EA54
:1040A800020905E04FF0FF3202FA03F303EA0008C1
:1040B8004046494600220023FEF79AFA0028B8D164
:1040C80018E000BF45830000D08400004D83000045
:1040D8007C830000488500000000A07C90830000DD
:1040E8000000F07F0000F8FF10860000FFFFEF7F60
:1040F80000230493CDF800B050460799039A23464D
:1041080002F042F8079000283FF43BAF069A069B5E
:10411800002AC3F100034FF0000BA8BF00230E9341
:10412800CDF80CB0079B5046596801F0A3FF0590E5
:1041380000283FF42EAF079B0C301A69079B023208
:1041480003F10C019200FEF7D7FD1BAB00931CABEB
:104158000193504642464B46CDE90A8902F0C9FA16
:104168001A9000283FF415AF5046012102F099F843
:10417800039000283FF40DAF069B049923EAE377E8
:104188001B9B1C9C002BAABF0E9AFA1AD618A3EBED
:10419800010323446FF47F71ACBF3A460E9E8B42F5
:1041A800C4F1360480F28680C91A1F29A4EB0104E1
:1041B800C8BFB3494FF00100D5BF00FA01F3C91ACF
:1041C800149300FA01F3D9BF00230F930F931490AF
:1041D8003519049BB54214441C442B46A8BF3346EA
:1041E800A342A8BF2346002BC2BFED1AE41AF61A51
:1041F8000E9B002B63D1002D7BDC002F40F08380C9
:10420800002C00F38A80002E00F3918050461A9902
:10421800059A02F09CF9834600283FF4BAAEC368B9
:104228000024C4600399089302F075F9A04280F253
:104238008D80089B002B40F01582B8F1000F40F0EC
:104248001182C9F31303002B40F00C8229F00043BC
:104258001B0D1B05B3F1D66F40F20482DBF8143056
:10426800002B6ED059460122504602F001F90399FD
:10427800834602F050F9002840F3F48129F0004306
:10428800049A1B0D1B05002A00F08F80B3F1D66F2E
:1042980000F38B80B3F15C7F00F3E68122234FF0BB
:1042A80000084FF00009CAF80030079B002B40F0C7
:1042B800EC81FEE100230F930123149388E71A464B
:1042C8005046039902F086F80390034600283FF40D
:1042D80060AE504619461A9A01F0ECFF0890002883
:1042E8003FF457AE50461A9901F0F9FE089B1A930D
:1042F80081E750461A992A4602F0BAF81A9000281F
:104308007FF47BAF45E6504605993A4602F062F8DD
:10431800059000287FF474AF3BE650460599224685
:1043280002F0A6F8059000287FF46DAF31E65046FC
:104338000399324602F09CF8039000287FF466AF98
:1043480027E6DBF81030012B8CDC8BE162D1089A70
:10435800C9F3130322B34B494A468B422ED1049B1F
:10436800414663B1484B1340B3F1D46F07D81B0DD6
:10437800C3F16B034FF0FF3000FA03F301E04FF095
:10438800FF3399421AD1414B9A4202D101313FF48D
:1043980000AE3D4B4FF00008134003F5801961E172
:1043A80063B9B8F1000F09D168E7A3F580136FEA84
:1043B80013594FF0FF386FEA095953E10F9B13B1B6
:1043C80013EA090F02E0149B13EA080F00F04A8170
:1043D800089B40464946049A53B1FFF760FB0246E2
:1043E8000B46DDE90A01FDF7E9FC8046894639E11B
:1043F800FFF755FB02460B46DDE90A01FDF7DCFC39
:104408000022002380468946FEF7F2F800287FF450
:1044180045AF27E15846039902F0BDF900224FF055
:10442800804306460F46FEF7F7F800283FD0089B62
:1044380013B10026164F10E0B8F1000F03D1C9F3ED
:1044480013033BB90BE0B8F1010F03D1B9F1000F29
:104458003FF424AF0F4F002600240D4D3CE03046BA
:10446800394600220A4BFEF7CDF8B8B9304639462E
:104478000022094BFDF754FE04460D4610E000BF2C
:10448800E3FBFFFFFFFF0F000000F07FFFFFEF7F60
:104498000000F03F0000F0BF0000E03F089C9A4D8C
:1044A80005F1004316941793DDE9166714E0964B5F
:1044B800304639460022FDF733FE089B04460D4678
:1044C80023B901F100431090119303E002460B4613
:1044D800CDE91023DDE9106729F0004C4FEA1C5C98
:1044E8008A4B4FEA0C5C9C4531D1DDE90A23A9F1DE
:1044F800547940464946CDF83CC0CDE90C2302F03A
:1045080085F802460B4630463946FDF709FE024655
:104518000B4640464946FDF751FC21F000431B0D70
:104528007B4A1B0593428046DDF83CC00CD9794B89
:104538000D9A9A4203D10C9B01333FF42AADDFF860
:10454800D4914FF0FF387CE001F1547944E0049BAA
:1045580063B3BCF1D46F29D863A3D3E90023204601
:104568002946CDF83CC0FEF757F8DDF83CC0C8B185
:104578002946204602F0F4FD002808BF0120FDF777
:1045880059FD089B04460D46DDF83CC023B901F1EE
:1045980000431290139303E002460B46CDE9122321
:1045A800DDE9126707F1D663CCEB0307DDE90A0101
:1045B800CDF83CC002F02AF802460B463046394690
:1045C800FDF7AEFD02460B46DDE90A01FDF7F6FBF5
:1045D80080468946DDF83CC0049B4E468BBB29F0DB
:1045E80000431B0D1B059C452BD129462046FEF791
:1045F80031F8FDF72FFD0B46024629462046FDF708
:10460800DBFB089B04460D462BB9B8F1000F02D11D
:10461800C9F313067EB136A3D3E900232046294601
:10462800FDF7F0FF88BB34A3D3E9002320462946D1
:10463800FEF706F804E032A3D3E90023FDF7E2FF12
:1046480018BB50461A9901F04AFD5046059901F0E9
:1046580046FD5046039901F042FD5046594601F087
:104668003EFD5FE5049B83B12B4B40460D93002331
:104678000C934946DDE90C23FDF752FD8046894637
:1046880019B910B92223CAF8003050461A9901F016
:1046980026FD5046059901F022FD5046039901F088
:1046A8001EFD5046079901F01AFD5046594601F083
:1046B80016FD159B13B1199B159A1360099B1BB125
:1046C800424609F1004307E042464B4604E0002415
:1046D80022460127FFF71DBB104619461FB0BDE84B
:1046E800F08F00BFAFF300800000C0FFFFFFDF4185
:1046F8009535A094FFFFDF3F35E5AF350000E03F7B
:104708009535A094FFFFCF3F0000E03F0000E07F19
:10471800FFFF9F7CFFFFEF7F000050392DE9F04736
:104728000F46404CD4F800903D4615F801EB09EBD4
:104738000E04667806F0080404F0FF060CB12F4654
:10474800F2E774462D2C03D1BD1C7C78012603E0CA
:104758002B2C04BF7C78BD1C13B1102B0AD15AE056
:10476800302C56D12C7804F0DF04582C4CD16C78BE
:1047780010230235002E14BF4FF000486FF0004898
:10478800B8FBF3FA0027BE4603FB1A8809EB040CB2
:104798009CF801C01CF0040F01D0303C0BE01CF069
:1047A800030C1BD0BCF1010F0CBF4FF0370C4FF0BE
:1047B800570CCCEB04049C4210DAB7F1FF3F0AD047
:1047C800D64506D801D1444503DC03FB0E4E01272C
:1047D80001E04FF0FF3715F8014BD7E77C1C734613
:1047E8000AD1002E4FF0220114BF4FF000436FF0A2
:1047F800004301602AB911E00EB1CEF100036AB19D
:1048080007B1691E116009E03024002BB2D10823DA
:10481800B0E70A23AEE7302CACD1A3E71846BDE8D1
:10482800F08700BF7400002030B5141E9BB0054609
:1048380004DA8B2303604FF0FF301CE04FF4027260
:10484800ADF80C200CBF224604F1FF32029205920B
:104858004FF6FF7200910491ADF80E2069461A4692
:104868001E9B02F0FFF8431CBCBF8B232B6014B1C6
:10487800009B00221A701BB030BD000073B50646BD
:104888000D4614460093044B314618682A462346C1
:10489800FFF7CAFF02B070BD7000002070B50D466A
:1048A8001446064618B183690BB900F0E9FF224B9C
:1048B8009C4201D1746808E0204B9C4201D1B46845
:1048C80003E01F4B9C4208BFF468A369A360A38957
:1048D8001A0709D523693BB123682069EDB2181A74
:1048E800636998420FDB08E03046214600F02AF859
:1048F8000028F1D04FF0FF3070BD3046214600F05F
:1049080055FF0028F6D1A3680130013BA360236856
:104918005A1C22601D706369984204D0A389DB0782
:1049280007D50A2D05D13046214600F03FFF002863
:10493800E0D1284670BD00BFDC840000FC84000084
:104948001C850000314B70B51D6806460C4625B124
:10495800AB6913B9284600F093FF2D4B9C4201D157
:104968006C6808E02B4B9C4201D1AC6803E02A4BF1
:104978009C4208BFEC68A3899AB211071DD4D506DA
:1049880002D40922326038E0500712D5616B41B178
:1049980004F14403994202D0304601F06FFF00232E
:1049A8006363A38923F02403A3810023636023693D
:1049B8002360A38943F00803A38123694BB9A38922
:1049C80003F42073B3F5007F03D03046214601F08D
:1049D800EFFAA38913F0010205D00022A2606269F0
:1049E8005242A26103E0990758BF6269A260226936
:1049F8004AB903F0800080B230B143F04003A3818C
:104A08004FF0FF3070BD002070BD00BF7000002067
:104A1800DC840000FC8400001C8500002DE9F74FB1
:104A280003690C698046A3427EDB013C01F114074F
:104A38004FEA840E00F1140606EB0E0357F82450D3
:104A4800019356F824300135B3FBF5F507EB0E0951
:104A5800BDB34FF0000A3846B446D34650F8043B7D
:104A68009AB21B0C02FB05A26B4303EB124392B2F2
:104A7800C2EB0B0BBCF800204FEA134A5A441FFA4A
:104A880083FBDCF800304845CBEB134303EB2243B0
:104A980092B242EA03424FEA234B4CF8042BDDD989
:104AA80056F80E306BB9019B043BB3421A4602D844
:104AB800C8F8104005E01268043B002AF8D1013C10
:104AC800F3E7404601F027FD00282BDB304601358F
:104AD8004FF0000E57F8042B036891B2C1EB0E0E8D
:104AE800120C99B27144C2EB134303EB214389B210
:104AF8004FEA234E4F4541EA034340F8043BE9D9C6
:104B080056F8242006EB840362B9043BB3421A46E4
:104B180002D8C8F8104005E01268043B002AF8D112
:104B2800013CF3E7284600E0002003B0BDE8F08F21
:104B38002DE9F04F456A95B08246219CCDE90223C4
:104B480045B9102001F080FACAF824004560856054
:104B58000560C560DAF82430196859B15A6801232C
:104B680093404A608B60504601F0B9FADAF8243075
:104B780000221A60039BA24A002BBDBF01232360B9
:104B8800039B0023BCBF23F000430393039FA8BFEC
:104B9800236027F000431B0D1B0593421DD142F2F1
:104BA8000F73209A1360029B43B9964A964BC7F33A
:104BB8001300002814BF1846104600E09248229BB4
:104BC800002B00F06985C37813B100F1080300E0F9
:104BD800C31C229A136000F05FBDDDE90245002284
:104BE800204629460023FDF703FD804658B1209A48
:104BF80001231360229B002B00F03C85834818603A
:104C0800013800F049BD13AB009312AB0193504635
:104C180022462B4601F06DFDC7F30A5607905EB198
:104C2800C5F3130343F07F51204641F44011A6F227
:104C3800FF36CDF844801DE0139B129E1E446FF48E
:104C480082639E42A1BF029A06F2124322FA03F03F
:104C58006F4BB7BF6F4B9B1B029A9B1BAABF9F4012
:104C680002FA03F03843FDF7E5F90123A1F1F871E1
:104C7800013E11930022684BFDF79EF85AA3D3E931
:104C88000023FDF74DFA5AA3D3E90023FDF796F860
:104C9800044630460D46FDF7DDF957A3D3E9002356
:104CA800FDF73EFA02460B4620462946FDF786F8F0
:104CB80004460D46FDF7CEFC2946834600222046D1
:104CC8000023FDF79FFC58B15846FDF7C3F902468B
:104CD8000B4620462946FDF78BFC08B90BF1FF3B34
:104CE800BBF1160F0DD84D4B03EBCB03D3E90001F5
:104CF800DDE90223FDF7A4FC30B10BF1FF3B0023F3
:104D080000E00123109300E01090129B9E1B731E7D
:104D18000A9345BF5B420993002300234CBF0A93C3
:104D28000993BBF1000F07DB0A9BCDF834B05B4455
:104D38000A9300230B9308E0099BCBEB0303099329
:104D4800CBF100030B9300230D931E9B092B29D84D
:104D5800052BC4BF043B1E931E9BC8BF0025A3F1AF
:104D68000203D8BF0125032B21D8DFE803F0020E88
:104D78000410002300E001230C931F9B002B20DC70
:104D88000123069305931A4619E0002300E0012346
:104D98000C931F9B5B4406930133012B0593B8BF0B
:104DA800012311E0012500231E930C9501E0012346
:104DB8000C934FF0FF3306930593002212231F92A2
:104DC80002E01F9B06930593DAF8244000226260F4
:104DD800042101F114029A4222D862684900013282
:104DE8006260F6E7AFF3008061436F63A787D23F45
:104DF800B3C8608B288AC63FFB799F501344D33FC2
:104E08000000F07FCD840000D684000051830000AC
:104E18000EFCFFFFEEFBFFFF0000F83F4885000097
:104E28005046616801F026F9DAF8243020601B68E2
:104E38000893059B0E2B00F24781002D00F044815A
:104E4800DDE90223BBF1000FCDE90E2331DDB14AC4
:104E58000BF00F034FEA2B1602EBC303F006D3E95E
:104E680000450CD5DDE90E01AB4B06F00F06D3E982
:104E78000823FDF77FFA0327CDE9020100E00227A6
:104E8800DFF8948276B1F10708D5D8E900232046E7
:104E98002946FDF745F904460D460137761008F115
:104EA8000808EFE7DDE9020122462B46FDF762FA22
:104EB8001BE0CBF10004DCB1DDE90E01954B04F0F9
:104EC8000F0203EBC203D3E90023FDF729F9924D42
:104ED800241102274CB1E20704D5D5E90023013794
:104EE800FDF71EF964100835F4E7CDE9020100E08A
:104EF8000227109BDBB1DDE9024500222046294646
:104F0800864BFDF77FFB90B1059B83B1069B002B79
:104F180040F3D680294620460022814BFDF700F950
:104F28000BF1FF36CDE902010137069D01E05E462F
:104F3800059D3846DDE90289FDF78CF842464B4667
:104F4800FDF7EEF8774B0022FCF738FFCDE90201B8
:104F5800039BA3F150740394CDB9404649460022FF
:104F6800714BFCF729FF029A234680468946FDF7D4
:104F780067FB002840F0408240464946029A04F107
:104F88000043FDF73FFB002840F0308298E0614B7A
:104F98000C996A1E03EBC203002947D0D3E900230A
:104FA80000206249FDF7E6F9DDE90223FCF704FF7A
:104FB800CDE90201089C49464046FDF74BFB0746F0
:104FC800FDF748F802460B4640464946FCF7F4FE12
:104FD800DDE90223303704F8017B80468946FDF776
:104FE80011FB002840F0378342464B4600204B49CE
:104FF800FCF7E2FEDDE90223FDF704FB002840F0A0
:10500800D080089BE31AAB425ADADDE9020100229C
:10501800434BFDF785F80022CDE90201404B40469D
:105028004946FDF77DF880468946C4E7D3E9000183
:10503800DDE90223FDF774F8089BCDE902015C194C
:105048001D4649464046FDF705FB0746FDF702F8B1
:1050580002460B4640464946FCF7AEFE303705F897
:10506800017BA5428046894623D100222F4BDDE9EA
:105078000201FCF7A3FE02460B4640464946FDF7EF
:10508800DFFA002840F08D80DDE90223002027495F
:10509800FCF792FE02460B4640464946FDF7B2FA37
:1050A80070B114F8013C621E302B40F0D4821446D3
:1050B800F7E700221A4BFDF733F880468946C0E728
:1050C800DDE90E23CDE90223139B002BC0F28A8071
:1050D800BBF10E0F00F386800E4B03EBCB03D3E935
:1050E80000671F9B002B23DA059B002B20DC40F078
:1050F8007C81304600220C4B3946FDF711F8DDE97A
:105108000223FDF793FA059D2E46002840F06F8193
:1051180074E100BF48850000108600000000F03FE1
:105128000000244000001C40000014400000E03F44
:10513800089CDDE9028932463B4640464946FDF770
:1051480019F9FDF787FA0546FCF784FF32463B4616
:10515800FCF7E6FF0B46024649464046FCF72CFEA4
:1051680005F1300E089B04F801EBC3EB040E059B18
:105178009E452AD102460B46FCF720FE32463B46A6
:1051880080468946FDF75CFA70B940464946324682
:105198003B46FDF72DFA002800F05E82EB0703D4AA
:1051A8005AE2B34600E01C4614F8012C631E392A63
:1051B80007D1089A9342F6D13023137013460BF1A6
:1051C800010B1A7801321A7046E20022A34BFCF751
:1051D800A7FF0022002380468946FDF709FA002828
:1051E800A9D039E20C9A002A32D01E9A012A0ADC88
:1051F800119A12B103F2334302E0129BC3F1360352
:105208000B9D099C18E0059B5D1E0B9BAB42B7BF2D
:105218000B9B5D1BEA1A0D9BBEBF0B959B180D934C
:10522800059BB8BF0025002BB9BF099B059A099CAF
:10523800059BBCBF9C1A0023099A50461A44099240
:105248000A9A01211A440A9201F02BF8064602E054
:105258000B9D099C0C9E64B10A9B002B09DDA3429F
:10526800A8BF2346099AE41AD21A09920A9AD31AAD
:105278000A930B9B002B20DD0C9BC3B1002D10DD86
:1052880031462A46504601F0A5F80646079A3146A7
:10529800504601F00FF807460799504600F01FFFE7
:1052A80007970B9B5A1B08D05046079902E05046B7
:1052B80007990B9A01F08EF807905046012100F0EB
:1052C800F0FF0D9B0546002B0ADD29461A4650467D
:1052D80001F080F81E9B0546012B04DD00271BE02A
:1052E8001E9B012B13DC029B8BB9039BC3F3130397
:1052F8007BB9039B23F000473F0D3F0557B1099B3E
:105308000127013309930A9B01330A9302E000271E
:1053180000E0029F0D9B43B12B6905EB83031869DD
:1053280000F072FFC0F1200000E001200A9B184441
:1053380010F01F0008D0C0F12003042B02DDC0F1DB
:105348001C0002E008D018461C30099B04440344A2
:1053580009930A9B03440A93099B002B05DD5046D9
:1053680007991A4601F084F807900A9B002B05DD7F
:10537800294650461A4601F07BF80546109BEBB1CA
:105388000798294601F0C7F8002817DA0023504685
:1053980007990A2200F0BAFE0C9B0BF1FF3B07901D
:1053A800002B00F06B813146002350460A2200F0A2
:1053B800ADFE069B0646002B33DC68E1059B002BFF
:1053C80026DC1E9B022B23DD059B0693069B73B9E7
:1053D80029460522504600F099FE054607982946B9
:1053E80001F099F8002809DC01E000252E461F9BF2
:1053F800089C6FEA030B08E0B3462E46089B089A00
:105408005C1C312313700BF1010BB14600260FE130
:105418000C9B23B9059B0693089F079CC9E0059B35
:105428000693002C05DD31465046224601F020F84F
:105438000646AFB17168504600F01CFE044632695A
:1054480006F10C01023292000C30FDF755FC504673
:105458002146012201F00CF8814602E000002440B8
:10546800B146089F079C29462046FFF7D7FA3146E0
:10547800099000F13008204601F04DF84A460590A1
:105488002946504601F063F8C26803463AB91946FE
:105498002046079301F03FF8079B024600E00122EF
:1054A80050461946079200F01AFE079A92B91E9BB9
:1054B80083B9029B03F0010363B9B8F1390F3B4686
:1054C80007943ED0059B7C1C002BC4BF099B03F1AD
:1054D80031083DE0059B002B04DA002AC4460794F6
:1054E80008DC21E024D11E9B13BB029B03F00103BF
:1054F800F3B9F2E72146012250460597CDF8088016
:1055080000F0B6FF2946079001F005F80028DDF8FD
:1055180008C0059B03DC07D118F0010F04D0B8F1CF
:10552800390F0ED008F1010C7C1C87F800C07FE011
:10553800002A07F101020EDDB8F1390F3B46079446
:1055480003D1392201371A7057E0144608F10108CF
:1055580087F800806CE0089B1746D31A02F8018C84
:10556800069A93423AD021460A220023504600F078
:10557800CDFD4E450446314650464FF00A024FF0E5
:10558800000304D100F0C2FD064681466BE700F037
:10559800BDFD494606460A225046002300F0B6FDE6
:1055A800814660E7214650460A22002300F0AEFDFE
:1055B800044620462946FFF731FA089B00F13008D7
:1055C80007F8018B069AFB1A9342EBDB089BB1465E
:1055D800012AACBF9B1801331F4600262146012231
:1055E800504600F045FF2946079000F094FF002838
:1055F80003DC15D118F0010F12D03C4614F8013C19
:10560800621E392B09D1089B9A4204D10BF1010B78
:105618003123089A02E01446F0E70133137007E0DB
:105628003C4614F8013C621E302B01D11446F8E7C1
:105638005046294600F053FDB9F1000F0CD02EB1A9
:105648004E4503D05046314600F049FD5046494684
:1056580000F045FD00E0B3465046079900F03FFDD5
:105668000023209A23700BF101031360229B1BB1C6
:105678001C6001E00A480FE008980DE0069B002B2B
:105688003FF7CAAE1E9B022B3FF7A0AEC4E61E9B97
:10569800022B3FF79BAEC4E615B0BDE8F08F00BF04
:1056A800508300008A892DE9F041054610070C4611
:1056B80057D44B68002B02DC0B6C002B18DDE66A14
:1056C800B6B102F48052002392B22F682B600AB15F
:1056D800626D10E0216A28460123B047411C02464A
:1056E80009D12B683BB11D2B01D0162B46D12F6059
:1056F8000020BDE8F081A3895B0705D56368D21A4D
:10570800636B0BB1236CD21AE66A00232846216A20
:10571800B047461CA38905D12A681AB11D2A01D0B1
:10572800162A19D1002262602269D904226004D5A0
:10573800421C01D12B6803B96065616B2F60002999
:10574800D6D004F14403994202D0284601F096F8D5
:1057580000206063BDE8F08143F04003A381BDE809
:10576800F0810F69002FC3D093070E680CBF4B69F7
:105778000023C7EB06080F608B6012E0A3894FF087
:10578800FF3043F04003A381BDE8F0812846216A39
:105798003A464346A66AB0470028EFDD0744C0EB07
:1057A8000808B8F1000FF1DCA2E7000038B50B6972
:1057B80005460C46DBB118B183690BB900F060F8F7
:1057C8000C4B9C4201D16C6808E00B4B9C4201D108
:1057D800AC6803E0094B9C4208BFEC68B4F90C3094
:1057E8002BB128462146BDE83840FFF75BBF0020B3
:1057F80038BD00BFDC840000FC8400001C8500006C
:10580800014900F0A7B800BFB557000010B504461D
:10581800002303604360836081814366C281036122
:105828004361836119465C300822FDF770FA054B25
:1058380024626362044BA362044BE362044B236358
:1058480010BD00BF496F00006B6F0000A36F000020
:10585800C76F000070B568234D1E5D430E4605F105
:10586800740101F04FF8044640B1002180E842007D
:105878000C30A06005F16802FDF749FA204670BDBA
:10588800836910B5044633BB8364C3640365124B54
:10589800124A1B688262984204BF0123836100F0A8
:1058A8001FF86060204600F01BF8A060204600F05A
:1058B80017F80421E06000226068FFF7A7FFA068DE
:1058C80009210122FFF7A2FFE06812210222FFF757
:1058D8009DFF0123A36110BD3C830000095800000F
:1058E800F8B51B4B07461E68B36913B93046FFF776
:1058F800C7FF4836B4687368013B04D4B4F90C5048
:1059080075B16834F8E733682BB938460421FFF7D6
:10591800A1FF306008B13668ECE70C233B60F8BDA6
:105928004FF6FF73E3810123A38165662560A560B7
:10593800656025616561A56104F15C00294608225E
:10594800FDF7E5F96563A563A564E5642046F8BD40
:105958003C8300002DE9F8438046894600F148045D
:10596800002694B1A5686768013F0CD4AB89012B68
:1059780007D9B5F90E30013303D040462946C84748
:1059880006436835F0E72468EBE73046BDE8F8835E
:10599800F0B506694B11B34200F1140527DA11F08E
:1059A8001F0105EB860605EB830201D1294616E0A7
:1059B800141D55F823202B46C1F1200ECA40B442CD
:1059C80009D2276807FA0EF73A4343F8042B54F82C
:1059D800042BCA40F3E71A6052B1043308E0B2421C
:1059E8000B4605D252F8043B41F8043BF7E72B4637
:1059F8005B1B9B10036103B94361F0BDA0F1300349
:105A0800092B01D820380AE0A0F16103052B01D841
:105A1800473804E0A0F14103052B02D82738C0B26B
:105A28007047002070472DE9F04F89B08A469146AB
:105A38000493019000F0B8FA036800261846029310
:105A4800FEF712F8029B0090034413F8013C0593FB
:105A5800DAF800300233984613F8010B302801D1E8
:105A68000136F8E7FFF7CAFF0446E8B9404602994D
:105A7800009A01F0A8FA002837D1009B18F8030013
:105A880008EB0307FFF7BAFF88B33B461878984638
:105A9800302803F10103F9D0FFF7B0FFB0FA80F521
:105AA8003C466D09012601E000252C46C3465F46A9
:105AB80038780BF1010BFFF7A1FF0028F7D1384622
:105AC8000299009A01F07FFA58B95CB9009BFC185A
