:1000000000200020F5010000FD01000001020000B9
:10001000490200004D0200009502000000000000AF
:10002000000000000000000000000000DD020000F1
:10003000E102000000000000E5020000FD170000E2
:10004000F9020000F9020000F9020000F9020000C4
:10005000F9020000F9020000F9020000F9020000B4
:10006000F9020000F902000000000000F90200009F
:10007000F9020000F9020000F9020000F902000094
:10008000F90200002D180000F9020000F90200003A
:10009000F9020000F9020000F9020000F902000074
:1000A000F9020000F9020000F9020000F902000064
:1000B000F9020000F9020000F9020000F902000054
:1000C000F9020000F9020000F9020000F902000044
:1000D000F9020000F9020000F9020000000000002F
:1000E00000B583B000F092F9304B314A1360314AC9
:1000F0001360314B314A03E0116819600433043254
:100100002F498B42F8D32A4B1A682E4B9A4204D1BE
:10011000284B1A682C4B9A4200D0FEE7234B2B4AFF
:1001200013602B4A13602B4B02E000221A60043349
:10013000294A9342F9D3254B1B6813B9244B1B68FA
:1001400003B1FEE700F06EF901A8694600F010F96E
:10015000224C234B1C1BA410002504E01F4B53F81A
:10016000253098470135AC42F8DC1E4C1E4B1C1B59
:10017000A410002504E01B4B53F8253098470135A7
:10018000AC42F8DC0198009901F07CFB0546174C65
:10019000174B1C1BA41004E0013C144B53F82430F3
:1001A0009847002CF8DC284600F0BEF8BABADECA40
:1001B00000000020B000002000000020A8910000F6
:1001C000B40000207856341232547698B4000020DF
:1001D00054050020B400002058050020240300002E
:1001E000240300002403000028030000280300006B
:1001F0002803000008B5FFF773FF00BF00BEFEE74D
:100200001EF0040F0CBFEFF30880EFF30980714676
:10021000364A10472DE9F04182B007468846084B20
:100220005D6B9C6B9E6A074800F0D2F8CDF80080A9
:10023000384631462A46234600F0F8F800BEFEE76D
:1002400000ED00E03C81000000BEFEE71EF0040F60
:100250000CBFEFF30880EFF309807146244A104782
:100260002DE9F04182B007468846084B5D6B9C6BD8
:100270009E6A074800F0ACF8CDF800803846314659
:100280002A46234600F0D2F800BEFEE700ED00E06B
:100290004C8100001EF0040F0CBFEFF30880EFF359
:1002A00009807146134A10472DE9F04182B0074694
:1002B0008846084B5D6B9C6B9E6A074800F088F887
:1002C000CDF80080384631462A46234600F0AEF885
:1002D00000BEFEE700ED00E05881000000BEFEE732
:1002E00000BEFEE700BEFEE77047000015020000FA
:0C02F00061020000A9020000FEE700BF50
:1002FC00A891000000000020B4000020A89100008C
:10030C000000001000000010B40000205805002070
:0C031C000000001000000010F1180000AC
:10032800FEE700BF08B50D4B1B6813B90C4A0B4B11
:100338001A600A4B1A68C31C23F0030313440949C3
:100348008B4206D903F080FB0C2303604FF0FF308B
:1003580008BD02490B60104608BD00BFB800002068
:1003680058050020001C002001230360014B0B608E
:10037800704700BF0400002008B503F065FB582350
:1003880003604FF0FF3008BD08B503F05DFB58234C
:1003980003604FF0FF3008BD08B503F055FB582344
:1003A8000360002008BD00BF08B503F04DFB5823CB
:1003B80003604FF0FF3008BD08B503F045FB582334
:1003C80003604FF0FF3008BD0FB400B583B004AB35
:1003D80053F8042B01930848802105F063F9011EA6
:1003E80003DD054800F00AF80146084603B05DF849
:1003F80004EB04B0704700BFC00000204FF0FF308E
:10040800704700BF08B500F0C1F8024B024A9A6075
:1004180008BD00BF00ED00E00000000008B500F0D6
:1004280079F808BDF8B504460D4617461E46264815
:10043800FFF7CAFF25482168FFF7C6FF244861680F
:10044800FFF7C2FF2348A168FFF7BEFF2248E16813
:10045800FFF7BAFF21482169FFF7B6FF2048616915
:10046800FFF7B2FF1F48A169FFF7AEFF1E48E16919
:10047800FFF7AAFF1D48FFF7A7FF1D482946FFF70A
:10048800A3FF1C4CE16A1C48FFF79EFF216B1B4829
:10049800FFF79AFFE16B1A48FFF796FF15F0800FF8
:1004A80003D018483946FFF78FFF15F4004F03D0E3
:1004B80015483146FFF788FF1448FFF785FF1448B1
:1004C8000699FFF781FFF8BD20800000308000000A
:1004D80040800000508000006080000070800000B4
:1004E8008080000090800000A0800000B0800000A4
:1004F800BC80000000ED00E0CC800000DC80000043
:10050800EC800000FC8000000C8100001C810000D1
:1005180024810000184B1B8803F01803182B21D8DE
:10052800DFE803F00D2020202020202017202020A5
:100538002020202017202020202020201C000E4BC7
:10054800B3F8442402F001020C4BD3400C4A136068
:1005580008E04FF400420A4B1A6003E0094B1A689E
:10056800074B1A60044B1A8802F00702044B1B68F9
:10057800D340054A13607047002000400024F4006F
:100588004C050020500500204805002008B5002330
:10059800054A1381A2F5B0621380A2F8443493800F
:1005A8009385FFF7B7FF08BD8025004010B4038886
:1005B8009BB2490003248C4023EA04038A401A446E
:1005C80092B2028001205DF8044B704730B40446B3
:1005D8000579012000FA01F3C3F1FF032B408A409B
:1005E8001A44D2B2227130BC704700BF30B40446FE
:1005F800057A012000FA01F3C3F1FF032B408A407A
:100608001A44D2B2227230BC704700BFC9B2017717
:10061800007F7047C9B280F8201090F8200070471A
:100628000A4313439BB20382012070470A4392B2E4
:1006380082810120704700BF00797047C9B20172FA
:1006480001207047008880B2704700BFB1F5005F95
:100658000AD1038A9BB243F400530382038A23F42A
:1006680000531B041B0C0382B2F5805F0AD1038A76
:100678009BB243F480530382038A23F480531B0400
:100688001B0C038201207047F0B4224CA488C4F3E9
:100698004224072C14D8DFE804F0120406080A0CD8
:1006A8000E1002240CE004240AE0082408E01024B8
:1006B80006E0202404E0402402E0802400E0012435
:1006C800144DB5F8445415F0010F00D064006501CD
:1006D800114CB4FBF5F6B6FBF1F6B7B207854FF44B
:1006E8000067B7FBF5F504FB05F4B4FBF6F4B4FBBF
:1006F800F1F1A1F5006141F4084189B2818400213A
:10070800017103F03C0302F003021A430273007DF7
:10071800F0BC7047002000400024F400037D13F073
:10072800200F03D0C9B20170012070470020704724
:10073800007870470AB1C9B20174007E704700BFE3
:10074800C9B2017101207047007A704738B5044674
:10075800051D284609494FF4647203F07BF9C4F873
:1007680094530023C4F89C3384F8983346F2A813B2
:10077800C4F8A03301232370204638BD68810000E7
:1007880030B583B000238DF800308DF801308DF836
:1007980002308DF803308DF804308DF805308DF86F
:1007A80006308DF8073021B30C46D0F894532B6AE5
:1007B80003F03F0343F0400302A901F8083DAA6A89
:1007C80001320120D2B200F051FF0023236001233F
:1007D80009E0216802AA1A4412F8082C02EB012247
:1007E80022600133DBB2AA6A01329342F1DB0020B6
:1007F80001E04FF0FF3003B030BD00BF10B400205F
:1008080016E00C78234214BF01240024B4EBD01F57
:1008180004D04000C0B280F0070001E04000C0B240
:100828005B0800E08023002BEBD10131013AD2B202
:10083800002AF7D15DF8044B704700BFD0F8943315
:100848005B6F13F0400F02D10023C0F89C33704750
:1008580010B51446054B1B781BB9002000F006FFA5
:1008680002E0012000F002FF204610BD65010020D3
:10087800F0B585B006460C4600238DF801308DF89A
:1008880002308DF803308DF804308DF805308DF87E
:1008980006308DF807308DF808308DF809308DF85E
:1008A8000A308DF80B308DF80C308DF80D308DF83E
:1008B8000E308DF80F3090F898730B6803F03F03F3
:1008C80043F040038DF800301FB18A680232D2B27B
:1008D80002E08A680132D2B230466946FFF7B8FFB3
:1008E8000546012F1BD1236803F03F0343F0400363
:1008F8008DF80830012307E004AA1A4412F8101CE6
:1009080002F8081C0133DBB2A268911C8B42F3DBAE
:100918000A46304602A9D2B2FFF770FF07469FB9D0
:1009280000236360012309E0616804AA1A4412F8ED
:10093800102C02EB012262600133DBB2A2680132A3
:100948009342F1DB284601E06FF0010005B0F0BDED
:1009580038B504460D460B68062B08D0D0F89C33F2
:100968002BB1D4F8A01300F015F8002803DB2046BB
:100978002946FFF77DFF38BD38B505460C01D0F88C
:1009880094132144FFF7E4FFD5F894331C446068BE
:1009980038BD00BF70B506460D46D0F89443002315
:1009A8000CE0304604F16001FFF7D2FF002814DBA9
:1009B800636E13F0400F0CBF012300231BB9013DE8
:1009C80003D0012302E0002300E00023002BE8D13C
:1009D8000DB1002070BD6FF0020070BD70B5064605
:1009E8000D46D0F8944300230BE030462146FFF72C
:1009F800AFFF002814DB636813F0800F0CBF0123DE
:100A080000231BB9013D03D0012302E0002300E0CD
:100A18000023002BE9D10DB1002070BD6FF002005A
:100A280070BD00BF10B51446054B1B781BB90020DC
:100A380000F0C8FD02E0012000F0C4FD204610BD12
:100A48006501002084B070B582B0054607A880E82B
:100A58000E0000238DF801308DF802308DF8033038
:100A68008DF804308DF805308DF806308DF8073094
:100A780001F03F028DF80020089A07E0E41A02A965
:100A88000C4404F8082C12120133DBB2099CA3426F
:100A9800F4DB95F898634EB1621C28466946D2B2D9
:100AA800FFF7ACFE02AB234403F8070C16B102347F
:100AB800E2B201E00134E2B228466946FFF7B2FF2C
:100AC80002B0BDE8704004B0704700BF84B010B5F4
:100AD80082B0044605A880E80E00D4F89C3333B1F0
:100AE8002046D4F8A013FFF755FF002806DB089B23
:100AF800009305AB0ECB2046FFF7A4FF02B0BDE87C
:100B0800104004B0704700BF10B582B00901D0F89A
:100B180094330B445A60D0F894331944CB6800934B
:100B28000EC9FFF7D3FF02B010BD00BF10B582B0E9
:100B380004466B46074A1068516803C32046694655
:100B48000822FFF76FFF0446C82000F049FE204640
:100B580002B010BDF884000070B582B0054646F2B8
:100B6800A813C0F8A03300F0EDFC2846FFF7DEFF1D
:100B7800061E1CDB0024C5F89C4314E0D5F894330A
:100B880003EB0413DA68012A06D100920ECB28463B
:100B9800FFF79CFF061E0ADB072C02D12846FFF749
:100BA8004DFE0134E4B2282C01D8002EE6DA304696
:100BB80002B070BD70B50446FFF7C8FD104EC4F80A
:100BC800A4634FF4C873A4F8A8330E4B04F56C75EE
:100BD8000FCB85E80F00C4F8AC63D4F8B033C4F881
:100BE800C033D4F8B433C4F8C433D4F8B833C4F831
:100BF800C833D4F8BC33C4F8CC33204670BD00BF2A
:100C0800399B0EB90085000070B516461D4621F0C7
:100C18007F4002F0FBFC0A4902F004FE4FF07E51CF
:100C280002F042FC0446304602F0F4FC0146284635
:100C380002F0F8FD0146204602F040FD70BD00BFFD
:100C4800FEFFFF4A38B505460931CCB22146FFF709
:100C580093FE82B22846214642F40042FFF754FF31
:100C6800012000F0BDFD38BD38B505460931CCB2CC
:100C78002146FFF781FEC0F30E0228462146FFF702
:100C880043FF012000F0ACFD38BD00BF70B504463D
:100C98000D4616460321FFF76FFE26B14FF480126A
:100CA800AA40024304E04FF48012AA4020EA02025C
:100CB80020460321FFF728FF012000F091FD70BDB9
:100CC80008B5012140F28452FFF71EFF08BD00BF9E
:100CD80030B583B004460D46FFF7B4FF0122144B2C
:100CE8001A7014480821FFF795FC2046FFF7E8FF23
:100CF800204642F21071FFF771FE10F1030F05D183
:100D08000D4803F095FD4FF0FF300FE0204601A994
:100D1800FFF736FD0022064B1A7006480821FFF738
:100D280075FC20462946FFF79FFF019803B030BDA8
:100D38006501002000600040108500002DE9F041A9
:100D480082B006460D4601210A46FFF79FFF30464E
:100D58000121FFF7BDFF014630460122214BFFF775
:100D680053FF07462846002102F046FEE8B11E4B15
:100D7800C6F8C0331CE0631E1C4AD05C02F04AFC73
:100D8800294602F039FE68B1184B185D02F042FCA2
:100D9800294602F045FE28B1154B53F82430C6F811
:100DA800C03305E00134E4B200E001241E2CE2D98E
:100DB800D6F8C00302F036F804460D46384602F06D
:100DC80031F8CDE900010B4822462B4603F0A6FC7A
:100DD800C6F8C473304601210022FFF757FF02B05E
:100DE800BDE8F081333353401058954054870000D4
:100DF80074870000188500002DE9F04182B006468E
:100E08000D4601210A46FFF741FF30460121FFF751
:100E18005FFF014630460122224BFFF7F5FE0746E9
:100E28002846002102F0E8FDF8B11F4BC6F8C83388
:100E38001EE0631E1D4AD05C02F0ECFB294602F05E
:100E4800DBFD78B1194B185D02F0E4FB294602F08E
:100E5800E7FD38B104F15D08154B53F82830C6F8A2
:100E6800C83305E00134E4B200E001241E2CE0D9C7
:100E7800D6F8C80301F0D6FF04460D46384601F0FF
:100E8800D1FFCDE900010B4822462B4603F046FC72
:100E9800C6F8CC73304601210022FFF7F7FE02B0F6
:100EA800BDE8F081333353406F1225415487000069
:100EB800748700005485000010B5044601210A46D5
:100EC800FFF7E4FE20460121FFF702FF0146204616
:100ED8000122094BFFF798FEC4F8AC0301F0A2FF0A
:100EE80002460B46054803F019FC20460121002262
:100EF800FFF7CCFE10BD00BF333353409085000090
:100F0800F8B50021FFF7E4FE694B186002F082FB98
:100F18004FF0964102F0C8FA01F084FF4EA3D3E9DE
:100F2800002301F0D3FF00224FF0795301F0CEFFE8
:100F380002F066FA04465F4902F05EFD00285ED0C2
:100F4800204601F06FFF04460D4645A3D3E9002370
:100F580001F0BCFF44A3D3E9002301F003FE0646D9
:100F68000F462046294600224FF0804300F0C4FC7B
:100F78003FA3D3E9002301F0A9FF02460B46304600
:100F8800394601F0F1FD06460F4620462946002263
:100F9800494B00F0B1FC38A3D3E9002301F096FFD8
:100FA80002460B463046394601F0DCFD06460F4640
:100FB800204629460022414B00F09EFC30A3D3E98D
:100FC800002301F083FF02460B463046394601F004
:100FD800C9FD06460F46204629460022384B00F038
:100FE8008BFC29A3D3E9002301F070FF02460B46CE
:100FF8003046394601F0B8FD02F002FAF8BD204645
:1010080001F010FF00222F4B02F08AF802460B462F
:1010180000202D4901F0A6FD1DA3D3E9002301F00E
:1010280055FF04460D46204629461BA3D3E9002355
:1010380001F09AFD00F0D8FD19A3D3E9002301F0CF
:1010480091FD19A3D3E9002302F06AF802F0D8F958
:10105800F8BD00BFAFF30080000000000088B34077
:101068006DE7FBA9F1D20140713D0AD7A3406E405C
:10107800BC82C87D062F653F84F068E388B5A83F29
:1010880089F4914A6716673F3EFAE46127F3E43D25
:1010980088CE19EEAF60C33ED828C9DF4C04F03EB5
:1010A8001C64ED4A2602703F88CE19EEAF60B3BECD
:1010B800540100200000C842000008400000104011
:1010C80000001440000059400000F03F2DE9F041B5
:1010D800044601210A46FFF7D9FD20460121FFF702
:1010E800F7FD01461A4B586020460122194BFFF7BD
:1010F8008BFD0746184B1860D4F8C8532846D4F817
:10110800C01302F0D1F98046D4F8CC633046D4F845
:10111800C41302F0C9F90146404602F083FB804639
:101128003846314602F0C0F9D4F8AC1302F0BEF9E3
:10113800414602F0C3FA0146284602F0B7F90546CF
:10114800204601210022FFF7A1FD2846BDE8F081D5
:1011580054010020333353404801002000000000B0
:10116800F8B504465C4E30460421FFF74FFA204696
:1011780002210122FFF78AFDB4F8A80300F030FB32
:1011880020460221FFF7A4FD0546544B98603046DF
:101198000421FFF73FFA204629460122504BFFF76A
:1011A80033FD05464F4B586001F03CFE06460F469E
:1011B8003BA3D3E9002302F005F948B128464A4980
:1011C80002F07CFA4FF07E5102F06EF9054651E0CC
:1011D8003046394632A3D3E9002302F007F980B13B
:1011E8003046394630A3D3E9002302F0EBF840B18A
:1011F80028463E4902F062FA3D4902F055F9054693
:1012080038E03046394628A3D3E9002302F0EEF847
:10121800B8B13046394626A3D3E9002302F0D2F804
:1012280078B13046394624A3D3E9002301F04EFEB5
:1012380023A3D3E9002301F095FC02F0E1F8054669
:1012480018E0304639461AA3D3E9002302F0CEF855
:1012580078B1304639461CA3D3E9002301F036FEA5
:101268001BA3D3E9002301F07DFC02F0C9F8054671
:1012780000E0002528461F4902F0DCFB00B11D4DA7
:101288002846002102F0B8FB00B1002520460221C3
:101298000022FFF7FBFC2846F8BD00BFAFF3008033
:1012A8009A9999999999F13FCDCCCCCCCCCCF43F73
:1012B8001F85EB51B81EFD3F0AD7A3703D0A484071
:1012C8000000000000C0474052B81E85EB513A406C
:1012D8008FC2F5285C8F1F40306000405401002009
:1012E8003333534048010020000020410000C8412A
:1012F80000008C410000C84208B5FFF72DFC08BD6E
:1013080038B5044600F00CFA214D28460221002287
:10131800FFF76CF9284602210122FFF757F9284602
:101328000421FFF777F92046192140F6EC12FFF760
:10133800EBFB20461A214FF41E62FFF7E5FB20461F
:1013480009214FF49572FFF7DFFB20460A2141F28D
:10135800C702FFF7D9FB20460B2141F21312FFF712
:10136800D3FB204603210B4AFFF7CEFB2046012181
:10137800FFF702FB4FF6C37202402046012142F4F8
:101388008162FFF7C1FB012000F02AFA38BD00BFD7
:1013980030600040CB24060010B50446FFF7B0FDCE
:1013A8000146064B18602046FFF790FE044B186074
:1013B8002046FFF7D5FE034B186010BD44010020FE
:1013C80050010020600100202DE9F04182B02C4E30
:1013D8003046002103F0A2F92A4D2B4C20462968FB
:1013E8000A4603F09BF9294B186801F01BFD0246D9
:1013F8000B46274803F092F93046012103F08EF995
:10140800204669680A4603F089F9DFF89C80D8F815
:10141800000001F007FD02460B461E4F384603F058
:101428007DF91D4B186801F0FDFC02460B461B4870
:1014380003F074F93046022103F070F9AA682046D7
:10144800114603F06BF9D8F8040001F0EBFC0246F2
:101458000B46384603F062F9114B186801F0E2FCBC
:1014680002460B46252100910E4803F057F90A2041
:1014780003F06CF90A2003F069F902B0BDE8F081C5
:10148800B885000054010020C885000044010020F0
:10149800E4850000FC850000500100200C86000057
:1014A80060010020188600004801002038B5044675
:1014B8001F4803F0BDF90A2003F048F900221D4B2C
:1014C8001A701D4803F0B4F91A4B1B78002BFBD097
:1014D8002046FFF7F1FC2046FFF712FD05460022E3
:1014E800144B1A700A2003F031F9144803F0A0F9DC
:1014F800104B1B78002BFBD020462946FFF71EFC1B
:1015080000220C4B1A700A2003F020F90C4803F053
:101518008FF9084B1B78002BFBD020462946FFF794
:101528006BFC0A2003F012F90A2003F00FF938BD0A
:101538002C86000040010020448600008C860000B4
:10154800F086000010B51E4C204600210A46FFF721
:101558004DF8204600210122FFF728F820460121F6
:101568000022FFF743F8204601210A46FFF71EF83C
:10157800204602210022FFF739F8204602210122E5
:10158800FFF714F8204603210022FFF72FF8204622
:1015980003210122FFF71AF820460821FFF736F841
:1015A800A4F5E054204609210022FFF73FF8204621
:1015B8004FF44041022240F6CD33FFF731F810BD19
:1015C800006000402DE9F84380460F461646082A79
:1015D80002D04FF0000902E04FF00109042635025D
:1015E800B8F1000F03D11F480821FFF713F81E4870
:1015F8004FF400514FF48052FFF728F8002405E01B
:101608001948395DFFF71AF80134E4B2B442F7D348
:101618001548FFF717F82C4628408542F8D1B9F14C
:10162800000F16D010484FF400514FF48052FFF7C6
:101638000DF8002505E00C48795DFEF7FFFF013540
:10164800EDB2B542F7D30848FEF7FCFF20408442CC
:10165800F9D1B8F1000F03D102480821FEF7D6FFEF
:10166800BDE8F88300600040004400402DE9F041E7
:1016780082B007460E46154600238DF804308DF8D3
:1016880005308DF806308DF8073014020DE02BB9BF
:10169800F15C02AA1A4402F8041C04E0AA2102AA76
:1016A8001A4402F8041C0133DBB2AB42EFD31FB972
:1016B80019480821FEF7AEFF18484FF400514FF4BF
:1016C8008052FEF7C3FF4FF000080AE002AB434424
:1016D800124813F8041CFEF7B1FF08F101085FFA7D
:1016E80088F8A845F2D30D48FEF7ACFF20408442A5
:1016F800F9D1002405E00948FEF79EFF3055013472
:10170800E4B2AC42F7D31FB903480821FEF77EFFC5
:1017180002B0BDE8F08100BF006000400044004016
:1017280010B5114C204606210122FEF73FFF204646
:1017380007210222FEF73AFFA4F5805420464FF411
:10174800E13103220023FEF79FFF204601210022FA
:10175800FEF7F0FF20460321FEF7F2FF4FF40032B8
:10176800024B1A6010BD00BF0060004000E100E0BD
:1017780008B501460022054B1A700548FEF7CEFF52
:10178800024B1B78002BFBD008BD00BF6601002070
:101798000050004008B50248FEF7CAFF40B208BD35
:1017A8000050004038B50C4608E0651C40B2FFF711
:1017B800DFFF94F90130092B05D02C46207843B27D
:1017C8000A2BF2D100E02C4694F900300A2B05D1FF
:1017D8000D20FFF7CDFF0A20FFF7CAFF002038BD14
:1017E800034B1860024B1B68002BFBD1704700BFEE
:1017F80068010020034B1B681BB1024A1368013BB8
:101808001360704768010020012808D108B54FF619
:10181800FF73994202D10248FFF7CCF908BD70471F
:101828006C01002000B583B000238DF807300F4805
:10183800FEF78AFFC0B28DF807009DF8073013F055
:10184800020F02D001220A4B1A709DF8073013F0DC
:10185800040F07D00748FFF79DFF0D2802D101228A
:10186800054B1A7003B05DF804FB00BF0050004040
:1018780066010020640100204001002008B5154BD6
:101888001B68154AA2FB03239B09013BB3F1807F28
:1018980009D2124A5360E021114B83F82310002328
:1018A8009360072313600F4C2046FFF725FD204661
:1018B800FFF726FD2046FFF7F9FD0A4C2046FFF703
:1018C8006BFD2046FFF780FD4FF47A70FFF788FF25
:1018D800F3E700BF48050020D34D621010E000E098
:1018E80000ED00E06C01002008B501204FF6FF7103
:1018F800FFF78AFF08BD00BF2DE9F04F8BB01F46E8
:1019080080468946164600F0C7F9DFF8D8A2044693
:101918009AF900300D46013304D03046394600F0BC
:10192800DBFF20B9204629460BB0BDE8F08F4046C2
:10193800494600F0D1FF834660BB30463946002255
:10194800002301F02BFD0028ECD09AF900309E4CC2
:1019580001229E4900208DE814005A1CCDF820B0C1
:10196800CDE90289CDE90467CDE906010DD0022B46
:101978000BD0684600F0DCFF002800F09380089B3D
:101988001BB102F061F8089B0360DDE906010BB0AA
:10199800BDE8F08F404649460022002301F0FEFCD6
:1019A800F8B1304639460022002301F0F7FC83469F
:1019B80000284ED084489AF90030012100220024E2
:1019C8000025CDE90289CDE90467CDE906450190F6
:1019D80000910892002BCCD07C4B0022CDE9062345
:1019E800D3E72046294600F071FF834600285ED0E1
:1019F800204629460022002301F0D0FC002891D07F
:101A08004046494600F062FF00288BD030463946F0
:101A180000F05CFF002885D09AF900306A4804215C
:101A2800002200240025022BCDE90289CDE90467B4
:101A3800CDE9064501900091089200F0888068463B
:101A480000F076FF002800F08280089B002B9CD0D5
:101A580097E73046394600F039FF00283FF462AF77
:101A6800304639460022002301F0A2FC00283FF44A
:101A780059AF55499AF800300122CDF820B0CDE988
:101A88000289CDE9046701910092002B3CD05049AE
:101A98000020022BCDE9060130D101F0D5FF21232A
:101AA8000360D2E701F0D0FF2123036067E74046D7
:101AB800494600F00BFF00289AD03046394600F01E
:101AC80005FF002894D02046294600F005FF00BBFA
:101AD8003D4A9AF8004001230890CDE90289CDE9F2
:101AE8000467019200937CB10020002102460B4656
:101AF80001F016FB022CCDE90601CED0684600F0B5
:101B080017FF0028A1D1C8E700220023CDE906234A
:101B1800F4E72D499AF900300322CDF820B0CDE939
:101B28000289CDE9046701910092ABB9294D4FF0C4
:101B380060444046494600220023CDE9064501F0AD
:101B480037FC50BB9AF90030022B7FF478AF01F0D4
:101B58007BFF2223036078E71F4D00244046494657
:101B680000220023CDE9064501F022FC0028E9D037
:101B780000221A4B3046394601F0A8F904460D46B2
:101B880000F0DEFE22462B4601F008FC0028D9D1E1
:101B98000F4B0022CDE90623D4E700220F4B304635
:101BA800394601F093F904460D4600F0C9FE224675
:101BB8002B4601F0F3FB0028C4D1094B4FF06042DB
:101BC800CDE90623BEE700BF3C8E00000000F03FD1
:101BD8000000F0FFFFFFEF470000F07F0000E03F4C
:101BE800FFFFEFC70C0000202DE9F0478AB006463A
:101BF8000F4600F0A1FDDFF898A004469AF90030DE
:101C08000D4601330FD03046394600F065FE50B11D
:101C18004FF000084FF000093046394642464B461F
:101C280001F0C6FB20B9204629460AB0BDE8F08776
:101C380016499AF8004001220023CDE90467CDE94E
:101C4800026701910092089364B9CDE90689684654
:101C580000F06EFE80B1089B9BB9DDE906010AB071
:101C6800BDE8F0874046494642464B4601F058FADF
:101C7800022CCDE90601EAD101F0E6FE212303603A
:101C8800E9E701F0E1FE089B0360E6E7408E00000B
:101C98000C000020000000002DE9F04F144623F04E
:101CA8000047024657EA04000E468FB01D469C4680
:101CB800214634D06E4B26F0004A9A459346B146E9
:101CC80026DC24D09F4223DC694B9F4200F08F80A2
:101CD800B9F1000FC0F28F804FF0000879BB644B58
:101CE8009F4200F0A580634B9F4267D0BCF1804FB4
:101CF80000F0E283604B9C4521D1B9F1000F1EDB57
:101D0800104631460FB0BDE8F04F00F015BD62B186
:101D18000AF1404000F5801050EA0B0007D1034655
:101D2800544918460FB0BDE8F08F5745CCDD5348ED
:101D38000FB0BDE8F04F00F0FDBD4FF000081046B1
:101D48003146CDF808C0009200F0BCFD009ADDF8DD
:101D580008C0BBF1000F20D04FEAD97909F1FF394B
:101D680058EA09037AD0464B9F4240F38F8003F12B
:101D780004739F4240F31084424B9A4540F3928388
:101D8800BCF1000F40F3928337A1D1E900010B4663
:101D9800024601F09BF80346C3E7BAF1000F04D0EE
:101DA800344B29F0404E9E45D6D1BCF1000FC0F20D
:101DB800B683B9F1000F08DB0346B2E7BCF1000FA8
:101DC800C0F2528413463146ABE70AF1404A0AF59D
:101DD800801A58EA0A0340F05E8402460B4600F077
:101DE800C1FE0B46024601F09BF9034699E700291C
:101DF8003FF46EAF8CE7244B9F422CDCA3F1547365
:101E08009F427FF769AF40F213403B15834240F38E
:101E18004B84C3F58663033321FA03F000FA03F316
:101E28008B427FF459AF00F00100C0F1020855E77A
:101E38000AF1404303F5801353EA0B0300F039839A
:101E4800104B9A4540F36483BCF1000FC0F22E8317
:101E58002346294665E74FF002083FE7104631461A
:101E68003346BCE7AFF300809C7500883CE4377EBE
:101E78000000F07F0000F03F0000E03FC485000054
:101E88000000E041FFFFEF3FFFFF3F43BAF5801F2F
:101E98004FF0000205DACA4B01F018F88A466FF0D5
:101EA80034024FEA2A53C74ECAF3130AA3F2FF3388
:101EB8004AF07F571344B2450C9347F4401740F358
:101EC800D083C14B9A4540F307840026B4460C9B47
:101ED800A7F5801701330C933946BC4B4FEACC0C5D
:101EE8006344D3E900AB52465B46CDF834C0CDE934
:101EF800060100F037FE52465B46CDE90801DDE9F0
:101F0800060100F031FE02460B460020B04901F000
:101F180007F902460B46DDE90801CDE90A2300F07E
:101F2800D5FF02460B46CDE90223CDE904237B10F9
:101F380043F0005303F500239919002000230646B7
:101F48000F460293DDE902231046194632463B4606
:101F5800CDE9000100F0BAFF02460B46DDE90801B1
:101F680000F000FE5246CDE908015B46304639468E
:101F780000F0F8FD02460B46DDE9060100F0F2FD2F
:101F880002460B46DDE9000100F0A0FF02460B46C1
:101F9800DDE9080100F0E6FDDDE90A2300F096FF1F
:101FA800DDE90423CDE906011046194600F08EFF4D
:101FB80002460B4606460F4600F088FF6EA3D3E99B
:101FC800002382468B463046394600F07FFF6CA3DB
:101FD800D3E9002300F0C8FD32463B4600F076FF07
:101FE80069A3D3E9002300F0BFFD32463B4600F069
:101FF8006DFF67A3D3E9002300F0B6FD32463B46E8
:1020080000F064FF64A3D3E9002300F0ADFD32467D
:102018003B4600F05BFF62A3D3E9002300F0A4FD78
:1020280002460B465046594600F050FFDDE90423AE
:1020380006460F46DDE9000100F096FDDDE90623BE
:1020480000F044FF32463B4600F08EFDDDE90067B4
:1020580082468B4632463B463046394600F036FFCC
:1020680000225C4BCDE9080100F07EFD52465B463C
:1020780000F07AFD02980F460646DDE90001324677
:102088003B4600F023FF32463B46CDE90001DDE93F
:10209800060100F01BFF0022CDE906014D4B30463A
:1020A800394600F05FFDDDE9082300F05BFD0246DC
:1020B8000B465046594600F055FDDDE9042300F073
:1020C80005FF02460B46DDE9060100F04DFD82469C
:1020D8008B46DDE9000152465B4600F045FD32A320
:1020E800D3E9002302980F46064600F0EFFE30A31E
:1020F800D3E90023CDE904013046394600F0E6FE75
:10210800DDE90023CDE906013046394600F02AFD15
:1021180002460B465046594600F024FD26A3D3E953
:10212800002300F0D3FE02460B46DDE9060100F06D
:102138001BFDDDF834C0284BCDF818C06344D3E943
:10214800002300F011FDCDE900010C9800F058FEC5
:1021580006460F46DDE90401204BDDF818C09C4413
:10216800DDE90023DCE900AB00F0FEFC52465B46EB
:1021780036E000BFAFF30080EF4E454A287ECA3FE5
:1021880065DBC9934A86CD3F01411DA96074D13FE3
:102198004D268F515555D53FFFAB6FDBB66DDB3FF5
:1021A800033333333333E33F000000E009C7EE3F26
:1021B800F5015B14E02F3EBEFD033ADC09C7EE3F94
:1021C800000040438E98030079B60B00688E00002B
:1021D8000000F03F00000840588E0000488E0000C4
:1021E800CDE906AB00F0C0FC32463B4600F0BCFC33
:1021F800029832463B4682468B4600F0B3FCDDE946
:10220800062300F0AFFCDDE9042300F0ABFC024636
:102218000B46DDE9000100F0A5FCCDE9020108F15B
:10222800FF3858EA09030CBFD54BD64B0022CDE93D
:1022380004230023CDE900450093DDE9006720462B
:1022480032463B46294600F08DFC52465B4600F07C
:102258003DFEDDE90223804689462046294600F0F6
:1022680035FE02460B464046494600F07DFC0446D2
:102278000D465246304639465B46CDE9024500F0E8
:1022880025FE06460F4620463B462946324600F0C4
:102298006BFCBD4B824699428946884640F31381C0
:1022A80001F13F4303F5E003034340F0E581A0A3B8
:1022B800D3E90023DDE9020100F056FC324604466A
:1022C8000D463B465046494600F04CFC02460B463C
:1022D8002046294601F08AF8002840F0CD814C4676
:1022E8002015A0F2FE304FF4801101414144C1F3A2
:1022F8000A50A64CA0F2FF35C1F3130BC0F582605B
:1023080003302C414BF4801B21EA040300224BFAD2
:1023180000FB3946304600F025FC06460F46DDE94D
:1023280002018BEAE87B0BEBD87B32463B464FEA4F
:102338000B5A00F019FC80A3D3E90023002420469F
:102348000D4600F0C3FD3246804689463B4620468E
:10235800294600F007FC02460B46DDE9020100F0C1
:1023680001FC77A3D3E9002300F0B0FD76A3D3E9FD
:10237800002306460F462046294600F0A7FD0246E0
:102388000B463046394600F0EFFB06460F4632460C
:102398003B464046494600F0E7FB42464B4604466A
:1023A8000D4600F0DFFB02460B463046394600F08A
:1023B800D9FB2246804689462B462046294600F00E
:1023C80085FD63A3D3E9002306460F4600F07EFD92
:1023D80061A3D3E9002300F0C5FB32463B4600F079
:1023E80075FD5FA3D3E9002300F0BEFB32463B46F0
:1023F80000F06CFD5CA3D3E9002300F0B3FB324688
:102408003B4600F063FD5AA3D3E9002300F0ACFB80
:1024180032463B4600F05AFD02460B462046294606
:1024280000F0A0FB06460F4632463B4620462946AA
:1024380000F04CFD0022CDE900014FF0804330460A
:10244800394600F08FFB02460B46DDE9000100F03B
:1024580067FE424606460F464B462046294600F090
:1024680035FD42464B4600F07FFB02460B463046A0
:10247800394600F077FB22462B4600F073FB0246F4
:102488000B4600203F4900F06DFB8A44BAF5801FD7
:102498000246C0F227815346DDE9040100F016FD2B
:1024A80003463EE4BCF1000FFFF66EAC002319466C
:1024B80037E40B46334934E433461046314600F0DE
:1024C80005FD03462DE4324B21F000449C4240F3C5
:1024D800FA80304B0B4403430CD132463B4600F0A4
:1024E80041FB02460B46DDE9020100F06BFF0028C4
:1024F8003FF4F6AE20A3D3E90023DDE9040100F0A0
:10250800E5FC1DA3D3E9002300F0E0FC034608E442
:10251800BCF1000FCADA234605F1004101E4024686
:102528000B460020174900F0FBFD42E4AFF30080A2
:10253800FE822B654715973C00000000432EE63FBE
:10254800EF39FAFE422EE63F396CA80C615C20BEDA
:10255800D0A4BE726937663EF16BD2C541BDBB3EA1
:102568002CDE25AF6A56113F93BDBE166CC1663F7F
:102578003E5555555555C53F59F3F8C21F6EA5012F
:102588000000F0BF0000F03FFFFF8F40FFFF0F008B
:10259800FFCB904000346F3F634B9A4582DD634B1D
:1025A8009A453FF7EDAB0022604B00F0DBFA54A3ED
:1025B800D3E9002306460F4600F088FC52A3D3E96E
:1025C8000023CDE900013046394600F07FFC324651
:1025D800CDE902013B463046394600F077FC00223F
:1025E80082468B4630463946514B00F06FFC024616
:1025F8000B4647A1D1E9000100F0B4FA32463B4648
:1026080000F064FC02460B4600204A4900F0AAFA92
:1026180002460B465046594600F058FC3EA3D3E903
:10262800002300F053FC02460B46DDE9020100F0EE
:1026380099FA06460F46DDE9000132463B4600F0AE
:1026480093FADDE90023002082468B4600F08AFADF
:1026580002460B463046394600F084FACDE90201BD
:10266800DDE50026B44637E4334600202F4900F064
:1026780057FD0346FFF755BB29A3D3E90023DDE93E
:10268800040100F023FC26A3D3E9002300F01EFC7C
:102698000346FFF746BBB8F1010F03467FF441AB91
:1026A80001F10041FFF73DBB00297FF446ABC3F5BC
:1026B8008263033347FA03F000FA03F3BB4217D0EF
:1026C8008846FFF710BB1B4B9C423FF709AEDDE97C
:1026D8000023924693462EE64FF480264FF0010CD5
:1026E800FFF7FABB5A4600F0BBF902460B46D3E6A1
:1026F80000F00100C0F10208FFF7F5BAAFF300805F
:10270800000000604715F73F44DF5DF80BAE543E0C
:10271800555555555555D53FFE822B654715F73FFD
:102728009C7500883CE4377EFEFFEF3F0000F03FD9
:102738000000D03F0000E03F2DE9F041604E0C461C
:10274800B6460E40764505460B4600F098800029AF
:10275800024676DD5FEA215E00F08180AEF2FF3E40
:10276800C3F313031EF0010F43F480135ED1002757
:102778003C46D10F01EB43034FEA6E0E5200162080
:102788004FF4001165189D424FEAD2764FEA420293
:1027980002DC5B1B6C180F44013806EB43034FEA5D
:1027A8005101EFD1844620264FF000410AE0A342B0
:1027B80020D0D50F013E4FEA510105EB43034FEA04
:1027C800420220D09C420CEB0105F0DA002D05EB0B
:1027D800010C09DBA0461B1B954288BF03F1FF33A0
:1027E8004446521B0844E4E7BCF1000FF2DB04F155
:1027F8000108F0E7954217D8002D05EB010C48DBDE
:1028080098460023ECE7134315D140087B1003F1E9
:102818007F5303F50013FA0703EB0E57394648BFF9
:1028280040F00040BDE8F0811C46C2E7D10F01EB43
:10283800430352009BE7411C31D000F001031844C8
:10284800E3E721F000460643ECD079BB8E46D30A75
:10285800AEF1150E5205002BF9D0DC0222D400216E
:102868005B00D80201F10101FAD5C1F10100C1F103
:10287800200422FA04F4234386448A406EE7024681
:102888000B4600F023FB2A46234600F06DF9BDE80D
:10289800F081BCF1000FAADAA0460023A0E70137B7
:1028A8003046B3E7202401200021E2E702460B4628
:1028B80000F058F902460B4600F032FCB2E700BFC0
:1028C8000000F07F21F00041704700BF41F0004157
:1028D80001F58010C00F704710B431F0004408D0E3
:1028E800114BA1F580129A4208D804205DF8044BD8
:1028F800704718B902205DF8044B704701F1FF4199
:10290800094B01F5E0019942EFD9B4F5801F01D2D6
:102918000320EBE7054B9C4201D00020E6E7B0FA24
:1029280080F04009E2E700BFFFFFDF7F0000F07F93
:102938000020704700200149704700BF0000F87F61
:10294800F0B5C1F30A5EAEF2FF35132D83B002462F
:102958000B460C464FEAD17607462EDC002D48DBA5
:102968003C49294101EA030010432BD049080B4098
:1029780053EA02070CD04FF48023132D24EA0101F7
:1029880043FA05F444EA01040CBF4FF0004700275E
:102998003149234601EBC606D6E900453A462046AA
:1029A800294600F0E1F8CDE90001DDE90001224601
:1029B8002B4600F0D7F803B0F0BD332D06DDB5F592
:1029C800806F43D01046194603B0F0BDAEF2134EE7
:1029D8004FF0FF3121FA0EF10142F3D049080142CC
:1029E800D6D04FF0804320EA010143FA0EF70F4397
:1029F800CEE721F000410143E4D0C3F3130141EADB
:102A0800000CCCF1000141EA0C0C13495C0C4FEAB4
:102A18001C3C0CF4002C640401EBC6014CEA0403D2
:102A2800D1E900452046294600F09EF8CDE900018D
:102A3800DDE9000122462B4600F094F8024621F019
:102A4800004141EAC67310461946BDE700F08CF80C
:102A5800BAE700BFFFFF0F00788E000000000000FB
:102A6800F8B5C1F30A5604460D460B46174616BB81
:102A780021F00043034332D00022314B00F026FA04
:102A8800304A044697420D460B4637DB40F2FE7249
:102A9800C1F30A56363E3E44964215DD24A1D1E9DB
:102AA800000122462B4600F051F821A3D3E9002368
:102AB80000F00CFAF8BD40F2FF72964224D040F2C2
:102AC800FE723E449642E9DC002E09DD23F0FF4306
:102AD80023F4E00343EA065520462946F8BDF8BD2D
:102AE80016F1350F15DA4CF250339F42D6DC12A19D
:102AF800D1E9000122462B4600F028F80EA3D3E9BD
:102B0800002300F0E3F9F8BD02460B4600F02CF86C
:102B1800F8BD23F0FF4323F4E003363643EA0655B5
:102B2800204629460022084B00F0D0F9F8BD00BF26
:102B38009C7500883CE4377E59F3F8C21F6EA501E6
:102B480000005043B03CFFFF0000903C03F00043FE
:102B580021F0004243EA0201704700BF81F00041C2
:102B680002E000BF83F0004330B54FEA41044FEA6A
:102B7800430594EA050F08BF90EA020F1FBF54EA05
:102B8800000C55EA020C7FEA645C7FEA655C00F0A1
:102B9800E2804FEA5454D4EB5555B8BF6D420CDD72
:102BA8002C4480EA020281EA030382EA000083EAF5
:102BB800010180EA020281EA0303362D88BF30BD95
:102BC80011F0004F4FEA01314FF4801C4CEA1131EB
:102BD80002D0404261EB410113F0004F4FEA03334A
:102BE8004CEA133302D0524263EB430394EA050FD5
:102BF80000F0A780A4F10104D5F1200E0DDB02FA44
:102C08000EFC22FA05F2801841F1000103FA0EF2D7
:102C1800801843FA05F359410EE0A5F120050EF19D
:102C2800200E012A03FA0EFC28BF4CF0020C43FACE
:102C380005F3C01851EBE37101F0004507D54FF0DB
:102C4800000EDCF1000C7EEB00006EEB0101B1F52B
:102C5800801F1BD3B1F5001F0CD349085FEA300071
:102C68004FEA3C0C04F101044FEA445212F5800F7C
:102C780080F09A80BCF1004F08BF5FEA500C50F119
:102C8800000041EB045141EA050130BD5FEA4C0CFC
:102C9800404141EB010111F4801FA4F10104E9D185
:102CA80091F0000F04BF01460020B1FA81F308BF7C
:102CB8002033A3F10B03B3F120020CDA0C3208DD48
:102CC80002F1140CC2F10C0201FA0CF021FA02F123
:102CD8000CE002F11402D8BFC2F1200C01FA02F193
:102CE80020FA0CFCDCBF41EA0C019040E41AA2BFB8
:102CF80001EB0451294330BD6FEA04041F3C1CDA80
:102D08000C340EDC04F11404C4F1200220FA04F09F
:102D180001FA02F340EA030021FA04F345EA030149
:102D280030BDC4F10C04C4F1200220FA02F001FA0B
:102D380004F340EA0300294630BD21FA04F029468D
:102D480030BD94F0000F83F4801306BF81F4801126
:102D58000134013D4EE77FEA645C18BF7FEA655C99
:102D680029D094EA050F08BF90EA020F05D054EA6B
:102D7800000C04BF1946104630BD91EA030F1EBF70
:102D88000021002030BD5FEA545C05D14000494174
:102D980028BF41F0004130BD14F580043CBF01F567
:102DA800801130BD01F0004545F0FE4141F470014D
:102DB8004FF0000030BD7FEA645C1ABF1946104628
:102DC8007FEA655C1CBF0B46024650EA013406BF29
:102DD80052EA033591EA030F41F4002130BD00BFE8
:102DE80090F0000F04BF0021704730B54FF48064A5
:102DF80004F132044FF000054FF0000150E700BF26
:102E080090F0000F04BF0021704730B54FF4806484
:102E180004F1320410F0004548BF40424FF0000171
:102E28003EE700BF42004FEAE2014FEA31014FEAB4
:102E380002701FBF12F07F4393F07F4F81F0605103
:102E4800704792F0000F14BF93F07F4F704730B572
:102E58004FF4607401F0004521F0004120E700BF05
:102E680050EA010208BF704730B54FF000050AE08C
:102E780050EA010208BF704730B511F0004502D58D
:102E8800404261EB41014FF4806404F132045FEA8F
:102E9800915C3FF4DCAE4FF003025FEADC0C18BF34
:102EA80003325FEADC0C18BF033202EBDC02C2F12A
:102EB800200300FA03FC20FA02F001FA03FE40EABC
:102EC8000E0021FA02F11444C1E600BF70B54FF0BC
:102ED800FF0C4CF4E06C1CEA11541DBF1CEA13559E
:102EE80094EA0C0F95EA0C0F00F0DEF82C4481EA06
:102EF800030621EA4C5123EA4C5350EA013518BF26
:102F080052EA033541F4801143F4801338D0A0FB12
:102F180002CE4FF00005E1FB02E506F00042E0FBBF
:102F280003E54FF00006E1FB03569CF0000F18BFC5
:102F38004EF0010EA4F1FF04B6F5007F64F540746D
:102F480004D25FEA4E0E6D4146EB060642EAC62100
:102F580041EA55514FEAC52040EA5E504FEACE2E6D
:102F6800B4F1FD0C88BFBCF5E06F1ED8BEF1004F70
:102F780008BF5FEA500E50F1000041EB045170BDEC
:102F880006F0004646EA010140EA020081EA030130
:102F9800B4EB5C04C2BFD4EB0C0541EA045170BD2C
:102FA80041F480114FF0000E013C00F3AB8014F1A6
:102FB800360FDEBF002001F0004170BDC4F10004EF
:102FC800203C35DA0C341BDC04F11404C4F1200570
:102FD80000FA05F320FA04F001FA05F240EA0200CB
:102FE80001F0004221F0004110EBD37021FA04F601
:102FF80042EB06015EEA430E08BF20EAD37070BDBB
:10300800C4F10C04C4F1200500FA04F320FA05F019
:1030180001FA04F240EA020001F0004110EBD3701B
:1030280041F100015EEA430E08BF20EAD37070BD8B
:10303800C4F1200500FA05F24EEA020E20FA04F364
:1030480001FA05F243EA020321FA04F001F0004113
:1030580021FA04F220EA020000EBD3705EEA430E84
:1030680008BF20EAD37070BD94F0000F0FD101F0B3
:103078000046400041EB010111F4801F08BF013CEC
:10308800F7D041EA060195F0000F18BF704703F02A
:103098000046520043EB030313F4801F08BF013DB1
:1030A800F7D043EA0603704794EA0C0F0CEA13556D
:1030B80018BF95EA0C0F0CD050EA410618BF52EA27
:1030C8004306D1D181EA030101F000414FF000002D
:1030D80070BD50EA410606BF1046194652EA43063B
:1030E80019D094EA0C0F02D150EA013613D195EAAF
:1030F8000C0F05D152EA03361CBF104619460AD1F7
:1031080081EA030101F0004141F0FE4141F4700100
:103118004FF0000070BD41F0FE4141F4780170BDF0
:1031280070B54FF0FF0C4CF4E06C1CEA11541DBF55
:103138001CEA135594EA0C0F95EA0C0F00F0A7F857
:10314800A4EB050481EA030E52EA03354FEA013184
:1031580000F088804FEA03334FF0805545EA131397
:1031680043EA12634FEA022245EA111545EA10655F
:103178004FEA00260EF000419D4208BF964244F1F6
:10318800FD0404F5407402D25B084FEA3202B61A15
:1031980065EB03055B084FEA32024FF480104FF4E9
:1031A800002CB6EB020E75EB030E22BFB61A75465D
:1031B80040EA0C005B084FEA3202B6EB020E75EBF0
:1031C800030E22BFB61A754640EA5C005B084FEA58
:1031D8003202B6EB020E75EB030E22BFB61A754625
:1031E80040EA9C005B084FEA3202B6EB020E75EB30
:1031F800030E22BFB61A754640EADC0055EA060EF1
:1032080018D04FEA051545EA16754FEA06164FEA33
:10321800C30343EA52734FEAC2025FEA1C1CC0D1DF
:1032280011F4801F0BD141EA00014FF000004FF06C
:10323800004CB6E711F4801F04BF01430020B4F12D
:10324800FD0C88BFBCF5E06F3FF6AFAEB5EB030CE5
:1032580004BFB6EB020C5FEA500C50F1000041EBE2
:10326800045170BD0EF0004E4EEA113114EB5C04AF
:10327800C2BFD4EB0C0541EA045170BD41F4801182
:103288004FF0000E013C90E645EA060E8DE60CEA8A
:10329800135594EA0C0F08BF95EA0C0F3FF43BAFA7
:1032A80094EA0C0F0AD150EA01347FF434AF95EA5E
:1032B8000C0F7FF425AF104619462CE795EA0C0F42
:1032C80006D152EA03353FF4FDAE1046194622E70F
:1032D80050EA410618BF52EA43067FF4C5AE50EAE9
:1032E80041047FF40DAF52EA43057FF4EBAE12E7D9
:1032F8004FF0FF3C06E000BF4FF0010C02E000BFBA
:103308004FF0010C4DF804CD4FEA410C7FEA6C5C9C
:103318004FEA430C18BF7FEA6C5C1BD001B050EA3F
:10332800410C0CBF52EA430C91EA030F02BF90EA2A
:10333800020F0020704710F1000F91EA030F58BFE9
:10334800994208BF90422CBFD8176FEAE37040F04B
:10335800010070474FEA410C7FEA6C5C02D150EAE9
:10336800013C07D14FEA430C7FEA6C5CD6D152EAA4
:10337800033CD3D05DF8040B704700BF8446104669
:1033880062468C461946634600E000BF01B5FFF768
:10339800B7FF002848BF10F1000F01BD4DF808ED38
:1033A800FFF7F4FF0CBF012000205DF808FB00BF09
:1033B8004DF808EDFFF7EAFF34BF012000205DF863
:1033C80008FB00BF4DF808EDFFF7E0FF94BF0120B0
:1033D80000205DF808FB00BF4DF808EDFFF7CEFFB1
:1033E80094BF012000205DF808FB00BF4DF808EDF0
:1033F800FFF7C4FF34BF012000205DF808FB00BFC1
:103408004FEA4102B2F1E04324BFB3F5001CDCF1FE
:10341800FE5C0DD901F0004C4FEAC0024CEA507036
:10342800B2F1004F40EB830008BF20F00100704765
:1034380011F0804F21D113F13872BCBF01F0004068
:10344800704741F480114FEA5252C2F11802C2F19A
:10345800200C10FA0CF320FA02F018BF40F001001B
:103468004FEAC1234FEAD32303FA0CFC40EA0C00CD
:1034780023FA02F34FEA4303CCE77FEA625307D10A
:1034880050EA01331EBF4FF0FE4040F44000704741
:1034980001F0004040F0FE4040F40000704700BFDB
:1034A80080F0004002E000BF81F0004142001FBFF1
:1034B8005FEA410392EA030F7FEA226C7FEA236CFA
:1034C8006AD04FEA1262D2EB1363C1BFD2184140EF
:1034D80048404140B8BF5B42192B88BF704710F085
:1034E800004F40F4000020F07F4018BF404211F028
:1034F800004F41F4000121F07F4118BF494292EA90
:10350800030F3FD0A2F1010241FA03FC10EB0C00BB
:10351800C3F1200301FA03F100F0004302D5494248
:1035280060EB4000B0F5000F13D3B0F1807F06D3F5
:1035380040084FEA310102F10102FE2A51D2B1F1ED
:10354800004F40EBC25008BF20F0010040EA0300E2
:103558007047490040EB000010F4000FA2F101028F
:10356800EDD1B0FA80FCACF1080CB2EB0C0200FA19
:103578000CF0AABF00EBC25052421843BCBFD04067
:103588001843704792F0000F81F4000106BF80F4E1
:1035980000000132013BB5E74FEA41037FEA226CA4
:1035A80018BF7FEA236C21D092EA030F04D092F06F
:1035B800000F08BF0846704790EA010F1CBF0020A3
:1035C800704712F07F4F04D1400028BF40F0004000
:1035D800704712F100723CBF00F50000704700F020
:1035E800004343F0FE4040F4000070477FEA226247
:1035F80016BF08467FEA23630146420206BF5FEA18
:10360800412390EA010F40F4800070474FF0000317
:1036180004E000BF10F0004348BF40425FEA000CDE
:1036280008BF704743F0964301464FF000001CE086
:1036380050EA010208BF70474FF000030AE000BFDC
:1036480050EA010208BF704711F0004302D540421A
:1036580061EB41015FEA010C02BF8446014600208C
:1036680043F0B64308BFA3F18053A3F50003BCFAA7
:103678008CF2083AA3EBC25310DB01FA02FC634454
:1036880000FA02FCC2F12002BCF1004F20FA02F25B
:1036980043EB020008BF20F00100704702F120024E
:1036A80001FA02FCC2F1200250EA4C0021FA02F2AF
:1036B80043EB020008BF20EADC7070474FF0FF0CB4
:1036C8001CEAD0521EBF1CEAD15392EA0C0F93EAAF
:1036D8000C0F6FD01A4480EA010C400218BF5FEA51
:1036E80041211ED04FF0006343EA501043EA5111C4
:1036F800A0FB01310CF00040B1F5000F3EBF4900BE
:1037080041EAD3715B0040EA010062F17F02FD2AC1
:103718001DD8B3F1004F40EBC25008BF20F00100A4
:10372800704790F0000F0CF0004C08BF49024CEABB
:10373800502040EA51207F3AC2BFD2F1FF0340EA4D
:10374800C250704740F400004FF00003013A5DDCBE
:1037580012F1190FDCBF00F000407047C2F10002FF
:10376800410021FA02F1C2F1200200FA02FC5FEAEC
:10377800310040F1000053EA4C0308BF20EADC7036
:10378800704792F0000F00F0004C02BF400010F4A8
:10379800000F013AF9D040EA0C0093F0000F01F055
:1037A800004C02BF490011F4000F013BF9D041EA77
:1037B8000C018FE70CEAD15392EA0C0F18BF93EA79
:1037C8000C0F0AD030F0004C18BF31F0004CD8D1A3
:1037D80080EA010000F00040704790F0000F17BF2A
:1037E80090F0004F084691F0000F91F0004F14D070
:1037F80092EA0C0F01D142020FD193EA0C0F03D1C8
:103808004B0218BF084608D180EA010000F00040CA
:1038180040F0FE4040F40000704740F0FE4040F4A5
:10382800400070474FF0FF0C1CEAD0521EBF1CEA44
:10383800D15392EA0C0F93EA0C0F69D0A2EB030262
:1038480080EA010C49024FEA402037D04FF08053FC
:1038580043EA111143EA10130CF000408B4238BFC1
:103868005B0042F17D024FF4000C8B4224BF5B1ACF
:1038780040EA0C00B3EB510F24BFA3EB510340EA1D
:103888005C00B3EB910F24BFA3EB910340EA9C00CB
:10389800B3EBD10F24BFA3EBD10340EADC001B013B
:1038A80018BF5FEA1C1CE0D1FD2A3FF650AF8B42DF
:1038B80040EBC25008BF20F0010070470CF0004CEC
:1038C8004CEA50207F32C2BFD2F1FF0340EAC25017
:1038D800704740F400004FF00003013A37E792F0D8
:1038E800000F00F0004C02BF400010F4000F013A36
:1038F800F9D040EA0C0093F0000F01F0004C02BF31
:10390800490011F4000F013BF9D041EA0C0195E799
:103918000CEAD15392EA0C0F08D142027FF47DAF32
:1039280093EA0C0F7FF470AF084676E793EA0C0F22
:1039380004D14B023FF44CAF08466EE730F0004C20
:1039480018BF31F0004CCAD130F000427FF45CAFB0
:1039580031F000437FF43CAF5FE700BF4FF0FF3C1E
:1039680006E000BF4FF0010C02E000BF4FF0010C71
:103978004DF804CD4FEA40024FEA41037FEA226C3A
:1039880018BF7FEA236C11D001B052EA530C18BF5C
:1039980090EA010F58BFB2EB030088BFC81738BFC1
:1039A8006FEAE17018BF40F0010070477FEA226CAF
:1039B80002D15FEA402C05D17FEA236CE4D15FEAAB
:1039C800412CE1D05DF8040B704700BF84460846DF
:1039D8006146FFE70FB5FFF7C9FF002848BF10F1A0
:1039E800000F0FBD4DF808EDFFF7F4FF0CBF0120E5
:1039F80000205DF808FB00BF4DF808EDFFF7EAFF6F
:103A080034BF012000205DF808FB00BF4DF808ED29
:103A1800FFF7E0FF94BF012000205DF808FB00BF1E
:103A28004DF808EDFFF7D2FF94BF012000205DF8A4
:103A380008FB00BF4DF808EDFFF7C8FF34BF0120B1
:103A480000205DF808FB00BF014B1868704700BFF5
:103A58007000002010B5431E0A44914204D011F8AA
:103A6800014B03F8014FF8E710BD034602449342A7
:103A780002D003F8011BFAE770472DE9F0471E460C
:103A880088B0149F002BB8BF06F10043129927F0A5
:103A98002007B6BF1E4600232D23462F1446109D2F
:103AA800DDF84CA00B7003D0452F03D1013501E0A0
:103AB800032300E002238DE8280406AB039307AB39
:103AC80004932246334601F047FF472F804602D130
:103AD800119BDB0726D5462F08EB050911D198F86D
:103AE8000030302B0AD12046314600220023FFF750
:103AF80055FC18B9C5F10105CAF80050DAF80030CC
:103B080099442046314600220023FFF747FC08B1BC
:103B1800CDF81C90079B4B4504D25A1C07923022C3
:103B28001A70F7E74046079B159AC8EB0303136022
:103B380008B0BDE8F087034673B50029B8BF49420D
:103B480003F8022BB4BF2D222B22092942701ADD5B
:103B58000DF1070426460A2291FBF2F502FB151126
:103B6800092D01F1300104F8011D2946F3DC30313B
:103B7800651E04F8011CB5421A460AD215F8012B35
:103B880003F8012BF7E71A463024214402F8024BC8
:103B98005970101A02B070BD2DE9F04F91B08B46E4
:103BA80015461E461A9F044603F012F9D0F800A0E5
:103BB800504600F06DFE00230E933B6809900733D2
:103BC80023F0070303F108029BF818803A60D3E951
:103BD8000023CBE91223DBE91201FEF77DFE012861
:103BE800DBE9120119D100220023FFF7E1FB10B134
:103BF8002D238BF84330A04BA04FB8F1470F88BF57
:103C08001F460323CBF81030DBF8003023F0040301
:103C1800CBF800304FF00009A1E0FEF75DFEDBF8BD
:103C2800003048B9964A974FB8F1470F88BF1746F2
:103C38000322CBF81020E9E7DBF80420DBE91201C6
:103C4800571CCDE90A0101D1062209E0B8F1670F36
:103C580002D0B8F1470F05D1002A40F0C7810122F0
:103C6800CBF80420DBF8042043F480638DE80C00D3
:103C7800CBF800300DF1330302930DAB03930EAB79
:103C8800059300230693CDF81080DDE90A2320462A
:103C9800FFF7F3FE08F0DF03472B07460AD10D9B19
:103CA800D81C03DBDBF80420934237DDA8F10208B7
:103CB8005FFA88F8B8F1650F0D9915D801394246B1
:103CC8000BF150000D91FFF736FF0E9A81468318CD
:103CD800012ACBF8103003DCDBF80020D10738D5F7
:103CE8000133CBF8103034E0B8F1660F18D1002951
:103CF800DBF8043009DDCBF810101BB9DBF8002025
:103D0800D20721D501330B441CE01BB9DBF8002096
:103D1800D00701D5023315E0012313E04FF06708FF
:103D28000D9B0E9A934207DBDBF80020CBF810308E
:103D3800D10709D5013305E0002BD4BFC3F1020335
:103D480001231344CBF810300D9B4FF00009CBF83A
:103D580058309DF8333013B12D238BF8433000963B
:103D6800204659460FAA2B4600F05CF9013002D1D3
:103D78004FF0FF3052E1DBF800305A0505D42046F9
:103D880029463A46DBF8103008E1B8F1650F40F2F1
:103D9800D080DBE9120100220023FFF7FFFA50B3BD
:103DA80020462946384A0123B0470130E0D00E9B0F
:103DB8000D9A9A4209DBDBF80030D80705D4DBF806
:103DC80000309F0700F1108107E12046294652463E
:103DD800099BB0470130CBD000270E9B013B9F4287
:103DE800EDDA204629460BF11A020123B0470130CB
:103DF800BED00137F1E70D9B002B29DC2046294670
:103E0800214A0123B0470130B2D00D9B2BB90E9B3C
:103E18001BB9DBF80030D907D1D5204629465246D0
:103E2800099BB0470130A3D04FF000080D9B2046F6
:103E38005B429845294608DA0BF11A020123B0477C
:103E4800013095D008F10108F0E73A460E9BA5E04D
:103E5800DBF858200E9B9A42A8BF1A46002A9146C2
:103E680002DC4FF000081CE0204629463A464B4643
:103E7800B0470130F5D17BE7948E0000908E0000AA
:103E88009C8E0000988E0000A08E000020462946D7
:103E98000BF11A020123B04701303FF469AF08F172
:103EA8000108DBF85830B9F1000FB4BF1A46C9EB66
:103EB80003029045EADB07EB03080D9A0E9B9A4232
:103EC80010DBDBF80030DA070CD40E9A1744C8EB85
:103ED80007030D9FD21B9342A8BF1346002B1F4612
:103EE80008DC0EE0204629465246099BB0470130BF
:103EF800EBD13DE7204629464246B04701303FF422
:103F080037AF4FF000080AE0204629460BF11A02A5
:103F18000123B04701303FF42BAF08F101080D9A97
:103F28000E9B002FA3EB0203A8BFDB1B9845EBDB1E
:103F380045E70E9A012A01DCDB0736D520462946DB
:103F48003A460123B04701303FF412AF20462946D4
:103F58005246099BB04701303FF40AAFDBE9120132
:103F680000220023FFF71AFAE8B90E9B20462946DB
:103F78007A1C013B1DE0204629460BF11A02012359
:103F8800B04701303FF4F4AE01370E9B013B9F422E
:103F9800F1DB204629464B460BF15002B047013071
:103FA8007FF40DAFE4E60027EFE7204629463A46BE
:103FB8000123B0470130ECD1DAE6204629460BF15F
:103FC80019020123B04701303FF4D2AE0137DBF8C4
:103FD8000C300F9A9B1A9F42EFDBDBF80C000F9B0B
:103FE8009842B8BF184619E00027F0E743F4806309
:103FF8008DE80C00CBF800300DF1330302930DABC4
:1040080003930EAB059300230693CDF8108020464A
:10401800DDE90A23FFF731FD074640E611B0BDE8A8
:10402800F08F00BF2DE9F84391461F468A680B6957
:1040380006469342B8BF1346C9F8003091F84320AA
:104048000C46DDF8208012B10133C9F8003023682E
:10405800990642BFD9F800300233C9F80030256804
:1040680015F006051CD094F843302268003318BFB9
:10407800012392061FD5E118302081F843005A1C0D
:1040880094F845102244023382F8431013E0304676
:10409800394604F119020123C047013007D0013520
:1040A800E368D9F800209B1A9D42F0DBDBE74FF06C
:1040B800FF30BDE8F8833046394604F14302C04773
:1040C8000130F4D02268D9F80050E36802F0060203
:1040D800042A08BF5D1B2269A3680CBF25EAE575A1
:1040E80000259342C4BF9B1AED184FF00009A9455B
:1040F8000ADA3046394604F11A020123C047013072
:10410800D5D009F10109F2E70020BDE8F8830000E5
:104118002DE9FF410C461746227E98466E2A064630
:104128000A9B01F1430100F0B08012D8632A23D022
:104138000AD8002A00F0BD80582A40F0CC8084F8C4
:104148004520DFF804E257E0642A1ED0692A1CD013
:10415800C1E0732A00F0B18009D86F2A2ED0702AE6
:1041680040F0B980226842F0200222603FE0752AC0
:1041780024D0782A3BD0AEE01A6804F14205111D1C
:104188001960136884F84230A9E020681A6810F0B2
:10419800800F02D0101D186008E010F0400F02F1E7
:1041A8000400186002D0B2F9003000E01368002B58
:1041B8003EDA2D225B4284F8432039E020681A68F1
:1041C80010F0800F02D0101D186007E010F0400FAB
:1041D80002F10400186001D0138800E01368227E01
:1041E800DFF864E16F2A0CBF08220A221CE078225B
:1041F800DFF858E184F845202268186812F0800F2B
:1042080000F104051D6003D1550601D5038800E0BF
:104218000368D00744BF42F0200222601BB922681D
:1042280022F0200222601022002084F8430002E0DD
:10423800DFF814E10A226568002DA8BF2068A56090
:10424800A4BF20F00400206003B965B10D46B3FB9C
:10425800F2F002FB10331EF8033005F8013D034667
:104268000028F4D100E00D46082A0BD12368DA07AC
:1042780008D5236962689A42DEBF302305F8013CFD
:1042880005F1FF35491B21612EE025681A6815F0F4
:10429800800F606903D0151D1D60136808E015F0D4
:1042A800400F02F104051D60136801D0188000E07A
:1042B8001860002323610D4616E01A68111D196065
:1042C800156800212846626802F0DAFD08B1401B33
:1042D8006060636804E004F1420584F84220012329
:1042E8002361002384F84330CDF80080304621460E
:1042F80003AA3B46FFF796FE013002D14FF0FF308C
:104308001FE0304639462A462369C0470130F5D0B8
:1043180023689B0705D4E068039B9842B8BF1846FA
:104328000FE00025E368039A9B1A9D42F3DA3046B2
:10433800394604F119020123C0470130DED00135A6
:10434800F0E704B0BDE8F081A28E0000B38E000053
:104358002DE9F04F99468B6815465A1EB2F5AE7F87
:1043680082BF6FF4AE7203EB020C40F25D130F468E
:1043780088BF8B600B684FF0000B43F4F06347F87D
:104388001C3B06460C46B8465A46DA4687B098BFE4
:104398004FF0000CCDF80CB0CDF808B0CDF804B053
:1043A800A168002900F0EC802B681B78492B70D09D
:1043B80016D8392B0DD8312B40D22D2B46D002D808
:1043C8002B2B43D0DCE02E2B00F09280302B23D017
:1043D800D6E0452B00F09580462B77D0412B0CE09A
:1043E800652B00F08E800AD8542B75D002D84E2B3E
:1043F80034D0C5E0592B75D0612B46D0C0E06E2B68
:104408002CD004D8662B61D0692B42D0B8E0742B2D
:1044180062D0792B66D0B3E0206810F4807F0DD08D
:1044280020F0800020600AF1010ABCF1000F00F0C2
:104438008A8001310CF1FF3CA16084E012EB0B0F84
:1044480040F09E80216821F4C07105E021680806CB
:1044580040F1968021F08001216070E06AB9BAF1DC
:10446800000F0CD1216801F4E060B0F5E06F06D1CF
:1044780021F4F0612160012261E0022A5ED0BBF1E3
:10448800010F1ED0BBF1040F1AE0012A78D10222D5
:1044980055E0BBF1000F0ED1BAF1000F73D12168BE
:1044A80001F4E060B0F5E06F71D121F4F0612160B2
:1044B8004FF0010B43E0BBF1030F02D0BBF1050F36
:1044C8005ED10BF1010B5FFA8BFB38E0BBF1020FF9
:1044D80056D14FF0030B32E0BBF1060F50D14FF02D
:1044E800070B2CE0BBF1070F4AD14FF0080B26E071
:1044F8002168880544D521F420712160CDF804A0F5
:104508001DE0216801F4A060B0F5806F04D0480573
:1045180036D5BAF1000F3AD0880558BF019821F472
:10452800F06158BFC0EB0A0041F4C0715CBF029053
:10453800CDF80C8021604FF0000A00E0032288F8D3
:10454800003008F10108A368013BA3602369013327
:1045580023616B68013B002B6B6003DD2B68013323
:104568002B601DE7D4F88031304629460592CDF8F6
:1045780010C09847DDF810C0059A00283FF410AF26
:10458800BAF1000F03D0236823F480732360013A43
:10459800012A0ED8B8450AD9D4F87C31304618F823
:1045A800011D2A4698472369013B2361F2E701254B
:1045B800AEE00BF1FF33062B22D8BBF1020F12D964
:1045C800ABF1030B5FFA8BFBCBEB080BD84517D08D
:1045D800D4F87C31304618F8011D2A4698472369DB
:1045E800013B2361F2E7B845E1D9D4F87C31304684
:1045F80018F8011D2A4698472369013B2361F2E711
:104608002368DA052CD55B050CD5B845CFD9D4F885
:104618007C31304618F8011D2A4698472369013B2A
:104628002361F2E718F8011C2369652903F1FF33B8
:1046380008F1FF3B23610DD045290BD0D4F87C311C
:1046480030462A469847236918F8021C013BA8F10E
:10465800020B2361D4F87C3130462A469847D84665
:10466800256815F0100552D188F80050236803F426
:10467800C063B3F5806F05D1019BC3EB0A035A42AF
:104688006BB916E0029BA3B1039B2A46591C30461E
:104698000A2300F057FF029BDDF80C80C21A04F2CF
:1046A8006F13984528BF04F5B77840461A4900F0BB
:1046B800CBF830463946002200F026F92268064633
:1046C80012F0020F0F46D9F8003003D01A1DC9F8AE
:1046D800002006E012F0040F03F10402C9F80020DC
:1046E80003D01B68C3E900670DE0D3F80080FEF72C
:1046F800F3F810B900F0A4F803E030463946FEF7A5
:104708007FFEC8F80000E3680133E36000E000259D
:10471800284607B0BDE8F08FC48E00000FB40A4BDE
:1047280013B51C6824B1A36913B9204601F0BCFF76
:1047380005AB2046A168049A019303F0C1F902B0C1
:10474800BDE8104004B070477000002038B5084B31
:1047580005461C6824B1A36913B9204601F0A4FFDB
:1047680020462946A268BDE8384003F0B1BA00BF28
:104778007000002070B50E46054618B183690BB964
:1047880001F092FFAC68A389190701D5236983B9A1
:104798002846214600F0EAFF58B14FF0FF3070BDBF
:1047A800002B0EDB236816F8012C1A7023680133DE
:1047B8002360A36816F8012B013BA360002AEFD100
:1047C80016E0A269934209DB236816F8012C1A70D7
:1047D800236819780A29EAD1284602E0284616F8FB
:1047E800011C224600F06EFF421C50425041D3E7A4
:1047F800002B15DAA269934208DB23680A221A7093
:104808002368197891420FD1284601E028460A21E9
:10481800224600F057FF431C5842584130B1BCE7CC
:1048280023680A221A702368013323600A2070BDA6
:10483800024B01461868FFF79DBF00BF70000020BB
:10484800004870470000C07F0EB400B54FF40271F5
:104858009CB0ADF814106FF00041049107914FF629
:10486800FF711DABADF81610084953F8042B0290E0
:104878000690086802A9019303F008F8029B002239
:104888001A701CB05DF804EB03B07047700000208C
:10489800034613F8012B002AFBD1181A0138704778
:1048A80030B5036811F8014B01334CB11A78A2F105
:1048B8004105192D98BF2032A242F3D0002030BD07
:1048C8000360012030BD2DE9F0410F46904602F00B
:1048D800B1FD04460D46B8F1000F11D0C7F30A53D5
:1048E800C3F16B03002B0BDD1B0503F17F5500247F
:1048F80005F5401522462B46FEF7E8FABDE8F0819B
:1049080020462946BDE8F0812DE9F04F00239FB0ED
:104918001A9382460B46039115924FF000084FF008
:1049280000091993199B1A780D2A05D8092A13D258
:10493800002A00F0B78111E02B2A06D02D2A02D0D8
:10494800202A0BD108E0012200E0002209925A1C1B
:1049580019925B7823B9A5E10133E2E700230993B3
:10496800199C2378302B5CD16378582B01D0782B95
:104978004CD11AAB0093099B5046019319A9AE4A32
:104988001BAB01F064FF10F00706054600F0A58593
:10499800062E05D1013400231994099300F09DBD1A
:1049A8001A9A3AB11CA8352102F031FE50461A99DC
:1049B80002F0A9FA1B9A062E21D8DFE806F0040DAA
:1049C80008171C0D04004FF00009C84617E0DDF871
:1049D8007080DDF8749012E01D9B02F2334223F4DC
:1049E8008013DDF8708043EA025908E0DFF84C9242
:1049F8004FF0000803E06FF000494FF0FF38290737
:104A080040F16B8549F0004900F067BD199B5A1CBD
:104A180019925B78302BF9D0002B00F05E850123CA
:104A280000E000230026B34635460493199B0793FC
:104A3800199C2778A7F13003DAB2092A0CD8082D77
:104A48004FF00A0204F10104D4BF02FB0B3B02FB46
:104A5800063601351994EBE7504602F0B9F90168BA
:104A68005046059102F0B4F90068FFF711FF059967
:104A78000246204603F0BBF928B100203B462C46ED
:104A88000246074657E00590504602F0A1F9006833
:104A9800FFF7FEFE199B05991A1819921B5C002D49
:104AA80041D12846302B05D1199B01305A1C199247
:104AB8005B78F7E7A3F13102082A42D8199A0792DE
:104AC800024600200446303B00F1010125D00A448B
:104AD80021460719B94211D0013101F1FF3EBEF15B
:104AE800080F04DC4FF00A0E0EFB0BFBF2E710294F
:104AF800DCBF4FF00A0E0EFB06F6EBE72044082851
:104B080000F1010403DC0A2101FB0B3B04E0102C3B
:104B1800DCBF0A2101FB06360021199B581C19909D
:104B28005B78084602E02C4608460A46A3F13001A5
:104B38000929C8D90127652B01D0452B64D16CB947
:104B480004E0652B40F0D7840022012728B9049B94
:104B5800002B00F0A780044600E00024199B039373
:104B680001331993039B5B782B2B07D02D2B02D095
:104B78004FF0000C09E04FF0010C01E04FF0000C81
:104B8800039B02331993039B9B78A3F130010929F6
:104B980038D81946302904D1199B591C19915978CC
:104BA800F8E7A1F1310EBEF1080F0B462CD8A1F1A0
:104BB80030030593199B0693199B03F1010ECDF859
:104BC80064E05B78A3F13001092908D805994FF012
:104BD8000A0E0EFB0131A1F130030593ECE70699AB
:104BE800C1EB0E0EBEF1080F44F61F6E04DC0599EA
:104BF8007145A8BF714600E07146BCF1000F04D0B2
:104C0800494202E0039919910021002C54D100284F
:104C180040F06384049A002A40F05F84002F41D159
:104C28004E2B20D002DC492B0AD03BE0692B07D061
:104C38006E2B18D036E000BF088F00000000F07F10
:104C480019A8AA49FFF72CFE60B3199B19A8013BC4
:104C5800A7491993FFF724FE10B9199B013319933B
:104C6800DFF8A4921AE019A8A249FFF719FEC8B103
:104C7800199B1B78282B0FD119A89F491CAA02F051
:104C88001DF8052808D11D9BDDF8708043F0FF4909
:104C980049F4E00900F021BCDFF870924FF00008F9
:104CA80000F01BBC039B1993159B002B00F020847C
:104CB8000023099300F013BC8B1A06932B46002D92
:104CC80008BF23465846102C25460393A8BF102535
:104CD800FEF786F8092D8046894613DD874B03EBDE
:104CE800C50353E91223FEF7F1F88046304689469A
:104CF800FEF776F802460B4640464946FDF734FF74
:104D0800804689460F2C36DC069B002B00F0E58395
:104D180024DD162B07DC794A02EBC302D2E9000135
:104D28004B46424615E0069AC4F125039A4222DC16
:104D3800724DC4F10F0405EBC403D3E900014246E8
:104D48004B46FEF7C3F8069B1C1B05EBC405D5E9CB
:104D58000023FEF7BBF880468946BEE3069B13F1A5
:104D6800160F08DB654A4046A2EBC30249460CCA47
:104D7800FEF7D6F9EFE7069B651B1D44002D58DDAD
:104D880015F00F020AD05D4B03EBC203D3E9000113
:104D980042464B46FEF79AF88046894635F00F059D
:104DA80000F0BA80B5F59A7F0FDD4FF0000BCDF813
:104DB8000CB0CDF81CB0CDF814B02223CAF80030DE
:104DC800DFF844914FF0000883E14946DFF840914D
:104DD80040464E462D110027012D0ADDEA0703D56E
:104DE800D9E90023FEF772F801376D1009F10809B7
:104DF800F2E78046A1F1547906EBC7064246D6E9A8
:104E080000014B46FEF762F821F0004389460A4646
:104E18001B0D3B491B058B428046C6D8A1F5801166
:104E28008B4286BFDFF8EC904FF0FF3802F15479DF
:104E380072E071D06D4215F00F020AD02F4B404638
:104E480003EBC2034946D3E90023FEF769F980461C
:104E580089462D1160D01F2D08DD4FF0000BCDF8CD
:104E68000CB0CDF81CB0CDF814B02BE14046494643
:104E780015F0100F0CBF00236A23224E0493002D57
:104E880008DDEB0703D5D6E90023FEF71FF86D1000
:104E98000836F4E7049B80468946EBB1C1F30A5310
:104EA800C3F16B03002B0A4616DD1F2B0EDD342BD6
:104EB800DEBF203B4FF0FF3101FA03F34FF000084B
:104EC800CCBF4FF05C7903EA020905E04FF0FF32EE
:104ED80002FA03F303EA0008404649460022002389
:104EE800FEF75CFA0028B8D118E000BF958E0000E4
:104EF800209000009D8E0000CC8E0000989000004D
:104F08000000A07CE08E00000000F07F0000F8FFA9
:104F180060910000FFFFEF7F00230493CDF800B0FD
:104F280050460799039A234602F042F80790002852
:104F38003FF43BAF069A069B002AC3F100034FF0EB
:104F4800000BA8BF00230E93CDF80CB0079B50466A
:104F5800596801F0A3FF059000283FF42EAF079B86
:104F68000C301A69079B023203F10C019200FEF71C
:104F780071FD1BAB00931CAB0193504642464B4658
:104F8800CDE90A8902F0C9FA1A9000283FF415AF52
:104F98005046012102F099F8039000283FF40DAF24
:104FA800069B049923EAE3771B9B1C9C002BAABF52
:104FB8000E9AFA1AD618A3EB010323446FF47F71F3
:104FC800ACBF3A460E9E8B42C4F1360480F286800E
:104FD800C91A1F29A4EB0104C8BFB3494FF0010047
:104FE800D5BF00FA01F3C91A149300FA01F3D9BF27
:104FF80000230F930F9314903519049BB542144462
:105008001C442B46A8BF3346A342A8BF2346002B07
:10501800C2BFED1AE41AF61A0E9B002B63D1002DBD
:105028007BDC002F40F08380002C00F38A80002E68
:1050380000F3918050461A99059A02F09CF983462C
:1050480000283FF4BAAEC3680024C46003990893EB
:1050580002F075F9A04280F28D80089B002B40F089
:105068001582B8F1000F40F01182C9F31303002B29
:1050780040F00C8229F000431B0D1B05B3F1D66FDD
:1050880040F20482DBF81430002B6ED0594601221E
:10509800504602F001F90399834602F050F90028BE
:1050A80040F3F48129F00043049A1B0D1B05002AE4
:1050B80000F08F80B3F1D66F00F38B80B3F15C7F83
:1050C80000F3E68122234FF000084FF00009CAF8E8
:1050D8000030079B002B40F0EC81FEE100230F938A
:1050E8000123149388E71A465046039902F086F87C
:1050F8000390034600283FF460AE504619461A9ABA
:1051080001F0ECFF089000283FF457AE50461A997A
:1051180001F0F9FE089B1A9381E750461A992A462E
:1051280002F0BAF81A9000287FF47BAF45E65046A3
:1051380005993A4602F062F8059000287FF474AFAA
:105148003BE650460599224602F0A6F8059000284D
:105158007FF46DAF31E650460399324602F09CF871
:10516800039000287FF466AF27E6DBF81030012BA8
:105178008CDC8BE162D1089AC9F3130322B34B4943
:105188004A468B422ED1049B414663B1484B13409B
:10519800B3F1D46F07D81B0DC3F16B034FF0FF3089
:1051A80000FA03F301E04FF0FF3399421AD1414B63
:1051B8009A4202D101313FF400AE3D4B4FF0000856
:1051C800134003F5801961E163B9B8F1000F09D103
:1051D80068E7A3F580136FEA13594FF0FF386FEAB9
:1051E800095953E10F9B13B113EA090F02E0149B0D
:1051F80013EA080F00F04A81089B40464946049A82
:1052080053B1FFF760FB02460B46DDE90A01FDF7E3
:10521800ABFC8046894639E1FFF755FB02460B4651
:10522800DDE90A01FDF79EFC00220023804689463D
:10523800FEF7B4F800287FF445AF27E158460399F4
:1052480002F0BDF900224FF0804306460F46FEF7F4
:10525800B9F800283FD0089B13B10026164F10E07C
:10526800B8F1000F03D1C9F313033BB90BE0B8F150
:10527800010F03D1B9F1000F3FF424AF0F4F0026FF
:1052880000240D4D3CE03046394600220A4BFEF71B
:105298008FF8B8B9304639460022094BFDF716FE9B
:1052A80004460D4610E000BFE3FBFFFFFFFF0F00C1
:1052B8000000F07FFFFFEF7F0000F03F0000F0BF2D
:1052C8000000E03F089C9A4D05F10043169417939F
:1052D800DDE9166714E0964B304639460022FDF7A3
:1052E800F5FD089B04460D4623B901F100431090D3
:1052F800119303E002460B46CDE91023DDE9106760
:1053080029F0004C4FEA1C5C8A4B4FEA0C5C9C4528
:1053180031D1DDE90A23A9F1547940464946CDF84F
:105328003CC0CDE90C2302F085F802460B46304616
:105338003946FDF7CBFD02460B4640464946FDF788
:1053480013FC21F000431B0D7B4A1B05934280464A
:10535800DDF83CC00CD9794B0D9A9A4203D10C9BCD
:1053680001333FF42AADDFF8D4914FF0FF387CE0E9
:1053780001F1547944E0049B63B3BCF1D46F29D89C
:1053880063A3D3E9002320462946CDF83CC0FEF7A5
:1053980019F8DDF83CC0C8B12946204602F01CFEC9
:1053A800002808BF0120FDF71BFD089B04460D4699
:1053B800DDF83CC023B901F100431290139303E0D8
:1053C80002460B46CDE91223DDE9126707F1D663E1
:1053D800CCEB0307DDE90A01CDF83CC002F02AF85E
:1053E80002460B4630463946FDF770FD02460B462D
:1053F800DDE90A01FDF7B8FB80468946DDF83CC0C7
:10540800049B4E468BBB29F000431B0D1B059C4596
:105418002BD12946204602F0B7FDFDF7F1FC0B46DB
:10542800024629462046FDF79DFB089B04460D468B
:105438002BB9B8F1000F02D1C9F313067EB136A318
:10544800D3E9002320462946FDF7B2FF88BB34A3E1
:10545800D3E9002320462946FDF7C8FF04E032A31C
:10546800D3E90023FDF7A4FF18BB50461A9901F0B1
:105478004AFD5046059901F046FD5046039901F052
:1054880042FD5046594601F03EFD5FE5049B83B15D
:105498002B4B40460D9300230C934946DDE90C2322
:1054A800FDF714FD8046894619B910B92223CAF8B8
:1054B800003050461A9901F026FD5046059901F032
:1054C80022FD5046039901F01EFD5046079901F050
:1054D8001AFD5046594601F016FD159B13B1199B4C
:1054E800159A1360099B1BB1424609F1004307E076
:1054F80042464B4604E0002422460127FFF71DBB25
:10550800104619461FB0BDE8F08F00BFAFF300800A
:105518000000C0FFFFFFDF419535A094FFFFDF3F8C
:1055280035E5AF350000E03F9535A094FFFFCF3F4C
:105538000000E03F0000E07FFFFF9F7CFFFFEF7F60
:10554800000050392DE9F0470F46404CD4F8009040
:105558003D4615F801EB09EB0E04667806F00804E1
:1055680004F0FF060CB12F46F2E774462D2C03D148
:10557800BD1C7C78012603E02B2C04BF7C78BD1C65
:1055880013B1102B0AD15AE0302C56D12C7804F0E4
:10559800DF04582C4CD16C7810230235002E14BF30
:1055A8004FF000486FF00048B8FBF3FA0027BE46FA
:1055B80003FB1A8809EB040C9CF801C01CF0040FCB
:1055C80001D0303C0BE01CF0030C1BD0BCF1010FE8
:1055D8000CBF4FF0370C4FF0570CCCEB04049C4237
:1055E80010DAB7F1FF3F0AD0D64506D801D14445B5
:1055F80003DC03FB0E4E012701E04FF0FF3715F8DF
:10560800014BD7E77C1C73460AD1002E4FF02201CC
:1056180014BF4FF000436FF0004301602AB911E056
:105628000EB1CEF100036AB107B1691E116009E03D
:105638003024002BB2D10823B0E70A23AEE7302C80
:10564800ACD1A3E71846BDE8F08700BF740000207E
:1056580030B5141E9BB0054604DA8B2303604FF067
:10566800FF301CE04FF40272ADF80C200CBF22464C
:1056780004F1FF32029205924FF6FF7200910491F5
:10568800ADF80E2069461A461E9B02F0FFF8431C2F
:10569800BCBF8B232B6014B1009B00221A701BB077
:1056A80030BD000073B506460D4614460093044B02
:1056B800314618682A462346FFF7CAFF02B070BD74
:1056C8007000002070B50D461446064618B183696F
:1056D8000BB900F0E9FF224B9C4201D1746808E045
:1056E800204B9C4201D1B46803E01F4B9C4208BF89
:1056F800F468A369A360A3891A0709D523693BB194
:1057080023682069EDB2181A636998420FDB08E034
:105718003046214600F02AF80028F1D04FF0FF303B
:1057280070BD3046214600F055FF0028F6D1A36829
:105738000130013BA36023685A1C22601D70636915
:10574800984204D0A389DB0707D50A2D05D1304636
:10575800214600F03FFF0028E0D1284670BD00BF79
:105768002C9000004C9000006C900000314B70B5FC
:105778001D6806460C4625B1AB6913B9284600F0EA
:1057880093FF2D4B9C4201D16C6808E02B4B9C4247
:1057980001D1AC6803E02A4B9C4208BFEC68A3899E
:1057A8009AB211071DD4D50602D40922326038E016
:1057B800500712D5616B41B104F14403994202D0FC
:1057C800304601F06FFF00236363A38923F02403AD
:1057D800A3810023636023692360A38943F008033E
:1057E800A38123694BB9A38903F42073B3F5007F20
:1057F80003D03046214601F0EFFAA38913F00102E5
:1058080005D00022A26062695242A26103E09907B2
:1058180058BF6269A26022694AB903F0800080B269
:1058280030B143F04003A3814FF0FF3070BD00203A
:1058380070BD00BF700000202C9000004C9000004C
:105848006C9000002DE9F74F03690C698046A3426C
:105858007EDB013C01F114074FEA840E00F11406C7
:1058680006EB0E0357F82450019356F824300135FF
:10587800B3FBF5F507EB0E09BDB34FF0000A384648
:10588800B446D34650F8043B9AB21B0C02FB05A25F
:105898006B4303EB124392B2C2EB0B0BBCF8002034
:1058A8004FEA134A5A441FFA83FBDCF80030484594
:1058B800CBEB134303EB224392B242EA03424FEA93
:1058C800234B4CF8042BDDD956F80E306BB9019BED
:1058D800043BB3421A4602D8C8F8104005E01268E3
:1058E800043B002AF8D1013CF3E7404601F027FDCC
:1058F80000282BDB304601354FF0000E57F8042BFB
:10590800036891B2C1EB0E0E120C99B27144C2EB4E
:10591800134303EB214389B24FEA234E4F4541EA33
:10592800034340F8043BE9D956F8242006EB8403E6
:1059380062B9043BB3421A4602D8C8F8104005E0E1
:105948001268043B002AF8D1013CF3E7284600E03E
:10595800002003B0BDE8F08F2DE9F04F456A95B0FF
:105968008246219CCDE9022345B9102001F080FA36
:10597800CAF82400456085600560C560DAF82430FF
:10598800196859B15A68012393404A608B605046A0
:1059980001F0B9FADAF8243000221A60039BA24A0F
:1059A800002BBDBF01232360039B0023BCBF23F052
:1059B80000430393039FA8BF236027F000431B0DF8
:1059C8001B0593421DD142F20F73209A1360029B6C
:1059D80043B9964A964BC7F31300002814BF1846DC
:1059E800104600E09248229B002B00F06985C3789E
:1059F80013B100F1080300E0C31C229A136000F001
:105A08005FBDDDE902450022204629460023FDF757
:105A1800C5FC804658B1209A01231360229B002BB5
:105A280000F03C8583481860013800F049BD13AB8D
:105A3800009312AB0193504622462B4601F06DFDB0
:105A4800C7F30A5607905EB1C5F3130343F07F51BD
:105A5800204641F44011A6F2FF36CDF844801DE0FF
:105A6800139B129E1E446FF482639E42A1BF029A4A
:105A780006F2124322FA03F06F4BB7BF6F4B9B1B22
:105A8800029A9B1BAABF9F4002FA03F03843FDF716
:105A9800A7F90123A1F1F871013E11930022684B87
:105AA800FDF760F85AA3D3E90023FDF70FFA5AA3CC
:105AB800D3E90023FDF758F8044630460D46FDF7B4
:105AC8009FF957A3D3E90023FDF700FA02460B46D6
