:1000000000200020F5010000FD01000001020000B9
:10001000490200004D0200009502000000000000AF
:10002000000000000000000000000000DD020000F1
:10003000E102000000000000E5020000610F000086
:10004000F9020000F9020000F9020000F9020000C4
:10005000F9020000F9020000F9020000F9020000B4
:10006000F9020000F902000000000000F90200009F
:10007000F9020000B10F0000F10F0000F9020000CA
:10008000F9020000690F0000F9020000F902000007
:10009000F9020000F9020000F9020000F902000074
:1000A000F9020000F9020000F9020000F902000064
:1000B000F9020000F9020000F9020000F902000054
:1000C000F9020000F9020000F9020000F902000044
:1000D000F9020000F9020000F9020000000000002F
:1000E00000B583B000F092F9304B314A1360314AC9
:1000F0001360314B314A03E0116819600433043254
:100100002F498B42F8D32A4B1A682E4B9A4204D1BE
:10011000284B1A682C4B9A4200D0FEE7234B2B4AFF
:1001200013602B4A13602B4B02E000221A60043349
:10013000294A9342F9D3254B1B6813B9244B1B68FA
:1001400003B1FEE700F06EF901A8694600F010F96E
:10015000224C234B1C1BA410002504E01F4B53F81A
:10016000253098470135AC42F8DC1E4C1E4B1C1B59
:10017000A410002504E01B4B53F8253098470135A7
:10018000AC42F8DC0198009900F052FF0546174C8C
:10019000174B1C1BA41004E0013C144B53F82430F3
:1001A0009847002CF8DC284600F0BEF8BABADECA40
:1001B00000000020B000002000000020D07B0000E4
:1001C000B40000207856341232547698B4000020DF
:1001D000E4010020B4000020E80100202403000016
:1001E0002403000024030000240300002403000073
:1001F0002403000008B5FFF773FF00BF00BEFEE751
:100200001EF0040F0CBFEFF30880EFF30980714676
:10021000364A10472DE9F04182B007468846084B20
:100220005D6B9C6B9E6A074800F0D2F8CDF80080A9
:10023000384631462A46234600F0F8F800BEFEE76D
:1002400000ED00E0EC6B000000BEFEE71EF0040FC6
:100250000CBFEFF30880EFF309807146244A104782
:100260002DE9F04182B007468846084B5D6B9C6BD8
:100270009E6A074800F0ACF8CDF800803846314659
:100280002A46234600F0D2F800BEFEE700ED00E06B
:10029000FC6B00001EF0040F0CBFEFF30880EFF3BF
:1002A00009807146134A10472DE9F04182B0074694
:1002B0008846084B5D6B9C6B9E6A074800F088F887
:1002C000CDF80080384631462A46234600F0AEF885
:1002D00000BEFEE700ED00E0086C000000BEFEE797
:1002E00000BEFEE700BEFEE77047000015020000FA
:0C02F00061020000A9020000FEE700BF50
:1002FC00D07B000000000020B4000020D07B000068
:10030C000000001000000010B4000020E8010020E4
:08031C000000001000000010B9
:10032800FEE700BF08B50D4B1B6813B90C4A0B4B11
:100338001A600A4B1A68C31C23F0030313440949C3
:100348008B4206D902F066F90C2303604FF0FF30A8
:1003580008BD02490B60104608BD00BFB800002068
:10036800E8010020001C002001230360014B0B6002
:10037800704700BF0400002008B502F04BF958236D
:1003880003604FF0FF3008BD08B502F043F9582369
:1003980003604FF0FF3008BD08B502F03BF9582361
:1003A8000360002008BD00BF08B502F033F95823E8
:1003B80003604FF0FF3008BD08B502F02BF9582351
:1003C80003604FF0FF3008BD0FB400B583B004AB35
:1003D80053F8042B01930848802103F0E3FE011E23
:1003E80003DD054800F00AF80146084603B05DF849
:1003F80004EB04B0704700BFC00000204FF0FF308E
:10040800704700BF08B500F0C1F8024B024A9A6075
:1004180008BD00BF00ED00E00000000008B500F0D6
:1004280079F808BDF8B504460D4617461E46264815
:10043800FFF7CAFF25482168FFF7C6FF244861680F
:10044800FFF7C2FF2348A168FFF7BEFF2248E16813
:10045800FFF7BAFF21482169FFF7B6FF2048616915
:10046800FFF7B2FF1F48A169FFF7AEFF1E48E16919
:10047800FFF7AAFF1D48FFF7A7FF1D482946FFF70A
:10048800A3FF1C4CE16A1C48FFF79EFF216B1B4829
:10049800FFF79AFFE16B1A48FFF796FF15F0800FF8
:1004A80003D018483946FFF78FFF15F4004F03D0E3
:1004B80015483146FFF788FF1448FFF785FF1448B1
:1004C8000699FFF781FFF8BDD06A0000E06A0000D6
:1004D800F06A0000006B0000106B0000206B000049
:1004E800306B0000406B0000506B0000606B000038
:1004F8006C6B000000ED00E07C6B00008C6B000072
:100508009C6B0000AC6B0000BC6B0000CC6B000067
:10051800D46B0000184B1B8803F01803182B21D844
:10052800DFE803F00D2020202020202017202020A5
:100538002020202017202020202020201C000E4BC7
:10054800B3F8442402F001020C4BD3400C4A136068
:1005580008E04FF400420A4B1A6003E0094B1A689E
:10056800074B1A60044B1A8802F00702044B1B68F9
:10057800D340054A13607047002000400024F4006F
:1005880054010020580100205001002008B5002324
:10059800054A1381A2F5B0621380A2F8443493800F
:1005A8009385FFF7B7FF08BD8025004010B4848C01
:1005B80024F0F8042404240C02F0F8021443848480
:1005C800826822F0704222F440520BB142F4802239
:1005D80001F440510A43826001205DF8044B7047E2
:1005E80001F07F01120202F47062114323F43D53BB
:1005F80023F03F031B041B0C19430184008C80B2B9
:10060800704700BF10B482680C4611B142F4002252
:1006180001E022F4002283681A438260838C23F06D
:1006280007031B041B0C04F00704234383840120E5
:100638005DF8044B704700BF806C704710B4846845
:10064800084B234002F4703213438360838B03F416
:100658007F5301F00F010B43838301205DF8044BA6
:10066800704700BFFF3F0C0010B48468064B23405E
:1006780002F47872134301F01F010B4383600120D9
:100688005DF8044B704700BF00FCFF000AB1C9B217
:1006980001710079704700BF10B4848B04F01F0407
:1006A80001F4E0610C4402F44052144403F0C00326
:1006B8001C43A4B2848301205DF8044B704700BF3B
:1006C80010B403889BB2490003248C4023EA040336
:1006D8008A401A4492B2028001205DF8044B7047A8
:1006E80000F0800001F04001084302431343D8B2F0
:1006F800024B83F840000120704700BF108800407B
:1007080001F0010100F03E000143024B83F8441060
:100718000120704710880040F0B4224CA488C4F32C
:100728004224072C14D8DFE804F0120406080A0C47
:100738000E1002240CE004240AE0082408E0102427
:1007480006E0202404E0402402E0802400E00124A4
:10075800144DB5F8445415F0010F00D0640065013C
:10076800114CB4FBF5F6B6FBF1F6B7B207854FF4BA
:100778000067B7FBF5F504FB05F4B4FBF6F4B4FB2E
:10078800F1F1A1F5006141F4084189B281840021A9
:10079800017103F03C0302F003021A430273007D67
:1007A800F0BC7047002000400024F400037D13F0E3
:1007B800200F03D0C9B20170012070470020704794
:1007C8000AB1C9B20174007E704700BFC9B2017195
:1007D80001207047007A704710B50F4C20464FF43F
:1007E800805100221346FFF7E1FE204600214FF416
:1007F8007032FFF723FF20467C214FF4506200231C
:10080800FFF7EEFE204601210A46FFF73FFF20468C
:100818000321FFF7F7FE10BD0000034010B5124C8E
:1008280020464FF4C06100221346FFF735FF2046EB
:10083800002140220B46FFF7B9FE204600214FF465
:100848007032FFF7FBFE20467C214FF450620023F4
:10085800FFF7C6FE204601210A46FFF717FF20468C
:100868000321FFF7CFFE10BD8000034008B5142018
:100878000121FFF745FF08BD38B5002428E0651CB5
:10088800184B1B5D18482946184AD25C02F02CFD0B
:10089800174B53F8240001F083F802460B4615481D
:1008A800294602F021FD144B53F8240001F078F892
:1008B80002460B46114802F017FD114B53F824006D
:1008C80001F06EF802460B460E4802F00DFDECB240
:1008D800032CD4D90A2002F01FFD0A2002F01CFDC7
:1008E80038BD00BF78010020DC760000D476000017
:1008F800BC010020F47600009C0100201077000065
:100908007C0100202C77000010B5FFF765FFFFF78A
:10091800ADFF0B4C4FF400532360FFF77FFF4FF4FC
:10092800804323600022074B1A70074B1A70074B4D
:10093800042119705A7003229A700222DA7010BDCD
:1009480000E100E074010020DC01002078010020B3
:1009580010B50A460C1DE4B298B9072C05D10C480D
:10096800611E6201FFF780FE04E00948611C620114
:10097800FFF77AFE00200146E2002346FFF7B0FEAB
:1009880010BD04480B215201FFF76EFE10BD00BFD9
:10099800000003408000034008B500F0EFFF00228C
:1009A800044B01F051F80022034B01F04DF801F01F
:1009B8000DFB08BD0000303E00009940000000001B
:1009C8002DE9F0410F46364B53F8200001F008FCA2
:1009D80000F0E6FF0022334B01F036F80022324BDC
:1009E80001F032F801F0F2FA8046304901F008FED1
:1009F80038B3404600F0D4FF02460B4600202C498D
:100A080000F06EFE1EA3D3E9002301F01DF8044692
:100A18000D46204629461CA3D3E9002300F062FEB8
:100A280000F092FB1AA3D3E9002300F059FE1AA3A1
:100A3800D3E9002301F032F901F0C8FA3860BDE8C3
:100A4800F08100233B601B4C4FF07E560EE0304691
:100A5800294601F019FC0146386801F00DFB3860A1
:100A68003046414601F010FC064604342568284605
:100A78004FF07E5101F09CFD0028E8D0BDE8F081E0
:100A880093180456BED7233E000000C04C04F03E25
:100A9800000000402602703F000000E0AF60B3BED7
:100AA800CC0100200000303E0000994000007A444C
:100AB80000408F40B876000008B520B906480221EA
:100AC800FFF7A0FD03E005480221FFF79BFD642026
:100AD80000F02EFA08BD00BF00000340800003406C
:100AE8002DE9F04F83B0834689461546A64B13F887
:100AF80000A0A64B53F8200001F072FBA44901F0B6
:100B0800C3FB0190A34B03EB0A135868494601F055
:100B180077FD00B34FF4AA769F4B06FB0A364FF0D9
:100B28007E5800240EE04046394601F0ADFB0146F0
:100B3800204601F0A1FA04464046494601F0A4FBCC
:100B480080460436376838464FF07E5101F030FD54
:100B58000028E8D06FE08F4B03EB0A1398684946EA
:100B680001F044FD002845D04FF4AA738A4E03FBD8
:100B78000A6640364FF07E5800240EE0404639465B
:100B880001F082FB0146204601F076FA0446404611
:100B9800494601F079FB80460436376838464FF0FD
:100BA8007E5101F005FD0028E8D0BAF1020F42D1CC
:100BB80048467A4901F05EFA0646794901F064FB35
:100BC8000146304601F060FB00F0EAFE00F040FA12
:100BD8006BA3D3E9002300F037FF06460F462046F3
:100BE80000F0DEFE32463B4600F07CFD01F0EEF9F7
:100BF800044620E04FF4AA73674E03FB0A6670367A
:100C08004FF07E5800240EE04046394601F03CFB88
:100C18000146204601F030FA04464046494601F0B4
:100C280033FB80460436376838464FF07E5101F072
:100C3800BFFC0028E8D00198214601F01DFA0646BD
:100C4800514B13F80B4004EB84039B00554A1344A3
:100C58005868314601F0D4FC28B34FF4AA734E4AC1
:100C680003FB0A2A0AF1A00A00232B604FF07E57E3
:100C78000FE03846214601F007FB0146286801F0DD
:100C8800FBF928603846314601F0FEFA07460AF1BA
:100C9800040ADAF8004020464FF07E5101F088FC43
:100CA8000028E6D099E004EB84039B003D4A1344F6
:100CB8009868314601F09AFC28B34FF4AA73364A73
:100CC80003FB0A2A0AF1D00A00232B604FF07E5753
:100CD8000FE03846214601F0D7FA0146286801F0AE
:100CE800CBF928603846314601F0CEFA07460AF1BA
:100CF800040ADAF8004020464FF07E5101F058FC13
:100D08000028E6D069E004EB8404A400254B1C44C9
:100D1800E068314601F06AFC28B34FF4AA731E4A12
:100D280003FB0A2A0AF1FC0A00232B604FF07E57C6
:100D38000FE03846214601F0A7FA0146286801F07D
:100D48009BF928603846314601F09EFA07460AF1B9
:100D5800040ADAF8004020464FF07E5101F028FCE2
:100D68000028E6D039E04FF4AA720B4B02FB0A3A8E
:100D78000AF5947A00232B604FF07E5724E000BFD9
:100D8800B253628D695CBE3F780100208C0100205F
:100D980000009636F0770000186C0000ECEFFD427A
:100DA800062FF8B8507700003846214601F06CFA53
:100DB8000146286801F060F928603846314601F09C
:100DC80063FA07460AF1040ADAF8004020464FF0B1
:100DD8007E5101F0EDFB0028E6D003B0BDE8F08FAE
:100DE80070B5002423E000202146FFF7B1FD012063
:100DF8002146FFF7ADFD0020FFF75EFE0120FFF75B
:100E08005BFE0C4B1868FFF7C7FD0B4B43F824003B
:100E1800A5000A4E20467119FFF7D2FD204656F864
:100E28002410074A2A44FFF75BFE0134E4B2032C7E
:100E3800D9D970BD60010020BC0100209C010020B0
:100E48007C01002070B506460D46104C2046062150
:100E58000122FFF735FC204607210222FFF730FC6C
:100E6800A4F58054204631462A460023FFF754FC57
:100E7800204601210022FFF7A3FC20460321FFF7AB
:100E8800A5FC4FF40032024B1A6070BD00600040B0
:100E980000E100E008B501460022054B1A7005483C
:100EA800FFF784FC024B1B78002BFBD008BD00BF6A
:100EB800410100200050004038B50C4608E0651C90
:100EC80040B2FFF7E7FF94F90130092B05D02C4613
:100ED800207843B20A2BF2D100E02C4694F9003076
:100EE8000A2B05D10D20FFF7D5FF0A20FFF7D2FF07
:100EF800002038BD0A4B1B680A4AA2FB03239B0942
:100F0800013BB3F1807F09D2074A5360E021074BC8
:100F180083F823100023936007231360704700BFF2
:100F280050010020D34D621010E000E000ED00E019
:100F3800034B1860024B1B68002BFBD1704700BFA6
:100F4800E0010020034B1B681BB1024A1368013BF8
:100F580013607047E001002008B5FFF7F3FF08BDF4
:100F680000B583B000238DF807300C48FFF732FC3A
:100F7800C0B28DF807009DF8073013F0020F02D0B9
:100F88000122074B1A709DF8073013F0040F02D0A6
:100F98000022044B1A7003B05DF804FB00500040B7
:100FA800410100204001002008B50B48FFF744FB31
:100FB8000A4B18600A4B1B78042B02D10022084BFD
:100FC8001A70074A137805490868064941F823004A
:100FD8000133137008BD00BF00000340600100200A
:100FE800DC010020CC01002008B50B48FFF724FBEA
:100FF8000A4B18600A4B1B78042B02D10022084BBD
:101008001A70074A137805490868064941F8230009
:101018000133137008BD00BF800003405C0100204D
:10102800740100208C01002008B5FFF763FF4FF41E
:1010380096400321FFF706FFFFF766FCFFF7D0FE97
:10104800FFF71AFC4FF47A70FFF772FFF6E700BF5C
:101058002DE9F0438BB006460F4600F0CDF8DFF8D7
:10106800E480044698F900300D46013337D0304605
:10107800394600F0FDFA002831D02BA3D3E900232C
:101088003046394600F070FF814668BB28A3D3E993
:1010980000233046394600F049FF00B398F9003084
:1010A800254C002000210422022BCDF82090CDE908
:1010B8000467CDE90267CDE906018DE814002CD05C
:1010C800684600F007FB40B3089B1BB101F0A2FA89
:1010D800089B0360DDE906010BB0BDE8F0832046FC
:1010E80029460BB0BDE8F083134898F80030032177
:1010F8000022CDE90467CDE90267019000910892CA
:101108002BB90E4B4FF06042CDE90623D8E70C49C6
:101118000020022BCDE90601D2D101F07BFA22236F
:101128000360D1E7AFF30080EF39FAFE422E864024
:1011380051302DD5104987C070780000FFFFEF4768
:101148000000F07F0C0000202DE9F0478AB0064629
:101158000F4600F0C7F9DFF898A004469AF9003066
:101168000D4601330FD03046394600F087FA50B1AA
:101178004FF000084FF000093046394642464B46CA
:1011880000F0D4FE20B9204629460AB0BDE8F08711
:1011980016499AF8004001220023CDE90467CDE9F9
:1011A800026701910092089364B9CDE906896846FF
:1011B80000F090FA80B1089B9BB9DDE906010AB0FE
:1011C800BDE8F0874046494642464B4600F066FD7A
:1011D800022CCDE90601EAD101F01CFA21230360B3
:1011E800E9E701F017FA089B0360E6E77478000066
:1011F8000C000020000000002DE9F04FB04D21F058
:101208000042AA4283B00C464FEAD17682460DD9F5
:10121800AC4DAA4225D9C1F31303034340F0F5802E
:10122800002E40F0158103B0BDE8F08FA64B9A421E
:1012380000F2CC80A54B9A4200F2DD808AA3D3E964
:10124800002300F04FFA0022A14B00F08DFE002889
:1012580000F008815046214600229D4B00F042FADA
:10126800E1E783A3D3E9002300F07EFE002840F0E5
:10127800C48081A3D3E900235046214600F056FEDE
:10128800002840F0E5807EA3D3E90023914D504625
:1012980005EBC605214600F0D7FBD5E9002300F091
:1012A80021FA00F06BFE054600F068FB76A3D3E94F
:1012B800002306460F4600F0C7FB02460B46504681
:1012C800214600F00DFA72A3D3E90023CDE900010D
:1012D8003046394600F0B8FB80468946DDE9000112
:1012E80042464B4600F0FCF982460C4652462346DD
:1012F8005046214600F0A8FB67A3D3E90023064621
:101308000F4600F0A1FB66A3D3E9002300F0E8F93B
:1013180032463B4600F098FB63A3D3E9002300F074
:10132800E1F932463B4600F08FFB61A3D3E9002385
:1013380000F0D6F932463B4600F086FB5EA3D3E9BF
:10134800002300F0CFF932463B4600F07DFB024611
:101358000B465046214600F0C3F906460F46504654
:10136800214632463B46002D54D000F06DFB3246F4
:1013780082468B463B4600204FF0804100F0B0F992
:1013880002460B465046594600F088FC02460B467A
:101398004046494600F0A4F9DDE9002300F0A0F931
:1013A8000B4602464A49002000F09AF96FF47F7311
:1013B8009D4252DA05F57A7501EB055100224FF08E
:1013C800B87300F041FB03B0BDE8F08F424B9A427E
:1013D8003FF659AF414BF4002344D3E9002300F012
:1013E8007FF93F4BC6F101051C44CDE90001D4E962
:1013F8000089AD1B72E7002578E71BA1D1E9000140
:1014080002460B4600F020FB0DE702460B4600F0B3
:1014180069F908E700F018FB002280468946304643
:1014280039464FF0804300F05BF902460B464046D0
:10143800494600F033FC5246234600F051F9024673
:101448000B460020224900F04BF903B0BDE8F08FAD
:101458000020014603B0BDE8F08F01EB055103B051
:10146800BDE8F08F054641E79C7500883CE4377E6F
:10147800EF39FAFE422E864051302DD5104987C0EB
:10148800FE822B654715F73F0000E0FE422EE63F3F
:10149800763C7935EF39EA3DD0A4BE726937663EAD
:1014A800F16BD2C541BDBB3E2CDE25AF6A56113F5C
:1014B80093BDBE166CC1663F3E5555555555C53F43
:1014C800412E8640FFFFEF7F422ED63FFFFF2F3E83
:1014D8000000F03F80780000B1A2F03FA078000043
:1014E800907800002DE9F041604E0C46B6460E405B
:1014F800764505460B4600F098800029024676DDC1
:101508005FEA215E00F08180AEF2FF3EC3F3130371
:101518001EF0010F43F480135ED100273C46D10F23
:1015280001EB43034FEA6E0E520016204FF40011F0
:1015380065189D424FEAD2764FEA420202DC5B1BF5
:101548006C180F44013806EB43034FEA5101EFD101
:10155800844620264FF000410AE0A34220D0D50F50
:10156800013E4FEA510105EB43034FEA420220D006
:101578009C420CEB0105F0DA002D05EB010C09DBB0
:10158800A0461B1B954288BF03F1FF334446521BFC
:101598000844E4E7BCF1000FF2DB04F10108F0E7CE
:1015A800954217D8002D05EB010C48DB984600231F
:1015B800ECE7134315D140087B1003F17F5303F583
:1015C8000013FA0703EB0E57394648BF40F00040B6
:1015D800BDE8F0811C46C2E7D10F01EB430352007E
:1015E8009BE7411C31D000F001031844E3E721F0E8
:1015F80000460643ECD079BB8E46D30AAEF1150EF1
:101608005205002BF9D0DC0222D400215B00D8025D
:1016180001F10101FAD5C1F10100C1F1200422FA5A
:1016280004F4234386448A406EE702460B4600F0E2
:101638000BFA2A46234600F055F8BDE8F081BCF1C4
:10164800000FAADAA0460023A0E701373046B3E727
:10165800202401200021E2E702460B4600F040F872
:1016680002460B4600F01AFBB2E700BF0000F07F0D
:1016780041F0004101F58010C00F704710B431F0FF
:10168800004408D0114BA1F580129A4208D80420D2
:101698005DF8044B704718B902205DF8044B704799
:1016A80001F1FF41094B01F5E0019942EFD9B4F589
:1016B800801F01D20320EBE7054B9C4201D000209C
:1016C800E6E7B0FA80F04009E2E700BFFFFFDF7FFE
:1016D8000000F07F0020704781F0004102E000BF69
:1016E80083F0004330B54FEA41044FEA430594EADA
:1016F800050F08BF90EA020F1FBF54EA000C55EA15
:10170800020C7FEA645C7FEA655C00F0E2804FEAE5
:101718005454D4EB5555B8BF6D420CDD2C4480EAC7
:10172800020281EA030382EA000083EA010180EAF7
:10173800020281EA0303362D88BF30BD11F0004F45
:101748004FEA01314FF4801C4CEA113102D040427B
:1017580061EB410113F0004F4FEA03334CEA1333B6
:1017680002D0524263EB430394EA050F00F0A780CE
:10177800A4F10104D5F1200E0DDB02FA0EFC22FAC9
:1017880005F2801841F1000103FA0EF2801843FABD
:1017980005F359410EE0A5F120050EF1200E012AAE
:1017A80003FA0EFC28BF4CF0020C43FA05F3C018EC
:1017B80051EBE37101F0004507D54FF0000EDCF165
:1017C800000C7EEB00006EEB0101B1F5801F1BD30E
:1017D800B1F5001F0CD349085FEA30004FEA3C0C12
:1017E80004F101044FEA445212F5800F80F09A8008
:1017F800BCF1004F08BF5FEA500C50F1000041EB0C
:10180800045141EA050130BD5FEA4C0C404141EB0F
:10181800010111F4801FA4F10104E9D191F0000F36
:1018280004BF01460020B1FA81F308BF2033A3F1B9
:101838000B03B3F120020CDA0C3208DD02F1140CB0
:10184800C2F10C0201FA0CF021FA02F10CE002F1EB
:101858001402D8BFC2F1200C01FA02F120FA0CFCE4
:10186800DCBF41EA0C019040E41AA2BF01EB04512D
:10187800294330BD6FEA04041F3C1CDA0C340EDC2B
:1018880004F11404C4F1200220FA04F001FA02F36E
:1018980040EA030021FA04F345EA030130BDC4F12C
:1018A8000C04C4F1200220FA02F001FA04F340EA21
:1018B8000300294630BD21FA04F0294630BD94F0D2
:1018C800000F83F4801306BF81F480110134013DB9
:1018D8004EE77FEA645C18BF7FEA655C29D094EA2A
:1018E800050F08BF90EA020F05D054EA000C04BFA8
:1018F8001946104630BD91EA030F1EBF0021002093
:1019080030BD5FEA545C05D14000494128BF41F031
:10191800004130BD14F580043CBF01F5801130BD95
:1019280001F0004545F0FE4141F470014FF0000020
:1019380030BD7FEA645C1ABF194610467FEA655CD1
:101948001CBF0B46024650EA013406BF52EA033573
:1019580091EA030F41F4002130BD00BF90F0000F61
:1019680004BF0021704730B54FF4806404F132049D
:101978004FF000054FF0000150E700BF90F0000F56
:1019880004BF0021704730B54FF4806404F132047D
:1019980010F0004548BF40424FF000013EE700BF4D
:1019A80042004FEAE2014FEA31014FEA02701FBFDD
:1019B80012F07F4393F07F4F81F06051704792F0AF
:1019C800000F14BF93F07F4F704730B54FF4607429
:1019D80001F0004521F0004120E700BF50EA010274
:1019E80008BF704730B54FF000050AE050EA010221
:1019F80008BF704730B511F0004502D5404261EB91
:101A080041014FF4806404F132045FEA915C3FF4D1
:101A1800DCAE4FF003025FEADC0C18BF03325FEA6A
:101A2800DC0C18BF033202EBDC02C2F1200300FA1F
:101A380003FC20FA02F001FA03FE40EA0E0021FA44
:101A480002F11444C1E600BF70B54FF0FF0C4CF42E
:101A5800E06C1CEA11541DBF1CEA135594EA0C0FE4
:101A680095EA0C0F00F0DEF82C4481EA030621EA1F
:101A78004C5123EA4C5350EA013518BF52EA03355A
:101A880041F4801143F4801338D0A0FB02CE4FF00C
:101A98000005E1FB02E506F00042E0FB03E54FF03C
:101AA8000006E1FB03569CF0000F18BF4EF0010E34
:101AB800A4F1FF04B6F5007F64F5407404D25FEA30
:101AC8004E0E6D4146EB060642EAC62141EA5551E3
:101AD8004FEAC52040EA5E504FEACE2EB4F1FD0C25
:101AE80088BFBCF5E06F1ED8BEF1004F08BF5FEAA3
:101AF800500E50F1000041EB045170BD06F0004655
:101B080046EA010140EA020081EA0301B4EB5C0401
:101B1800C2BFD4EB0C0541EA045170BD41F48011F9
:101B28004FF0000E013C00F3AB8014F1360FDEBF1E
:101B3800002001F0004170BDC4F10004203C35DAFA
:101B48000C341BDC04F11404C4F1200500FA05F37D
:101B580020FA04F001FA05F240EA020001F000421E
:101B680021F0004110EBD37021FA04F642EB060194
:101B78005EEA430E08BF20EAD37070BDC4F10C04BE
:101B8800C4F1200500FA04F320FA05F001FA04F282
:101B980040EA020001F0004110EBD37041F100016E
:101BA8005EEA430E08BF20EAD37070BDC4F1200579
:101BB80000FA05F24EEA020E20FA04F301FA05F2E1
:101BC80043EA020321FA04F001F0004121FA04F289
:101BD80020EA020000EBD3705EEA430E08BF20EA59
:101BE800D37070BD94F0000F0FD101F00046400093
:101BF80041EB010111F4801F08BF013CF7D041EA15
:101C0800060195F0000F18BF704703F00046520018
:101C180043EB030313F4801F08BF013DF7D043EAE9
:101C28000603704794EA0C0F0CEA135518BF95EA9F
:101C38000C0F0CD050EA410618BF52EA4306D1D126
:101C480081EA030101F000414FF0000070BD50EA45
:101C5800410606BF1046194652EA430619D094EACF
:101C68000C0F02D150EA013613D195EA0C0F05D1B9
:101C780052EA03361CBF104619460AD181EA03010D
:101C880001F0004141F0FE4141F470014FF00000C5
:101C980070BD41F0FE4141F4780170BD70B54FF060
:101CA800FF0C4CF4E06C1CEA11541DBF1CEA1355E0
:101CB80094EA0C0F95EA0C0F00F0A7F8A4EB0504C2
:101CC80081EA030E52EA03354FEA013100F08880B9
:101CD8004FEA03334FF0805545EA131343EA126382
:101CE8004FEA022245EA111545EA10654FEA002637
:101CF8000EF000419D4208BF964244F1FD0404F5F0
:101D0800407402D25B084FEA3202B61A65EB03054B
:101D18005B084FEA32024FF480104FF4002CB6EB08
:101D2800020E75EB030E22BFB61A754640EA0C0088
:101D38005B084FEA3202B6EB020E75EB030E22BFC8
:101D4800B61A754640EA5C005B084FEA3202B6EB09
:101D5800020E75EB030E22BFB61A754640EA9C00C8
:101D68005B084FEA3202B6EB020E75EB030E22BF98
:101D7800B61A754640EADC0055EA060E18D04FEA56
:101D8800051545EA16754FEA06164FEAC30343EAF6
:101D980052734FEAC2025FEA1C1CC0D111F4801FC3
:101DA8000BD141EA00014FF000004FF0004CB6E7BC
:101DB80011F4801F04BF01430020B4F1FD0C88BF5B
:101DC800BCF5E06F3FF6AFAEB5EB030C04BFB6EB66
:101DD800020C5FEA500C50F1000041EB045170BD59
:101DE8000EF0004E4EEA113114EB5C04C2BFD4EB86
:101DF8000C0541EA045170BD41F480114FF0000E0A
:101E0800013C90E645EA060E8DE60CEA135594EA85
:101E18000C0F08BF95EA0C0F3FF43BAF94EA0C0F88
:101E28000AD150EA01347FF434AF95EA0C0F7FF4FD
:101E380025AF104619462CE795EA0C0F06D152EA51
:101E480003353FF4FDAE1046194622E750EA410635
:101E580018BF52EA43067FF4C5AE50EA41047FF446
:101E68000DAF52EA43057FF4EBAE12E74FF0FF3CAB
:101E780006E000BF4FF0010C02E000BF4FF0010C7C
:101E88004DF804CD4FEA410C7FEA6C5C4FEA430CF5
:101E980018BF7FEA6C5C1BD001B050EA410C0CBF44
:101EA80052EA430C91EA030F02BF90EA020F0020A6
:101EB800704710F1000F91EA030F58BF994208BF0D
:101EC80090422CBFD8176FEAE37040F001007047CA
:101ED8004FEA410C7FEA6C5C02D150EA013C07D121
:101EE8004FEA430C7FEA6C5CD6D152EA033CD3D06C
:101EF8005DF8040B704700BF8446104662468C4666
:101F08001946634600E000BF01B5FFF7B7FF002898
:101F180048BF10F1000F01BD4DF808EDFFF7F4FFC1
:101F28000CBF012000205DF808FB00BF4DF808ED4C
:101F3800FFF7EAFF34BF012000205DF808FB00BF6F
:101F48004DF808EDFFF7E0FF94BF012000205DF891
:101F580008FB00BF4DF808EDFFF7CEFF94BF012046
:101F680000205DF808FB00BF4DF808EDFFF7C4FF3F
:101F780034BF012000205DF808FB00BF4FEA410292
:101F880012F5001215D211D56FF47873B3EB6252C3
:101F980012D94FEAC12343F0004343EA505311F0EA
:101FA800004F23FA02F018BF404270474FF000007C
:101FB800704750EA013005D111F0004008BF6FF0BA
:101FC800004070474FF00000704700BF4FEA4102E1
:101FD800B2F1E04324BFB3F5001CDCF1FE5C0DD97F
:101FE80001F0004C4FEAC0024CEA5070B2F1004FC9
:101FF80040EB830008BF20F00100704711F0804FCC
:1020080021D113F13872BCBF01F00040704741F490
:1020180080114FEA5252C2F11802C2F1200C10FA94
:102028000CF320FA02F018BF40F001004FEAC12378
:102038004FEAD32303FA0CFC40EA0C0023FA02F31C
:102048004FEA4303CCE77FEA625307D150EA0133F2
:102058001EBF4FF0FE4040F44000704701F00040C2
:1020680040F0FE4040F40000704700BF80F00040A0
:1020780002E000BF81F0004142001FBF5FEA410358
:1020880092EA030F7FEA226C7FEA236C6AD04FEA58
:102098001262D2EB1363C1BFD2184140484041409D
:1020A800B8BF5B42192B88BF704710F0004F40F44F
:1020B800000020F07F4018BF404211F0004F41F46B
:1020C800000121F07F4118BF494292EA030F3FD037
:1020D800A2F1010241FA03FC10EB0C00C3F120034A
:1020E80001FA03F100F0004302D5494260EB4000D9
:1020F800B0F5000F13D3B0F1807F06D340084FEA44
:10210800310102F10102FE2A51D2B1F1004F40EB38
:10211800C25008BF20F0010040EA030070474900A0
:1021280040EB000010F4000FA2F10102EDD1B0FA6B
:1021380080FCACF1080CB2EB0C0200FA0CF0AABF60
:1021480000EBC25052421843BCBFD04018437047FE
:1021580092F0000F81F4000106BF80F40000013204
:10216800013BB5E74FEA41037FEA226C18BF7FEADB
:10217800236C21D092EA030F04D092F0000F08BF1D
:102188000846704790EA010F1CBF0020704712F004
:102198007F4F04D1400028BF40F00040704712F143
:1021A80000723CBF00F50000704700F0004343F0A8
:1021B800FE4040F4000070477FEA226216BF0846DE
:1021C8007FEA23630146420206BF5FEA412390EAA1
:1021D800010F40F4800070474FF0000304E000BF97
:1021E80010F0004348BF40425FEA000C08BF704748
:1021F80043F0964301464FF000001CE050EA01020C
:1022080008BF70474FF000030AE000BF50EA010220
:1022180008BF704711F0004302D5404261EB41010D
:102228005FEA010C02BF84460146002043F0B64332
:1022380008BFA3F18053A3F50003BCFA8CF2083A57
:10224800A3EBC25310DB01FA02FC634400FA02FC60
:10225800C2F12002BCF1004F20FA02F243EB020067
:1022680008BF20F00100704702F1200201FA02FCC9
:10227800C2F1200250EA4C0021FA02F243EB0200BC
:1022880008BF20EADC7070474FF0FF0C1CEAD05200
:102298001EBF1CEAD15392EA0C0F93EA0C0F6FD0C1
:1022A8001A4480EA010C400218BF5FEA41211ED09F
:1022B8004FF0006343EA501043EA5111A0FB01318B
:1022C8000CF00040B1F5000F3EBF490041EAD37160
:1022D8005B0040EA010062F17F02FD2A1DD8B3F1DC
:1022E800004F40EBC25008BF20F00100704790F04B
:1022F800000F0CF0004C08BF49024CEA502040EA9D
:1023080051207F3AC2BFD2F1FF0340EAC250704762
:1023180040F400004FF00003013A5DDC12F1190FA0
:10232800DCBF00F000407047C2F10002410021FA12
:1023380002F1C2F1200200FA02FC5FEA310040F12A
:10234800000053EA4C0308BF20EADC70704792F0A3
:10235800000F00F0004C02BF400010F4000F013ADB
:10236800F9D040EA0C0093F0000F01F0004C02BFD6
:10237800490011F4000F013BF9D041EA0C018FE745
:102388000CEAD15392EA0C0F18BF93EA0C0F0AD04B
:1023980030F0004C18BF31F0004CD8D180EA010071
:1023A80000F00040704790F0000F17BF90F0004F0A
:1023B800084691F0000F91F0004F14D092EA0C0FEC
:1023C80001D142020FD193EA0C0F03D14B0218BF7F
:1023D800084608D180EA010000F0004040F0FE40C5
:1023E80040F40000704740F0FE4040F44000704761
:1023F8004FF0FF0C1CEAD0521EBF1CEAD15392EAE0
:102408000C0F93EA0C0F69D0A2EB030280EA010CCF
:1024180049024FEA402037D04FF0805343EA111168
:1024280043EA10130CF000408B4238BF5B0042F1C6
:102438007D024FF4000C8B4224BF5B1A40EA0C006B
:10244800B3EB510F24BFA3EB510340EA5C00B3EB9D
:10245800910F24BFA3EB910340EA9C00B3EBD10F8B
:1024680024BFA3EBD10340EADC001B0118BF5FEADD
:102478001C1CE0D1FD2A3FF650AF8B4240EBC25006
:1024880008BF20F0010070470CF0004C4CEA5020C7
:102498007F32C2BFD2F1FF0340EAC250704740F416
:1024A80000004FF00003013A37E792F0000F00F008
:1024B800004C02BF400010F4000F013AF9D040EA86
:1024C8000C0093F0000F01F0004C02BF490011F41A
:1024D800000F013BF9D041EA0C0195E70CEAD15312
:1024E80092EA0C0F08D142027FF47DAF93EA0C0FF9
:1024F8007FF470AF084676E793EA0C0F04D14B02DD
:102508003FF44CAF08466EE730F0004C18BF31F08E
:10251800004CCAD130F000427FF45CAF31F0004388
:102528007FF43CAF5FE700BF4FF0FF3C06E000BF21
:102538004FF0010C02E000BF4FF0010C4DF804CD44
:102548004FEA40024FEA41037FEA226C18BF7FEA54
:10255800236C11D001B052EA530C18BF90EA010F56
:1025680058BFB2EB030088BFC81738BF6FEAE170E5
:1025780018BF40F0010070477FEA226C02D15FEA81
:10258800402C05D17FEA236CE4D15FEA412CE1D0ED
:102598005DF8040B704700BF844608466146FFE7B4
:1025A8000FB5FFF7C9FF002848BF10F1000F0FBD96
:1025B8004DF808EDFFF7F4FF0CBF012000205DF88F
:1025C80008FB00BF4DF808EDFFF7EAFF34BF012014
:1025D80000205DF808FB00BF4DF808EDFFF7E0FFAD
:1025E80094BF012000205DF808FB00BF4DF808EDFE
:1025F800FFF7D2FF94BF012000205DF808FB00BF61
:102608004DF808EDFFF7C8FF34BF012000205DF842
:1026180008FB00BF014B1868704700BF700000201E
:1026280010B5431E0A44914204D011F8014B03F837
:10263800014FF8E710BD03460244934202D003F865
:10264800011BFAE770472DE9F0471E4688B0149F32
:10265800002BB8BF06F10043129927F02007B6BF38
:102668001E4600232D23462F1446109DDDF84CA04E
:102678000B7003D0452F03D1013501E0032300E09F
:1026880002238DE8280406AB039307AB0493224684
:10269800334601F021FE472F804602D1119BDB070C
:1026A80026D5462F08EB050911D198F80030302BB4
:1026B8000AD12046314600220023FFF72DFC18B925
:1026C800C5F10105CAF80050DAF8003099442046EF
:1026D800314600220023FFF71FFC08B1CDF81C90FB
:1026E800079B4B4504D25A1C079230221A70F7E711
:1026F8004046079B159AC8EB0303136008B0BDE872
:10270800F087034673B50029B8BF494203F8022B86
:10271800B4BF2D222B22092942701ADD0DF10704BE
:1027280026460A2291FBF2F502FB1511092D01F14B
:10273800300104F8011D2946F3DC3031651E04F828
:10274800011CB5421A460AD215F8012B03F8012BD1
:10275800F7E71A463024214402F8024B5970101A40
:1027680002B070BD2DE9F04F91B08B4615461E465C
:102778001A9F044602F03EFFD0F800A0504600F031
:1027880007FE00230E933B680990073323F00703E5
:1027980003F108029BF818803A60D3E90023CBE9DB
:1027A8001223DBE91201FEF769FF0128DBE91201B8
:1027B80019D100220023FFF7B9FB10B12D238BF8A4
:1027C8004330A04BA04FB8F1470F88BF1F460323E3
:1027D800CBF81030DBF8003023F00403CBF80030DE
:1027E8004FF00009A1E0FEF749FFDBF8003048B9D7
:1027F800964A974FB8F1470F88BF17460322CBF880
:102808001020E9E7DBF80420DBE91201571CCDE9C9
:102818000A0101D1062209E0B8F1670F02D0B8F128
:10282800470F05D1002A40F0C7810122CBF80420C8
:10283800DBF8042043F480638DE80C00CBF800300B
:102848000DF1330302930DAB03930EAB05930023F5
:102858000693CDF81080DDE90A232046FFF7F3FE42
:1028680008F0DF03472B07460AD10D9BD81C03DB72
:10287800DBF80420934237DDA8F102085FFA88F8F4
:10288800B8F1650F0D9915D8013942460BF1500082
:102898000D91FFF736FF0E9A81468318012ACBF86F
:1028A800103003DCDBF80020D10738D50133CBF832
:1028B800103034E0B8F1660F18D10029DBF8043085
:1028C80009DDCBF810101BB9DBF80020D20721D5A1
:1028D80001330B441CE01BB9DBF80020D00701D5FD
:1028E800023315E0012313E04FF067080D9B0E9AA1
:1028F800934207DBDBF80020CBF81030D10709D56D
:10290800013305E0002BD4BFC3F1020301231344B4
:10291800CBF810300D9B4FF00009CBF858309DF8DC
:10292800333013B12D238BF8433000962046594697
:102938000FAA2B4600F05CF9013002D14FF0FF30AE
:1029480052E1DBF800305A0505D4204629463A46BC
:10295800DBF8103008E1B8F1650F40F2D080DBE910
:10296800120100220023FFF7D7FA50B32046294668
:10297800384A0123B0470130E0D00E9B0D9A9A42A5
:1029880009DBDBF80030D80705D4DBF800309F07F7
:1029980000F1108107E1204629465246099BB047BD
:1029A8000130CBD000270E9B013B9F42EDDA204639
:1029B80029460BF11A020123B0470130BED0013776
:1029C800F1E70D9B002B29DC20462946214A0123EB
:1029D800B0470130B2D00D9B2BB90E9B1BB9DBF869
:1029E8000030D907D1D5204629465246099BB04721
:1029F8000130A3D04FF000080D9B20465B4298455C
:102A0800294608DA0BF11A020123B047013095D0A4
:102A180008F10108F0E73A460E9BA5E0DBF85820DC
:102A28000E9B9A42A8BF1A46002A914602DC4FF034
:102A380000081CE0204629463A464B46B04701307C
:102A4800F5D17BE7BC780000B8780000C4780000B6
:102A5800C0780000C8780000204629460BF11A0209
:102A68000123B04701303FF469AF08F10108DBF8F2
:102A78005830B9F1000FB4BF1A46C9EB03029045AC
:102A8800EADB07EB03080D9A0E9B9A4210DBDBF892
:102A98000030DA070CD40E9A1744C8EB07030D9FD1
:102AA800D21B9342A8BF1346002B1F4608DC0EE03A
:102AB800204629465246099BB0470130EBD13DE7F5
:102AC800204629464246B04701303FF437AF4FF021
:102AD80000080AE0204629460BF11A020123B047F4
:102AE80001303FF42BAF08F101080D9A0E9B002F1F
:102AF800A3EB0203A8BFDB1B9845EBDB45E70E9A67
:102B0800012A01DCDB0736D5204629463A4601234F
:102B1800B04701303FF412AF204629465246099B80
:102B2800B04701303FF40AAFDBE91201002200236D
:102B3800FFF7F2F9E8B90E9B204629467A1C013BBB
:102B48001DE0204629460BF11A020123B047013047
:102B58003FF4F4AE01370E9B013B9F42F1DB204668
:102B680029464B460BF15002B04701307FF40DAFB8
:102B7800E4E60027EFE7204629463A460123B04716
:102B88000130ECD1DAE6204629460BF1190201237F
:102B9800B04701303FF4D2AE0137DBF80C300F9A62
:102BA8009B1A9F42EFDBDBF80C000F9B9842B8BFE3
:102BB800184619E00027F0E743F480638DE80C001D
:102BC800CBF800300DF1330302930DAB03930EAB3A
:102BD800059300230693CDF810802046DDE90A23EB
:102BE800FFF731FD074640E611B0BDE8F08F00BFA2
:102BF8002DE9F84391461F468A680B6906469342B9
:102C0800B8BF1346C9F8003091F843200C46DDF8E8
:102C1800208012B10133C9F800302368990642BFF9
:102C2800D9F800300233C9F80030256815F00605D8
:102C38001CD094F843302268003318BF0123920651
:102C48001FD5E118302081F843005A1C94F845102C
:102C58002244023382F8431013E03046394604F127
:102C680019020123C047013007D00135E368D9F8BC
:102C780000209B1A9D42F0DBDBE74FF0FF30BDE8F8
:102C8800F8833046394604F14302C0470130F4D096
:102C98002268D9F80050E36802F00602042A08BF47
:102CA8005D1B2269A3680CBF25EAE57500259342E0
:102CB800C4BF9B1AED184FF00009A9450ADA30463F
:102CC800394604F11A020123C0470130D5D009F171
:102CD8000109F2E70020BDE8F88300002DE9FF4173
:102CE8000C461746227E98466E2A06460A9B01F134
:102CF800430100F0B08012D8632A23D00AD8002AF2
:102D080000F0BD80582A40F0CC8084F84520DFF8D8
:102D180004E257E0642A1ED0692A1CD0C1E0732A55
:102D280000F0B18009D86F2A2ED0702A40F0B980FF
:102D3800226842F0200222603FE0752A24D0782AD7
:102D48003BD0AEE01A6804F14205111D1960136802
:102D580084F84230A9E020681A6810F0800F02D089
:102D6800101D186008E010F0400F02F10400186010
:102D780002D0B2F9003000E01368002B3EDA2D22B1
:102D88005B4284F8432039E020681A6810F0800F0D
:102D980002D0101D186007E010F0400F02F1040087
:102DA800186001D0138800E01368227EDFF864E120
:102DB8006F2A0CBF08220A221CE07822DFF858E1AB
:102DC80084F845202268186812F0800F00F1040585
:102DD8001D6003D1550601D5038800E00368D007BC
:102DE80044BF42F0200222601BB9226822F0200270
:102DF80022601022002084F8430002E0DFF814E18A
:102E08000A226568002DA8BF2068A560A4BF20F02D
:102E18000400206003B965B10D46B3FBF2F002FB74
:102E280010331EF8033005F8013D03460028F4D19D
:102E380000E00D46082A0BD12368DA0708D5236974
:102E480062689A42DEBF302305F8013C05F1FF3580
:102E5800491B21612EE025681A6815F0800F60690A
:102E680003D0151D1D60136808E015F0400F02F12E
:102E780004051D60136801D0188000E01860002365
:102E880023610D4616E01A68111D196015680021A6
:102E98002846626802F0BAFB08B1401B60606368AC
:102EA80004E004F1420584F8422001232361002351
:102EB80084F84330CDF800803046214603AA3B46CB
:102EC800FFF796FE013002D14FF0FF301FE0304689
:102ED80039462A462369C0470130F5D023689B0745
:102EE80005D4E068039B9842B8BF18460FE0002558
:102EF800E368039A9B1A9D42F3DA3046394604F197
:102F080019020123C0470130DED00135F0E704B0D3
:102F1800BDE8F081CA780000DB7800002DE9F04FA9
:102F280099468B6815465A1EB2F5AE7F82BF6FF47C
:102F3800AE7203EB020C40F25D130F4688BF8B6044
:102F48000B684FF0000B43F4F06347F81C3B064650
:102F58000C46B8465A46DA4687B098BF4FF0000C80
:102F6800CDF80CB0CDF808B0CDF804B0A1680029B0
:102F780000F0EC802B681B78492B70D016D8392BC1
:102F88000DD8312B40D22D2B46D002D82B2B43D035
:102F9800DCE02E2B00F09280302B23D0D6E0452B9E
:102FA80000F09580462B77D0412B0CE0652B00F084
:102FB8008E800AD8542B75D002D84E2B34D0C5E059
:102FC800592B75D0612B46D0C0E06E2B2CD004D87D
:102FD800662B61D0692B42D0B8E0742B62D0792B74
:102FE80066D0B3E0206810F4807F0DD020F0800018
:102FF80020600AF1010ABCF1000F00F08A8001315B
:103008000CF1FF3CA16084E012EB0B0F40F09E80B6
:10301800216821F4C07105E02168080640F1968016
:1030280021F08001216070E06AB9BAF1000F0CD17B
:10303800216801F4E060B0F5E06F06D121F4F06199
:103048002160012261E0022A5ED0BBF1010F1ED08F
:10305800BBF1040F1AE0012A78D1022255E0BBF136
:10306800000F0ED1BAF1000F73D1216801F4E060AE
:10307800B0F5E06F71D121F4F06121604FF0010BE0
:1030880043E0BBF1030F02D0BBF1050F5ED10BF19A
:10309800010B5FFA8BFB38E0BBF1020F56D14FF002
:1030A800030B32E0BBF1060F50D14FF0070B2CE0B9
:1030B800BBF1070F4AD14FF0080B26E021688805BD
:1030C80044D521F420712160CDF804A01DE02168C9
:1030D80001F4A060B0F5806F04D0480536D5BAF188
:1030E800000F3AD0880558BF019821F4F06158BF05
:1030F800C0EB0A0041F4C0715CBF0290CDF80C80AF
:1031080021604FF0000A00E0032288F8003008F13F
:103118000108A368013BA3602369013323616B683D
:10312800013B002B6B6003DD2B6801332B601DE72F
:10313800D4F88031304629460592CDF810C098471A
:10314800DDF810C0059A00283FF410AFBAF1000F5F
:1031580003D0236823F480732360013A012A0ED830
:10316800B8450AD9D4F87C31304618F8011D2A46EA
:1031780098472369013B2361F2E70125AEE00BF193
:10318800FF33062B22D8BBF1020F12D9ABF1030B88
:103198005FFA8BFBCBEB080BD84517D0D4F87C3102
:1031A800304618F8011D2A4698472369013B2361D8
:1031B800F2E7B845E1D9D4F87C31304618F8011D5A
:1031C8002A4698472369013B2361F2E72368DA0519
:1031D8002CD55B050CD5B845CFD9D4F87C31304611
:1031E80018F8011D2A4698472369013B2361F2E735
:1031F80018F8011C2369652903F1FF3308F1FF3B27
:1032080023610DD045290BD0D4F87C3130462A46AD
:103218009847236918F8021C013BA8F1020B2361A7
:10322800D4F87C3130462A469847D846256815F0A8
:10323800100552D188F80050236803F4C063B3F531
:10324800806F05D1019BC3EB0A035A426BB916E0A4
:10325800029BA3B1039B2A46591C30460A2300F05F
:10326800F1FE029BDDF80C80C21A04F26F13984538
:1032780028BF04F5B77840461A4900F065F830468B
:103288003946002200F0C0F82268064612F0020F04
:103298000F46D9F8003003D01A1DC9F8002006E0FF
:1032A80012F0040F03F10402C9F8002003D01B68D0
:1032B800C3E900670DE0D3F80080FEF7DFF910B925
:1032C80000F03EF803E030463946FEF77FFEC8F8C6
:1032D8000000E3680133E36000E00025284607B0FA
:1032E800BDE8F08FEC7800000FB40A4B13B51C68EA
:1032F80024B1A36913B9204601F0E8FD05AB2046C7
:10330800A168049A019302F0A1FF02B0BDE8104041
:1033180004B070477000002038B5084B05461C689B
:1033280024B1A36913B9204601F0D0FD20462946EF
:10333800A268BDE8384003F091B800BF70000020D3
:10334800004870470000C07F0EB400B54FF402710A
:103358009CB0ADF814106FF00041049107914FF63E
:10336800FF711DABADF81610084953F8042B0290F5
:103378000690086802A9019302F04EFE029B002203
:103388001A701CB05DF804EB03B0704770000020A1
:10339800034613F8012B002AFBD1181A013870478D
:1033A80030B5036811F8014B01334CB11A78A2F11A
:1033B8004105192D98BF2032A242F3D0002030BD1C
:1033C8000360012030BD2DE9F0410F46904602F020
:1033D800F7FB04460D46B8F1000F11D0C7F30A53A6
:1033E800C3F16B03002B0BDD1B0503F17F55002494
:1033F80005F5401522462B46FEF726FBBDE8F08171
:1034080020462946BDE8F0812DE9F04F00239FB002
:103418001A9382460B46039115924FF000084FF01D
:1034280000091993199B1A780D2A05D8092A13D26D
:10343800002A00F0B78111E02B2A06D02D2A02D0ED
:10344800202A0BD108E0012200E0002209925A1C30
:1034580019925B7823B9A5E10133E2E700230993C8
:10346800199C2378302B5CD16378582B01D0782BAA
:103478004CD11AAB0093099B5046019319A9AE4A47
:103488001BAB01F0F6FD10F00706054600F0A58518
:10349800062E05D1013400231994099300F09DBD2F
:1034A8001A9A3AB11CA8352102F077FC50461A99AD
:1034B80002F0EFF81B9A062E21D8DFE806F0040D7B
:1034C80008171C0D04004FF00009C84617E0DDF886
:1034D8007080DDF8749012E01D9B02F2334223F4F1
:1034E8008013DDF8708043EA025908E0DFF84C9257
:1034F8004FF0000803E06FF000494FF0FF3829074C
:1035080040F16B8549F0004900F067BD199B5A1CD2
:1035180019925B78302BF9D0002B00F05E850123DF
:1035280000E000230026B34635460493199B079311
:10353800199C2778A7F13003DAB2092A0CD8082D8C
:103548004FF00A0204F10104D4BF02FB0B3B02FB5B
:10355800063601351994EBE7504602F04BF801683E
:103568005046059102F046F80068FFF711FF0599EB
:103578000246204603F001F828B100203B462C46BD
:103588000246074657E00590504602F033F80068B7
:10359800FFF7FEFE199B05991A1819921B5C002D5E
:1035A80041D12846302B05D1199B01305A1C19925C
:1035B8005B78F7E7A3F13102082A42D8199A0792F3
:1035C800024600200446303B00F1010125D00A44A0
:1035D80021460719B94211D0013101F1FF3EBEF170
:1035E800080F04DC4FF00A0E0EFB0BFBF2E7102964
:1035F800DCBF4FF00A0E0EFB06F6EBE72044082866
:1036080000F1010403DC0A2101FB0B3B04E0102C50
:10361800DCBF0A2101FB06360021199B581C1990B2
:103628005B78084602E02C4608460A46A3F13001BA
:103638000929C8D90127652B01D0452B64D16CB95C
:1036480004E0652B40F0D7840022012728B9049BA9
:10365800002B00F0A780044600E00024199B039388
:1036680001331993039B5B782B2B07D02D2B02D0AA
:103678004FF0000C09E04FF0010C01E04FF0000C96
:10368800039B02331993039B9B78A3F1300109290B
:1036980038D81946302904D1199B591C19915978E1
:1036A800F8E7A1F1310EBEF1080F0B462CD8A1F1B5
:1036B80030030593199B0693199B03F1010ECDF86E
:1036C80064E05B78A3F13001092908D805994FF027
:1036D8000A0E0EFB0131A1F130030593ECE70699C0
:1036E800C1EB0E0EBEF1080F44F61F6E04DC0599FF
:1036F8007145A8BF714600E07146BCF1000F04D0C7
:10370800494202E0039919910021002C54D1002864
:1037180040F06384049A002A40F05F84002F41D16E
:103728004E2B20D002DC492B0AD03BE0692B07D076
:103738006E2B18D036E000BF307900000000F07F13
:1037480019A8AA49FFF72CFE60B3199B19A8013BD9
:10375800A7491993FFF724FE10B9199B0133199350
:10376800DFF8A4921AE019A8A249FFF719FEC8B118
:10377800199B1B78282B0FD119A89F491CAA01F067
:10378800AFFE052808D11D9BDDF8708043F0FF4986
:1037980049F4E00900F021BCDFF870924FF000080E
:1037A80000F01BBC039B1993159B002B00F0208491
:1037B8000023099300F013BC8B1A06932B46002DA7
:1037C80008BF23465846102C25460393A8BF10254A
:1037D800FEF7C4F8092D8046894613DD874B03EBB5
:1037E800C50353E91223FEF72FF980463046894670
:1037F800FEF7B4F802460B4640464946FDF772FF0D
:10380800804689460F2C36DC069B002B00F0E583AA
:1038180024DD162B07DC794A02EBC302D2E900014A
:103828004B46424615E0069AC4F125039A4222DC2B
:10383800724DC4F10F0405EBC403D3E900014246FD
:103848004B46FEF701F9069B1C1B05EBC405D5E9A1
:103858000023FEF7F9F880468946BEE3069B13F17C
:10386800160F08DB654A4046A2EBC30249460CCA5C
:10387800FEF714FAEFE7069B651B1D44002D58DD83
:1038880015F00F020AD05D4B03EBC203D3E9000128
:1038980042464B46FEF7D8F88046894635F00F0574
:1038A80000F0BA80B5F59A7F0FDD4FF0000BCDF828
:1038B8000CB0CDF81CB0CDF814B02223CAF80030F3
:1038C800DFF844914FF0000883E14946DFF8409162
:1038D80040464E462D110027012D0ADDEA0703D583
:1038E800D9E90023FEF7B0F801376D1009F108098E
:1038F800F2E78046A1F1547906EBC7064246D6E9BD
:1039080000014B46FEF7A0F821F0004389460A461D
:103918001B0D3B491B058B428046C6D8A1F580117B
:103928008B4286BFDFF8EC904FF0FF3802F15479F4
:1039380072E071D06D4215F00F020AD02F4B40464D
:1039480003EBC2034946D3E90023FEF7A7F98046F3
:1039580089462D1160D01F2D08DD4FF0000BCDF8E2
:103968000CB0CDF81CB0CDF814B02BE14046494658
:1039780015F0100F0CBF00236A23224E0493002D6C
:1039880008DDEB0703D5D6E90023FEF75DF86D10D7
:103998000836F4E7049B80468946EBB1C1F30A5325
:1039A800C3F16B03002B0A4616DD1F2B0EDD342BEB
:1039B800DEBF203B4FF0FF3101FA03F34FF0000860
:1039C800CCBF4FF05C7903EA020905E04FF0FF3203
:1039D80002FA03F303EA000840464946002200239E
:1039E800FEF79AFA0028B8D118E000BFBD780000A9
:1039F800487A0000C5780000F4780000C07A00001A
:103A08000000A07C087900000000F07F0000F8FFAB
:103A1800887B0000FFFFEF7F00230493CDF800B000
:103A280050460799039A234601F088FE079000281C
:103A38003FF43BAF069A069B002AC3F100034FF000
:103A4800000BA8BF00230E93CDF80CB0079B50467F
:103A5800596801F0E9FD059000283FF42EAF079B57
:103A68000C301A69079B023203F10C019200FEF731
:103A7800D7FD1BAB00931CAB0193504642464B4607
:103A8800CDE90A8902F00FF91A9000283FF415AF22
:103A98005046012101F0DFFE039000283FF40DAFEE
:103AA800069B049923EAE3771B9B1C9C002BAABF67
:103AB8000E9AFA1AD618A3EB010323446FF47F7108
:103AC800ACBF3A460E9E8B42C4F1360480F2868023
:103AD800C91A1F29A4EB0104C8BFB3494FF001005C
:103AE800D5BF00FA01F3C91A149300FA01F3D9BF3C
:103AF80000230F930F9314903519049BB542144477
:103B08001C442B46A8BF3346A342A8BF2346002B1C
:103B1800C2BFED1AE41AF61A0E9B002B63D1002DD2
:103B28007BDC002F40F08380002C00F38A80002E7D
:103B380000F3918050461A99059A01F0E2FF8346F6
:103B480000283FF4BAAEC3680024C4600399089300
:103B580001F0BBFFA04280F28D80089B002B40F053
:103B68001582B8F1000F40F01182C9F31303002B3E
:103B780040F00C8229F000431B0D1B05B3F1D66FF2
:103B880040F20482DBF81430002B6ED05946012233
:103B9800504601F047FF0399834601F096FF00283D
:103BA80040F3F48129F00043049A1B0D1B05002AF9
:103BB80000F08F80B3F1D66F00F38B80B3F15C7F98
:103BC80000F3E68122234FF000084FF00009CAF8FD
:103BD8000030079B002B40F0EC81FEE100230F939F
:103BE8000123149388E71A465046039901F0CCFE46
:103BF8000390034600283FF460AE504619461A9ACF
:103C080001F032FE089000283FF457AE50461A994A
:103C180001F03FFD089B1A9381E750461A992A46FE
:103C280001F000FF1A9000287FF47BAF45E650466C
:103C380005993A4601F0A8FE059000287FF474AF74
:103C48003BE650460599224601F0ECFE0590002817
:103C58007FF46DAF31E650460399324601F0E2FE3B
:103C6800039000287FF466AF27E6DBF81030012BBD
:103C78008CDC8BE162D1089AC9F3130322B34B4958
:103C88004A468B422ED1049B414663B1484B1340B0
:103C9800B3F1D46F07D81B0DC3F16B034FF0FF309E
:103CA80000FA03F301E04FF0FF3399421AD1414B78
:103CB8009A4202D101313FF400AE3D4B4FF000086B
:103CC800134003F5801961E163B9B8F1000F09D118
:103CD80068E7A3F580136FEA13594FF0FF386FEACE
:103CE800095953E10F9B13B113EA090F02E0149B22
:103CF80013EA080F00F04A81089B40464946049A97
:103D080053B1FFF760FB02460B46DDE90A01FDF7F8
:103D1800E9FC8046894639E1FFF755FB02460B4628
:103D2800DDE90A01FDF7DCFC002200238046894614
:103D3800FEF7F2F800287FF445AF27E158460399CB
:103D480002F003F800224FF0804306460F46FEF7C4
:103D5800F7F800283FD0089B13B10026164F10E053
:103D6800B8F1000F03D1C9F313033BB90BE0B8F165
:103D7800010F03D1B9F1000F3FF424AF0F4F002614
:103D880000240D4D3CE03046394600220A4BFEF730
:103D9800CDF8B8B9304639460022094BFDF754FE34
:103DA80004460D4610E000BFE3FBFFFFFFFF0F00D6
:103DB8000000F07FFFFFEF7F0000F03F0000F0BF42
:103DC8000000E03F089C9A4D05F1004316941793B4
:103DD800DDE9166714E0964B304639460022FDF7B8
:103DE80033FE089B04460D4623B901F100431090A9
:103DF800119303E002460B46CDE91023DDE9106775
:103E080029F0004C4FEA1C5C8A4B4FEA0C5C9C453D
:103E180031D1DDE90A23A9F1547940464946CDF864
:103E28003CC0CDE90C2301F0CBFE02460B463046E0
:103E38003946FDF709FE02460B4640464946FDF75E
:103E480051FC21F000431B0D7B4A1B059342804621
:103E5800DDF83CC00CD9794B0D9A9A4203D10C9BE2
:103E680001333FF42AADDFF8D4914FF0FF387CE0FE
:103E780001F1547944E0049B63B3BCF1D46F29D8B1
:103E880063A3D3E9002320462946CDF83CC0FEF7BA
:103E980057F8DDF83CC0C8B12946204602F0F4FDC9
:103EA800002808BF0120FDF759FD089B04460D4670
:103EB800DDF83CC023B901F100431290139303E0ED
:103EC80002460B46CDE91223DDE9126707F1D663F6
:103ED800CCEB0307DDE90A01CDF83CC001F070FE28
:103EE80002460B4630463946FDF7AEFD02460B4604
:103EF800DDE90A01FDF7F6FB80468946DDF83CC09E
:103F0800049B4E468BBB29F000431B0D1B059C45AB
:103F18002BD129462046FEF731F8FDF72FFD0B4639
:103F2800024629462046FDF7DBFB089B04460D4662
:103F38002BB9B8F1000F02D1C9F313067EB136A32D
:103F4800D3E9002320462946FDF7F0FF88BB34A3B8
:103F5800D3E9002320462946FEF706F804E032A3F9
:103F6800D3E90023FDF7E2FF18BB50461A9901F088
:103F780090FB5046059901F08CFB5046039901F0DF
:103F880088FB5046594601F084FB5FE5049B83B1EA
:103F98002B4B40460D9300230C934946DDE90C2337
:103FA800FDF752FD8046894619B910B92223CAF88F
:103FB800003050461A9901F06CFB5046059901F003
:103FC80068FB5046039901F064FB5046079901F0DD
:103FD80060FB5046594601F05CFB159B13B1199BD9
:103FE800159A1360099B1BB1424609F1004307E08B
:103FF80042464B4604E0002422460127FFF71DBB3A
:10400800104619461FB0BDE8F08F00BFAFF300801F
:104018000000C0FFFFFFDF419535A094FFFFDF3FA1
:1040280035E5AF350000E03F9535A094FFFFCF3F61
:104038000000E03F0000E07FFFFF9F7CFFFFEF7F75
:10404800000050392DE9F0470F46404CD4F8009055
:104058003D4615F801EB09EB0E04667806F00804F6
:1040680004F0FF060CB12F46F2E774462D2C03D15D
:10407800BD1C7C78012603E02B2C04BF7C78BD1C7A
:1040880013B1102B0AD15AE0302C56D12C7804F0F9
:10409800DF04582C4CD16C7810230235002E14BF45
:1040A8004FF000486FF00048B8FBF3FA0027BE460F
:1040B80003FB1A8809EB040C9CF801C01CF0040FE0
:1040C80001D0303C0BE01CF0030C1BD0BCF1010FFD
:1040D8000CBF4FF0370C4FF0570CCCEB04049C424C
:1040E80010DAB7F1FF3F0AD0D64506D801D14445CA
:1040F80003DC03FB0E4E012701E04FF0FF3715F8F4
:10410800014BD7E77C1C73460AD1002E4FF02201E1
:1041180014BF4FF000436FF0004301602AB911E06B
:104128000EB1CEF100036AB107B1691E116009E052
:104138003024002BB2D10823B0E70A23AEE7302C95
:10414800ACD1A3E71846BDE8F08700BF7400002093
:1041580030B5141E9BB0054604DA8B2303604FF07C
:10416800FF301CE04FF40272ADF80C200CBF224661
:1041780004F1FF32029205924FF6FF72009104910A
:10418800ADF80E2069461A461E9B01F045FF431CF8
:10419800BCBF8B232B6014B1009B00221A701BB08C
:1041A80030BD000073B506460D4614460093044B17
:1041B800314618682A462346FFF7CAFF02B070BD89
:1041C800700000202DE9F74F03690C698046A3426F
:1041D8007EDB013C01F114074FEA840E00F114065E
:1041E80006EB0E0357F82450019356F82430013596
:1041F800B3FBF5F507EB0E09BDB34FF0000A3846DF
:10420800B446D34650F8043B9AB21B0C02FB05A2F5
:104218006B4303EB124392B2C2EB0B0BBCF80020CA
:104228004FEA134A5A441FFA83FBDCF8003048452A
:10423800CBEB134303EB224392B242EA03424FEA29
:10424800234B4CF8042BDDD956F80E306BB9019B83
:10425800043BB3421A4602D8C8F8104005E0126879
:10426800043B002AF8D1013CF3E7404601F02DFC5D
:1042780000282BDB304601354FF0000E57F8042B91
:10428800036891B2C1EB0E0E120C99B27144C2EBE5
:10429800134303EB214389B24FEA234E4F4541EACA
:1042A800034340F8043BE9D956F8242006EB84037D
:1042B80062B9043BB3421A4602D8C8F8104005E078
:1042C8001268043B002AF8D1013CF3E7284600E0D5
:1042D800002003B0BDE8F08F2DE9F04F456A95B096
:1042E8008246219CCDE9022345B9102001F086F9C8
:1042F800CAF82400456085600560C560DAF8243096
:10430800196859B15A68012393404A608B60504636
:1043180001F0BFF9DAF8243000221A60039BA24AA0
:10432800002BBDBF01232360039B0023BCBF23F0E8
:1043380000430393039FA8BF236027F000431B0D8E
:104348001B0593421DD142F20F73209A1360029B02
:1043580043B9964A964BC7F31300002814BF184672
:10436800104600E09248229B002B00F06985C37834
:1043780013B100F1080300E0C31C229A136000F097
:104388005FBDDDE902450022204629460023FDF7EE
:10439800C3FD804658B1209A01231360229B002B4D
:1043A80000F03C8583481860013800F049BD13AB24
:1043B800009312AB0193504622462B4601F073FC42
:1043C800C7F30A5607905EB1C5F3130343F07F5154
:1043D800204641F44011A6F2FF36CDF844801DE096
:1043E800139B129E1E446FF482639E42A1BF029AE1
:1043F80006F2124322FA03F06F4BB7BF6F4B9B1BB9
:10440800029A9B1BAABF9F4002FA03F03843FDF7AC
:10441800A5FA0123A1F1F871013E11930022684B1E
:10442800FDF75EF95AA3D3E90023FDF70DFB5AA364
:10443800D3E90023FDF756F9044630460D46FDF74B
:104448009DFA57A3D3E90023FDF7FEFA02460B466F
:1044580020462946FDF746F904460D46FDF78EFD30
:1044680029468346002220460023FDF75FFD58B108
:104478005846FDF783FA02460B4620462946FDF7C3
:104488004BFD08B90BF1FF3BBBF1160F0DD84D4B97
:1044980003EBCB03D3E90001DDE90223FDF764FD5B
:1044A80030B10BF1FF3B002300E00123109300E043
:1044B8001090129B9E1B731E0A9345BF5B42099383
:1044C800002300234CBF0A930993BBF1000F07DBBD
:1044D8000A9BCDF834B05B440A9300230B9308E0A1
:1044E800099BCBEB03030993CBF100030B93002348
:1044F8000D931E9B092B29D8052BC4BF043B1E9383
:104508001E9BC8BF0025A3F10203D8BF0125032BBA
:1045180021D8DFE803F0020E0410002300E0012395
:104528000C931F9B002B20DC0123069305931A464E
:1045380019E0002300E001230C931F9B5B440693C2
:104548000133012B0593B8BF012311E00125002396
:104558001E930C9501E001230C934FF0FF33069353
:104568000593002212231F9202E01F9B06930593D6
:10457800DAF8244000226260042101F114029A4210
:1045880022D86268490001326260F6E7AFF3008022
:1045980061436F63A787D23FB3C8608B288AC63F41
:1045A800FB799F501344D33F0000F07F457A000009
:1045B8004E7A0000C97800000EFCFFFFEEFBFFFFFB
:1045C8000000F83FC07A00005046616801F02CF8FE
:1045D800DAF8243020601B680893059B0E2B00F244
:1045E8004781002D00F04481DDE90223BBF1000F73
:1045F800CDE90E2331DDB14A0BF00F034FEA2B163C
:1046080002EBC303F006D3E900450CD5DDE90E0142
:10461800AB4B06F00F06D3E90823FDF73FFB032752
:10462800CDE9020100E00227DFF8948276B1F107B4
:1046380008D5D8E9002320462946FDF705FA04469F
:104648000D460137761008F10808EFE7DDE90201A9
:1046580022462B46FDF722FB1BE0CBF10004DCB120
:10466800DDE90E01954B04F00F0203EBC203D3E919
:104678000023FDF7E9F9924D241102274CB1E20716
:1046880004D5D5E900230137FDF7DEF964100835B4
:10469800F4E7CDE9020100E00227109BDBB1DDE978
:1046A8000245002220462946864BFDF73FFC90B183
:1046B800059B83B1069B002B40F3D68029462046F4
:1046C8000022814BFDF7C0F90BF1FF36CDE902015D
:1046D8000137069D01E05E46059D3846DDE9028901
:1046E800FDF74CF942464B46FDF7AEF9774B0022F1
:1046F800FCF7F8FFCDE90201039BA3F15074039482
:10470800CDB9404649460022714BFCF7E9FF029AB1
:10471800234680468946FDF727FC002840F0408262
:1047280040464946029A04F10043FDF7FFFB002882
:1047380040F0308298E0614B0C996A1E03EBC2038B
:10474800002947D0D3E9002300206249FDF7A6FAE3
:10475800DDE90223FCF7C4FFCDE90201089C4946C4
:104768004046FDF70BFC0746FDF708F902460B46E5
:1047780040464946FCF7B4FFDDE90223303704F828
:10478800017B80468946FDF7D1FB002840F037833E
:1047980042464B4600204B49FCF7A2FFDDE90223C5
:1047A800FDF7C4FB002840F0D080089BE31AAB4219
:1047B8005ADADDE902010022434BFDF745F90022F0
:1047C800CDE90201404B40464946FDF73DF9804698
:1047D8008946C4E7D3E90001DDE90223FDF734F98E
:1047E800089BCDE902015C191D4649464046FDF784
:1047F800C5FB0746FDF7C2F802460B464046494648
:10480800FCF76EFF303705F8017BA54280468946E4
:1048180023D100222F4BDDE90201FCF763FF02469A
:104828000B4640464946FDF79FFB002840F08D8027
:10483800DDE9022300202749FCF752FF02460B4618
:1048480040464946FDF772FB70B114F8013C621E00
:10485800302B40F0D4821446F7E700221A4BFDF7BC
:10486800F3F880468946C0E7DDE90E23CDE9022347
:10487800139B002BC0F28A80BBF10E0F00F38680D9
:104888000E4B03EBCB03D3E900671F9B002B23DA06
:10489800059B002B20DC40F07C81304600220C4B2D
:1048A8003946FDF7D1F8DDE90223FDF753FB059DF5
:1048B8002E46002840F06F8174E100BFC07A0000E6
:1048C800887B00000000F03F0000244000001C40EE
:1048D800000014400000E03F089CDDE902893246F0
:1048E8003B4640464946FDF7D9F9FDF747FB0546E3
:1048F800FDF744F832463B46FDF7A6F80B4602465C
:1049080049464046FCF7ECFE05F1300E089B04F8DA
:1049180001EBC3EB040E059B9E452AD102460B46CC
:10492800FCF7E0FE32463B4680468946FDF71CFB15
:1049380070B94046494632463B46FDF7EDFA002835
:1049480000F05E82EB0703D45AE2B34600E01C464F
:1049580014F8012C631E392A07D1089A9342F6D11C
:104968003023137013460BF1010B1A7801321A70B9
:1049780046E20022A34BFDF767F800220023804699
:104988008946FDF7C9FA0028A9D039E20C9A002A0D
:1049980032D01E9A012A0ADC119A12B103F233436B
:1049A80002E0129BC3F136030B9D099C18E0059B9E
:1049B8005D1E0B9BAB42B7BF0B9B5D1BEA1A0D9BA1
:1049C800BEBF0B959B180D93059BB8BF0025002B08
:1049D800B9BF099B059A099C059BBCBF9C1A00237B
:1049E800099A50461A4409920A9A01211A440A92CD
:1049F80000F031FF064602E00B9D099C0C9E64B155
:104A08000A9B002B09DDA342A8BF2346099AE41A92
:104A1800D21A09920A9AD31A0A930B9B002B20DD0B
:104A28000C9BC3B1002D10DD31462A46504600F0DC
:104A3800ABFF0646079A3146504600F015FF074679
:104A48000799504600F025FE07970B9B5A1B08D084
:104A58005046079902E0504607990B9A00F094FFD8
:104A680007905046012100F0F6FE0D9B0546002BED
:104A78000ADD29461A46504600F086FF1E9B054669
:104A8800012B04DD00271BE01E9B012B13DC029B7E
:104A98008BB9039BC3F313037BB9039B23F0004734
:104AA8003F0D3F0557B1099B0127013309930A9B25
:104AB80001330A9302E0002700E0029F0D9B43B1F7
:104AC8002B6905EB8303186900F078FEC0F120001C
:104AD80000E001200A9B184410F01F0008D0C0F124
:104AE8002003042B02DDC0F11C0002E008D01846A8
:104AF8001C30099B0444034409930A9B03440A930A
:104B0800099B002B05DD504607991A4600F08AFFDD
:104B180007900A9B002B05DD294650461A4600F0EF
:104B280081FF0546109BEBB10798294600F0CDFFA1
:104B3800002817DA0023504607990A2200F0C0FD22
:104B48000C9B0BF1FF3B0790002B00F06B8131466B
:104B5800002350460A2200F0B3FD069B0646002BB0
:104B680033DC68E1059B002B26DC1E9B022B23DD32
:104B7800059B0693069B73B929460522504600F00B
:104B88009FFD05460798294600F09FFF002809DC8D
:104B980001E000252E461F9B089C6FEA030B08E0E6
:104BA800B3462E46089B089A5C1C312313700BF100
:104BB800010BB14600260FE10C9B23B9059B069318
:104BC800089F079CC9E0059B0693002C05DD31462C
:104BD8005046224600F026FF0646AFB1716850469F
:104BE80000F022FD0446326906F10C0102329200FF
:104BF8000C30FDF715FD50462146012200F012FF4A
:104C0800814602E000002440B146089F079C2946DF
:104C18002046FFF7D7FA3146099000F130082046C0
:104C280000F053FF4A4605902946504600F069FFB8
:104C3800C26803463AB919462046079300F045FF73
:104C4800079B024600E0012250461946079200F0F1
:104C580020FD079A92B91E9B83B9029B03F00103BA
:104C680063B9B8F1390F3B4607943ED0059B7C1CCD
:104C7800002BC4BF099B03F131083DE0059B002BC5
:104C880004DA002AC446079408DC21E024D11E9BDC
:104C980013BB029B03F00103F3B9F2E7214601229B
:104CA80050460597CDF8088000F0BCFE29460790CD
:104CB80000F00BFF0028DDF808C0059B03DC07D1D6
:104CC80018F0010F04D0B8F1390F0ED008F1010C1B
:104CD8007C1C87F800C07FE0002A07F101020EDD86
:104CE800B8F1390F3B46079403D1392201371A70BE
:104CF80057E0144608F1010887F800806CE0089B2B
:104D08001746D31A02F8018C069A93423AD02146E4
:104D18000A220023504600F0D3FC4E450446314693
:104D280050464FF00A024FF0000304D100F0C8FCCF
:104D3800064681466BE700F0C3FC494606460A2250
:104D48005046002300F0BCFC814660E721465046EF
:104D58000A22002300F0B4FC044620462946FFF747
:104D680031FA089B00F1300807F8018B069AFB1A04
:104D78009342EBDB089BB146012AACBF9B18013379
:104D88001F46002621460122504600F04BFE2946C8
:104D9800079000F09AFE002803DC15D118F0010FE7
:104DA80012D03C4614F8013C621E392B09D1089BED
:104DB8009A4204D10BF1010B3123089A02E0144600
:104DC800F0E70133137007E03C4614F8013C621E1B
:104DD800302B01D11446F8E75046294600F059FC1B
:104DE800B9F1000F0CD02EB14E4503D050463146D4
:104DF80000F04FFC5046494600F04BFC00E0B3463B
:104E08005046079900F045FC0023209A23700BF1C7
:104E180001031360229B1BB11C6001E00A480FE0EC
:104E280008980DE0069B002B3FF7CAAE1E9B022B8D
:104E38003FF7A0AEC4E61E9B022B3FF79BAEC4E62D
:104E480015B0BDE8F08F00BFC8780000014900F038
:104E5800A7B800BF8168000010B5044600230360AE
:104E68004360836081814366C281036143618361DA
:104E780019465C300822FDF7DEFB054B24626362AD
:104E8800044BA362044BE362044B236310BD00BFD1
:104E9800FD6400001F650000576500007B65000089
:104EA80070B568234D1E5D430E4605F1740101F08F
:104EB80003F8044640B1002180E842000C30A060AD
:104EC80005F16802FDF7B7FB204670BD836910B590
:104ED800044633BB8364C3640365124B124A1B68E0
:104EE8008262984204BF0123836100F01FF860606A
:104EF800204600F01BF8A060204600F017F80421B7
:104F0800E06000226068FFF7A7FFA068092101227E
:104F1800FFF7A2FFE06812210222FFF79DFF01239D
:104F2800A36110BDB4780000554E0000F8B51B4BC6
:104F380007461E68B36913B93046FFF7C7FF4836FE
:104F4800B4687368013B04D4B4F90C5075B1683483
:104F5800F8E733682BB938460421FFF7A1FF306022
:104F680008B13668ECE70C233B60F8BD4FF6FF73D9
:104F7800E3810123A38165662560A56065602561DD
:104F88006561A56104F15C0029460822FDF753FB21
:104F98006563A563A564E5642046F8BDB4780000A0
:104FA8002DE9F8438046894600F14804002694B16B
:104FB800A5686768013F0CD4AB89012B07D9B5F9FF
:104FC8000E30013303D040462946C84706436835AA
:104FD800F0E72468EBE73046BDE8F883F0B50669EA
:104FE8004B11B34200F1140527DA11F01F0105EB4C
:104FF800860605EB830201D1294616E0141D55F8F3
:1050080023202B46C1F1200ECA40B44209D227689A
:1050180007FA0EF73A4343F8042B54F8042BCA4016
:10502800F3E71A6052B1043308E0B2420B4605D2E6
:1050380052F8043B41F8043BF7E72B465B1B9B10F7
:10504800036103B94361F0BDA0F13003092B01D816
:1050580020380AE0A0F16103052B01D8473804E0A5
:10506800A0F14103052B02D82738C0B270470020B1
:1050780070472DE9F04F89B08A4691460493019014
:1050880000F0B8FA0368002618460293FEF780F984
:10509800029B0090034413F8013C0593DAF80030B2
:1050A8000233984613F8010B302801D10136F8E78E
:1050B800FFF7CAFF0446E8B940460299009A01F092
:1050C8005CFA002837D1009B18F8030008EB0307A7
:1050D800FFF7BAFF88B33B4618789846302803F1A3
:1050E8000103F9D0FFF7B0FFB0FA80F53C466D092F
:1050F800012601E000252C46C3465F4638780BF1AF
:10510800010BFFF7A1FF0028F7D138460299009A52
:1051180001F033FA58B95CB9009BFC18A3465F4606
:1051280038780BF1010BFFF78FFF0028F7D134B166
:10513800E41BA40003E0474600E0044601253B7851
:10514800502B01D0702B30D17B782B2B06D02D2BF8
:1051580002D07A1C002303E0012300E00023BA1CDC
:10516800107806930392FFF76FFF411EC9B2182902
:10517800039A069B19D8A0F1100B12F8010F069399
:1051880003920792FFF760FF411EC9B21829039ADC
:10519800069B05D80A2101FB0B0BABF1100BECE7C2
:1051A8000BB1CBF1000B5C4400E03A46CAF8002092
:1051B80025B1002E14BF002006207CE12946C8EB4B
:1051C8000703013B072B02DD01315B10FAE7019869
:1051D80000F02AFA4FF0000A00F1140B05465E466B
:1051E800D446474537D97B1E0393059A17F8013CE7
:1051F800934209D0BCF1200F1AD1C6F800A04FF095
:10520800000A0436D44613E0009B039AC3F1010355
:1052180013444345EED318460299009ACDF81CC0B2
:10522800069301F0AAF9069BDDF81CC088B1E1E7F6
:1052380017F8010CCDF818C0FFF706FFDDF818C005
:1052480000F00F0000FA0CF0039B4AEA000A0CF188
:10525800040C1F46C5E746F804ABCBEB0606B010B6
:1052680028614701504600F0A9FAD9F80060381AB9
:10527800B04226DD871B3946284600F0A8FDC8B194
:105288007B1E5A1103F01F014FF001085BF8222022
:1052980008FA01F111420ED0434502DC4FF0020832
:1052A80009E02846B91E00F092FD0028F6D04FF01C
:1052B800030800E0804628463946FFF78FFE3C4445
:1052C8000CE009DA371A294601983A4600F0AAFB99
:1052D8000546E41B00F1140B4FF00008D9F808301C
:1052E8009C4208DD0198294600F0D3F9129A002360
:1052F8001360A320DFE0D9F80400844253DA041BCA
:10530800B4422EDBD9F80C30022B1AD0032B1CD058
:10531800012B1DD1B4421BD1012E0BDCD9F804306E
:10532800049A6220136001232B61CBF80030129B92
:105338001D60C0E02846711E00F049FD0028EDD12F
:1053480006E0139B002BE9D002E0139B002BE5D16C
:105358000198294600F09DF9129A00231360502005
:10536800A9E0671EB8F1000F07D1002F07DD284616
:10537800394600F02CFD804601E04FF001087A1113
:105388005BF8222007F01F070123BB401342214688
:10539800284618BF48F00208361BFFF71FFE0227F1
:1053A800D9F8044000E00127B8F1000F7ED0D9F801
:1053B8000C30022B0ED0032B10D0012B74D118F017
:1053C800020F71D0DBF8000048EA000818F0010F5E
:1053D80007D169E0139BC3F101031393139B002BBF
:1053E80062D0D5F810A005F114034FEA8A0803EB40
:1053F80008011A68501C02D001321A6021E000220C
:1054080043F8042B8B42F4D3AB689A4512DB6968E6
:105418000198013100F008F983462A6905F10C0169
:10542800023292000C30FDF7FBF82946019800F093
:1054380030F95D462B695A1C2A6105EB830301226A
:105448005A61022F05F1140210D1D9F80030013B3E
:105458009E4226D17111012306F01F0652F8212021
:10546800B34013420CBF022701271AE02B695345AA
:105478000ADD28460121FFF7B1FDD9F808300134CB
:105488009C423FF72FAF0BE016F01F0608D0904460
:1054980058F8040C00F092F9C6F12006B042E8DB97
:1054A800012747F0200701E047F010073846129B14
:1054B8001D60049B1C6009B0BDE8F08FC2F10802B2
:1054C800920070B5C2F120064368056803FA06F435
:1054D8002C43D340046040F8043F8842F4D370BDA5
:1054E8002DE9F04F0E681746751102EB850516F089
:1054F8001F0318BF04350022A5F104098346C846D6
:105508004C46164685B0D0F800A0019345F8042C07
:1055180000921AF8011F00293AD008460392029116
:10552800FFF792FD0299039AE8B9202914D8009B45
:10553800B342EEDA444505D2072A03DC2046414649
:10554800FFF7BCFFBC4221D9A4F10408002244F8AB
:10555800042C00964446DCE7292945D10AF10103C9
:10556800CBF8003014E00132082A06F1010606DD06
:10557800BC42CED9002244F8042C043C0122216804
:1055880000F00F0040EA01102060C2E70822C0E7DF
:1055980056B3444505D2072A03DC20464146FFF7A7
:1055A8008DFFBC420CD93B4654F8042B4C4543F8BC
:1055B800042BF9D9002243F8042B4B45FAD90BE008
:1055C800019B4BB1C3F1200655F8042C4FF0FF3373
:1055D800F340134045F8043C55F8043D33B9BD4247
:1055E800FAD101232B6001E0042000E0052005B07A
:1055F800BDE8F08F0048704778000020024B014654
:10560800186800F059BC00BF7000002010B5C9B27E
:1056180002449042034605D01C7801308C42F8D1F0
:10562800184610BD002010BD70B5456A04460E46E8
:105638003DB91020FFF7E2FF6062456085600560B4
:10564800C560656AEB6843B1636ADB6853F8260096
:1056580078B1026843F8262017E020460421212269
:1056680000F0D7FB636AE860DB68002BECD1002010
:1056780070BD012101FA06F56A1D2046920000F06E
:10568800C8FB0028F3D04660856000230361C3602F
:1056980070BD70B5446A06460D463CB91020FFF748
:1056A800ADFF7062446084600460C4603DB1736A99
:1056B8006A68DB6853F82210296043F8225070BDED
:1056C8002DE9F04106460C460F69984601F1140E83
:1056D8000023DEF80000013385B2010C02FB0585CA
:1056E800514301EB1541ADB24FEA1148BB4205EBFE
:1056F80001414EF8041BECDBB8F1000F1BD0A36886
:105708009F4212DB616830460131FFF78DFF054685
:10571800226904F10C01023292000C30FCF780FF80
:1057280021463046FFF7B5FF2C4604EB87030137C7
:10573800C3F8148027612046BDE8F0812DE9F843BD
:10574800074615469846092208330C4693FBF2F2A1
:10575800002101239A4202DD5B000131FAE7384655
:10576800FFF762FF089B092D43614FF001030146D3
:10577800036110DD04F10906B1462C4419F8013B18
:1057880038460A22303BFFF79BFFA1450146F5D179
:105798007419083C01E00A34092526462B1B3344BA
:1057A800434508DA16F8013B38460A22303BFFF732
:1057B80087FF0146F2E70846BDE8F883030C1B049F
:1057C80013B90004102300E0002310F07F4F04BF3A
:1057D8000002083310F0704F04BF0001043310F0CA
:1057E800404F04BF80000233002803DB420003D58A
:1057F800581C70471846704720207047036813F0FC
:1058080007020BD0D90722D49A074BBF5B089B0825
:10581800036003604CBF01200220704799B209B9A8
:105828001B0C102213F0FF0F04BF1B0A08321907C4
:1058380004BF1B090432990704BF9B080232D90729
:1058480002D45B0805D0013203601046704700207F
:1058580070472020704710B50C460121FFF7E4FE81
:1058680001224461026110BD2DE9F74F14460A690F
:10587800236988469A42BEBF0B46A0461C46D8F804
:105888001070D4F81090D8F80830D8F8041007EB46
:1058980009069E42C8BF0131FFF7C6FE00F1140594
:1058A8002B4605EB860C634503D2002243F8042BF4
:1058B800F9E704F1140208F1140102EB890301EB82
:1058C80087070093009B01929A4257D2B2F800B022
:1058D800BBF1000F23D08946AE464FF0000859F8B7
:1058E800044BBEF800A0A3B20BFB03A34FEA144A73
:1058F800DEF8004043444FEA14480BFB0A84F246A2
:1059080004EB13449BB243EA04434F454FEA14485F
:105918004AF8043B01D9D646E1E7CEF80480019B5A
:105928000432B3F802A0BAF1000F21D02C46894600
:105938002B684FF00008B9F800E0B4F802B09BB249
:105948000AFB0EBEA346F04443EA08434BF8043B67
:1059580059F8043BB4F804E01B0C0AFB03E3B9450F
:1059680003EB18434FEA134801D25C46E3E7636050
:105978000435A7E75CF8043D13B9013E002EF9DCB5
:10598800066103B0BDE8F08F12F003032DE9F04182
:1059980006460F46154607D0214A013B52F82320F8
:1059A8000023FFF78DFE0746AD1035D0746A3CB969
:1059B8001020FFF723FE7062446084600460C460B6
:1059C800D6F82480D8F808407CB9304640F27121D6
:1059D800FFF741FF0023C8F808000446036004E00D
:1059E8006D1019D0206870B10446EB07F8D5394618
:1059F80022463046FFF738FF804639463046FFF7E3
:105A080048FE4746ECE7304621462246FFF72CFF82
:105A1800002320600360E7E73846BDE8F08100BF57
:105A2800B07B00002DE9F0470C460746164623696F
:105A38004FEA621A0AEB03094968A36809F10105EC
:105A48009D4202DD01315B00FAE73846FFF7ECFDC5
:105A5800804600F114010023534504DA002241F87E
:105A680023200133F8E72AEAEA73206901EB83036C
:105A780016F01F0204F1140101EB800E14D0C2F1DC
:105A8800200C00200E689A469640304343F8040BD9
:105A980051F8040B714520FA0CF0F3D3CAF804004E
:105AA80048B109F1020506E0043B51F8042B7145A1
:105AB80043F8042FF9D3013D3846C8F81050214661
:105AC800FFF7E7FD4046BDE8F08703690A6910B5AE
:105AD8009B1A11D192001430143183180A4453F8D8
