:1000000000200020F5010000FD01000001020000B9
:100010007502000079020000C1020000000000002B
:1000200000000000000000000000000009030000C4
:100030000D0300000000000011030000151E000069
:100040002503000025030000250300002503000010
:100050002503000025030000250300002503000000
:100060002503000025030000000000001D1E000005
:1000700025030000250300002503000025030000E0
:1000800025030000211F00002503000025030000B8
:1000900025030000F51E00002503000025030000D5
:1000A00025030000250300002503000025030000B0
:1000B00025030000250300002503000025030000A0
:1000C0002503000025030000250300002503000090
:1000D00025030000250300002503000000000000A8
:1000E00000B583B000F0B0F9304B314A1360314AAB
:1000F0001360314B314A03E0116819600433043254
:100100002F498B42F8D32A4B1A682E4B9A4204D1BE
:10011000284B1A682C4B9A4200D0FEE7234B2B4AFF
:1001200013602B4A13602B4B02E000221A60043349
:10013000294A9342F9D3254B1B6813B9244B1B68FA
:1001400003B1FEE700F08CF901A8694600F024F93C
:10015000224C234B1C1BA410002504E01F4B53F81A
:10016000253098470135AC42F8DC1E4C1E4B1C1B59
:10017000A410002504E01B4B53F8253098470135A7
:10018000AC42F8DC0198009901F052FE0546174C8C
:10019000174B1C1BA41004E0013C144B53F82430F3
:1001A0009847002CF8DC284600F0D2F8BABADECA2C
:1001B00000000020EC00002000000020408500002E
:1001C000F00000207856341232547698F000002067
:1001D000C8060020F0000020CC06002050030000DC
:1001E00050030000500300005003000050030000C3
:1001F0005003000008B5FFF773FF00BF00BEFEE725
:100200001EF0040F0CBFEFF30880EFF30980714676
:10021000414A10472DE9F04182B004468846134B0D
:100220005E6B9D6B9F6A1B6B13F0020F0DD00F4B23
:10023000DB6A002B09DA4BF6AB6100F08DF920B1D7
:100240004FF00042094BDA620CE0094800F0ACF8CC
:10025000CDF800802046394632462B4600F004F99E
:1002600000BEFEE702B0BDE8F08100BF00ED00E097
:10027000E078000000BEFEE71EF0040F0CBFEFF3B5
:100280000880EFF309807146244A10472DE9F041B8
:1002900082B007468846084B5D6B9C6B9E6A074898
:1002A00000F082F8CDF80080384631462A462346D1
:1002B00000F0DAF800BEFEE700ED00E0F0780000A4
:1002C0001EF0040F0CBFEFF30880EFF309807146B6
:1002D000134A10472DE9F04182B007468846084B83
:1002E0005D6B9C6B9E6A074800F05EF8CDF800805D
:1002F000384631462A46234600F0B6F800BEFEE7EF
:1003000000ED00E0FC78000000BEFEE700BEFEE766
:1003100000BEFEE770470000150200008D020000DD
:08032000D5020000FEE700BF5A
:100328004085000000000020F0000020408500000B
:100338000000001000000010F0000020CC06002093
:0803480000000010000000108D
:10035000FEE700BF08B50D4B1B6813B90C4A0B4BE9
:100360001A600A4B1A68C31C23F00303134409499B
:100370008B4206D903F0C8FE0C2303604FF0FF3018
:1003800008BD02490B60104608BD00BFF400002004
:10039000CC060020001C002001230360014B0B60F1
:1003A000704700BF040000200FB400B583B004AB59
:1003B00053F8042B01930848802105F087FA011EA9
:1003C00003DD054800F03CF80146084603B05DF83F
:1003D00004EB04B0704700BFFC0000202DE9F0439F
:1003E00085B004460F46435C13BB042528462146CE
:1003F000ABBE04461FE03546102E28BF1025002353
:1004000006E014F8011B04AA1A4402F8101C013378
:10041000AB42F6D304AA1344002203F8102CE94699
:100420004FF0040840464946ABBE8046761B00E0CC
:100430000E46002EDFD1384605B0BDE8F08300BF80
:1004400008B5FFF7CBFF08BD08B500F0D1F8024BA7
:10045000024A9A6008BD00BF00ED00E00000000005
:1004600008B500F089F808BDF8B504460D461746F2
:100470001E462648FFF798FF25482168FFF794FF9E
:1004800024486168FFF790FF2348A168FFF78CFFBD
:100490002248E168FFF788FF21482169FFF784FFC0
:1004A00020486169FFF780FF1F48A169FFF77CFFC3
:1004B0001E48E169FFF778FF1D48FFF775FF1D48EB
:1004C0002946FFF771FF1C4CE16A1C48FFF76CFFDF
:1004D000216B1B48FFF768FFE16B1A48FFF764FFC9
:1004E00015F0800F03D018483946FFF75DFF15F46B
:1004F000004F03D015483146FFF756FF1448FFF769
:1005000053FF14480699FFF74FFFF8BDC47700006A
:10051000D4770000E4770000F4770000047800004E
:10052000147800002478000034780000447800003B
:10053000547800006078000000ED00E07078000062
:100540008078000090780000A0780000B07800006B
:10055000C0780000C878000083691A888A4207D1F1
:100560000268033A012A05D80233836101207047EB
:100570000020704700207047184B1B8803F01803B9
:10058000182B21D8DFE803F00D2020202020202088
:10059000172020202020202017202020202020206D
:1005A0001C000E4BB3F8442402F001020C4BD34064
:1005B0000C4A136008E04FF400420A4B1A6003E053
:1005C000094B1A68074B1A60044B1A8802F007029D
:1005D000044B1B68D340054A13607047002000405D
:1005E0000024F40090010020940100208C010020E0
:1005F00008B50023054A1381A2F5B0621380A2F862
:10060000443493809385FFF7B7FF08BD80250040F1
:1006100089B2018001207047C9B201720120704780
:1006200010B403889BB2490003248C4023EA0403DE
:100630008A401A4492B2028001205DF8044B704750
:1006400030B404460579012000FA01F3C3F1FF0339
:100650002B408A401A44D2B2227130BC704700BF8E
:1006600030B40446057A012000FA01F3C3F1FF0318
:100670002B408A401A44D2B2227230BC704700BF6D
:10068000C9B20177007F7047C9B280F8201090F896
:10069000200070470A4B1B889BB2012B0DD0084BE2
:1006A0004FF256421A844FF223121A8482B21A82EF
:1006B000000C98820120188170470020704700BF0D
:1006C0000028004030B1074A93889BB243F00403EE
:1006D000938004E0034A938803F0FB039380012096
:1006E000704700BF00280040014B188880B2704757
:1006F0000028004010B4848B04F04004A4B24CB92C
:10070000048904F4706421430A4313439BB20381B8
:10071000012000E000205DF8044B704789B20180A1
:100720000120704789B281810120704701430A434B
:1007300092B2024B1A800120704700BF0030004087
:10074000012814D1012908D1144AB2F84C309BB2C7
:1007500043F48073A2F84C301DE0104AB2F84C30DC
:1007600023F480731B051B0DA2F84C3013E0012904
:1007700008D10A4AB2F84C309BB243F40073A2F895
:100780004C3008E0054AB2F84C3023F400731B05E6
:100790001B0DA2F84C300120704700BF0030004014
:1007A000012803D1034B188E80B27047014B187A91
:1007B000C0B2704700300040012803D189B2044B19
:1007C000998602E0C9B2024B19730120704700BF3D
:1007D0000030004041EA002189B2024B9984012097
:1007E000704700BF0030004020F001000004000C02
:1007F000FF2809D9C2B2084B1A77C00900F00600D9
:1008000040F0F000187604E0C0B2034B18760022E6
:100810001A770120704700BF00300040013941EADB
:10082000022292B20A4B1A82FF2808D9C2B21A7762
:10083000C00900F0060040F0F100187606E040F034
:100840000100C0B2024B187600221A7701207047CF
:1008500000300040012803D1034B988D80B27047CF
:10086000014B988880B27047003000400A43134320
:100870009BB20382012070470A4392B28281012019
:10088000704700BF00797047C9B2017201207047FC
:10089000008880B2704700BFB1F5005F0AD1038ABB
:1008A0009BB243F400530382038A23F400531B04D6
:1008B0001B0C0382B2F5805F0AD1038A9BB243F41A
:1008C00080530382038A23F480531B041B0C03828E
:1008D00001207047F0B4224CA488C4F34224072CB2
:1008E00014D8DFE804F0120406080A0C0E100224E3
:1008F0000CE004240AE0082408E0102406E0202488
:1009000004E0402402E0802400E00124144DB5F806
:10091000445415F0010F00D064006501114CB4FB84
:10092000F5F6B6FBF1F6B7B207854FF40067B7FBF3
:10093000F5F504FB05F4B4FBF6F4B4FBF1F1A1F515
:10094000006141F4084189B281840021017103F002
:100950003C0302F003021A430273007DF0BC7047AF
:10096000002000400024F400037D13F0200F03D08A
:10097000C9B20170012070470020704700787047AD
:100980000AB1C9B20174007E704700BFC9B20171DB
:1009900001207047007A704710B51A4C2046032199
:1009A0000022FFF75DFE204603210122FFF748FEEB
:1009B0003034204600210A46FFF752FE204600212F
:1009C0000122FFF73DFE204601210022FFF748FEED
:1009D000204601210A46FFF733FE2046022100226D
:1009E000FFF73EFE204602210122FFF729FE2046A6
:1009F00004210022FFF734FE204604210122FFF7E4
:100A00001FFE10BD0060004038B5C0F34005C0F3C4
:100A1000800410F0010F04D00E480121FFF730FED2
:100A200003E00C480121FFF72FFE25B10948022100
:100A3000FFF726FE03E007480221FFF725FE24B159
:100A400004480421FFF71CFE38BD02480421FFF7CB
:100A50001BFE38BD3060004010B50446052808D1A3
:100A60000A480821FFF70CFE09481021FFF70CFE89
:100A700010BD07481021FFF703FE04480821FFF7C7
:100A800003FE2046FFF7C0FF10BD00BF006000401E
:100A90003060004010B5044600F0BCFF208010BD5F
:100AA00070B503F0EFF8064600204FF080410022B9
:100AB0000D4B01F0B3FA00220C4B02F08FFB044601
:100AC0000D46304602F0EAFC22462B4602F064FE58
:100AD00003A3D3E9002302F035FD02F0CDFF70BD82
:100AE000FCA9F1D24D621040000030400000F03F00
:100AF00008B502F0D3FC06A3D3E9002302F04CFEB4
:100B000002F0BAFF03F0DCFA80B208BDAFF3008058
:100B100007F0164850FC883F10B50346886B19460D
:100B200003F008F904460A4903F0C0FA68B9204600
:100B3000FFF7DEFF0146C0F3032040F07000C9B2AA
:100B4000012200F03DFF012010BD4FF0FF3010BD2D
:100B50000000484208B5012804D105480821FFF7E4
:100B60008FFD08BD18B902480821FFF78DFD08BDAB
:100B7000306000400000000030B583B002AC0023BC
:100B800024F8023D0120FFF7E5FF1D481021FFF783
:100B900077FD1C4D28462021FFF776FD7F20FF21A1
:100BA000012200F00DFF28462021FFF769FD2846AD
:100BB0000821FFF765FD322001F004F92046FFF718
:100BC00069FFBDF8060002F057FC02460B4608A17B
:100BD000D1E9000102F0E0FD07A3D3E9002302F010
:100BE000B1FC02F049FF03F06BFA03B030BD00BF67
:100BF0000000000000EEEB40000000000088C34051
:100C0000306000400060004010B5064C20460421D2
:100C1000FFF73AFD012001F0D5F820460421FFF747
:100C20002FFD10BD6060004010B50E4C2046032122
:100C30000022FFF715FD204603210122FFF700FDEA
:100C40003034204602210022FFF70AFD204602210F
:100C50000122FFF7F5FC0120FFF77CFFFFF7D4FF2F
:100C600010BD00BF306000402DE9F04383B0044662
:100C7000D0F80C9005694846294603F00FF98046E4
:100C8000002021490022214B01F0C8F906460F46F9
:100C9000404602F003FC32463B4602F053FC02F0B1
:100CA000EBFE80464846294603F044F8814601A8F9
:100CB000694600F0E7FF4046A16802F031FF02F00C
:100CC000EDFB0FA3D3E9002302F066FD06460F46B5
:100CD000019D284602F0E2FB02460B4630463946AB
:100CE00002F07EFA02F0C8FEC4F814802560009B72
:100CF0006360C4F81C90A06103B0BDE8F08300BF3E
:100D00004E0B5EF415A4D53F0000244000000840BF
:100D100008B500F01DFE00F049FF4FF41650032106
:100D200000F0AAFE08BD00BF38B5054600240CE05F
:100D30002846094B53F82410062203F025FF18B962
:100D4000064B53F8240038BD0134044B53F82430CB
:100D5000002BEDD1002038BD2C0000200C0000201D
:100D600038B505461048FFF7DFFF38B104460F4895
:100D700000F00AFF0E482946A04738BD0A4803F094
:100D8000FBFE50B1094C204600F0FEFE094800F081
:100D9000FBFE204600F0F8FE38BD074A137883F0CA
:100DA0000103137038BD00BFC0050020F0800000B3
:100DB000C2050020347900007C01002010B50D2010
:100DC000032100F081FE044620B90A20032100F02F
:100DD0007BFE04461CB93E20032100F075FE002274
:100DE000014B1A60204610BDB405002010B582B03A
:100DF000044690F83630052B54D1404800F0C4FE2C
:100E00003F4800F0A7FEA06802F048FB02460B46F0
:100E10003C4800F0B9FEE06802F040FB02460B4699
:100E2000394800F0B1FE206902F038FB02460B465B
:100E3000364800F0A9FE606902F030FB02460B461E
:100E4000334800F0A1FE206802F028FB02460B4662
:100E5000304800F099FE606802F020FB02460B4625
:100E60002D4900912D4800F08FFEE06902F016FB3D
:100E700002460B462A4800F087FEA06902F00EFBEE
:100E800002460B46274800F07FFE2748A18E00F05F
:100E90007BFE606A02F002FB02460B46234800F02C
:100EA00073FE25E0224800F06FFE154800F052FE68
:100EB000206A02F0F3FA02460B461E4800F064FE78
:100EC000606A02F0EBFA02460B461B4800F05CFE3B
:100ED000E06A02F0E3FA02460B46184800F054FEBE
:100EE000A06A02F0DBFA02460B46154800F04CFE01
:100EF000034800F02FFE02B010BD00BF487900008B
:100F0000687900006C79000098790000C0790000D1
:100F1000EC790000187A00006C7A0000407A00003A
:100F2000707A00009C7A0000C47A0000E87A000021
:100F3000147B0000347B0000647B0000947B000085
:100F4000C47B000010B582B004460DF10600FFF727
:100F5000A1FDBDF80600A08602B010BD0000000093
:100F60002DE9F04F83B005468A46934699464FF0E7
:100F700000084FF07E548AE050462946FFF7CCFD2A
:100F8000002874DD322000F01DFF2846FFF7DAFF4D
:100F9000FFF786FD8046B9F1010F16D1514602F0E8
:100FA0007DFF0446002046490022464B01F036F8FA
:100FB00006460F46204602F071FA32463B4602F0E2
:100FC000C1FA02F059FD044600E0044658462146A5
:100FD00003F06CF828B35846214602F0A1FD5946AB
:100FE00002F05CFF0446504602F058FACDE90001D9
:100FF0000022354B02F0A6FA06460F46204602F0C4
:101000004DFA02460B463046394602F09BFA02463C
:101010000B46DDE9000102F0E3F802F02DFD824607
:1010200035E02046594602F07BFD594602F036FF76
:101030000446504602F032FACDE900010022224B6C
:1010400002F080FA06460F46204602F027FA0246D2
:101050000B463046394602F075FA02460B46DDE98A
:10106000000102F0BBF802F007FD82460FE0174CCA
:10107000204600F089FD504602F010FA02460B4669
:10108000134800F081FD204600F07EFD0AE0204676
:1010900002F004FA08A3D3E9002302F0E3FC0028DD
:1010A0007FF46AAFC5F80C80C5F810A003B0BDE8A6
:1010B000F08F00BFAFF300807B14AE47E17A743F3E
:1010C00000002440000008400000E03FF0800000E5
:1010D000F07B0000F8B50E4602F0D4FD02F0DEF918
:1010E00000220F4B02F02EFA04460D46304602F065
:1010F000B3F902460B462046294602F023FA06467B
:101100000F460020074922462B4602F067F80246A8
:101110000B463046394602F03FFB02F0ADFCF8BD0D
:101120000000E03F0000F040F8B50346006A596A4D
:1011300002F0B4FE04464FF07A5102F0ADFFC8B1A0
:10114000204602F0ABF906460F461DA3D3E9002363
:1011500002F074FC70B1304639461BA3D3E900237A
:1011600000F05CFF1AA3D3E9002302F0EBF902F0D0
:1011700083FCF8BD204602F091F904460D4610A309
:10118000D3E9002302F06EFCB0B12046294612A339
:10119000D3E9002302F052FC80B12046294610A377
:1011A000D3E9002300F03AFF0FA3D3E9002302F0B4
:1011B000C9F902F061FCF8BD0020F8BD0020F8BDBF
:1011C000333333333333E33F0AD7A3703D0A05C0CB
:1011D000E17A14AE47E10440CDCCCCCCCCCCEC3F92
:1011E000B81E85EB51B816C09A9999999999E13F23
:1011F000F0B58BB006466C462C4D0FCD0FC40FCD0D
:101200000FC495E8030084E80300042447E0E5B236
:101210002846FFF721FC86F836503C2000F0DCFD24
:101220003046FFF78FFE074663B2042B09D14EF21A
:10123000E403984205D91E48394600F0A5FC1D4834
:1012400031E044B9B7F5DD7F05D21948394600F0E1
:101250009BFC184827E064B20AAB03EBC40353F8C5
:10126000283C9F4202D26C1EE4B218E00520FFF732
:10127000F3FB0AAB03EBC40454F8245C384629465C
:10128000FFF728FF04463846FFF70AFCB0623563D3
:1012900034623046FFF748FFF062204603E014F066
:1012A000800FB4D000200BB0F0BD00BF0C7900005F
:1012B0003C7C0000000080BF2DE9F04184B0044672
:1012C000FFF7B2FC0520FFF7C7FB052384F8363093
:1012D00068464FF4F831082200F0C6FC009B012B51
:1012E00017D1019E294DA5FB06356D0B284602F04E
:1012F000C9FC074642F2107000FB156002F0C2FC08
:10130000234902F0CBFD0146384602F00BFCA063F6
:1013100002E04FF07E53A3634FF0824020612146EC
:10132000FFF7FAFB042000F057FD2046FFF70AFE06
:10133000FFF7B6FB0546216902F0B0FD80460020AC
:1013400014490022144B00F069FE06460F46404641
:1013500002F0A4F832463B4602F0F4F802F08CFBAF
:10136000064603A802A900F08DFCA660E560039B79
:101370002360029B63602046FFF776FC2046FFF760
:1013800037FF606204B0BDE8F08100BF5917B7D1E4
:1013900000401C460000244000000840002205E0F8
:1013A000202B01D00AB17047012201300378002BB5
:1013B000F6D1704704E0202B05D0013103700130D5
:1013C0000B78002BF7D100230370704710B582B063
:1013D000044603E001A82146FFF7ECFF2046FFF793
:1013E000DDFF04460378002BF4D1124C204600F0B8
:1013F000CBFB114800F0C8FB204600F0C5FB0F48AE
:1014000000F0C2FB0E4800F0BFFB0E4800F0BCFB32
:101410000D4800F0B9FB0D4800F0B6FB0C4800F099
:10142000B3FB0C4800F0B0FB0B4800F0ADFB02B082
:1014300010BD00BFF0800000547C00006C7C0000F8
:10144000B07C0000207D00004C7D0000887D000005
:10145000EC7D0000347E0000807E00002DE9F0412C
:1014600084B004460D4603E003A82146FFF7A2FF1F
:101470002046FFF793FF04460378002BF4D103A81E
:101480004A49022203F080FB00283DD101A84FF415
:10149000F831082200F0E8FB019B012B26D1029DC8
:1014A000434CA4FB0534640B204602F0EBFB0646DC
:1014B00042F2107000FB145002F0E4FB3D4902F0D0
:1014C000EDFC0146304602F02DFB05463A4C204625
:1014D00000F05AFB284601F0E1FF02460B46374870
:1014E00000F052FB204600F04FFB5CE0324C2046FF
:1014F00000F04AFB324800F047FB324800F044FB62
:10150000204600F041FB4EE003A82F49022203F0E1
:101510003BFB002847D12D4800F036FB264800F061
:1015200033FB03E00DF1030000F024FB9DF90330D1
:10153000632BF7D1204E304600F026FB4FF4F830F5
:10154000FFF7A8F801230193FFF716FB029001A80B
:101550004FF4F831082200F067FB029F144CA4FB03
:101560000734640B204602F08DFB804642F2107077
:1015700000FB147002F086FB0E4902F08FFC01465E
:10158000404602F0CFFA0446A863304600F0FCFA69
:10159000204601F083FF02460B46084800F0F4FAAB
:1015A000304600F0F1FA04B0BDE8F081DC7E0000C6
:1015B0005917B7D100401C46F0800000E07E0000C3
:1015C000187F0000607F00009C7F0000A07F00006B
:1015D00030B583B004460D4603E001A82146FFF76D
:1015E000E9FE2046FFF7DAFE04460378002BF4D12B
:1015F00001A81C49032203F0C7FA20BB052385F884
:101600003630194800F0C0FA184800F0BDFA184802
:1016100000F0BAFA174800F0B7FA174800F0B4FA29
:10162000164800F0B1FA164800F0AEFA154800F07E
:10163000ABFA154800F0A8FA144800F0A5FA1448CF
:1016400000F0A2FA0BE001A81249032203F09CFA71
:1016500028B92846FFF7CCFD2846FFF7C7FB03B0A3
:1016600030BD00BFE87F0000EC7F00000880000074
:10167000F0800000208000006C8000009C80000052
:10168000F4800000248100006C810000988100003B
:10169000E08100001082000070B582B004460D4663
:1016A00003E001A82146FFF785FE2046FFF776FEFE
:1016B00004460378002BF4D101A802F021FD02F0CA
:1016C000DBF904462946FFF727FA00281BDD052031
:1016D000FFF7C2F92846FFF735FCFFF7E1F90646A8
:1016E000322000F06FFB2C61EE602846FFF7BCFA59
:1016F0002846FFF77DFD6862052385F836302846C9
:10170000FFF774FB0EE0084D284600F03DFA204636
:1017100001F0C4FE02460B46044800F035FA2846A4
:1017200000F032FA02B070BDF0800000F07B0000E3
:101730002DE9F04182B004460D4603E001A82146A0
:10174000FFF738FE2046FFF729FE04460378002BFA
:10175000F4D101A802F0D4FC02F08EF90446174936
:1017600002F09CFB8046002015490022154B00F03A
:1017700055FC06460F46404601F090FE32463B4679
:1017800001F0E0FE02F078F906460520FFF764F963
:101790002846314622460023FFF7E2FB2846FFF7A2
:1017A00063FA2846FFF724FD6862052385F8363082
:1017B0002846FFF71BFB02B0BDE8F0810000614343
:1017C00000002440000008402DE9F04182B00446AA
:1017D0000D4603E001A82146FFF7ECFD2046FFF788
:1017E000DDFD04460378002BF4D101A802F088FC4B
:1017F00002F042F90446194902F092F9184902F040
:101800004DFB8046002017490022174B00F006FCD4
:1018100006460F46404601F041FE32463B4601F087
:1018200091FE02F029F906460520FFF715F9284632
:10183000314622460123FFF793FB2846FFF714FAAF
:101840002846FFF7D5FC6862052385F83630284620
:10185000FFF7CCFA02B0BDE8F08100BF0000DC4227
:10186000009C60460000244000000840000000008A
:101870002DE9F04184B004460D4603E003A821465B
:10188000FFF798FD2046FFF789FD04460378002BFB
:10189000F4D103A802F034FC02F0EEF8804602A86E
:1018A00001A900F0EFF90520FFF7D6F8AC6826484B
:1018B000214602F0F3FA01F0F1FD21A3D3E9002360
:1018C00001F040FE06460F464046029902F028F914
:1018D00001F0E4FD02460B463046394601F032FE87
:1018E00000221A4B01F07CFC06460F46204601F010
:1018F000D5FD32463B4601F025FE02F0BDF802461A
:101900004FF08244284621460123FFF729FB284651
:101910002146EA680023FFF723FB2846FFF7A4F9D6
:101920002846FFF765FC6862052385F836302846AF
:10193000FFF75CFA04B0BDE8F08100BFAFF30080B0
:10194000CF11F92EA52E693F0000DC420000F03FC8
:1019500010B51A4C2046F821FEF75EFE20461521F0
:10196000FEF756FE204604210022FEF779FE2046AF
:1019700004210122FEF764FE20461021FEF784FEBA
:10198000204605210022FEF76BFE2046052101229C
:10199000FEF756FE20462021FEF772FEA4F5E05425
:1019A000204609210022FEF767FF20464FF48041C0
:1019B000022240F6C133FEF759FF10BD006000401F
:1019C000012A21D170B50C46054610482021FEF7AA
:1019D0005BFE0F4E30464FF400514FF48052FEF73D
:1019E0005BFF30462946FEF74FFF30462146FEF7A3
:1019F0004BFF0748FEF74CFF10F4007FF9D0034877
:101A00002021FEF73DFE70BD704700BF0060004022
:101A10000044004038B5164C20461021FEF730FE39
:101A200020461021FEF730FEA4F5E05420464FF486
:101A300000514FF48052FEF72FFF20460721FEF79A
:101A400023FF2046AA21FEF71FFF0A48FEF720FFCA
:101A500010F4007FF9D0074D2846FEF713FF044627
:101A60002846FEF70FFFE4B264F31F2038BD00BF25
:101A7000006000400044004070B506460D46104C22
:101A8000204606210122FEF7CBFD20460721022237
:101A9000FEF7C6FDA4F58054204631462A460023B1
:101AA000FEF718FF204601210022FEF769FF2046BD
:101AB0000321FEF76BFF4FF40032024B1A6070BD3A
:101AC0000060004000E100E038B505460C460529FD
:101AD00005D11A482946FEF747FF002038BD184BAC
:101AE0001A68B2F5806F23D0032904D14FF4003176
:101AF000144BC3F88010144B1B6853B1511C104B8E
:101B00001960124B1B681344C3F30903104AD554E0
:101B100006E00A482946FEF727FF01220A4B1A6011
:101B2000032C08D14FF40032064B1A60002038BD58
:101B30006FF0010038BD002038BD00BF00500040EC
:101B4000A805002000E100E0B0050020A405002069
:101B5000A001002010B50446002306E0013440B285
:101B60000321FFF7B1FF034610B920780028F5D113
:101B7000184610BD10B504460248FEF7FFFE20705F
:101B800010BD00BF005000400FB400B5C3B044AA60
:101B900052F8041B019202A803F0C0FE02A8FFF74E
:101BA000D9FF43B05DF804EB04B0704710B50C4C9E
:101BB00020460521FEF72CFD2046FC21FEF72CFDDA
:101BC00000204FF488710122FEF7B0FD4E204F2116
:101BD000FEF700FE4FF40012024B1A6010BD00BF6A
:101BE0006060004000E100E038B5050AC4B20020A2
:101BF0000121FEF7A5FD8A20FEF7F6FD002029460B
:101C0000FEF7DAFD00202146FEF7D6FD38BD00BF05
:101C100008B500200121FEF793FD8A20062100224D
:101C2000FEF7FCFD08BD00BF2DE9F84306469146CE
:101C30000D460120FEF746FDFEF756FD00240CE0A0
:101C400005F10408371D33682B60FEF74DFD10F0D9
:101C5000010FFAD1043445463E464C45F0D30020EE
:101C6000FEF730FDBDE8F88310B4002304E00C68F3
:101C700004600433043104309342F8D35DF8044B1C
:101C8000704700BF2DE9F04F83B082460D4642F207
:101C90003770FFF7A9FF052000F094F8FFF7B8FFB1
:101CA0002A4B1B78052BFBD90022284B1A70284B96
:101CB00018785A7842EA0022DC781B7943EA042437
:101CC000AF2000FB02F001F0E1FF83464FF0000877
:101CD0004FF0804900261F4F4046494632463B465A
:101CE00000F09CF900221C4B01F078FACDE90001CC
:101CF000584601F0D3FBDDE9002301F04DFD002241
:101D0000164B01F06BFA01F0B7FECAF80000642030
:101D100000FB04F001F0BAFF044640464946324653
:101D20003B4600F07BF900220B4B01F057FA0646C8
:101D30000F46204601F0B2FB32463B4601F02CFD37
:101D400001F09AFE286003B0BDE8F08F7D0100200D
:101D500098010020000030400000F03F0080464025
:101D600008B54FF080403E21FEF7D8FC4FF0804090
:101D7000002102229823FEF7BDFC4FF40062014BC4
:101D80001A6008BD00E100E00A4B1B685B090A4AC3
:101D9000A2FB0323DB09013BB3F1807F09D2074A91
:101DA0005360E021064B83F8231000239360072340
:101DB000136070478C010020DF4ED30510E000E077
:101DC00000ED00E0034B1860024B1B68002BFBD1B9
:101DD000704700BFC0060020034B1860024B1B6811
:101DE000002BFBD1704700BFC4060020034B1B68CB
:101DF0001BB1024A1368013B13607047C006002004
:101E0000034B1B681BB1024A1368013B1360704708
:101E1000C406002008B5FFF7F3FF08BD08B54FF072
:101E200080400121FEF77EFCFFF7E0FF08BD00BF08
:101E300010B53C2002F06EF9002845D00446FFF7AB
:101E40008FFFFFF7A1FFFEF763FFFEF7A5FD20461A
:101E5000FFF732FA1E4B1B68012B26D11D4B1B7856
:101E6000DBB91D48FFF790FE1C48FFF78DFE1C48AC
:101E7000FFF78AFE1B48FFF787FE606A01F00EFB42
:101E800002460B461848FFF77FFE1848FFF77CFE16
:101E9000104A13780133137002E02046FEF760FF0A
:101EA00000220B4B1A60FEF789FF114B1B78002BA9
:101EB000D0D02046FFF79CF940F2E630FFF782FFD2
:101EC0002046FEF793FFC5E74FF0FF3010BD00BF7F
:101ED000B80500207E0100205C82000080820000A6
:101EE0009C820000B4820000D882000010830000B1
:101EF0007C01002038B50020FEF7ACFC10F0080F84
:101F000009D0054C25780020FEF74AFC034B5855B4
:101F100023780133237038BD7D0100209801002013
:101F200010B582B03548FEF735FD80B210F0010FD4
:101F300062D100F00600022842D004285CD10DF1E5
:101F40000700FFF717FE9DF8070043B2082B02D0E9
:101F50000D2B17D01AE02A4B1B685BB3013B284AB4
:101F600013600021274AD15440B20421FFF7ACFD91
:101F700020200421FFF7A8FD9DF907000421FFF7A9
:101F8000A3FD17E00122204B1A6013E01C490B68E7
:101F90005A1C0A601B49C854B2F5807F05D1184A03
:101FA000136008200421FFF78FFD9DF9070004212D
:101FB000FFF78AFD124B1B680021124AD1541BE027
:101FC000124B1B68ABB10121114A1160013B0F4A52
:101FD0001360104C23685A1822600F4AD05605210E
:101FE000FFF772FD2368B3F5806F05D100222260F0
:101FF00002E00022064B1A6002B010BD0050004003
:10200000B4050020C0050020B8050020A805002068
:10201000B0050020A4050020A00100202DE9F04F0C
:102020008BB01F4680468946164600F071F9DFF8EE
:10203000D8A204469AF900300D46013304D0304648
:10204000394600F085FF20B9204629460BB0BDE88F
:10205000F08F4046494600F07BFF834660BB304628
:1020600039460022002301F0D5FC0028ECD09AF973
:1020700000309E4C01229E4900208DE814005A1C1D
:10208000CDF820B0CDE90289CDE90467CDE906019C
:102090000DD0022B0BD0684600F086FF002800F020
:1020A0009380089B1BB102F02FF8089B0360DDE9C9
:1020B00006010BB0BDE8F08F4046494600220023E0
:1020C00001F0A8FCF8B1304639460022002301F0A7
:1020D000A1FC834600284ED084489AF900300121A3
:1020E000002200240025CDE90289CDE90467CDE96D
:1020F0000645019000910892002BCCD07C4B002229
:10210000CDE90623D3E72046294600F01BFF83468E
:1021100000285ED0204629460022002301F07AFCE8
:10212000002891D04046494600F00CFF00288BD093
:102130003046394600F006FF002885D09AF9003075
:102140006A480421002200240025022BCDE90289DF
:10215000CDE90467CDE9064501900091089200F0B1
:102160008880684600F020FF002800F08280089BED
:10217000002B9CD097E73046394600F0E3FE00285C
:102180003FF462AF304639460022002301F04CFC98
:1021900000283FF459AF55499AF800300122CDF894
:1021A00020B0CDE90289CDE9046701910092002BAE
:1021B0003CD050490020022BCDE9060130D101F07E
:1021C000A3FF21230360D2E701F09EFF21230360D8
:1021D00067E74046494600F0B5FE00289AD03046F1
:1021E000394600F0AFFE002894D02046294600F082
:1021F000AFFE00BB3D4A9AF8004001230890CDE9AC
:102200000289CDE90467019200937CB1002000218E
:1022100002460B4601F0C0FA022CCDE90601CED0F1
:10222000684600F0C1FE0028A1D1C8E700220023C3
:10223000CDE90623F4E72D499AF900300322CDF8C1
:1022400020B0CDE90289CDE9046701910092ABB9D4
:10225000294D4FF060444046494600220023CDE915
:10226000064501F0E1FB50BB9AF90030022B7FF4E8
:1022700078AF01F049FF2223036078E71F4D002467
:102280004046494600220023CDE9064501F0CCFB3B
:102290000028E9D000221A4B3046394601F052F9A5
:1022A00004460D4600F088FE22462B4601F0B2FBA4
:1022B0000028D9D10F4B0022CDE90623D4E7002214
:1022C0000F4B3046394601F03DF904460D4600F00B
:1022D00073FE22462B4601F09DFB0028C4D1094B1A
:1022E0004FF06042CDE90623BEE700BF4083000007
:1022F0000000F03F0000F0FFFFFFEF470000F07F1D
:102300000000E03FFFFFEFC74C000020000000008E
:102310002DE9F04F144623F00047024657EA040027
:102320000E468FB01D469C46214634D06E4B26F09B
:10233000004A9A459346B14626DC24D09F4223DCCE
:10234000694B9F4200F08F80B9F1000FC0F28F807F
:102350004FF0000879BB644B9F4200F0A580634BAF
:102360009F4267D0BCF1804F00F0E283604B9C45F8
:1023700021D1B9F1000F1EDB104631460FB0BDE888
:10238000F04F00F015BD62B10AF1404000F5801039
:1023900050EA0B0007D10346544918460FB0BDE878
:1023A000F08F5745CCDD53480FB0BDE8F04F00F03B
:1023B000FDBD4FF0000810463146CDF808C0009230
:1023C00000F0BCFD009ADDF808C0BBF1000F20D082
:1023D0004FEAD97909F1FF3958EA09037AD0464B17
:1023E0009F4240F38F8003F104739F4240F31084B7
:1023F000424B9A4540F39283BCF1000F40F3928325
:1024000037A1D1E900010B46024601F09BF80346D3
:10241000C3E7BAF1000F04D0344B29F0404E9E457B
:10242000D6D1BCF1000FC0F2B683B9F1000F08DBC2
:102430000346B2E7BCF1000FC0F2528413463146A6
:10244000ABE70AF1404A0AF5801A58EA0A0340F05D
:102450005E8402460B4600F0C1FE0B46024601F0C8
:102460009BF9034699E700293FF46EAF8CE7244BB4
:102470009F422CDCA3F154739F427FF769AF40F277
:1024800013403B15834240F34B84C3F5866303330B
:1024900021FA03F000FA03F38B427FF459AF00F006
:1024A0000100C0F1020855E70AF1404303F580132B
:1024B00053EA0B0300F03983104B9A4540F36483D1
:1024C000BCF1000FC0F22E832346294665E74FF08A
:1024D00002083FE7104631463346BCE7AFF30080C1
:1024E0009C7500883CE4377E0000F07F0000F03FE0
:1024F0000000E03FDC8100000000E041FFFFEF3F13
:10250000FFFF3F43BAF5801F4FF0000205DACA4BC8
:1025100001F018F88A466FF034024FEA2A53C74E8A
:10252000CAF3130AA3F2FF334AF07F571344B245AC
:102530000C9347F4401740F3D083C14B9A4540F3C6
:1025400007840026B4460C9BA7F5801701330C9333
:102550003946BC4B4FEACC0C6344D3E900AB52463E
:102560005B46CDF834C0CDE9060100F037FE524697
:102570005B46CDE90801DDE9060100F031FE0246C7
:102580000B460020B04901F007F902460B46DDE991
:102590000801CDE90A2300F0D5FF02460B46CDE93C
:1025A0000223CDE904237B1043F0005303F50023FD
:1025B00099190020002306460F460293DDE9022305
:1025C0001046194632463B46CDE9000100F0BAFFFD
:1025D00002460B46DDE9080100F000FE5246CDE957
:1025E00008015B463046394600F0F8FD02460B46CE
:1025F000DDE9060100F0F2FD02460B46DDE90001CF
:1026000000F0A0FF02460B46DDE9080100F0E6FD00
:10261000DDE90A2300F096FFDDE90423CDE9060198
:102620001046194600F08EFF02460B4606460F463E
:1026300000F088FF6EA3D3E9002382468B46304624
:10264000394600F07FFF6CA3D3E9002300F0C8FDFA
:1026500032463B4600F076FF69A3D3E9002300F041
:10266000BFFD32463B4600F06DFF67A3D3E9002370
:1026700000F0B6FD32463B4600F064FF64A3D3E9A8
:10268000002300F0ADFD32463B4600F05BFF62A345
:10269000D3E9002300F0A4FD02460B4650465946FC
:1026A00000F050FFDDE9042306460F46DDE9000196
:1026B00000F096FDDDE9062300F044FF32463B467C
:1026C00000F08EFDDDE9006782468B4632463B46D0
:1026D0003046394600F036FF00225C4BCDE9080158
:1026E00000F07EFD52465B4600F07AFD02980F46F0
:1026F0000646DDE9000132463B4600F023FF324644
:102700003B46CDE90001DDE9060100F01BFF002298
:10271000CDE906014D4B3046394600F05FFDDDE95D
:10272000082300F05BFD02460B465046594600F078
:1027300055FDDDE9042300F005FF02460B46DDE907
:10274000060100F04DFD82468B46DDE90001524650
:102750005B4600F045FD32A3D3E9002302980F4603
:10276000064600F0EFFE30A3D3E90023CDE90401D3
:102770003046394600F0E6FEDDE90023CDE90601EA
:102780003046394600F02AFD02460B46504659466F
:1027900000F024FD26A3D3E9002300F0D3FE024677
:1027A0000B46DDE9060100F01BFDDDF834C0284BC7
:1027B000CDF818C06344D3E9002300F011FDCDE942
:1027C00000010C9800F058FE06460F46DDE90401B2
:1027D000204BDDF818C09C44DDE90023DCE900ABA8
:1027E00000F0FEFC52465B4636E000BFAFF30080CF
:1027F000EF4E454A287ECA3F65DBC9934A86CD3FE6
:1028000001411DA96074D13F4D268F515555D53FCB
:10281000FFAB6FDBB66DDB3F033333333333E33F63
:10282000000000E009C7EE3FF5015B14E02F3EBE5B
:10283000FD033ADC09C7EE3F000040438E980300D9
:1028400079B60B00688300000000F03F00000840EC
:102850005883000048830000CDE906AB00F0C0FCBF
:1028600032463B4600F0BCFC029832463B4682466C
:102870008B4600F0B3FCDDE9062300F0AFFCDDE998
:10288000042300F0ABFC02460B46DDE9000100F03A
:10289000A5FCCDE9020108F1FF3858EA09030CBF95
:1028A000D54BD64B0022CDE904230023CDE90045CA
:1028B0000093DDE90067204632463B46294600F09A
:1028C0008DFC52465B4600F03DFEDDE9022380466A
:1028D00089462046294600F035FE02460B46404612
:1028E000494600F07DFC04460D46524630463946C6
:1028F0005B46CDE9024500F025FE06460F46204620
:102900003B462946324600F06BFCBD4B824699425D
:102910008946884640F3138101F13F4303F5E00304
:10292000034340F0E581A0A3D3E90023DDE90201E0
:1029300000F056FC324604460D463B46504649469A
:1029400000F04CFC02460B462046294601F08AF86E
:10295000002840F0CD814C462015A0F2FE304FF407
:10296000801101414144C1F30A50A64CA0F2FF3549
:10297000C1F3130BC0F5826003302C414BF4801B74
:1029800021EA040300224BFA00FB3946304600F0EE
:1029900025FC06460F46DDE902018BEAE87B0BEBDE
:1029A000D87B32463B464FEA0B5A00F019FC80A315
:1029B000D3E90023002420460D4600F0C3FD324633
:1029C000804689463B462046294600F007FC0246E1
:1029D0000B46DDE9020100F001FC77A3D3E90023F7
:1029E00000F0B0FD76A3D3E9002306460F4620464B
:1029F000294600F0A7FD02460B463046394600F056
:102A0000EFFB06460F4632463B464046494600F03D
:102A1000E7FB42464B4604460D4600F0DFFB02460C
:102A20000B463046394600F0D9FB2246804689469F
:102A30002B462046294600F085FD63A3D3E90023F9
:102A400006460F4600F07EFD61A3D3E9002300F0A7
:102A5000C5FB32463B4600F075FD5FA3D3E900237A
:102A600000F0BEFB32463B4600F06CFD5CA3D3E9B0
:102A7000002300F0B3FB32463B4600F063FD5AA34F
:102A8000D3E9002300F0ACFB32463B4600F05AFD90
:102A900002460B462046294600F0A0FB06460F469C
:102AA00032463B462046294600F04CFD0022CDE947
:102AB00000014FF080433046394600F08FFB02465C
:102AC0000B46DDE9000100F067FE424606460F4670
:102AD0004B462046294600F035FD42464B4600F065
:102AE0007FFB02460B463046394600F077FB224614
:102AF0002B4600F073FB02460B4600203F4900F0D6
:102B00006DFB8A44BAF5801F0246C0F22781534606
:102B1000DDE9040100F016FD03463EE4BCF1000FC0
:102B2000FFF66EAC0023194637E40B46334934E414
:102B300033461046314600F005FD03462DE4324B86
:102B400021F000449C4240F3FA80304B0B44034395
:102B50000CD132463B4600F041FB02460B46DDE914
:102B6000020100F06BFF00283FF4F6AE20A3D3E98A
:102B70000023DDE9040100F0E5FC1DA3D3E90023F7
:102B800000F0E0FC034608E4BCF1000FCADA23467B
:102B900005F1004101E402460B460020174900F010
:102BA000FBFD42E4AFF30080FE822B654715973CA6
:102BB00000000000432EE63FEF39FAFE422EE63FCA
:102BC000396CA80C615C20BED0A4BE726937663E29
:102BD000F16BD2C541BDBB3E2CDE25AF6A56113F1D
:102BE00093BDBE166CC1663F3E5555555555C53F04
:102BF00059F3F8C21F6EA5010000F0BF0000F03FBE
:102C0000FFFF8F40FFFF0F00FFCB904000346F3F6E
:102C1000634B9A4582DD634B9A453FF7EDAB00224B
:102C2000604B00F0DBFA54A3D3E9002306460F46BD
:102C300000F088FC52A3D3E90023CDE9000130461F
:102C4000394600F07FFC3246CDE902013B46304672
:102C5000394600F077FC002282468B4630463946E2
:102C6000514B00F06FFC02460B4647A1D1E9000131
:102C700000F0B4FA32463B4600F064FC02460B46D4
:102C800000204A4900F0AAFA02460B46504659462F
:102C900000F058FC3EA3D3E9002300F053FC0246A9
:102CA0000B46DDE9020100F099FA06460F46DDE920
:102CB000000132463B4600F093FADDE90023002094
:102CC00082468B4600F08AFA02460B463046394669
:102CD00000F084FACDE90201DDE50026B44637E4D0
:102CE000334600202F4900F057FD0346FFF755BB40
:102CF00029A3D3E90023DDE9040100F023FC26A386
:102D0000D3E9002300F01EFC0346FFF746BBB8F1F1
:102D1000010F03467FF441AB01F10041FFF73DBBDA
:102D200000297FF446ABC3F58263033347FA03F00F
:102D300000FA03F3BB4217D08846FFF710BB1B4BCA
:102D40009C423FF709AEDDE90023924693462EE60A
:102D50004FF480264FF0010CFFF7FABB5A4600F003
:102D6000BBF902460B46D3E600F00100C0F10208B1
:102D7000FFF7F5BAAFF30080000000604715F73F9A
:102D800044DF5DF80BAE543E555555555555D53F6E
:102D9000FE822B654715F73F9C7500883CE4377E23
:102DA000FEFFEF3F0000F03F0000D03F0000E03F9B
:102DB0002DE9F041604E0C46B6460E40764505467C
:102DC0000B4600F098800029024676DD5FEA215E1E
:102DD00000F08180AEF2FF3EC3F313031EF0010F3B
:102DE00043F480135ED100273C46D10F01EB43032F
:102DF0004FEA6E0E520016204FF4001165189D42E6
:102E00004FEAD2764FEA420202DC5B1B6C180F4499
:102E1000013806EB43034FEA5101EFD184462026E7
:102E20004FF000410AE0A34220D0D50F013E4FEA07
:102E3000510105EB43034FEA420220D09C420CEBC8
:102E40000105F0DA002D05EB010C09DBA0461B1B88
:102E5000954288BF03F1FF334446521B0844E4E720
:102E6000BCF1000FF2DB04F10108F0E7954217D83E
:102E7000002D05EB010C48DB98460023ECE71343DB
:102E800015D140087B1003F17F5303F50013FA07B7
:102E900003EB0E57394648BF40F00040BDE8F081D3
:102EA0001C46C2E7D10F01EB430352009BE7411CD4
:102EB00031D000F001031844E3E721F00046064357
:102EC000ECD079BB8E46D30AAEF1150E5205002B1D
:102ED000F9D0DC0222D400215B00D80201F101010B
:102EE000FAD5C1F10100C1F1200422FA04F4234310
:102EF00086448A406EE702460B4600F023FB2A46D2
:102F0000234600F06DF9BDE8F081BCF1000FAADAAC
:102F1000A0460023A0E701373046B3E72024012074
:102F20000021E2E702460B4600F058F902460B4644
:102F300000F032FCB2E700BF0000F07F21F000415A
:102F4000704700BF41F0004101F58010C00F70478D
:102F500010B431F0004408D0114BA1F580129A4210
:102F600008D804205DF8044B704718B902205DF8BA
:102F7000044B704701F1FF41094B01F5E001994213
:102F8000EFD9B4F5801F01D20320EBE7054B9C423B
:102F900001D00020E6E7B0FA80F04009E2E700BF88
:102FA000FFFFDF7F0000F07F002070470020014915
:102FB000704700BF0000F87FF0B5C1F30A5EAEF2C3
:102FC000FF35132D83B002460B460C464FEAD176EF
:102FD00007462EDC002D48DB3C49294101EA03006D
:102FE00010432BD049080B4053EA02070CD04FF492
:102FF0008023132D24EA010143FA05F444EA010475
:103000000CBF4FF0004700273149234601EBC606AD
:10301000D6E900453A462046294600F0E1F8CDE9D8
:103020000001DDE9000122462B4600F0D7F803B08D
:10303000F0BD332D06DDB5F5806F43D0104619463F
:1030400003B0F0BDAEF2134E4FF0FF3121FA0EF196
:103050000142F3D049080142D6D04FF0804320EA24
:10306000010143FA0EF70F43CEE721F0004101437F
:10307000E4D0C3F3130141EA000CCCF1000141EAB2
:103080000C0C13495C0C4FEA1C3C0CF4002C64043F
:1030900001EBC6014CEA0403D1E90045204629466C
:1030A00000F09EF8CDE90001DDE9000122462B4643
:1030B00000F094F8024621F0004141EAC673104640
:1030C0001946BDE700F08CF8BAE700BFFFFF0F001C
:1030D0007883000000000000F8B5C1F30A560446EA
:1030E0000D460B46174616BB21F00043034332D072
:1030F0000022314B00F026FA304A044697420D4632
:103100000B4637DB40F2FE72C1F30A56363E3E44B0
:10311000964215DD24A1D1E9000122462B4600F09C
:1031200051F821A3D3E9002300F00CFAF8BD40F2D6
:10313000FF72964224D040F2FE723E449642E9DC91
:10314000002E09DD23F0FF4323F4E00343EA065594
:1031500020462946F8BDF8BD16F1350F15DA4CF2B8
:1031600050339F42D6DC12A1D1E9000122462B4602
:1031700000F028F80EA3D3E9002300F0E3F9F8BD2E
:1031800002460B4600F02CF8F8BD23F0FF4323F471
:10319000E003363643EA0655204629460022084B0E
:1031A00000F0D0F9F8BD00BF9C7500883CE4377E84
:1031B00059F3F8C21F6EA50100005043B03CFFFF59
:1031C0000000903C03F0004321F0004243EA02017A
:1031D000704700BF81F0004102E000BF83F0004370
:1031E00030B54FEA41044FEA430594EA050F08BFA2
:1031F00090EA020F1FBF54EA000C55EA020C7FEA66
:10320000645C7FEA655C00F0E2804FEA5454D4EBE2
:103210005555B8BF6D420CDD2C4480EA020281EAAC
:10322000030382EA000083EA010180EA020281EAE4
:103230000303362D88BF30BD11F0004F4FEA013136
:103240004FF4801C4CEA113102D0404261EB410145
:1032500013F0004F4FEA03334CEA133302D05242CB
:1032600063EB430394EA050F00F0A780A4F1010487
:10327000D5F1200E0DDB02FA0EFC22FA05F28018C1
:1032800041F1000103FA0EF2801843FA05F35941A7
:103290000EE0A5F120050EF1200E012A03FA0EFC26
:1032A00028BF4CF0020C43FA05F3C01851EBE37150
:1032B00001F0004507D54FF0000EDCF1000C7EEB6D
:1032C00000006EEB0101B1F5801F1BD3B1F5001FAB
:1032D0000CD349085FEA30004FEA3C0C04F10104CA
:1032E0004FEA445212F5800F80F09A80BCF1004FF3
:1032F00008BF5FEA500C50F1000041EB045141EA75
:10330000050130BD5FEA4C0C404141EB010111F475
:10331000801FA4F10104E9D191F0000F04BF014620
:103320000020B1FA81F308BF2033A3F10B03B3F1FE
:1033300020020CDA0C3208DD02F1140CC2F10C028E
:1033400001FA0CF021FA02F10CE002F11402D8BFEC
:10335000C2F1200C01FA02F120FA0CFCDCBF41EAB8
:103360000C019040E41AA2BF01EB0451294330BD87
:103370006FEA04041F3C1CDA0C340EDC04F1140464
:10338000C4F1200220FA04F001FA02F340EA03003B
:1033900021FA04F345EA030130BDC4F10C04C4F181
:1033A000200220FA02F001FA04F340EA0300294661
:1033B00030BD21FA04F0294630BD94F0000F83F4AB
:1033C000801306BF81F480110134013D4EE77FEA8E
:1033D000645C18BF7FEA655C29D094EA050F08BFDA
:1033E00090EA020F05D054EA000C04BF19461046BB
:1033F00030BD91EA030F1EBF0021002030BD5FEAFF
:10340000545C05D14000494128BF41F0004130BD26
:1034100014F580043CBF01F5801130BD01F000457A
:1034200045F0FE4141F470014FF0000030BD7FEAED
:10343000645C1ABF194610467FEA655C1CBF0B46E8
:10344000024650EA013406BF52EA033591EA030FFF
:1034500041F4002130BD00BF90F0000F04BF0021F7
:10346000704730B54FF4806404F132044FF000052A
:103470004FF0000150E700BF90F0000F04BF0021A3
:10348000704730B54FF4806404F1320410F0004509
:1034900048BF40424FF000013EE700BF42004FEA04
:1034A000E2014FEA31014FEA02701FBF12F07F4381
:1034B00093F07F4F81F06051704792F0000F14BF7E
:1034C00093F07F4F704730B54FF4607401F00045C2
:1034D00021F0004120E700BF50EA010208BF704719
:1034E00030B54FF000050AE050EA010208BF70470E
:1034F00030B511F0004502D5404261EB41014FF477
:10350000806404F132045FEA915C3FF4DCAE4FF07A
:1035100003025FEADC0C18BF03325FEADC0C18BF61
:10352000033202EBDC02C2F1200300FA03FC20FAB2
:1035300002F001FA03FE40EA0E0021FA02F11444FF
:10354000C1E600BF70B54FF0FF0C4CF4E06C1CEA14
:1035500011541DBF1CEA135594EA0C0F95EA0C0F89
:1035600000F0DEF82C4481EA030621EA4C5123EAFC
:103570004C5350EA013518BF52EA033541F480112B
:1035800043F4801338D0A0FB02CE4FF00005E1FBDE
:1035900002E506F00042E0FB03E54FF00006E1FB28
:1035A00003569CF0000F18BF4EF0010EA4F1FF046B
:1035B000B6F5007F64F5407404D25FEA4E0E6D41AB
:1035C00046EB060642EAC62141EA55514FEAC520BC
:1035D00040EA5E504FEACE2EB4F1FD0C88BFBCF538
:1035E000E06F1ED8BEF1004F08BF5FEA500E50F1E9
:1035F000000041EB045170BD06F0004646EA0101AF
:1036000040EA020081EA0301B4EB5C04C2BFD4EBE0
:103610000C0541EA045170BD41F480114FF0000ED9
:10362000013C00F3AB8014F1360FDEBF002001F047
:10363000004170BDC4F10004203C35DA0C341BDCC1
:1036400004F11404C4F1200500FA05F320FA04F093
:1036500001FA05F240EA020001F0004221F00041C7
:1036600010EBD37021FA04F642EB06015EEA430E3A
:1036700008BF20EAD37070BDC4F10C04C4F120056A
:1036800000FA04F320FA05F001FA04F240EA02001D
:1036900001F0004110EBD37041F100015EEA430EEE
:1036A00008BF20EAD37070BDC4F1200500FA05F20E
:1036B0004EEA020E20FA04F301FA05F243EA02038D
:1036C00021FA04F001F0004121FA04F220EA02009C
:1036D00000EBD3705EEA430E08BF20EAD37070BDE2
:1036E00094F0000F0FD101F00046400041EB0101C2
:1036F00011F4801F08BF013CF7D041EA060195F0A4
:10370000000F18BF704703F00046520043EB03035D
:1037100013F4801F08BF013DF7D043EA060370474A
:1037200094EA0C0F0CEA135518BF95EA0C0F0CD055
:1037300050EA410618BF52EA4306D1D181EA03019B
:1037400001F000414FF0000070BD50EA410606BF95
:103750001046194652EA430619D094EA0C0F02D1DA
:1037600050EA013613D195EA0C0F05D152EA03361F
:103770001CBF104619460AD181EA030101F000413D
:1037800041F0FE4141F470014FF0000070BD41F086
:10379000FE4141F4780170BD70B54FF0FF0C4CF460
:1037A000E06C1CEA11541DBF1CEA135594EA0C0F7F
:1037B00095EA0C0F00F0A7F8A4EB050481EA030ECC
:1037C00052EA03354FEA013100F088804FEA0333B3
:1037D0004FF0805545EA131343EA12634FEA022281
:1037E00045EA111545EA10654FEA00260EF0004142
:1037F0009D4208BF964244F1FD0404F5407402D294
:103800005B084FEA3202B61A65EB03055B084FEA24
:1038100032024FF480104FF4002CB6EB020E75EB21
:10382000030E22BFB61A754640EA0C005B084FEA49
:103830003202B6EB020E75EB030E22BFB61A7546C6
:1038400040EA5C005B084FEA3202B6EB020E75EB11
:10385000030E22BFB61A754640EA9C005B084FEA89
:103860003202B6EB020E75EB030E22BFB61A754696
:1038700040EADC0055EA060E18D04FEA051545EA85
:1038800016754FEA06164FEAC30343EA52734FEA2E
:10389000C2025FEA1C1CC0D111F4801F0BD141EAA7
:1038A00000014FF000004FF0004CB6E711F4801F0C
:1038B00004BF01430020B4F1FD0C88BFBCF5E06FEC
:1038C0003FF6AFAEB5EB030C04BFB6EB020C5FEAFC
:1038D000500C50F1000041EB045170BD0EF0004E51
:1038E0004EEA113114EB5C04C2BFD4EB0C0541EA83
:1038F000045170BD41F480114FF0000E013C90E680
:1039000045EA060E8DE60CEA135594EA0C0F08BF43
:1039100095EA0C0F3FF43BAF94EA0C0F0AD150EA42
:1039200001347FF434AF95EA0C0F7FF425AF1046D5
:1039300019462CE795EA0C0F06D152EA03353FF4FD
:10394000FDAE1046194622E750EA410618BF52EA7A
:1039500043067FF4C5AE50EA41047FF40DAF52EA4E
:1039600043057FF4EBAE12E74FF0FF3C06E000BFEB
:103970004FF0010C02E000BF4FF0010C4DF804CDF8
:103980004FEA410C7FEA6C5C4FEA430C18BF7FEAB8
:103990006C5C1BD001B050EA410C0CBF52EA430CE6
:1039A00091EA030F02BF90EA020F0020704710F166
:1039B000000F91EA030F58BF994208BF90422CBFF5
:1039C000D8176FEAE37040F0010070474FEA410CEE
:1039D0007FEA6C5C02D150EA013C07D14FEA430C0C
:1039E0007FEA6C5CD6D152EA033CD3D05DF8040B7D
:1039F000704700BF8446104662468C4619466346AF
:103A000000E000BF01B5FFF7B7FF002848BF10F185
:103A1000000F01BD4DF808EDFFF7F4FF0CBF0120CA
:103A200000205DF808FB00BF4DF808EDFFF7EAFF46
:103A300034BF012000205DF808FB00BF4DF808ED01
:103A4000FFF7E0FF94BF012000205DF808FB00BFF6
:103A50004DF808EDFFF7CEFF94BF012000205DF880
:103A600008FB00BF4DF808EDFFF7C4FF34BF01208D
:103A700000205DF808FB00BF4FEA4102B2F1E043CD
:103A800024BFB3F5001CDCF1FE5C0DD901F0004C45
:103A90004FEAC0024CEA5070B2F1004F40EB830095
:103AA00008BF20F00100704711F0804F21D113F1C1
:103AB0003872BCBF01F00040704741F480114FEAFA
:103AC0005252C2F11802C2F1200C10FA0CF320FA83
:103AD00002F018BF40F001004FEAC1234FEAD323A0
:103AE00003FA0CFC40EA0C0023FA02F34FEA43030A
:103AF000CCE77FEA625307D150EA01331EBF4FF093
:103B0000FE4040F44000704701F0004040F0FE40AD
:103B100040F40000704700BF80F0004002E000BFAA
:103B200081F0004142001FBF5FEA410392EA030FA8
:103B30007FEA226C7FEA236C6AD04FEA1262D2EBF2
:103B40001363C1BFD218414048404140B8BF5B42F7
:103B5000192B88BF704710F0004F40F4000020F090
:103B60007F4018BF404211F0004F41F4000121F0A6
:103B70007F4118BF494292EA030F3FD0A2F10102F0
:103B800041FA03FC10EB0C00C3F1200301FA03F12E
:103B900000F0004302D5494260EB4000B0F5000F51
:103BA00013D3B0F1807F06D340084FEA310102F110
:103BB0000102FE2A51D2B1F1004F40EBC25008BFC2
:103BC00020F0010040EA03007047490040EB00008C
:103BD00010F4000FA2F10102EDD1B0FA80FCACF1BB
:103BE000080CB2EB0C0200FA0CF0AABF00EBC250BA
:103BF00052421843BCBFD0401843704792F0000FA8
:103C000081F4000106BF80F400000132013BB5E7FA
:103C10004FEA41037FEA226C18BF7FEA236C21D070
:103C200092EA030F04D092F0000F08BF08467047D5
:103C300090EA010F1CBF0020704712F07F4F04D1A3
:103C4000400028BF40F00040704712F100723CBFB6
:103C500000F50000704700F0004343F0FE4040F4E0
:103C6000000070477FEA226216BF08467FEA23639E
:103C70000146420206BF5FEA412390EA010F40F489
:103C8000800070474FF0000304E000BF10F00043D5
:103C900048BF40425FEA000C08BF704743F09643BC
:103CA00001464FF000001CE050EA010208BF7047D7
:103CB0004FF000030AE000BF50EA010208BF70475E
:103CC00011F0004302D5404261EB41015FEA010C73
:103CD00002BF84460146002043F0B64308BFA3F16B
:103CE0008053A3F50003BCFA8CF2083AA3EBC2534D
:103CF00010DB01FA02FC634400FA02FCC2F120026C
:103D0000BCF1004F20FA02F243EB020008BF20F0A2
:103D10000100704702F1200201FA02FCC2F1200208
:103D200050EA4C0021FA02F243EB020008BF20EAFD
:103D3000DC7070474FF0FF0C1CEAD0521EBF1CEA2B
:103D4000D15392EA0C0F93EA0C0F6FD01A4480EA19
:103D5000010C400218BF5FEA41211ED04FF0006302
:103D600043EA501043EA5111A0FB01310CF000402E
:103D7000B1F5000F3EBF490041EAD3715B0040EA54
:103D8000010062F17F02FD2A1DD8B3F1004F40EB24
:103D9000C25008BF20F00100704790F0000F0CF0F7
:103DA000004C08BF49024CEA502040EA51207F3ABB
:103DB000C2BFD2F1FF0340EAC250704740F4000096
:103DC0004FF00003013A5DDC12F1190FDCBF00F087
:103DD00000407047C2F10002410021FA02F1C2F135
:103DE000200200FA02FC5FEA310040F1000053EAD1
:103DF0004C0308BF20EADC70704792F0000F00F01F
:103E0000004C02BF400010F4000F013AF9D040EA24
:103E10000C0093F0000F01F0004C02BF490011F4B8
:103E2000000F013BF9D041EA0C018FE70CEAD153B6
:103E300092EA0C0F18BF93EA0C0F0AD030F0004C36
:103E400018BF31F0004CD8D180EA010000F00040EA
:103E5000704790F0000F17BF90F0004F084691F0A8
:103E6000000F91F0004F14D092EA0C0F01D14202E2
:103E70000FD193EA0C0F03D14B0218BF084608D1AB
:103E800080EA010000F0004040F0FE4040F40000F5
:103E9000704740F0FE4040F4400070474FF0FF0C88
:103EA0001CEAD0521EBF1CEAD15392EA0C0F93EACF
:103EB0000C0F69D0A2EB030280EA010C49024FEA21
:103EC000402037D04FF0805343EA111143EA1013DA
:103ED0000CF000408B4238BF5B0042F17D024FF492
:103EE000000C8B4224BF5B1A40EA0C00B3EB510F6D
:103EF00024BFA3EB510340EA5C00B3EB910F24BF56
:103F0000A3EB910340EA9C00B3EBD10F24BFA3EBDA
:103F1000D10340EADC001B0118BF5FEA1C1CE0D1A2
:103F2000FD2A3FF650AF8B4240EBC25008BF20F055
:103F3000010070470CF0004C4CEA50207F32C2BFA9
:103F4000D2F1FF0340EAC250704740F400004FF046
:103F50000003013A37E792F0000F00F0004C02BF77
:103F6000400010F4000F013AF9D040EA0C0093F041
:103F7000000F01F0004C02BF490011F4000F013B9B
:103F8000F9D041EA0C0195E70CEAD15392EA0C0F03
:103F900008D142027FF47DAF93EA0C0F7FF470AF3B
:103FA000084676E793EA0C0F04D14B023FF44CAF7E
:103FB00008466EE730F0004C18BF31F0004CCAD113
:103FC00030F000427FF45CAF31F000437FF43CAF4F
:103FD0005FE700BF4FF0FF3C06E000BF4FF0010C71
:103FE00002E000BF4FF0010C4DF804CD4FEA400253
:103FF0004FEA41037FEA226C18BF7FEA236C11D09D
:1040000001B052EA530C18BF90EA010F58BFB2EB4F
:10401000030088BFC81738BF6FEAE17018BF40F0CF
:10402000010070477FEA226C02D15FEA402C05D183
:104030007FEA236CE4D15FEA412CE1D05DF8040B08
:10404000704700BF844608466146FFE70FB5FFF79B
:10405000C9FF002848BF10F1000F0FBD4DF808ED53
:10406000FFF7F4FF0CBF012000205DF808FB00BF44
:104070004DF808EDFFF7EAFF34BF012000205DF89E
:1040800008FB00BF4DF808EDFFF7E0FF94BF0120EB
:1040900000205DF808FB00BF4DF808EDFFF7D2FFE8
:1040A00094BF012000205DF808FB00BF4DF808ED2B
:1040B000FFF7C8FF34BF012000205DF808FB00BFF8
:1040C00042000ED2B2F1FE4F0BD34FF09E03B3EB82
:1040D000126209D44FEA002343F0004323FA02F0AE
:1040E00070474FF00000704712F1610F01D142029A
:1040F00002D14FF0FF3070474FF00000704700BF13
:10410000002101F0AFBB0000014B1868704700BFF1
:10411000B0000020024B0146186800F05BB800BFF9
:10412000B000002010B5431E0A44914204D011F89B
:10413000014B03F8014FF8E710BD034602449342D8
:1041400002D003F8011BFAE77047000030B50029E0
:104150003CD051F8042C0B1F1D49002AB8BF9B18F6
:104160000A680C4612B95A600B6030BD93420DD2FA
:1041700019685818904201BF5A5852181A6042687C
:1041800023605A6030BD994203D80A46516800291D
:10419000F9D1146815199D420AD11B682344D0181F
:1041A0008842136012D10868034413604B680CE026
:1041B00002D90C23036030BD1C681819884201BF66
:1041C00008684968001918605960536030BD00BF25
:1041D0008401002070B5CC1C24F0030408340C2C9E
:1041E00038BF0C24002C064603DA0C233360002071
:1041F00070BD8C42F9D3204A136810461946A1B10C
:104200000A68121B0ED40B2A03D90A608B188C5033
:104210001FE08B420BBF5A684A6802605A6018BFA1
:104220000B4616E00B464968E9E7144D2B681BB9AD
:10423000304600F091FC28603046214600F08CFCAE
:10424000421C0346D1D0C51C25F0030585420AD186
:104250001C6003F10B001A1D20F00700821A0AD01F
:104260005142995070BD3046E91A00F075FC01309A
:10427000BBD02B46ECE770BD8401002080010020FC
:104280002DE9F0471E4688B0149F002BB8BF06F1F9
:104290000043129927F02007B6BF1E4600232D23A6
:1042A000462F1446109DDDF84CA00B7003D0452F0F
:1042B00003D1013501E0032300E002238DE8280447
:1042C00006AB039307AB04932246334601F0C0FBD1
:1042D000472F804602D1119BDB0726D5462F08EBDE
:1042E000050911D198F80030302B0AD1204631460B
:1042F00000220023FFF78EFB18B9C5F10105CAF8AB
:104300000050DAF80030994420463146002200235C
:10431000FFF780FB08B1CDF81C90079B4B4504D2FA
:104320005A1C079230221A70F7E74046079B159AED
:10433000C8EB0303136008B0BDE8F087034673B50C
:104340000029B8BF494203F8022BB4BF2D222B220B
:10435000092942701ADD0DF1070426460A2291FB55
:10436000F2F502FB1511092D01F1300104F8011DD0
:104370002946F3DC3031651E04F8011CB5421A46AB
:104380000AD215F8012B03F8012BF7E71A4630245F
:10439000214402F8024B5970101A02B070BD00009F
:1043A0002DE9F04F91B08B4615461E461A9F0446E4
:1043B00002F014FCD0F800A0504600F0DDFB002312
:1043C0000E933B680990073323F0070303F10802BB
:1043D0009BF818803A60D3E90023CBE91223DBE98C
:1043E0001201FEF7B5FD0128DBE9120119D1002207
:1043F0000023FFF719FB10B12D238BF84330A04B9E
:10440000A04FB8F1470F88BF1F460323CBF81030E9
:10441000DBF8003023F00403CBF800304FF0000944
:10442000A1E0FEF795FDDBF8003048B9964A974FBA
:10443000B8F1470F88BF17460322CBF81020E9E7F1
:10444000DBF80420DBE91201571CCDE90A0101D198
:10445000062209E0B8F1670F02D0B8F1470F05D185
:10446000002A40F0C7810122CBF80420DBF80420A9
:1044700043F480638DE80C00CBF800300DF133037A
:1044800002930DAB03930EAB059300230693CDF877
:104490001080DDE90A232046FFF7F2FE08F0DF0373
:1044A000472B07460AD10D9BD81C03DBDBF8042001
:1044B000934237DDA8F102085FFA88F8B8F1650F7A
:1044C0000D9915D8013942460BF150000D91FFF7B7
:1044D00035FF0E9A81468318012ACBF8103003DC91
:1044E000DBF80020D10738D50133CBF8103034E0A9
:1044F000B8F1660F18D10029DBF8043009DDCBF8DC
:1045000010101BB9DBF80020D20721D501330B4472
:104510001CE01BB9DBF80020D00701D5023315E001
:10452000012313E04FF067080D9B0E9A934207DBBF
:10453000DBF80020CBF81030D10709D5013305E0B6
:10454000002BD4BFC3F1020301231344CBF8103076
:104550000D9B4FF00009CBF858309DF8333013B164
:104560002D238BF843300096204659460FAA2B4640
:1045700000F05CF9013002D14FF0FF3052E1DBF87E
:1045800000305A0505D4204629463A46DBF810305B
:1045900008E1B8F1650F40F2D080DBE9120100229A
:1045A0000023FFF737FA50B320462946384A012343
:1045B000B0470130E0D00E9B0D9A9A4209DBDBF840
:1045C0000030D80705D4DBF800309F0700F11081D8
:1045D00007E1204629465246099BB0470130CBD01F
:1045E00000270E9B013B9F42EDDA204629460BF146
:1045F0001A020123B0470130BED00137F1E70D9B0D
:10460000002B29DC20462946214A0123B0470130EE
:10461000B2D00D9B2BB90E9B1BB9DBF80030D9072C
:10462000D1D5204629465246099BB0470130A3D038
:104630004FF000080D9B20465B429845294608DA5A
:104640000BF11A020123B047013095D008F101089F
:10465000F0E73A460E9BA5E0DBF858200E9B9A4205
:10466000A8BF1A46002A914602DC4FF000081CE061
:10467000204629463A464B46B0470130F5D17BE704
:104680008E8300008A8300009683000092830000DE
:104690009A830000204629460BF11A020123B047F5
:1046A00001303FF469AF08F10108DBF85830B9F187
:1046B000000FB4BF1A46C9EB03029045EADB07EBD3
:1046C00003080D9A0E9B9A4210DBDBF80030DA07E4
:1046D0000CD40E9A1744C8EB07030D9FD21B9342CC
:1046E000A8BF1346002B1F4608DC0EE020462946D3
:1046F0005246099BB0470130EBD13DE720462946A1
:104700004246B04701303FF437AF4FF000080AE0AF
:10471000204629460BF11A020123B04701303FF42D
:104720002BAF08F101080D9A0E9B002FA3EB02039B
:10473000A8BFDB1B9845EBDB45E70E9A012A01DC9D
:10474000DB0736D5204629463A460123B0470130DB
:104750003FF412AF204629465246099BB04701302C
:104760003FF40AAFDBE9120100220023FFF752F900
:10477000E8B90E9B204629467A1C013B1DE02046E5
:1047800029460BF11A020123B04701303FF4F4AE81
:1047900001370E9B013B9F42F1DB204629464B46E9
:1047A0000BF15002B04701307FF40DAFE4E6002773
:1047B000EFE7204629463A460123B0470130ECD1C5
:1047C000DAE6204629460BF119020123B0470130F1
:1047D0003FF4D2AE0137DBF80C300F9A9B1A9F42A0
:1047E000EFDBDBF80C000F9B9842B8BF184619E0CE
:1047F0000027F0E743F480638DE80C00CBF800302D
:104800000DF1330302930DAB03930EAB059300231D
:104810000693CDF810802046DDE90A23FFF730FD2E
:10482000074640E611B0BDE8F08F00BF2DE9F84320
:1048300091461F468A680B6906469342B8BF1346E5
:10484000C9F8003091F843200C46DDF8208012B101
:104850000133C9F800302368990642BFD9F8003007
:104860000233C9F80030256815F006051CD094F80D
:1048700043302268003318BF012392061FD5E11888
:10488000302081F843005A1C94F84510224402332A
:1048900082F8431013E03046394604F1190201232F
:1048A000C047013007D00135E368D9F800209B1AD2
:1048B0009D42F0DBDBE74FF0FF30BDE8F883304688
:1048C000394604F14302C0470130F4D02268D9F8D8
:1048D0000050E36802F00602042A08BF5D1B22694B
:1048E000A3680CBF25EAE57500259342C4BF9B1A57
:1048F000ED184FF00009A9450ADA3046394604F1AF
:104900001A020123C0470130D5D009F10109F2E7AD
:104910000020BDE8F88300002DE9FF410C46174652
:10492000227E98466E2A06460A9B01F1430100F05A
:10493000B08012D8632A23D00AD8002A00F0BD80A4
:10494000582A40F0CC8084F84520DFF804E257E094
:10495000642A1ED0692A1CD0C1E0732A00F0B180FD
:1049600009D86F2A2ED0702A40F0B980226842F010
:10497000200222603FE0752A24D0782A3BD0AEE0A6
:104980001A6804F14205111D1960136884F8423059
:10499000A9E020681A6810F0800F02D0101D18607E
:1049A00008E010F0400F02F10400186002D0B2F9E4
:1049B000003000E01368002B3EDA2D225B4284F8C1
:1049C000432039E020681A6810F0800F02D0101DD3
:1049D000186007E010F0400F02F10400186001D0E9
:1049E000138800E01368227EDFF864E16F2A0CBFB1
:1049F00008220A221CE07822DFF858E184F84520DA
:104A00002268186812F0800F00F104051D6003D1C0
:104A1000550601D5038800E00368D00744BF42F083
:104A2000200222601BB9226822F02002226010229C
:104A3000002084F8430002E0DFF814E10A226568F0
:104A4000002DA8BF2068A560A4BF20F0040020604E
:104A500003B965B10D46B3FBF2F002FB10331EF84B
:104A6000033005F8013D03460028F4D100E00D466F
:104A7000082A0BD12368DA0708D5236962689A42AD
:104A8000DEBF302305F8013C05F1FF35491B2161EC
:104A90002EE025681A6815F0800F606903D0151D97
:104AA0001D60136808E015F0400F02F104051D6059
:104AB000136801D0188000E01860002323610D46C0
:104AC00016E01A68111D19601568002128466268F1
:104AD00002F088F808B1401B6060636804E004F1EC
:104AE000420584F8422001232361002384F84330E7
:104AF000CDF800803046214603AA3B46FFF796FEDC
:104B0000013002D14FF0FF301FE0304639462A46CF
:104B10002369C0470130F5D023689B0705D4E068BE
:104B2000039B9842B8BF18460FE00025E368039A3C
:104B30009B1A9D42F3DA3046394604F119020123EB
:104B4000C0470130DED00135F0E704B0BDE8F081A8
:104B50009C830000AD83000038B5064C0023054659
:104B600008462360FBF7F6FB431C02D1236803B120
:104B70002B6038BD88010020034613F8012B002A62
:104B8000FBD1181A0138704770B5A2B1451E013922
:104B90006B7811F8014F6E1CA34206D16FF001042F
:104BA000641B1444E04202D11C46181B70BD3546FC
:104BB000002BEDD1F8E7104670BD30B5036811F851
:104BC000014B01334CB11A78A2F14105192D98BF60
:104BD0002032A242F3D0002030BD0360012030BD5E
:104BE0002DE9F0410F46904602F0D6FA04460D46F4
:104BF000B8F1000F11D0C7F30A53C3F16B03002BB8
:104C00000BDD1B0503F17F55002405F540152246F9
:104C10002B46FEF797FCBDE8F08120462946BDE80B
:104C2000F0810000000000002DE9F04F00239FB04C
:104C30001A9382460B46039115924FF000084FF0ED
:104C400000091993199B1A780D2A05D8092A13D23D
:104C5000002A00F0B78111E02B2A06D02D2A02D0BD
:104C6000202A0BD108E0012200E0002209925A1C00
:104C700019925B7823B9A5E10133E2E70023099398
:104C8000199C2378302B5CD16378582B01D0782B7A
:104C90004CD11AAB0093099B5046019319A9AE4A17
:104CA0001BAB01F0DAFC10F00706054600F0A58505
:104CB000062E05D1013400231994099300F09DBDFF
:104CC0001A9A3AB11CA8352102F053FB50461A99A2
:104CD00001F0CBFF1B9A062E21D8DFE806F0040D69
:104CE00008171C0D04004FF00009C84617E0DDF856
:104CF0007080DDF8749012E01D9B02F2334223F4C1
:104D00008013DDF8708043EA025908E0DFF84C9226
:104D10004FF0000803E06FF000494FF0FF3829071B
:104D200040F16B8549F0004900F067BD199B5A1CA2
:104D300019925B78302BF9D0002B00F05E850123AF
:104D400000E000230026B34635460493199B0793E1
:104D5000199C2778A7F13003DAB2092A0CD8082D5C
:104D60004FF00A0204F10104D4BF02FB0B3B02FB2B
:104D7000063601351994EBE7504601F02FFF016824
:104D80005046059101F02AFF0068FFF7F5FE0599EE
:104D900002462046FFF7F8FE28B100203B462C468D
:104DA0000246074657E00590504601F017FF00689D
:104DB000FFF7E2FE199B05991A1819921B5C002D4A
:104DC00041D12846302B05D1199B01305A1C19922C
:104DD0005B78F7E7A3F13102082A42D8199A0792C3
:104DE000024600200446303B00F1010125D00A4470
:104DF00021460719B94211D0013101F1FF3EBEF140
:104E0000080F04DC4FF00A0E0EFB0BFBF2E7102933
:104E1000DCBF4FF00A0E0EFB06F6EBE72044082835
:104E200000F1010403DC0A2101FB0B3B04E0102C20
:104E3000DCBF0A2101FB06360021199B581C199082
:104E40005B78084602E02C4608460A46A3F130018A
:104E50000929C8D90127652B01D0452B64D16CB92C
:104E600004E0652B40F0D7840022012728B9049B79
:104E7000002B00F0A780044600E00024199B039358
:104E800001331993039B5B782B2B07D02D2B02D07A
:104E90004FF0000C09E04FF0010C01E04FF0000C66
:104EA000039B02331993039B9B78A3F130010929DB
:104EB00038D81946302904D1199B591C19915978B1
:104EC000F8E7A1F1310EBEF1080F0B462CD8A1F185
:104ED00030030593199B0693199B03F1010ECDF83E
:104EE00064E05B78A3F13001092908D805994FF0F7
:104EF0000A0E0EFB0131A1F130030593ECE7069990
:104F0000C1EB0E0EBEF1080F44F61F6E04DC0599CE
:104F10007145A8BF714600E07146BCF1000F04D096
:104F2000494202E0039919910021002C54D1002834
:104F300040F06384049A002A40F05F84002F41D13E
:104F40004E2B20D002DC492B0AD03BE0692B07D046
:104F50006E2B18D036E000BF008400000000F07F08
:104F600019A8AA49FFF729FE60B3199B19A8013BAC
:104F7000A7491993FFF721FE10B9199B0133199323
:104F8000DFF8A4921AE019A8A249FFF716FEC8B1EB
:104F9000199B1B78282B0FD119A89F491CAA01F037
:104FA00093FD052808D11D9BDDF8708043F0FF4973
:104FB00049F4E00900F021BCDFF870924FF00008DE
:104FC00000F01BBC039B1993159B002B00F0208461
:104FD0000023099300F013BC8B1A06932B46002D77
:104FE00008BF23465846102C25460393A8BF10251A
:104FF000FEF732FA092D8046894613DD874B03EB15
:10500000C50353E91223FEF79DFA804630468946D0
:10501000FEF722FA02460B4640464946FEF7E0F804
:10502000804689460F2C36DC069B002B00F0E5837A
:1050300024DD162B07DC794A02EBC302D2E900011A
:105040004B46424615E0069AC4F125039A4222DCFB
:10505000724DC4F10F0405EBC403D3E900014246CD
:105060004B46FEF76FFA069B1C1B05EBC405D5E902
:105070000023FEF767FA80468946BEE3069B13F1DC
:10508000160F08DB654A4046A2EBC30249460CCA2C
:10509000FEF782FBEFE7069B651B1D44002D58DDE4
:1050A00015F00F020AD05D4B03EBC203D3E90001F8
:1050B00042464B46FEF746FA8046894635F00F05D4
:1050C00000F0BA80B5F59A7F0FDD4FF0000BCDF8F8
:1050D0000CB0CDF81CB0CDF814B02223CAF80030C3
:1050E000DFF844914FF0000883E14946DFF8409132
:1050F00040464E462D110027012D0ADDEA0703D553
:10510000D9E90023FEF71EFA01376D1009F10809ED
:10511000F2E78046A1F1547906EBC7064246D6E98C
:1051200000014B46FEF70EFA21F0004389460A467D
:105130001B0D3B491B058B428046C6D8A1F580114B
:105140008B4286BFDFF8EC904FF0FF3802F15479C4
:1051500072E071D06D4215F00F020AD02F4B40461D
:1051600003EBC2034946D3E90023FEF715FB804653
:1051700089462D1160D01F2D08DD4FF0000BCDF8B2
:105180000CB0CDF81CB0CDF814B02BE14046494628
:1051900015F0100F0CBF00236A23224E0493002D3C
:1051A00008DDEB0703D5D6E90023FEF7CBF96D1038
:1051B0000836F4E7049B80468946EBB1C1F30A53F5
:1051C000C3F16B03002B0A4616DD1F2B0EDD342BBB
:1051D000DEBF203B4FF0FF3101FA03F34FF0000830
:1051E000CCBF4FF05C7903EA020905E04FF0FF32D3
:1051F00002FA03F303EA000840464946002200236E
:10520000FEF708FC0028B8D118E000BF8F8300002B
:105210001784000097830000C083000030840000E2
:105220000000A07CD88300000000F07F0000F8FFA1
:10523000F8840000FFFFEF7F00230493CDF800B057
:1052400050460799039A234601F064FD0790002811
:105250003FF43BAF069A069B002AC3F100034FF0D0
:10526000000BA8BF00230E93CDF80CB0079B50464F
:10527000596801F0C5FC059000283FF42EAF079B4C
:105280000C301A69079B023203F10C019200FEF701
:1052900049FF1BAB00931CAB0193504642464B4663
:1052A000CDE90A8901F0EBFF1A9000283FF415AF11
:1052B0005046012101F0BBFD039000283FF40DAFE3
:1052C000069B049923EAE3771B9B1C9C002BAABF37
:1052D0000E9AFA1AD618A3EB010323446FF47F71D8
:1052E000ACBF3A460E9E8B42C4F1360480F28680F3
:1052F000C91A1F29A4EB0104C8BFB3494FF001002C
:10530000D5BF00FA01F3C91A149300FA01F3D9BF0B
:1053100000230F930F9314903519049BB542144446
:105320001C442B46A8BF3346A342A8BF2346002BEC
:10533000C2BFED1AE41AF61A0E9B002B63D1002DA2
:105340007BDC002F40F08380002C00F38A80002E4D
:1053500000F3918050461A99059A01F0BEFE8346EB
:1053600000283FF4BAAEC3680024C46003990893D0
:1053700001F097FEA04280F28D80089B002B40F048
:105380001582B8F1000F40F01182C9F31303002B0E
:1053900040F00C8229F000431B0D1B05B3F1D66FC2
:1053A00040F20482DBF81430002B6ED05946012203
:1053B000504601F023FE0399834601F072FE002857
:1053C00040F3F48129F00043049A1B0D1B05002AC9
:1053D00000F08F80B3F1D66F00F38B80B3F15C7F68
:1053E00000F3E68122234FF000084FF00009CAF8CD
:1053F0000030079B002B40F0EC81FEE100230F936F
:105400000123149388E71A465046039901F0A8FD3A
:105410000390034600283FF460AE504619461A9A9E
:1054200001F00EFD089000283FF457AE50461A993F
:1054300001F01BFC089B1A9381E750461A992A46F3
:1054400001F0DCFD1A9000287FF47BAF45E6504662
:1054500005993A4601F084FD059000287FF474AF69
:105460003BE650460599224601F0C8FD059000280C
:105470007FF46DAF31E650460399324601F0BEFD30
:10548000039000287FF466AF27E6DBF81030012B8D
:105490008CDC8BE162D1089AC9F3130322B34B4928
:1054A0004A468B422ED1049B414663B1484B134080
:1054B000B3F1D46F07D81B0DC3F16B034FF0FF306E
:1054C00000FA03F301E04FF0FF3399421AD1414B48
:1054D0009A4202D101313FF400AE3D4B4FF000083B
:1054E000134003F5801961E163B9B8F1000F09D1E8
:1054F00068E7A3F580136FEA13594FF0FF386FEA9E
:10550000095953E10F9B13B113EA090F02E0149BF1
:1055100013EA080F00F04A81089B40464946049A66
:1055200053B1FFF75DFB02460B46DDE90A01FDF7CB
:1055300057FE8046894639E1FFF752FB02460B468B
:10554000DDE90A01FDF74AFE002200238046894674
:10555000FEF760FA00287FF445AF27E1584603992B
:1055600001F0DFFE00224FF0804306460F46FEF7B3
:1055700065FA00283FD0089B13B10026164F10E0B3
:10558000B8F1000F03D1C9F313033BB90BE0B8F135
:10559000010F03D1B9F1000F3FF424AF0F4F0026E4
:1055A00000240D4D3CE03046394600220A4BFEF700
:1055B0003BFAB8B9304639460022094BFDF7C2FF25
:1055C00004460D4610E000BFE3FBFFFFFFFF0F00A6
:1055D0000000F07FFFFFEF7F0000F03F0000F0BF12
:1055E0000000E03F089C9A4D05F100431694179384
:1055F000DDE9166714E0964B304639460022FDF788
:10560000A1FF089B04460D4623B901F10043109009
:10561000119303E002460B46CDE91023DDE9106744
:1056200029F0004C4FEA1C5C8A4B4FEA0C5C9C450D
:1056300031D1DDE90A23A9F1547940464946CDF834
:105640003CC0CDE90C2301F0A7FD02460B463046D5
:105650003946FDF777FF02460B4640464946FDF7BF
:10566000BFFD21F000431B0D7B4A1B059342804682
:10567000DDF83CC00CD9794B0D9A9A4203D10C9BB2
:1056800001333FF42AADDFF8D4914FF0FF387CE0CE
:1056900001F1547944E0049B63B3BCF1D46F29D881
:1056A00063A3D3E9002320462946CDF83CC0FEF78A
:1056B000C5F9DDF83CC0C8B12946204602F062F8C1
:1056C000002808BF0120FDF7C7FE089B04460D46D1
:1056D000DDF83CC023B901F100431290139303E0BD
:1056E00002460B46CDE91223DDE9126707F1D663C6
:1056F000CCEB0307DDE90A01CDF83CC001F04CFD1D
:1057000002460B4630463946FDF71CFF02460B4663
:10571000DDE90A01FDF764FD80468946DDF83CC0FD
:10572000049B4E468BBB29F000431B0D1B059C457B
:105730002BD12946204601F0FDFFFDF79DFE0B46CB
:10574000024629462046FDF749FD089B04460D46C2
:105750002BB9B8F1000F02D1C9F313067EB136A3FD
:10576000D3E9002320462946FEF75EF988BB34A31F
:10577000D3E9002320462946FEF774F904E032A35A
:10578000D3E90023FEF750F918BB50461A9901F0EF
:105790006CFA5046059901F068FA5046039901F0F9
:1057A00064FA5046594601F060FA5FE5049B83B104
:1057B0002B4B40460D9300230C934946DDE90C2307
:1057C000FDF7C0FE8046894619B910B92223CAF8F0
:1057D000003050461A9901F048FA5046059901F0F8
:1057E00044FA5046039901F040FA5046079901F0F7
:1057F0003CFA5046594601F038FA159B13B1199BF3
:10580000159A1360099B1BB1424609F1004307E05A
:1058100042464B4604E0002422460127FFF71DBB09
:10582000104619461FB0BDE8F08F00BFAFF30080EF
:105830000000C0FFFFFFDF419535A094FFFFDF3F71
:1058400035E5AF350000E03F9535A094FFFFCF3F31
:105850000000E03F0000E07FFFFF9F7CFFFFEF7F45
:105860000000503903460A46024908681946FFF706
:10587000DBB900BFB000002030B5141E9BB0054658
:1058800004DA8B2303604FF0FF301CE04FF4027208
:10589000ADF80C200CBF224604F1FF3202920592B3
:1058A0004FF6FF7200910491ADF80E2069461A463A
:1058B0001E9B01F001FE431CBCBF8B232B6014B167
:1058C000009B00221A701BB030BD000073B5064665
:1058D0000D4614460093044B314618682A46234669
:1058E000FFF7CAFF02B070BDB000002010B59AB03B
:1058F000009104916FF00041029105914FF6FF7104
:105900004FF40274ADF80E106946ADF80C4001F08A
:10591000D3FD009B00221A701AB010BD30B50546A9
:105920000C461346034A294610682246BDE830401B
:10593000FFF7DCBFB00000202DE9F74F03690C69C9
:105940008046A3427EDB013C01F114074FEA840E3E
:1059500000F1140606EB0E0357F82450019356F895
:1059600024300135B3FBF5F507EB0E09BDB34FF05D
:10597000000A3846B446D34650F8043B9AB21B0C92
:1059800002FB05A26B4303EB124392B2C2EB0B0B7B
:10599000BCF800204FEA134A5A441FFA83FBDCF894
:1059A00000304845CBEB134303EB224392B242EA6B
:1059B00003424FEA234B4CF8042BDDD956F80E3046
:1059C0006BB9019B043BB3421A4602D8C8F8104099
:1059D00005E01268043B002AF8D1013CF3E7404699
:1059E00001F05FFB00282BDB304601354FF0000E45
:1059F00057F8042B036891B2C1EB0E0E120C99B24A
:105A00007144C2EB134303EB214389B24FEA234EA7
:105A10004F4541EA034340F8043BE9D956F82420B6
:105A200006EB840362B9043BB3421A4602D8C8F8B5
:105A3000104005E01268043B002AF8D1013CF3E76E
:105A4000284600E0002003B0BDE8F08F0000000011
:105A50002DE9F04F456A95B08246219CCDE902239D
:105A600045B91020FEF756FBCAF824004560856052
:105A70000560C560DAF82430196859B15A68012305
:105A800093404A608B60504601F0EFF8DAF824301A
:105A900000221A60039BA24A002BBDBF0123236092
:105AA000039B0023BCBF23F000430393039FA8BFC5
:105AB000236027F000431B0D1B0593421DD142F2CA
:105AC0000F73209A1360029B43B9964A964BC7F313
:105AD0001300002814BF1846104600E09248229B8D
